:100000000C942F120D942D110D945E110D948F11DF
:100010000D94C0110D94F1110D9422120D945312F0
:100020000D9484120C945C120C945C120C945C126F
:100030000C945C120C945C120C945C120C944CBAF0
:100040000C945C120C945C120C945C120C945C1278
:100050000C945C120C945C120C945C120D94B5120E
:100060000C945C120C94D71A0C94171B0C945C1211
:100070000C945C120C945C120C945C120C945C1248
:100080000C945C120C945C120C945C120C945C1238
:100090000C94691B0C94A91B0C945C120C9437C72C
:1000A0000C945C120C9479BA0C945C120C945C1253
:1000B0000C945C120C945C120C94A6BA0C945C1216
:1000C0000C945C120C945C120C945C120C945C12F8
:1000D0000C945C120C945C120C94FB1B0C943B1C57
:1000E0000C945C124A6363636B6352635B63736378
:1000F000CF63A863A0639063B063B863C063C86351
:1001000080638863E663D663F763FE639863036E78
:10011000DB363D9A9999993DABAAAA2A3E00000088
:10012000803F084AD73B3BCE016E84BCBFFDC12F48
:100130003D6C74319ABD56833DDA3D00C77F11BED8
:10014000D9E4BB4C3E916BAAAABE000000803F07D9
:100150002C7AA5BA6CC590DA3B9365FC8BBC53F83E
:1001600010FD3C5692834DBD879D3AB63DCBC9BF2D
:100170005BBE73DA0FC93F05A84CCDB2D44EB93877
:1001800036A9020C50B9918688083CA6AAAA2ABEB4
:10019000000000803F08000000BE922449123EABE0
:1001A000AAAA2ABECDCCCC4C3E00000080BEABAA91
:1001B000AAAA3E00000000BF000000803F0000002F
:1001C0000000084178D3BB4387D1133D190E3CC3CF
:1001D000BD4282AD2B3E68EC8276BED98FE1A93E4E
:1001E0004C80EFFFBE01C4FF7F3F00000000004CC9
:1001F0006F670064756D7000000000000000000073
:1002000000BB5265726173650000000000000000D1
:1002100000EA4A656E61626C650000000000000043
:1002200000184A64697361626C6500000000000098
:1002300000184A706C616E6E65720067637300002F
:100240000000000000000000008F8C736574757062
:10025000007265736574000000000000000000E19A
:1002600049726164696F0000000000000000000432
:100270006A6D6F6465730000000000000000006F8D
:1002800069636F6D706173730000000000000053BC
:10029000496465636C696E6174696F6E0000003E4D
:1002A0004962617474657279000000000000000802
:1002B0004073686F77000000000000000000000835
:1002C000496572617365000000000000000000E5F0
:1002D0004341726475506C616E652056322E323720
:1002E00020466C69676874204D6F6465006C6F67A9
:1002F00073000000000000000000000249736574F4
:100300007570000000000000000000EA487465738A
:100310007400000000000000000000D24868656C16
:1003200070000000000000000000001320706C61ED
:100330006E6E657200000000000000BA48746573BC
:10034000740070776D0000000000000000000000E5
:10035000FE68726164696F00000000000000000028
:100360007968706173737468727500000000000032
:10037000A9476661696C7361666500000000000052
:100380007967626174746572790000000000000092
:10039000253672656C6179000000000000000000E5
:1003A0004F47776179706F696E74730000000000C9
:1003B000F131786265650000000000000000000077
:1003C0004A44656564756D7000000000000000001F
:1003D00091456D6F64657377697463680000000010
:1003E000EA46646970737769746368657300000036
:1003F0004D46616463000000000000000000000042
:10040000114567707300000000000000000000004C
:100410007C44726177677073000000000000000088
:100420000B44696D75000000000000000000000032
:1004300065396169727370656564000000000000D1
:10044000A342616972707265737375726500000012
:10045000807C636F6D7061737300000000000000AA
:10046000943B63757272656E7400000000000000BA
:10047000F7666C6F6767696E670000000000000038
:100480006A22466F726D61742076657273696F6E51
:100490003A20256C78202045787065637465642067
:1004A000666F726D61742076657273696F6E3A2043
:1004B000256C780A004E756D50616765733A20258A
:1004C0007520205061676553697A653A2025750A61
:1004D000004D616E7566616374757265723A2030A5
:1004E00078253032782020204465766963653A208B
:1004F0003078253034780A004552523A204E6F2029
:1005000064617461666C61736820696E736572748E
:1005100065640054657374696E6720646174616614
:100520006C617368206C6F6767696E67004E6F74EB
:1005300020656E61626C65640A00563A2025342E8F
:1005400034662C20413A2025342E34662C206D410F
:10055000683A2025342E34660A0048697420456EB6
:1005600074657220746F20657869742E0A0A004DD4
:100570005347204653204F4646202575004D53478C
:10058000204653204F4E20257500736176696E67B3
:10059000206F66667365747300636F6D706173734B
:1005A000206E6F74206865616C74687900486561BD
:1005B00064696E673A20256C642C2058595A3A2099
:1005C00025642C2025642C2025642C0958595A6F49
:1005D00066663A2025362E32662C2025362E326667
:1005E0002C2025362E32660A00436F6D70617373BE
:1005F00020696E697469616C69736174696F6E20DA
:100600006661696C65642100436F6D706173733A54
:10061000200061626C65640A0064697300656E00A5
:100620004D6167206F6666736574733A2025342EBA
:1006300034662C2025342E34662C2025342E346646
:100640000A004D6167204465636C696E6174696F6F
:100650006E3A2025342E34660A003F3F0048494C4C
:1006600000484D433538343300484D43353838332E
:100670004C00436F6D706173733A20002D00416C24
:10068000743A2025302E32666D2C205261773A2044
:10069000256C642054656D70657261747572653A7D
:1006A00020252E31660A006E6F74206865616C74B7
:1006B000687900556E63616C69627261746564206B
:1006C00072656C61746976652061697270726573B8
:1006D000737572650A006261726F6D657465722070
:1006E00063616C6962726174696F6E20636F6D70B3
:1006F0006C6574652E006162735F707265737375EB
:10070000726520256C640A00252E3166206D2F73DA
:100710000A0061697273706565643A2000616972EC
:1007200073706565643A2000616972737065656411
:100730005F63683A20252E31660A00723A253464D8
:100740002020703A2534642020793A253364202013
:10075000673D2825352E31662025352E316620252A
:10076000352E3166292020613D2825352E31662021
:1007700025352E31662025352E3166290A002E00BA
:100780004C61743A20256C642C204C6F6E20256CD3
:10079000642C20416C743A20256C646D2C202373EA
:1007A0006174733A2025640A00252E3166090041E0
:1007B00044430A004D69783A656C65766F6E732024
:1007C0000972657620656C65763A25642C20726521
:1007D00076206368313A25642C2072657620636840
:1007E000323A25640A004D69783A7374616E646127
:1007F0007264200972657620726F6C6C3A25642CE5
:10080000207265762070697463683A25642C2072C2
:100810006576207275646465723A25640A006469BD
:1008200070207377697463686573206469736162AB
:100830006C65642C207573696E6720454550524F76
:100840004D00506F736974696F6E2025640A004310
:100850006F6E74726F6C2043482000202530327810
:1008600000253034783A00426567696E2058426549
:100870006520582D4354552052616E676520616E86
:1008800064205253534920546573743A0A004C6FE4
:1008900069746572207261646975733A2025640A0F
:1008A0000A00486974207261646975733A2025648E
:1008B0000A00256420776179706F696E74730A008D
:1008C000486F6C6420616C746974756465206F6630
:1008D0002025646D0A00486F6C6420637572726530
:1008E0006E7420616C7469747564650A00636F6D61
:1008F0006D616E6420233A2025642069643A256482
:10090000206F7074696F6E733A25642070313A25D8
:10091000642070323A256C642070333A256C642070
:1009200070343A256C64200A0052656C6179206F3E
:1009300066660A0052656C6179206F6E0A004E6F20
:100940007420656E61626C65640A00566F6C747326
:100950003A20313A25322E32662C20323A25322E78
:1009600032662C20333A25322E32662C20343A253A
:10097000322E32660A004C4F5320636175736564F2
:10098000206E6F206368616E676520696E2041503C
:100990004D2E0A005448524F54544C45204641496C
:1009A0004C53414645204143544956415445443AED
:1009B0002025642C2000434F4E54524F4C204D4F65
:1009C0004445204348414E4745443A20005448524C
:1009D0004F54544C45204348414E474544202564DC
:1009E000200A00556E706C756720626174746572C0
:1009F000792C207468726F74746C6520696E206E37
:100A000065757472616C2C207475726E206F6666E9
:100A100020726164696F2E0A00494E20313A202508
:100A20006409323A20256409333A20256409343AAE
:100A300020256409353A20256409363A20256409C1
:100A4000373A20256409383A2025640A00494E3A8D
:100A500009313A20256409323A20256409333A20C5
:100A6000256409343A20256409353A20256409367D
:100A70003A20256409373A20256409383A2025644C
:100A80000A00506C616E6E6572204D6F64650A0AD3
:100A900054686973206D6F6465206973206E6F748C
:100AA00020696E74656E64656420666F72206D6186
:100AB0006E75616C207573650A0A00436F6D6D6118
:100AC0006E64733A0A20206C6F6773202020202008
:100AD0002020206C6F6720726561646261636B2FF8
:100AE0007365747570206D6F64650A20207365747A
:100AF0007570202020202020207365747570206D73
:100B00006F64650A202074657374202020202020E3
:100B1000202074657374206D6F64650A0A4D6F76CA
:100B2000652074686520736C6964652073776974E7
:100B3000636820616E6420726573657420746F2031
:100B4000464C592E0A0A0054657374204D6F646533
:100B50000A0A005365747570204D6F64650A0A496E
:100B60004D504F5254414E543A20696620796F756A
:100B70002068617665206E6F742070726576696F8B
:100B800075736C7920736574207468697320737948
:100B90007374656D2075702C20757365207468659D
:100BA0000A2772657365742720636F6D6D616E64CB
:100BB00020746F20696E697469616C697A6520744C
:100BC000686520454550524F4D20746F2073656E07
:100BD0007369626C652064656661756C742076610A
:100BE0006C7565730A616E64207468656E20746844
:100BF000652027726164696F2720636F6D6D616E78
:100C00006420746F20636F6E666967757265206615
:100C10006F7220796F757220726164696F2E0A0A93
:100C2000000A547970652027592720616E64206876
:100C3000697420456E74657220746F2065726173EB
:100C40006520616C6C20776179706F696E742061CA
:100C50006E6420706172616D657465722064617488
:100C6000612C20616E79206F74686572206B6579E4
:100C700020746F2061626F72743A2000646F6E6539
:100C80000A000A45726173696E6720454550524FEC
:100C90004D0A005261772056616C7565730A0052E7
:100CA0006164696F0A004348383A202564207C203B
:100CB0002564207C2025640A004348373A202564B7
:100CC000207C202564207C2025640A004348363A95
:100CD000202564207C202564207C2025640A004394
:100CE00048353A202564207C202564207C2025641A
:100CF0000A004348343A202564207C202564207C67
:100D00002025640A004348333A202564207C2025AE
:100D100064207C2025640A004348323A2025642060
:100D20007C202564207C2025640A004348313A2039
:100D30002564207C202564207C2025640A004D6FDA
:100D40006E69746F72696E6720766F6C7473206160
:100D50006E642063757272656E74004D6F6E697497
:100D60006F72696E67206261747420766F6C747341
:100D7000004D6F6E69746F72696E67203420636511
:100D80006C6C004D6F6E69746F72696E67203320F2
:100D900063656C6C0042617474206D6F6E69746F72
:100DA00072696E672064697361626C656400426198
:100DB0007474204D6F696E746F720A006E617620D4
:100DC000706974636820616C743A0A00656E6572BC
:100DD000677279207468726F74746C653A0A006E79
:100DE00061762070697463682061697273706565EB
:100DF000643A0A006E617620726F6C6C3A0A007376
:100E00006572766F207275646465723A0A00736564
:100E100072766F2070697463683A0A00736572763F
:100E20006F20726F6C6C3A0A004761696E730A003A
:100E3000503A2025342E33662C20493A25342E335F
:100E4000662C20443A25342E33662C20494D4158D7
:100E50003A256C640A0058545241434B3A202534D9
:100E60002E32660A58545241434B20616E676C65BE
:100E70003A2025640A0043726F7373747261636B66
:100E80000A006D696E3A2025640A6D61783A202562
:100E9000640A6372756973653A2025640A6661693C
:100EA0006C736166655F656E61626C65643A20258E
:100EB000640A6661696C736166655F76616C75650D
:100EC0003A2025640A005468726F74746C650A00D5
:100ED000466C69676874206D6F6465730A00506FB3
:100EE000732025643A2000494D550A004779726FF6
:100EF000206F6666736574733A2025342E32662C33
:100F00002025342E32662C2025342E32660A0041EC
:100F10006363656C206F6666736574733A2025346D
:100F20002E32662C2025342E32662C2025342E328B
:100F3000660A000A4F7074696F6E733A20302D3460
:100F4000000A4F7074696F6E733A5B6F6E2C6F6638
:100F5000665D0A006F666600436F6D706173732093
:100F6000696E697469616C69736174696F6E20661A
:100F700061696C656421006F6E000A4D6F766520B3
:100F8000524320746F67676C652073776974636878
:100F900020746F206561636820706F736974696F76
:100FA0006E20746F20656469742C206D6F766520E7
:100FB00061696C65726F6E20737469636B20746F06
:100FC0002073656C656374206D6F6465732E000A11
:100FD00053617665642053657474696E67730A0A99
:100FE000000A4D6F766520616C6C20636F6E7472C1
:100FF0006F6C7320746F206561636820657874720C
:10100000656D652E2048697420456E746572207484
:101010006F20736176653A200A000A4E6F20726174
:1010200064696F3B20436865636B20636F6E6E6518
:1010300063746F72732E000A0A526164696F2053E1
:10104000657475703A0A000A464143544F5259205C
:10105000524553455420636F6D706C657465202D47
:1010600020706C65617365207265736574204150F2
:101070004D20746F20636F6E74696E7565000A543D
:101080007970652027592720616E64206869742073
:10109000456E74657220746F20706572666F726D34
:1010A00020666163746F72792072657365742C2099
:1010B000616E79206F74686572206B657920746F3A
:1010C0002061626F72743A2000656E61626C650027
:1010D00043555200434D4400524157004D4F444543
:1010E000004E54554E004354554E00504D0047504D
:1010F000530041545449545544455F4D45440041C3
:10110000545449545544455F4641535400616C6CF6
:10111000006D697373696E67206C6F6720747970F6
:10112000650A000A4C6F67206572617365642E0A58
:10113000000A45726173696E67206C6F672E2E2EF0
:101140000A00446F6E650A0044756D70696E672011
:101150004C6F672025642C202020207374617274EA
:101160002070672025642C202020656E6420706725
:101170002025640A00626164206C6F67206E756DC3
:101180006265720A0064756D70696E6720616C6CCF
:101190000A0025640A0025642C0900444620706179
:1011A00067652C206C6F672066696C6520232C2096
:1011B0006C6F6720706167653A2025642C09004ECA
:1011C000756D626572206F66207061636B65747304
:1011D00020726561643A2025640A000A41726475D0
:1011E000506C616E652056322E323720466C69672E
:1011F0006874204D6F64650A467265652052414DE2
:101200003A2025750A00454447453534302D542091
:101210005233004572726F722052656164696E6765
:1012200020454E445F425954453A2025640A004502
:1012300072726F722052656164696E6720506163DB
:101240006B65743A2025640A004154543A202564A1
:101250002C2025642C2025750A004D4F443A00436C
:1012600054554E3A004E54554E3A2025342E34668D
:101270002C2025642C2025342E34662C2025342E59
:1012800034662C2025342E34662C2025342E3466EA
:101290002C2025342E34662C0A00504D3A00524141
:1012A000573A00434D443A00435552523A20256480
:1012B0002C2025342E34662C2025342E34662C2008
:1012C00025640A0020256420636F6D6D616E647370
:1012D00020696E206D656D6F72790A00554E4B4E18
:1012E0004F574E2053544152545550202D20004703
:1012F000524F554E44205354415254202D2000410A
:101300004952205354415254202D20004750533A03
:1013100020256C642C2025642C2025642C20253469
:101320002E37662C2025342E37662C2025642C2061
:1013300025342E34662C2025342E34662C2025347A
:101340002E34662C2025342E34660A00414C54324B
:10135000505443485F00454E524759325448525FFB
:10136000005957325352565F004152535032505435
:1013700043485F0050544348325352565F00524C2A
:101380004C325352565F0048444E4732524C4C5FE9
:10139000005243385F005243375F005243365F00CC
:1013A0005243355F005243345F005243335F005273
:1013B00043325F005243315F00464C41505F325F21
:1013C000535045454400464C41505F325F504552B2
:1013D000434E5400464C41505F315F5350454544A5
:1013E00000464C41505F315F504552434E540041DE
:1013F000525350445F454E41424C4500534F4E417D
:10140000525F454E41424C4500494E564552544567
:1014100044464C545F434800424154545F4341505A
:10142000414349545900494E5055545F564F4C540E
:101430005300414D505F5045525F564F4C5400563B
:101440004F4C545F4449564944455200424154541C
:101450005F4D4F4E49544F52004D41475F454E41FD
:10146000424C4500474E445F4142535F5052455302
:101470005300474E445F54454D5000414C545F4823
:101480004F4C445F52544C005452494D5F504954A4
:1014900043485F4344004D494E5F474E44535044D8
:1014A0005F434D005452494D5F41525350445F4396
:1014B0004D005253545F5357495443485F434800CB
:1014C0004C4F475F4C41535446494C45004C4F47A5
:1014D0005F4249544D41534B005359535F4E554D54
:1014E0005F52455345545300454C45564F4E5F435C
:1014F00048325F52455600454C45564F4E5F434873
:10150000315F52455600454C45564F4E5F52455649
:101510004552534500454C45564F4E5F4D4958493D
:101520004E47005357495443485F454E41424C454E
:10153000005452494D5F4155544F004C494D5F5046
:10154000495443485F4D494E004C494D5F50495402
:1015500043485F4D4158004C494D5F524F4C4C5FE2
:10156000434400464C544D4F44453600464C544D80
:101570004F44453500464C544D4F44453400464C8D
:10158000544D4F44453300464C544D4F4445320072
:10159000464C544D4F44453100464C544D4F444504
:1015A0005F43480046535F4743535F454E41424CBB
:1015B0000046535F4C4F4E475F4143544E004653E5
:1015C0005F53484F52545F4143544E005452494D6B
:1015D0005F5448524F54544C45005448525F465350
:1015E0005F56414C5545005448525F4641494C5363
:1015F000414645005448525F534C4557524154456B
:10160000005448525F4D4158005448525F4D494E76
:1016100000414C545F484F4C445F464257434D0095
:1016200041525350445F4642575F4D41580041522A
:101630005350445F4642575F4D494E0046454E4326
:10164000455F4D4158414C540046454E43455F4D22
:10165000494E414C540046454E43455F4348414E38
:101660004E454C0046454E43455F544F54414C0057
:1016700046454E43455F414354494F4E0057505FE6
:101680004C4F495445525F5241440057505F5241BC
:101690004449555300434D445F494E444558004327
:1016A0004D445F544F54414C0041525350445F4F9E
:1016B00046465345540041525350445F52415449A9
:1016C0004F00414C545F4D4958005854524B5F41B4
:1016D0004E474C455F4344005854524B5F47414985
:1016E0004E5F5343004B46465F544852325054437A
:1016F00048004B46465F5054434832544852004BD2
:1017000046465F524444524D4958004B46465F504E
:10171000544348434F4D500053455249414C335F69
:10172000424155440053595349445F4D594743532F
:101730000053595349445F544849534D415600534F
:10174000595349445F53575F5459504500535953B7
:1017500049445F53575F4D52455600445A00524525
:1017600056004D4158005452494D004D494E0041DC
:101770004E474C455F4D415800414E474C455F4DEB
:10178000494E0046554E4354494F4E00494D41582D
:1017900000440049005000494D555F53454E534F9A
:1017A000525F43414C004C6F672025642C20202061
:1017B0002073746172742025642C202020656E646F
:1017C0002025640A000A2564206C6F67730A000AEA
:1017D0004E6F206C6F67730A0A0043555200202534
:1017E0005300434D4400202553005241570020250B
:1017F00053004D4F444500202553004E54554E0094
:10180000202553004354554E0020255300504D00D1
:10181000202553004750530020255300415454497C
:10182000545544455F4D45440020255300415454D0
:1018300049545544455F4641535400202553006E9A
:101840006F6E65006C6F677320656E61626C6564B6
:101850003A200067707320616C743A20256C750023
:10186000696E697420686F6D65002B006261642089
:1018700066656E636520706F696E740062616420D6
:1018800066656E636520706F696E740066656E6371
:10189000696E67206D757374206265206469736179
:1018A000626C65640043757272656E74205761796D
:1018B000506F696E74204D4F444946494544006657
:1018C0006C6967687420706C616E2072656365690D
:1018D00076656400616374696F6E20726563656923
:1018E0007665643A20004E6F6E2D4E617620636FF0
:1018F0006D6D616E64204944207570646174656427
:1019000020746F20232569004E6F6E2D4E61762066
:10191000636F6D6D616E64204944207570646174FD
:10192000656420746F20232569006F7574206F66CD
:1019300020636F6D6D616E647321004E617620636C
:101940006F6D6D616E64205052454645544348208A
:10195000696E64657820232569004E617620636F87
:101960006D6D616E6420696E646578207570646168
:1019700074656420746F2023256900526574757244
:101980006E696E6720746F20486F6D6500457865DD
:10199000637574696E6720636F6D6D616E64204955
:1019A000442023256900457865637574696E672056
:1019B000636F6D6D616E6420494420232569004981
:1019C0006E20646F5F6368616E67655F7961772819
:1019D000292E2020546172676574206865616469EE
:1019E0006E673A20256900457865637574696E678E
:1019F00020636F6D6D616E6420494420232569006A
:101A000073657474696E6720636F6D6D616E6420B9
:101A1000696E6465783A2025690073657474696E2F
:101A20006720636F6D6D616E6420696E6465783ADE
:101A300020256900496E206A756D702E20204A7538
:101A40006D7073206C6566743A202569003C737470
:101A500061727475705F67726F756E643E204E4F71
:101A6000206169727370656564003C73746172749F
:101A700075705F67726F756E643E207A65726F2055
:101A800061697273706565642063616C696272611B
:101A900074656400426567696E6E696E6720494DC2
:101AA000552063616C6962726174696F6E3B20647A
:101AB0006F206E6F74206D6F766520706C616E653F
:101AC000005761726D696E67207570204144432E26
:101AD0002E2E0044656D6F20536572766F73210062
:101AE00052656365697665642052657175657374C6
:101AF000202D206A756D7020746F20636F6D6D618D
:101B00006E64202325690042616420526571756509
:101B10007374202D2063616E6E6F74206368616E34
:101B2000676520746F206E6F6E2D4E617620636D39
:101B300064004558545241330045585452413200D4
:101B400045585452413100504F534954494F4E006B
:101B50005241575F4354524C0052435F4348414EF9
:101B6000004558545F53544154005241575F534508
:101B70004E53005352335F005352305F00666C691E
:101B8000676874206D6F6465203D2025750046618F
:101B9000696C73616665202D2053686F72742065CF
:101BA00076656E74206F6E2C20004661696C7361DF
:101BB0006665202D2053686F7274206576656E749B
:101BC000206F66660067656F2D66656E63652074BD
:101BD00072696767657265640067656F2D66656E1B
:101BE0006365204F4B0067656F2D66656E636520EA
:101BF0007365747570206572726F720067656F2D02
:101C000066656E6365206C6F61646564003C6E613F
:101C10007669676174653E205750206572726F72F5
:101C2000202D2064697374616E6365203C20300050
:101C30007665726966795F6E61763A20496E766183
:101C40006C6964206F72206E6F2063757272656EAE
:101C500074204E617620636D64004D697373656412
:101C60002057500052656163686564205761797040
:101C70006F696E7420232569007665726966795FE5
:101C80006E61763A204C4F49544552206F7262691A
:101C9000747320636F6D706C65746500766572692E
:101CA00066795F6E61763A204C4F495445522074F4
:101CB000696D6520636F6D706C6574650052656158
:101CC0006368656420686F6D650076657269667922
:101CD0005F636F6E6469746F6E3A20496E76616CF3
:101CE0006964206F72206E6F2063757272656E7406
:101CF00020436F6E646974696F6E20636D64006663
:101D00006C69676874206D6F6465203D20257500DF
:101D10004661696C73616665202D204C6F6E67208B
:101D20006576656E74206F6E2C20000A0A000A0A20
:101D30000020202020207769746820534C565F4192
:101D40004952535045454443414C0A00202020202D
:101D5000207769746820534C565F4149525350456F
:101D6000454443414C0A00202020202077697468B4
:101D700020534C565F4C4F495445520A00202020B6
:101D800020207769746820534C565F4C4F49544566
:101D9000520A0020202020207769746820534C5676
:101DA0005F57504C4F4F4B41484541440A0020205B
:101DB0002020207769746820534C565F57504C4F51
:101DC0004F4B41484541440A00202020202077699C
:101DD0007468204D4D5F41444445440A0020202052
:101DE000202077697468204D4D5F41444445440A82
:101DF0000020202020207769746820534C565F41D2
:101E0000444445440A00202020202077697468203B
:101E1000534C565F41444445440A000A0A2041722B
:101E20006475506C616E652056322E323720466CD8
:101E300069676874204D6F64650A2069642E3030CC
:101E4000312E3032204D6172203133203230313228
:101E50000A000A0A2041726475506C616E65205652
:101E6000322E323720466C69676874204D6F646586
:101E70000A2069642E3030312E3032204D617220BC
:101E8000313320323031320A000A4D6F76652074CA
:101E9000686520736C696465207377697463682072
:101EA000616E6420726573657420746F20464C59AE
:101EB0002E0A000A456E746572696E6720696E7439
:101EC0006572616374697665207365747570206DE1
:101ED0006F64652E2E2E0A0A4966207573696E6737
:101EE000207468652041726475696E6F2053657255
:101EF00069616C204D6F6E69746F722C20656E7312
:101F0000757265204C696E6520456E64696E672048
:101F100069732073657420746F2043617272696104
:101F200067652052657475726E2E0A54797065204B
:101F30002768656C702720746F206C697374206348
:101F40006F6D6D616E64732C20276578697427202E
:101F5000746F206C656176652061207375626D65B4
:101F60006E752E0A5669736974207468652027732C
:101F70006574757027206D656E7520666F722066BA
:101F8000697273742D74696D6520636F6E6669671D
:101F900075726174696F6E2E0A00436F6D706173A4
:101FA0007320696E697469616C69736174696F6EBD
:101FB000206661696C6564210045524153494E4772
:101FC000204C4F4753004E6F2064617461666C6112
:101FD0007368206361726420696E736572746564EE
:101FE000007573696E6720257520627974657320AA
:101FF0006F66206D656D6F7279202825752072657A
:1020000073657473290A006C6F61645F616C6C2086
:10201000746F6F6B20256C7575730A00646F6E6545
:102020002E004669726D77617265206368616E6724
:10203000653A2065726173696E6720454550524F5D
:102040004D2E2E2E0A000A0A496E697420417264D0
:1020500075506C616E652056322E323720466C69A1
:10206000676874204D6F64650A0A46726565205280
:10207000414D3A2025750A00496E76616C696420ED
:1020800053455249414C335F42415544000A0A20AE
:10209000526561647920746F20464C592E003C7360
:1020A0007461727475705F67726F756E643E2047FD
:1020B000524F554E442053544152540000407A1020
:1020C000F35A00A0724E18090010A5D4E80000E8E9
:1020D0007648170000E40B54020000CA9A3B000047
:1020E00000E1F505000080969800000040420F00D6
:1020F0000000A08601000000102700000000E80397
:10210000000000006400000000000A000000000061
:102110000100000000002C76D888DC674F0823DF20
:10212000C1DFAE59E1B1B796E5E3E453C63AE651F3
:10213000997696E8E6C28426EB898C9B62ED407C1A
:102140006FFCEFBC9C9F40F2BAA56FA5F490055AB6
:102150002AF75C936B6CF9676DC11BFCE0E40D47DB
:10216000FEF520E6B500D0ED902E030094357705FE
:102170000080841E080000204E0A000000C80C33B6
:102180003333330F986E12831141EF8D2114893B45
:10219000E65516CFFEE6DB18D1844B381BF77C1DC5
:1021A000901DA4BBE424203284725E228100C9F118
:1021B00024ECA1E53D276E616E00696E6600253056
:1021C00033753A25733A20006E6F7420666F756E12
:1021D0006400253033753A252D33322E3332733A6D
:1021E0002000756E6B6E6F776E2074797065006E6F
:1021F0006F7420666F756E640025733A20006D69F8
:102200007373696E67206E616D65206F72207661F1
:102210006C7565003F3F00256400256400256C64F3
:1022200000256600256600657869740068656C7035
:1022300000245047434D442C31362C302C302C3068
:102240002C302C302A36410D0A0024505542582C8F
:1022500034312C312C303030332C303030312C3381
:10226000383430302C302A32360024505352463124
:1022700030302C302C33383430302C382C312C305A
:102280002A33430020536952462000204D544B31DD
:102290002E3620002075626C6F782000204D544B44
:1022A000312E3420006661696C65642C207265747F
:1022B0007279696E67004F4B0044454300434F4DB0
:1022C000504153535F0020002A00496E6974204139
:1022D0006363656C002A00496E6974204779726FE8
:1022E0000000002100240027002A002D00300033C8
:1022F0000001010000040107010A0100002200257D
:102300000028002B002E00310034000201000005DF
:102310000108010B01000020002300260029002CE9
:10232000002F003200000100000301060109010531
:10233000050505070508080808020202020A0A083E
:102340000804040404010101010101010103030364
:102350000303030303040707070C0C0C0C0C0C0C01
:102360000C0202020206060606060606060B0B0B08
:102370000B0B0B0B0B010210202008081020401043
:102380002040800201020108040201010204081039
:102390002040808040201008040201800402018057
:1023A0004020100804020108040201010204081080
:1023B00020408001020408102040800000090A0229
:1023C000080B0C0D070603040100000000000000CC
:1023D00000000000000000000000000000000000FD
:1023E00000000000000000100F0E000000000000C0
:1023F00000000000000000000000000000000000DD
:1024000000494E46494E4954594E414ECDCCCC3DE3
:102410000AD7233C17B7D13877CC2B329595E624D1
:102420001FB14F0A000020410000C84200401C4676
:1024300020BCBE4CCA1B0E5AAEC59D740D94D70C61
:102440000D94070D0D9422150D940F0D0D943A1552
:102450000D943113C661BFB66AC7C161BAB6112403
:102460001FBECFEFD1E2DEBFCDBF00E00CBF15E055
:10247000A0E0B2E0E8EFF7E302E00BBF02C0079094
:102480000D92AE3BB107D9F71BBE18E1AEEBB5E03C
:1024900001C01D92A93CB107E1F714E2CAE5D4E2FC
:1024A00004C02297FE010F94D91BC435D107C9F788
:1024B0000F941C150D94F01B0C940000283008F0AC
:1024C00027E03327DA01990F311D87FD91600096CF
:1024D0006105710539F432602E5F3D9330E32A9532
:1024E000E1F708959F3F30F080387105610509F0EC
:1024F0003C5F3C5F3D93913008F08068911DDF9315
:10250000CF931F930F93FF92EF92192F987F969579
:10251000E92F96959695E90FFF27EA5EFE4D9927DC
:102520003327EE24FF24A701E701059008940794C0
:1025300028F4360FE71EF81E491F511D660F771F3E
:10254000881F991F0694A1F70590079428F4E70EB9
:10255000F81E491F561FC11D770F881F991F661F40
:102560000694A1F70590079428F4F80E491F561F0A
:10257000C71FD11D880F991F661F771F0694A1F7EB
:102580000590079420F4490F561FC71FD81F990FB5
:10259000661F771F881F0694A9F7849110951770FE
:1025A00041F0D695C79557954795F794E7941A95B6
:1025B000C1F7ECEBF0E268941590159135916591B7
:1025C000959105907FE27395E118F10A430B560B44
:1025D000C90BD009C0F7E10CF11E431F561FC91FDC
:1025E000D01D7EF4703311F48A95E6CFE894015043
:1025F00030F0080F0AF40027021708F4202F239563
:10260000022F7A3328F079E37D932A95E9F710C0F9
:102610007D932A9589F60694979567953795179532
:102620001794E118F10A430B560BC90BD00998F027
:1026300023957E9173957A3308F070E37C93201391
:10264000B8F77E9170617D9330F0839571E37D934F
:1026500070E32A95E1F71124EF90FF900F911F91FD
:10266000CF91DF91992787FD90950895FA01AA27C8
:10267000283051F1203181F1E8946F936E7F6E5FC5
:102680007F4F8F4F9F4FAF4FB1E03ED0B4E03CD073
:10269000670F781F891F9A1FA11D680F791F8A1F56
:1026A000911DA11D6A0F711D811D911DA11D20D0BD
:1026B00009F468943F912AE0269F11243019305D77
:1026C0003193DEF6CF010895462F4770405D419368
:1026D000B3E00FD0C9F7F6CF462F4F70405D4A33B5
:1026E00018F0495D31FD4052419302D0A9F7EACF7D
:1026F000B4E0A6959795879577956795BA95C9F7AC
:1027000000976105710508959B01AC010A2E06949E
:102710005795479537952795BA95C9F7620F731F57
:10272000841F951FA01D0895A0E3B0E0EAE9F3E13E
:102730000D94A01BA8E04E010894811C911CF4018B
:10274000BA2F1192BA95E9F729833A834B835C83B8
:102750006D837E838F839887CE010996FC01119249
:10276000AA95E9F7A986BA86CB86DC86ED86FE8631
:102770000F87188B29813A814B815C812DA73EA759
:102780004FA758AB79018A018FEF9FEFA0E0B0E02F
:10279000E822F9220A231B231A01442455242985FF
:1027A0003A854B855C8529A73AA74BA75CA75901B9
:1027B0006A01A822B922CA22DB223A01882499247C
:1027C000C601B501A80197010F941D1B6DA37EA33F
:1027D0008FA398A7C401B3010F941D1B69A37AA30B
:1027E0008BA39CA3C601B501A20191010F941D1BEF
:1027F0007B018C01C401B3010F941D1B5B016C01B3
:1028000089A19AA1ABA1BCA18E0D9F1DA01FB11FD4
:1028100089A39AA3ABA3BCA32DA13EA14FA158A508
:10282000CA01AA27BB2729A13AA14BA15CA1280F65
:10283000391F4A1F5B1F29A33AA34BA35CA32E1584
:102840003F054007510740F480E090E0A1E0B0E090
:10285000A80EB91ECA1EDB1E89A19AA1ABA1BCA1FC
:102860009D01442755272A0D3B1D4C1D5D1D2D8FB5
:102870003E8F4F8F58A36C01BB24AA248DA19EA12B
:10288000AFA1B8A5A070B070A80EB91ECA1EDB1EFD
:10289000A98EBA8ECB8EDC8E9A8C8B8C7C8C9E8D86
:1028A0006F8D78A1FE01719688E0DF011D928A95F7
:1028B000E9F72D8B9E8B6F8B788F2D853E854F850D
:1028C00058896DA57EA58FA598A90F941D1B7B0126
:1028D0008C012D813E814F81588569A57AA58BA5F4
:1028E0009CA50F941D1BE60EF71E081F191F6D896E
:1028F0007E898F89988D6E0D7F1D801F911F6D8B36
:102900007E8B8F8B988FEE892A2D392D482D572D50
:102910007E2F8F89988DE096E2E10D94BC1B0F937A
:102920001F93CF93DF93689F8001699F100D789F5D
:10293000100D1124C8010DD0EC01009721F060E0CA
:1029400070E0A80173D1CE01DF91CF911F910F915B
:102950000895CF93DF93BC018230910510F462E0BB
:1029600070E0A091C518B091C618ED01E0E0F0E06C
:1029700040E050E021C0888199818617970769F46B
:102980008A819B81309719F09383828304C090934E
:10299000C6188093C518FE0134C06817790738F44B
:1029A0004115510519F08417950708F4AC01FE0193
:1029B0008A819B819C01E9012097E9F64115510527
:1029C000A9F1CA01861B970B049708F4BA01E0E04D
:1029D000F0E02AC08D919C91119784179507F9F426
:1029E0006417750781F412968D919C911397309717
:1029F00019F09383828304C09093C6188093C518FE
:102A0000FD0132964CC0CA01861B970BFD01E80FF1
:102A1000F91F6193719302978D939C9340C0FD01C0
:102A2000828193819C01D9011097A1F68091C318EE
:102A30009091C418892B41F48091420390914303F3
:102A40009093C4188093C318409144035091450358
:102A50004115510541F44DB75EB780914003909107
:102A60004103481B590B2091C3183091C418CA0167
:102A7000821B930B8617970780F0AB014E5F5F4F69
:102A80008417950750F0420F531F5093C41840937A
:102A9000C318F9016193719302C0E0E0F0E0CF0147
:102AA000DF91CF910895CF93DF93009709F450C041
:102AB000EC0122971B821A82A091C518B091C6180A
:102AC000109709F140E050E0AC17BD0708F1BB8357
:102AD000AA83FE0121913191E20FF31FAE17BF07C8
:102AE00079F48D919C911197280F391F2E5F3F4FDC
:102AF0003983288312968D919C9113979B838A83A7
:102B00004115510571F4D093C618C093C51820C063
:102B100012968D919C911397AD01009711F0DC01F5
:102B2000D3CFFA01D383C28321913191E20FF31FF6
:102B3000CE17DF0769F488819981280F391F2E5F2E
:102B40003F4FFA01318320838A819B819383828363
:102B5000DF91CF91089566277727D2C21F93FC019A
:102B600099278827BC01E89411911032E9F31930B4
:102B700010F01E30C8F31B3249F01D3241F4689446
:102B800005C0B0D0610F711D811D911D11911053B1
:102B90001A30B8F33EF490958095709561957F4F0B
:102BA0008F4F9F4F1F910895FB01DC0102C00590DC
:102BB0000D9241505040D8F70895FB01DC018D91F2
:102BC00081341CF08B350CF4805E659161341CF00F
:102BD0006B350CF4605E861B611189F3990B0895C7
:102BE000FB01DC018D91059080190110D9F3990B3F
:102BF0000895FC0105900020E9F7809590958E0FCF
:102C00009F1F0895FC010590615070400110D8F796
:102C1000809590958E0F9F1F0895FB01DC0102C0E7
:102C200001900D9241505040D8F70895DC0101C049
:102C30006D9341505040E0F70895FB01DC018D9108
:102C4000019080190110D9F3990B0895FB01DC0163
:102C50004150504048F001900D920020C9F701C04A
:102C60001D9241505040E0F70895FC0161507040C2
:102C700001900110D8F7809590958E0F9F1F0895B1
:102C8000009731F4DA018D919C91009709F40EC000
:102C9000DC01FB013D912191222319F03217C9F388
:102CA000FACF332331F4DA011D921C928827992739
:102CB00008951197AF93BF93FB013D912191321776
:102CC00071F4332321F488279927119702C01E92AB
:102CD0001196FA01A193B0839F918F9108952223B9
:102CE00069F7EACF592F482F372F262F660F771F06
:102CF000881F991F660F771F881F991F620F731F08
:102D0000841F951F660F771F881F991F0895AEE0D7
:102D1000B0E0EDE8F6E10D94AE1B8C0177FF02C048
:102D200060E070E8615070407E836D831A83098390
:102D300086E08C83CE010196BA01A90111D02D81C4
:102D40003E8137FD09C0EF81F8852E173F070CF44F
:102D5000F901E00FF11F10822E96E4E00D94CA1BDA
:102D6000ABE0B0E0E6EBF6E10D94A01B3C012B01DB
:102D70005A01FC0117821682838181FD03C06FEF27
:102D80007FEFB9C19AE0892E1E010894211C311CE5
:102D9000F3012381F20123FD859123FF81912F010E
:102DA000882309F4A5C1853239F423FD859123FFD9
:102DB00081912F01853221F490E0B30116D3E8CF41
:102DC000982FFF24EE249924FFE1FF15D0F09B32C9
:102DD00069F09C3228F4903259F0933291F40EC08D
:102DE0009D3249F0903369F441E024C052E0F52A65
:102DF00084E0F82A28C098E0F92A25C0E0E1FE2AFC
:102E000022C0F7FC29C0892F80538A3070F4F6FE67
:102E100005C0989C902C1124980E15C0E89CE02CBD
:102E20001124E80EF0E2FF2A0EC09E3229F4F6FCCF
:102E30005FC140E4F42A07C09C3619F450E8F52A33
:102E400002C0983649F4F20123FD959123FF919138
:102E50002F01992309F0B8CF892F8554833018F0BA
:102E60008052833038F444E050E0A40EB51E5FE396
:102E700059830FC0933631F0933779F0933509F0C9
:102E800052C01FC0F5018081898342E050E0A40E4A
:102E9000B51E610101E010E011C0F501C080D180D4
:102EA000F6FC03C06FEF7FEF02C0692D70E042E0D7
:102EB00050E0A40EB51EC601D8DE8C015FE7F522F6
:102EC00013C0F501C080D180F6FC03C06FEF7FEF27
:102ED00002C0692D70E042E050E0A40EB51EC601AC
:102EE00091DE8C0150E8F52AF3FE06C018C080E29E
:102EF00090E0B3017AD2EA948E2D90E0081719077A
:102F0000B0F30DC0F601F7FC8591F7FE81916F01DA
:102F100090E0B3016AD2E110EA940150104001152B
:102F2000110581F7E2C0943611F0993661F5F7FE8C
:102F300008C0F501208131814281538184E090E015
:102F40000AC0F501808191819C01442737FD40959D
:102F5000542F82E090E0A80EB91E9FE6F92257FF99
:102F600009C050954095309521953F4F4F4F5F4F89
:102F7000E0E8FE2ACA01B901A1012AE030E076DBCF
:102F8000D82ED2183FC0953729F41F2D1F7E2AE076
:102F900030E01DC01F2D197F9F3661F0903720F45F
:102FA000983509F0A5C00FC0903739F0983709F06F
:102FB0009FC004C028E030E00AC0106114FD146016
:102FC00020E130E004C014FD166020E132E017FF7C
:102FD00008C0F501608171818281938144E050E0F5
:102FE00008C0F50180819181BC0180E090E042E061
:102FF00050E0A40EB51EA10139DBD82ED2188FE700
:10300000F82EF122F6FE0BC05EEFF522D91438F44B
:10301000F4FE07C0F2FC05C08FEEF82202C01D2DA1
:1030200001C0192DF4FE0DC0FE01ED0DF11D8081D2
:10303000803319F499EEF92208C01F5FF2FE05C033
:1030400003C08F2D867809F01F5F0F2DF3FC13C08E
:10305000F0FE0EC01E1510F09D2C0AC09D2C9E0C7B
:10306000911A1E2D05C080E290E0B301BED11F5F12
:103070001E15C8F304C01E1510F4E11A01C0EE2499
:1030800004FF0EC080E390E0B301AFD102FF1BC08C
:1030900001FD03C088E790E00EC088E590E00BC01A
:1030A000802F867881F001FF02C08BE201C080E2B0
:1030B000F7FC8DE290E0B30198D105C080E390E089
:1030C000B30193D19A94D914C8F3DA94F101ED0DB8
:1030D000F11D808190E0B30188D1DD20B1F705C0FA
:1030E00080E290E0B30181D1EA94EE20C9F750CE9E
:1030F000F30166817781CB012B96E2E10D94BC1B35
:10310000A0E0B0E0E6E8F8E10D94A61BEC015B015D
:103110006115710519F0FB0191838083F9908F2D62
:1031200090E00F94E51B892BC9F7FDE2FF1621F40F
:10313000F990EE24E39405C02BE2F21609F4F9901D
:10314000EE248E0101501040C80161E074E243E0BA
:1031500050E033D1892BF9F48E010E5F1F4FC80167
:1031600064E074E245E050E028D1892B19F48E0127
:10317000095F1F4FA114B10419F0F50111830083F9
:10318000E0FC04C070E090E080E813C070E090E0E4
:1031900080E86FEF07C1C80169E074E243E050E0E6
:1031A0000CD1892B69F4A114B10429F470E090E0EA
:1031B00080EC6FE7F7C02296F501D183C083F6CF8C
:1031C0008824992440E050E060E070E0EF2DE05367
:1031D000EA30A0F5F2E0EF2A8E2D90E09C012870F5
:1031E0003070E2FE06C0232B79F50894811C911CF7
:1031F0002BC0232B19F0089481089108DB01CA0128
:1032000012E0880F991FAA1FBB1F1A95D1F7480F0C
:10321000591F6A1F7B1F440F551F661F771F4E0FD4
:10322000511D611D711D483929E9520729E96207BD
:1032300029E1720748F084E0E82A06C0EE3F31F445
:10324000E3FC39C098E0E92AF990C0CFE53311F0EA
:10325000E53189F529912D3219F4E0E1EE2A05C016
:103260002B3219F081E090E003C0299182E090E0D8
:10327000E22FE053EA3018F0C81BD90B1CC020E045
:1032800030E0FCE020383F075CF4C901880F991F4B
:10329000880F991F280F391F220F331F2E0F311D42
:1032A000E991E053EA3068F3E4FE03C030952195DC
:1032B0003F4F820E931ECE2CDD24E1FE07C0A114E9
:1032C000B10421F02197F501D183C083CB01BA016C
:1032D0000F94B3187B018C01F3E0CF22DD2423E0AF
:1032E000C216D10421F417FB109517F91095570158
:1032F0006801C801B70120E030E040E050E00F94E1
:103300001318882309F44AC097FE0DC020E2E22E6C
:1033100024E2F22E9094819491089394C0E2D0E03C
:1033200000E010E012C098E3E92E94E2F92EF6CF07
:10333000F7012591359145915491C601B5010F943E
:10334000481A5B016C018C1A9D0A8C169D0684F745
:10335000D595C7950F5F1F4F0630110529F08CEFEB
:103360009FEFE80EF91EF1CFC501D6017C018D015A
:103370008C2D880F8D2D881F8F3F51F0C601B50110
:1033800020E030E040E050E00F941318882331F43F
:1033900082E290E09093C8188093C7187E2D9F2DED
:1033A000802F612F272F392F482F562FB901CA019F
:1033B000CDB7DEB7ECE00D94C21BFB01DC01415040
:1033C000504088F08D9181341CF08B350CF4805E78
:1033D000659161341CF06B350CF4605E861B6111E5
:1033E00071F3990B0895881BFCCF0F931F93CF9314
:1033F000DF938C01EB018B8181FF1BC082FF0DC02D
:103400002E813F818C819D812817390764F4E881E2
:10341000F9810193F983E88306C0E885F985802F57
:103420001995892B31F48E819F8101969F838E831C
:1034300002C00FEF1FEFC801DF91CF911F910F91D5
:1034400008959C01F999FECF32BD21BDF89A60B56F
:10345000F999FECF2F5F3F4F32BD21BD2150304043
:10346000F89A70B5F999FECF2E5F3F4F32BD21BD5E
:1034700022503040F89A80B5F999FECF2D5F3F4F2A
:1034800032BD21BDF89A90B508959C01F999FECFFF
:103490001FBA32BD21BD40BD0FB6F894FA9AF99A11
:1034A0000FBEF999FECF1FBA2F5F3F4F32BD21BD2E
:1034B0002150304050BD0FB6F894FA9AF99A0FBED9
:1034C000F999FECF1FBA2E5F3F4F32BD21BD22506A
:1034D000304060BD0FB6F894FA9AF99A0FBEF99988
:1034E000FECF1FBA2D5F3F4F32BD21BD70BD0FB65D
:1034F000F894FA9AF99A0FBE0895CF93DF93FC01DE
:10350000EB014230510570F06385748585859685A1
:1035100020E030E040E854E40F94481A0F948718F4
:103520007983688382E090E0DF91CF910895CF9313
:10353000DF93EC01FB014230510518F420E030E04C
:1035400012C06081718180E090E00F94B31820E098
:1035500030E040E85AE30F94481A6B877C878D87E8
:103560009E8722E030E0C901DF91CF910895DC0110
:10357000FB0187818C93868111968C9311978581AD
:1035800012968C931297848113968C931397838150
:1035900014968C931497828115968C93159781813C
:1035A00016968C931697808117968C9308951F9288
:1035B0000F920FB60F920BB60F9211242F933F93D9
:1035C0004F938F939F93EF93FF934091C600209169
:1035D0004F16309150162F5F3F4F809153169091A8
:1035E000541628233923809151169091521628178A
:1035F000390779F080914F1690915016E091551649
:10360000F0915616E80FF91F40833093501620931F
:103610004F16FF91EF919F918F914F913F912F9175
:103620000F900BBE0F900FBE0F901F9018951F921A
:103630000F920FB60F920BB60F9211242F933F9358
:103640008F939F93EF93FF93209171163091721691
:1036500080916F169091701628173907E9F08091C4
:10366000711690917216E0917516F0917616E80F2A
:10367000F91F80818093C600809171169091721617
:1036800001962091731630917416822393239093A0
:1036900072168093711610C020916F1630917016BB
:1036A00080917116909172162817390729F480912C
:1036B000C1008F7D8093C100FF91EF919F918F9109
:1036C0003F912F910F900BBE0F900FBE0F901F9048
:1036D00018951F920F920FB60F920BB60F921124EE
:1036E0002F933F934F938F939F93EF93FF9340912B
:1036F000CE0020915716309158162F5F3F4F809182
:103700005B1690915C16282339238091591690916D
:103710005A162817390779F0809157169091581644
:10372000E0915D16F0915E16E80FF91F408330932B
:10373000581620935716FF91EF919F918F914F91BB
:103740003F912F910F900BBE0F900FBE0F901F90C7
:1037500018951F920F920FB60F920BB60F9211246D
:103760002F933F938F939F93EF93FF93209179161D
:1037700030917A168091771690917816281739072C
:10378000E9F08091791690917A16E0917D16F0918A
:103790007E16E80FF91F80818093CE008091791604
:1037A00090917A16019620917B1630917C16822397
:1037B000932390937A168093791610C020917716F0
:1037C000309178168091791690917A1628173907DA
:1037D00029F48091C9008F7D8093C900FF91EF91FA
:1037E0009F918F913F912F910F900BBE0F900FBE25
:1037F0000F901F9018951F920F920FB60F920BB655
:103800000F9211242F933F934F938F939F93EF9396
:10381000FF934091360120916716309168162F5F13
:103820003F4F80916B1690916C162823392380911D
:10383000691690916A162817390779F080916716F2
:1038400090916816E0916D16F0916E16E80FF91FD1
:1038500040833093681620936716FF91EF919F91F4
:103860008F914F913F912F910F900BBE0F900FBEF4
:103870000F901F9018951F920F920FB60F920BB6D4
:103880000F9211242F933F938F939F93EF93FF9366
:103890002091891630918A1680918716909188160A
:1038A00028173907E9F08091891690918A16E091DE
:1038B0008D16F0918E16E80FF91F808180933601E6
:1038C0008091891690918A16019620918B163091DD
:1038D0008C168223932390938A168093891610C0A6
:1038E00020918716309188168091891690918A16BA
:1038F0002817390729F4809131018F7D8093310198
:10390000FF91EF919F918F913F912F910F900BBE5F
:103910000F900FBE0F901F901895EF92FF920F938C
:103920001F9380911B1690911C16A0911D16B091AB
:103930001E16853E2CE0920720E0A20720E0B20789
:103940001CF080917E0A07C08C51934FAF4FBF4F40
:1039500054F48091720A992787FD90959093A70D52
:103960008093A60D2BC06091AF0A772767FD7095F5
:10397000882777FD8095982F0F94B5187B018C01CF
:1039800060914315709144158091451590914615AD
:1039900020916E0930916F09409170095091710921
:1039A0000F94481A9B01AC01C801B7010F94361758
:1039B0000F9482187093A70D6093A60D2091A60D09
:1039C0003091A70D8091720A992787FD909528174D
:1039D00039074CF080917E0A992787FD909528172A
:1039E00039070CF4C9019093A70D8093A60D1F9180
:1039F0000F91FF90EF9008950F931F93CF93DF9354
:103A000060918A0A6623B1F1C091AA0DD091AB0DE5
:103A10000091640310916503772767FD7095872FE8
:103A2000972F0F94B5182091600330916103409156
:103A30006203509163030F94481A20E030E040E2A3
:103A400051E40F94481A0F9482189801261B370BE3
:103A5000C217D3073CF09B01200F311FC217D307B9
:103A60000CF49E013093AB0D2093AA0D30936503A7
:103A700020936403DF91CF911F910F9108954F928E
:103A80005F926F927F928F929F92AF92BF92CF92EE
:103A9000DF92EF92FF920F931F93DF93CF93CDB7F7
:103AA000DEB72F970FB6F894DEBF0FBECDBF9A2DAD
:103AB000A982EB2DBA82FC2DCB82DC82ED82FE82C4
:103AC0000F83188729873A874B875C876D877E87A6
:103AD0008F874C815D816E817F81A884B984CA847F
:103AE000DB844C845D846E847F8497FE03C020E079
:103AF00030E00BC08091DF09A82FBB27A7FDB09550
:103B00009401A815B9050CF49D01890184E0000F0A
:103B1000111F8A95E1F7021B130B00501C4FE0FDAB
:103B200002C0E0E006C0E0E0232B09F4E1E081E020
:103B3000E827F999FECF1FBA12BD01BD90BD0FB69F
:103B4000F894FA9AF99A0FBEC801AA2797FDA09592
:103B5000BA2F0196A11DB11DF999FECF1FBA92BDD2
:103B600081BDE0BD0FB6F894FA9AF99A0FBE7C01B8
:103B70008D010894E11CF11C011D111DF999FECF66
:103B80001FBAF2BCE1BCF0BD0FB6F894FA9AF99AEC
:103B90000FBE0894E11CF11C011D111DC70175DC4D
:103BA00084E090E0A0E0B0E0E80EF91E0A1F1B1FC1
:103BB000C701B601A50169DC84E090E0A0E0B0E0B7
:103BC000E80EF91E0A1F1B1FC701B301A2015DDC2D
:103BD0002F960FB6F894DEBF0FBECDBFCF91DF9109
:103BE0001F910F91FF90EF90DF90CF90BF90AF901B
:103BF0009F908F907F906F905F904F900895AF92BD
:103C0000BF92CF92DF92EF92FF920F931F93DF93B9
:103C1000CF93CDB7DEB728970FB6F894DEBF0FBEAF
:103C2000CDBF9C0180911B0A992787FD9095821733
:103C3000930740F4AA24BB24650180E090E0A0E053
:103C4000B0E01EC024513E4F93E0220F331F9A95DF
:103C5000E1F7790100E010E0C901F3DBAC01CB0131
:103C6000DA015C016D0184E090E0A0E0B0E0E80ED4
:103C7000F91E0A1F1B1FC701E4DBAC01CB01DA01EF
:103C8000A982BA82CB82DC828D839E83AF83B88780
:103C90002A2D3A814B815C81682F7E818F819885A6
:103CA00028960FB6F894DEBF0FBECDBFCF91DF913F
:103CB0001F910F91FF90EF90DF90CF90BF90AF904A
:103CC000089580915F03882329F48091250C813029
:103CD00009F046C08091D9149091DA14A091DB14B8
:103CE000B091DC142091D8063091D9064091DA06C3
:103CF0005091DB06821B930BA40BB50B809314161B
:103D000090931516A0931616B0931716809114165B
:103D100090911516A0911616B0911716813526E4CC
:103D2000920720E0A20720E0B2072CF0805A9C48BE
:103D3000A040B0400CC0803B29EB92072FEFA207B8
:103D40002FEFB20724F480569347AF4FBF4F8093B5
:103D5000141690931516A0931616B093171608957F
:103D6000E091FA13F091FB138091D9149091DA1439
:103D7000A091DB14B091DC14248D358D468D578DC8
:103D8000B9CF2091D80C3091D90C8091FE0C909134
:103D9000FF0C281B390B253631051CF08AE0809377
:103DA0004C152C593F4F1CF486EF80934C15809195
:103DB0004C1518161CF4815080934C1580914C15AD
:103DC00087FF03C08F5F80934C1580914C15813025
:103DD00019F08F3F09F080E00895CF93DF93FC0145
:103DE000EB014430510540F083859485A585B68567
:103DF00088839983AA83BB8384E090E0DF91CF918D
:103E00000895CF93DF93EC01FB014430510540F05E
:103E100080819181A281B3818B879C87AD87BE878A
:103E200084E090E0DF91CF910895FC016385748573
:103E3000858596850D94B518FC01DB01452B11F0A5
:103E400083858C9381E090E00895DC01FB01452B94
:103E500019F080811B968C9381E090E00895FC011D
:103E60006385772767FD7095872F972F0D94B51879
:103E7000FC01DB014230510520F0838594858D9350
:103E80009C9382E090E00895DC01FB0142305105F3
:103E900030F0808191811C969C938E931B9782E0D9
:103EA00090E00895FC0163857485882777FD8095EF
:103EB000982F0D94B518FC012385348545855685CA
:103EC000B901CA010895CF93DF93FC01EB0144309F
:103ED000510540F083859485A585B68588839983AF
:103EE000AA83BB8384E090E0DF91CF910895CF93C4
:103EF000DF93EC01FB014430510540F0808191815A
:103F0000A281B3818B879C87AD87BE8784E090E0D8
:103F1000DF91CF910895EF92FF920F931F937A0153
:103F20008B018632D9F087322CF4893081F08331CD
:103F300081F507C08F36F1F0833721F1893349F5D8
:103F400013C0E12C7BE4F72E012D112D28C060E871
:103F5000E62E65E2F62E012D112D21C0E12C56E949
:103F6000F52E012D112D1BC0E12C41EEF42E012D5B
:103F7000112D15C03CEFE32E31EBF32E31E0032F72
:103F8000112D0DC0E12C22ECF22E21E0022F112D7B
:103F900006C08EEB95E068E770E20E94B7A7B70114
:103FA000C8011F910F91FF90EF90089500D00F92DC
:103FB0008EEB95E0EDB7FEB7928381838AE595E0BD
:103FC000948383830E9497A70F900F900F900F9078
:103FD00008952EEB35E0882349F000D00F92EDB71D
:103FE000FEB7328321838DE196E008C000D00F92A6
:103FF000EDB7FEB73283218389E196E09483838312
:104000000E9497A78EEB95E0EDB7FEB79283818370
:1040100082E196E0948383830E9497A70F900F908C
:104020000F900F90089500D00F928EEB95E0EDB7B2
:10403000FEB7928381838BEB9AE0948383830E9403
:1040400097A70F900F900F900F9080E0089500D0E9
:104050000F928EEB95E0EDB7FEB79283818382E8F5
:104060009CE0948383830E9497A780E090E00F9068
:104070000F900F900F90F999FECF1FBA92BD81BD9E
:1040800010BC0FB6F894FA9AF99A0FBE0196F0E1B7
:1040900080309F0781F700D00F928EEB95E0EDB74F
:1040A000FEB7928381838CE79CE0948383830E9494
:1040B00097A70F900F900F900F9008950F931F9355
:1040C0008DB79EB70A970FB6F8949EBF0FBE8DBFEF
:1040D000EDB7FEB731960EEB15E0ADB7BEB7129651
:1040E0001C930E9311978BE29DE0938382838091C2
:1040F000F10C9091F20C958384838091FE0C909149
:10410000FF0C9783868380910B0D90910C0D918706
:1041100080870E9497A7EDB7FEB73196ADB7BEB7BF
:1041200012961C930E93119788E19DE093838283EE
:104130008091540D9091550D958384838091610DEC
:104140009091620D9783868380916E0D90916F0D93
:10415000918780870E9497A7EDB7FEB73196ADB7DC
:10416000BEB712961C930E93119785E09DE0938342
:1041700082838091B70D9091B80D9583848380914F
:10418000C40D9091C50D978386838091D10D909138
:10419000D20D918780870E9497A7EDB7FEB7319621
:1041A000ADB7BEB712961C930E93119782EF9CE0A9
:1041B0009383828380911A0E90911B0E9583848342
:1041C0008091270E9091280E978386838091340EDC
:1041D0009091350E918780870E9497A7EDB7FEB723
:1041E0003196ADB7BEB712961C930E9311978FED13
:1041F0009CE09383828380917D0E90917E0E9583C7
:10420000848380918A0E90918B0E97838683809110
:10421000970E9091980E918780870E9497A7EDB78F
:10422000FEB73196ADB7BEB712961C930E93119799
:104230008CEC9CE0938382838091060F9091070F12
:10424000958384838091130F9091140F97838683B5
:104250008091200F9091210F918780870E9497A7CE
:10426000EDB7FEB73196ADB7BEB712961C930E935D
:10427000119789EB9CE09383828380918F0F9091BB
:10428000900F9583848380919C0F90919D0F9783CD
:1042900086838091A90F9091AA0F918780870E94B1
:1042A00097A7EDB7FEB73196ADB7BEB712961C9380
:1042B0000E93119786EA9CE0938382838091181075
:1042C00090911910958384838091251090912610E8
:1042D00097838683809132109091331091878087E5
:1042E0000E9497A78DB79EB70A960FB6F8949EBF07
:1042F0000FBE8DBF1F910F910895CF93DF93FC01E7
:104300008DB79EB744970FB6F8949EBF0FBE8DBF72
:104310002DB73EB72F5F3F4F8EEB95E0ADB7BEB7E1
:1043200012969C938E93119780E39EE0E9019B8304
:104330008A8386899789A08DB18D8C839D83AE8376
:10434000BF8385A196A1A7A1B0A588879987AA87D1
:10435000BB8784A995A9A6A9B7A98C879D87AE8795
:10436000BF87ED5BFF4F80819181AA2797FDA095C4
:10437000BA2FF901808B918BA28BB38B0E9497A7E8
:104380008DB79EB744960FB6F8949EBF0FBE8DBFF3
:10439000DF91CF9108958DB79EB740970FB6F894EF
:1043A0009EBF0FBE8DBFEDB7FEB731968EEB95E089
:1043B000ADB7BEB712969C938E9311978CEE9EE08C
:1043C000938382838091B8069091B906A091BA0632
:1043D000B091BB0684839583A683B7838091BC0686
:1043E0009091BD06A091BE06B091BF0680879187CF
:1043F000A287B3878091C0069091C106A091C206A2
:10440000B091C30684879587A687B7870E9497A730
:104410008DB79EB740960FB6F8949EBF0FBE8DBF66
:1044200008958DB79EB740970FB6F8949EBF0FBE04
:104430008DBFEDB7FEB731968EEB95E0ADB7BEB749
:1044400012969C938E9311978FE09FE093838283C3
:104450008091C4069091C506A091C606B091C7068A
:1044600084839583A683B7838091C8069091C906FB
:10447000A091CA06B091CB0680879187A287B387A7
:104480008091CC069091CD06A091CE06B091CF063A
:1044900084879587A687B7870E9497A78DB79EB711
:1044A00040960FB6F8949EBF0FBE8DBF089500D002
:1044B0000F928EEB95E0EDB7FEB7928381838FEC80
:1044C0009FE0948383830E9497A70F900F900F9093
:1044D0000F900895CF93DF93CEEBD5E0CE0163E14B
:1044E00075E00E94B7A787E096E00E94D2CE8823AD
:1044F00031F4CE0168EF74E00E94B7A783C087E073
:1045000096E00E9478D02DB73EB7285030400FB6C5
:10451000F8943EBF0FBE2DBFEDB7FEB73196ADB7D5
:10452000BEB71296DC93CE93119781ED94E09383FE
:104530008283809118068483158280911906909158
:104540001A06978386830E9497A7EDB7FEB7319628
:10455000ADB7BEB71296DC93CE93119785EB94E07E
:104560009383828380911D0690911E060196958308
:10457000848380911B0690911C06978386830E94FA
:1045800097A72DB73EB7285F3F4F0FB6F8943EBFB1
:104590000FBE2DBF60911D0670911E066F5F7F4F8D
:1045A00087E096E00E94BDCA87E096E00E94CDCBEE
:1045B000ADB7BEB71C970FB6F894BEBF0FBEADBF68
:1045C000EDB7FEB731961296DC93CE93119722E8A1
:1045D00034E033832283648375838683978381E108
:1045E00090E2A2E1B8E280879187A287B3870E9418
:1045F00097A72DB73EB7245F3F4F0FB6F8943EBF45
:104600000FBE2DBF80E0DF91CF91089580910F0AFA
:10461000882361F06091270A662341F0615085EF9D
:1046200095E00E9477BB885E934058F4E0911315A3
:10463000F0911415309711F480E00895128280E013
:104640000895E091FA13F091FB1380A58823C1F33C
:1046500081E008956091DF0A615085EF95E00E9446
:1046600077BB9C018F5893408B59944010F08FEF8B
:104670000895C9018F5C94408238910510F481E05F
:104680000895C901815595408238910510F482E062
:104690000895C901835D95408238910510F483E047
:1046A0000895C901855596408138910510F484E03C
:1046B0000895265D364010F480E0089585E0089561
:1046C000DF93CF9300D0CDB7DEB72091AE0329831F
:1046D00023E02A8322E02B8360E0AE014F5F5F4F2F
:1046E00023E00F94CD0D0F900F900F90CF91DF919D
:1046F00008956F927F928F929F92AF92BF92CF92C6
:10470000DF920F931F93DF93CF93CDB7DEB76B97F5
:104710000FB6F894DEBF0FBECDBF3C014B018091B8
:104720004603863011F1873048F4813079F18130C9
:1047300098F08230A9F0853089F414C08C3001F1F2
:104740008D3028F48A30B1F08B3041F416C08F30B0
:1047500079F0803119F417C012E019C010E017C0C9
:1047600015E015C016E001E013C016E002E010C02D
:1047700013E00DC014E003E00BC014E005E008C036
:1047800014E008E005C010E000E002C017E004E01B
:104790006091770C7091780C882777FD8095982F21
:1047A0000F94B5186C8B7D8B8E8B9F8B209124146E
:1047B0003091251440912614509127140F943517E9
:1047C00020E030E04AE754E40F94481A2C893D89F0
:1047D0004E895F890F941A180F9487185B016C013A
:1047E00060914703709148038091490390914A0377
:1047F00020E030E04AE754E40F94481A0F948718F9
:10480000688F798F8A8F9B8F6091BE147091BF14CF
:104810008091C0149091C11420E030E04AE754E444
:104820000F94481A0F9487187A836983888D998D1D
:104830009C838B83BE82AD8298868F8219870A877C
:1048400084E08B878A818C8789818D878C818E8794
:104850008B818F878E81888B8D81898B88858A8BD0
:104860008F818B8BC30162E2AE01475F5F4F2BE00C
:104870000F94CD0D6B960FB6F894DEBF0FBECDBF73
:10488000CF91DF911F910F91DF90CF90BF90AF90AC
:104890009F908F907F906F9008952F923F924F92AC
:1048A0005F926F927F928F929F92AF92BF92CF92C0
:1048B000DF92EF92FF920F931F93DF93CF93CDB7C9
:1048C000DEB7CE54D0400FB6F894DEBF0FBECDBFDA
:1048D0002F969FAF8EAF2F97DE019596E2E0F7E01F
:1048E00084E201900D928150E1F72091CD14309136
:1048F000CE144091CF145091D0142D962CAF3DAFD3
:104900004EAF5FAF2D970091FA131091FB13D801B2
:1049100054966D917D918D919C9157972AE030E04E
:1049200040E050E00F941D1B1B012C01F801608D2D
:10493000718D828D938D0F94B5187B018C012DA103
:104940003EA14FA158A50F94481A0F9482183B011D
:104950004C01C801B70129A93AA94BA95CA90F9438
:10496000481A0F9482185B016C01C801B701FE015F
:10497000FD9620813181428153810F94481A0F9412
:1049800082182091C9143091CA144091CB145091CF
:10499000CC142F83388749875A872D962CAD3DAD8F
:1049A0004EAD5FAD2D972B873C874D875E872F8659
:1049B000388A498A5A8A7A826982BC82AB827E832B
:1049C0006D83FE01379683818B8B82818C8B8181F5
:1049D0008D8B8F818E8BFE013B9683818F8B8281A5
:1049E000888F8181898F8B858A8FFE013F96838195
:1049F0008B8F82818C8F81818D8F8F858E8F8A8125
:104A00008F8F898188A38C8189A38B818AA38E81D2
:104A10008BA38D818CA32F968EAD9FAD2F9769E4CC
:104A2000AE014D5E5F4F22E10F94CD0DC25BDF4FB3
:104A30000FB6F894DEBF0FBECDBFCF91DF911F91AF
:104A40000F91FF90EF90DF90CF90BF90AF909F902D
:104A50008F907F906F905F904F903F902F90089530
:104A60002F923F924F925F926F927F928F929F927E
:104A7000AF92BF92CF92DF92EF92FF920F931F936C
:104A8000DF93CF93CDB7DEB7EE970FB6F894DEBFC6
:104A90000FBECDBF9AAF89AF6091D5147091D61477
:104AA0008091D7149091D8140F94B51820E030E07D
:104AB00048EC52E40F941A183B014C016091D91450
:104AC0007091DA148091DB149091DC140F94B51876
:104AD00020E030E048EC52E40F941A180F9482184A
:104AE0006BAF7CAF8DAF9EAF6091DD147091DE1423
:104AF0008091DF149091E0140F94B51820E030E01D
:104B000048EC52E40F941A180F9482181B012C01E0
:104B10004090E1145090E2146091E5147091E61415
:104B20008091E7149091E8140F94B51820E030E0DC
:104B300048EC52E40F941A187B018C016091E9143F
:104B40007091EA148091EB149091EC140F94B518C5
:104B500020E030E048EC52E40F941A185B016C013D
:104B60008091ED149091EE14A091EF14B091F01497
:104B70008DAB9EABAFABB8AF6091D1147091D21436
:104B80008091D3149091D4140F94B51820E030E0A4
:104B900048EC52E40F941A186F83788789879A87B4
:104BA000C301D4018B879C87AD87BE87ABADBCADFD
:104BB000BA83A9833C822B825E824D82C701D801D1
:104BC0008F87988BA98BBA8BC501D6018B8B9C8B59
:104BD000AD8BBE8B8DA99EA9AFA9B8AD8F8B988FD9
:104BE000A98FBA8FFE01379683818B8F82818C8F3C
:104BF00081818D8F8F818E8FFE013B9683818F8F78
:104C0000828188A3818189A38B858AA38A818BA3D2
:104C100089818CA38C818DA38B818EA38E818FA3A0
:104C20008D8188A7FE013F96838189A782818AA70B
:104C300081818BA78F858CA7FE01739683818DA7B9
:104C400082818EA781818FA78B8988ABFE017796A1
:104C5000838189AB82818AAB81818BAB8F898CAB5D
:104C600089AD9AAD6EE3AE01455E5F4F2AE10F94C8
:104C7000CD0DEE960FB6F894DEBF0FBECDBFCF912F
:104C8000DF911F910F91FF90EF90DF90CF90BF9039
:104C9000AF909F908F907F906F905F904F903F90DC
:104CA0002F900895CF92DF92EF92FF920F931F9370
:104CB000DF93CF93CDB7DEB7A1970FB6F894DEBFE1
:104CC0000FBECDBF40913B0D50913C0D60919E0DAC
:104CD00070919F0DE091010EF091020EA091640E73
:104CE000B091650E0091ED0E1091EE0EE090760FF2
:104CF000F090770FC090FF0FD09000102091D80C4B
:104D00003091D90C3A8329835C834B837E836D83F6
:104D1000F887EF83BA87A9871C870B87FE86ED8605
:104D2000D88ACF862A81298B29812A8B2C812B8BAB
:104D30002B812C8B2E812D8B2D812E8B28852F8BDB
:104D40002F81288F2A85298F29852A8F2C852B8FC3
:104D50002B852C8F2E852D8F2D852E8F28892F8F9B
:104D60002F8528A321E029A363E2AE014F5E5F4FA8
:104D700021E10F94CD0DA1960FB6F894DEBF0FBEC2
:104D8000CDBFCF91DF911F910F91FF90EF90DF90FA
:104D9000CF900895CF92DF92EF92FF920F931F93DF
:104DA000DF93CF93CDB7DEB7A0970FB6F894DEBFF1
:104DB0000FBECDBF4091470D5091480D6091AA0D97
:104DC0007091AB0DE0910D0EF0910E0EA091700E52
:104DD000B091710E0091F90E1091FA0EE090820FD1
:104DE000F090830FC0900B10D0900C102091E40C29
:104DF0003091E50C3A8329835C834B837E836D83FA
:104E0000F887EF83BA87A9871C870B87FE86ED8614
:104E1000D88ACF862A81298B29812A8B2C812B8BBA
:104E20002B812C8B2E812D8B2D812E8B28852F8BEA
:104E30002F81288F2A85298F29852A8F2C852B8FD2
:104E40002B852C8F2E852D8F2D852E8F28892F8FAA
:104E50002F8528A365E2AE014F5E5F4F20E10F94DE
:104E6000CD0DA0960FB6F894DEBF0FBECDBFCF918B
:104E7000DF911F910F91FF90EF90DF90CF900895F9
:104E8000DF93CF9300D00F92CDB7DEB72091EB091F
:104E9000332727FD30953A8329832A812B83298163
:104EA0002C836AE2AE014D5F5F4F22E00F94CD0D7F
:104EB0000F900F900F900F90CF91DF9108950F9367
:104EC0001F93DF93CF93CDB7DEB72E970FB6F8942D
:104ED000DEBF0FBECDBF8C0199DB882361F1E0916D
:104EE0001315F0911415309731F162817581268187
:104EF000378140855185838194819A8389832B836F
:104F00003C834D835E836F838A818887898189870B
:104F10007A87FE01339683818B8782818C8781819A
:104F20008D878B818E87C80162EAAE01495F5F4F32
:104F300028E00F94CD0D2E960FB6F894DEBF0FBE6D
:104F4000CDBFCF91DF911F910F910895DF93CF9344
:104F500000D000D0CDB7DEB7FC0187898823E9F007
:104F6000408951898091DF09992787FD90958417A1
:104F7000950798F083859485228934895A834983DB
:104F80002B833C832A812D8329812E8368E2AE0105
:104F90004D5F5F4F24E00F94CD0D26960FB6F89429
:104FA000DEBF0FBECDBFCF91DF910895EF92FF928C
:104FB0000F931F93DF93CF93CDB7DEB728970FB62C
:104FC000F894DEBF0FBECDBF7C010091C3181091D5
:104FD000C4180F94EC101A8309839C838B838A81F5
:104FE0008D8389818E838C818F838B818887C70194
:104FF00068E9AE014B5F5F4F24E00F94CD0D28961A
:105000000FB6F894DEBF0FBECDBFCF91DF911F91D9
:105010000F91FF90EF9008952F923F924F925F92E1
:105020006F927F928F929F92AF92BF92CF92DF92B8
:10503000EF92FF920F931F93DF93CF93CDB7DEB71D
:10504000CA54D0400FB6F894DEBF0FBECDBF2B962A
:105050009FAF8EAF2B9780915E0790915F07A091D5
:105060006007B091610729968CAF9DAFAEAFBFAF1F
:10507000299780915A0790915B07A0915C07B091A6
:105080005D0725968CAF9DAFAEAFBFAF2597209043
:1050900056073090570740905807509059070F9483
:1050A0000B139B01AC01E090DC06F090DD06009153
:1050B000DE061091DF06A090E006B090E106C090F9
:1050C000E206D090E3066090E4067090E5068090DA
:1050D000E6069090E706698F3A8F4B8F5C8F1D8EA6
:1050E0001E8E1F8E18A2E982FA820B831C83AD826A
:1050F000BE82CF82D88669867A868B869C862D86EC
:105100003E864F86588A25968CAD9DADAEADBFAD1F
:105110002597898B9A8BAB8BBC8B29968CAD9DADDB
:10512000AEADBFAD29978D8B9E8BAF8BB88F8E01A7
:105130000F5D1F4FC801BE01675E7F4F0E94B71A07
:10514000FE013196838189A782818AA781818BA7FD
:1051500089818CA7FE01359683818DA782818EA7D8
:1051600081818FA78D8188ABFE013996838189ABC0
:1051700082818AAB81818BAB89858CABFE013D96A8
:1051800083818DAB82818EAB81818FAB8D8588AF22
:10519000FE017196838189AF82818AAF81818BAF55
:1051A00089898CAFFE01759683818DAF82818EAF28
:1051B00081818FAF8D89FE01E05CFF4F80832B964C
:1051C0008EAD9FAD2B976EE1A80120E20F94CD0D1F
:1051D000C65BDF4F0FB6F894DEBF0FBECDBFCF91D9
:1051E000DF911F910F91FF90EF90DF90CF90BF90D4
:1051F000AF909F908F907F906F905F904F903F9077
:105200002F9008952F923F924F925F926F927F92CC
:105210008F929F92AF92BF92CF92DF92EF92FF92C6
:105220000F931F93DF93CF93CDB7DEB7C655D04012
:105230000FB6F894DEBF0FBECDBF1C010F940B1349
:105240005B016C018090FA139090FB13F401F7A9B5
:105250002B96FFAF2B97F40164857585868597851E
:105260000F94B51820E836E948E15BE40F941A186A
:105270002B013C01F40160897189828993890F9423
:10528000B51820E836E948E15BE40F941A182F9628
:105290006CAF7DAF8EAF9FAF2F97F4016489758996
:1052A000868997890F94B51820E030E048EC52E4E5
:1052B0000F941A1863966CAF7DAF8EAF9FAF639754
:1052C000F40164A175A1882777FD8095982F0F942C
:1052D000B5186D877E878F87988BF401608D718DEF
:1052E000828D938D0F94B51820E030E048EC52E4A5
:1052F0000F941A1867966CAF7DAF8EAF9FAF67970C
:10530000F401648D758D868D978D0F94B51820E00E
:1053100030E048EC52E40F941A18AD8EBE8ECF8E5A
:10532000D8A219A21AA21BA21CA29201A30129832E
:105330003A834B835C832C96EFAD2C972D96FFAD73
:105340002D972E96AFAD2E972F96BFAD2F979F011D
:10535000AD012D833E834F8358876096EFAD6097F4
:105360006196FFAD61976296AFAD62976396BFADF0
:1053700063979F01AD0129873A874B875C8720E0BF
:1053800030E040E050E0298B3A8B4B8B5C8B64968D
:10539000EFAD64976596FFAD65976696AFAD66977E
:1053A0006796BFAD67979F01AD012D8B3E8B4F8BED
:1053B000588FAC01CB01DA01898F9A8FAB8FBC8FEC
:1053C0008E010B5D1F4FC801BE01635E7F4F0E94BF
:1053D000B71A2B96FFAD2B97FDA7FE01319683815F
:1053E0008EA782818FA7818188AB898189ABFE01DD
:1053F000359683818AAB82818BAB81818CAB8D8129
:105400008DABFE01399683818EAB82818FAB81811A
:1054100088AF898589AFFE013D9683818AAF8281FD
:105420008BAF81818CAF8D858DAFFE0171968381AD
:105430008EAF82818FAF8181FE01E05CFF4F808360
:105440008989FE01EF5BFF4F8083DE01559613963D
:105450008C911397FE01EE5BFF4F808312968C9127
:105460001297FE01ED5BFF4F808311968C91FE0138
:10547000EC5BFF4F80838D89FE01EB5BFF4F8083E8
:10548000DE01599613968C911397FE01EA5BFF4F4C
:10549000808312968C911297FE01E95BFF4F808307
:1054A00011968C91FE01E85BFF4F8083898DFE0190
:1054B000E75BFF4F8083C10160E2A80125E20F9402
:1054C000CD0DCA5ADF4F0FB6F894DEBF0FBECDBF69
:1054D000CF91DF911F910F91FF90EF90DF90CF90D0
:1054E000BF90AF909F908F907F906F905F904F9004
:1054F0003F902F9008952F923F924F925F926F921C
:105500007F928F929F92AF92BF92CF92DF92EF9253
:10551000FF920F931F93DF93CF93CDB7DEB7C256A1
:10552000D0400FB6F894DEBF0FBECDBFA3969FAF9D
:105530008EAFA3970091F1141091F214E090F31440
:10554000F090F414C090F514D090F614A090F714D5
:10555000B090F8148090F9149090FA146090FB14B5
:105560007090FC144090FD145090FE142090FF1495
:10557000309000158091011590910215A1969FAF72
:105580008EAFA19780910315909104156F969FAFF0
:105590008EAF6F9780910515909106156D969FAF10
:1055A0008EAF6D9780910715909108156B969FAF00
:1055B0008EAF6B978091091590910A1569969FAFF0
:1055C0008EAF699780910B1590910C1567969FAFE0
:1055D0008EAF679780910D1590910E1565969FAFD0
:1055E0008EAF659780910F159091101563969FAFC0
:1055F0008EAF63970F940B139B01AC011A83098341
:10560000FC82EB82DE82CD82B886AF829A86898662
:105610007C866B865E864D86388A2F86A1968EADF7
:105620009FADA1979A8B898B6F968EAD9FAD6F972B
:105630009C8B8B8B6D968EAD9FAD6D979E8B8D8B5E
:105640006B968EAD9FAD6B97988F8F8B69968EAD55
:105650009FAD69979A8F898F67968EAD9FAD67973B
:105660009C8F8B8F65968EAD9FAD65979E8F8D8F2E
:1056700063968EAD9FAD639798A38F8F29A33AA3AE
:105680004BA35CA31DA21EA21FA218A68A8189A7F4
:1056900089818AA78C818BA78B818CA78E818DA70E
:1056A0008D818EA788858FA78F8188AB8A8589ABEE
:1056B00089858AAB8C858BAB8B858CAB8E858DABCE
:1056C0008D858EAB88898FAB8F8588AF8A8989AFAE
:1056D00089898AAF8C898BAF8B898CAF8E898DAF8E
:1056E0008D898EAF888D8FAF8F89FE01E05CFF4F73
:1056F00080838A8DFE01EF5BFF4F8083898DFE01E1
:10570000EE5BFF4F80838C8DFE01ED5BFF4F80834E
:105710008B8DFE01EC5BFF4F80838E8DFE01EB5B7A
:10572000FF4F80838D8DFE01EA5BFF4F808388A150
:10573000FE01E95BFF4F80838F8DFE01E85BFF4F29
:1057400080838E01075D1F4FC8018096BE016F5D8B
:105750007F4F0E94B71AA3968EAD9FADA3976FE6B9
:10576000A80128E20F94CD0DCE59DF4F0FB6F89463
:10577000DEBF0FBECDBFCF91DF911F910F91FF9084
:10578000EF90DF90CF90BF90AF909F908F907F90E1
:105790006F905F904F903F902F9008952F923F927F
:1057A0004F925F926F927F928F929F92AF92BF9231
:1057B000CF92DF92EF92FF920F931F93DF93CF93DD
:1057C000CDB7DEB7C454D0400FB6F894DEBF0FBEDD
:1057D000CDBF25969FAF8EAF259760908B067090BA
:1057E0008C0680908D0690908E06A0908706B090D3
:1057F0008806C0908906D0908A06E0908306F090D3
:10580000840600918506109186068091A3069091EA
:10581000A406A091A506B091A60689AF9AAFABAF3A
:10582000BCAF80919F069091A006A091A106B09177
:10583000A2068DAB9EABAFABB8AF20909B0630906D
:105840009C0640909D0650909E060F940B139B0162
:10585000AC01A0914513B09146132396BFAFAEAFF4
:105860002397809147139091481321969FAF8EAF55
:105870002197A0914913B0914A13BEAFADAF2B8BC6
:105880003C8B4D8B5E8B1F8A188E198E1A8EC80129
:10589000B70120E030E04AE754E40F94481A23ECC3
:1058A00035EF4CE151E40F941A180F9482187A8363
:1058B0006983C601B50120E030E04AE754E40F9463
:1058C000481A23EC35EF4CE151E40F941A180F9469
:1058D00082187C836B83C401B30120E030E04AE787
:1058E00054E40F94481A23EC35EF4CE151E40F9443
:1058F0001A180F9482187E836D83C201B10120E0D3
:1059000030E04AE754E40F94481A0F9482187887DD
:105910006F836DA97EA98FA998AD20E030E04AE79A
:1059200054E40F94481A0F9482187A87698769ADF6
:105930007AAD8BAD9CAD20E030E04AE754E40F94A3
:10594000481A0F9482187C876B8723968EAD9FAD83
:1059500023979E878D872196AEADBFAD2197B88BDB
:10596000AF878DAD9EAD9A8B898B8E01055E1F4FE3
:10597000C801BE016D5E7F4F0E94B71A8A818BA35A
:1059800089818CA38C818DA38B818EA38E818FA323
:105990008D8188A7888589A78F818AA78A858BA70B
:1059A00089858CA78C858DA78B858EA78E858FA7E3
:1059B0008D8588AB888989AB8F858AAB8A898BABCB
:1059C00089898CAB25968EAD9FAD25976CE1A8019A
:1059D0002AE10F94CD0DCC5BDF4F0FB6F894DEBFFC
:1059E0000FBECDBFCF91DF911F910F91FF90EF9030
:1059F000DF90CF90BF90AF909F908F907F906F90EF
:105A00005F904F903F902F9008952F923F924F922A
:105A10005F926F927F928F929F92AF92BF92CF923E
:105A2000DF92EF92FF920F931F93DF93CF93CDB747
:105A3000DEB7E3970FB6F894DEBF0FBECDBF9BABCA
:105A40008AAB8DEC9CE00F945F0B7B018C0180E3B3
:105A50009DE00F945F0B5B016C0183E99DE00F9467
:105A60005F0B3B014C0186EF9DE00F945F0B1B0128
:105A70002C0189E59EE00F945F0B6EA77FA788AB92
:105A800099AB82EE9EE00F945F0B6AA77BA78CA771
:105A90009DA78BE69FE00F945F0B6EA37FA388A763
:105AA00099A784EF9FE00F945F0B6AA37BA38CA35D
:105AB0009DA3C801B70120E030E44CE156E40F9407
:105AC000481A0F9482187A836983C601B50120E0D1
:105AD00030E44CE156E40F94481A0F9482187C830A
