:100000000C94520F0C943FD10C9470D10C94A1D14C
:100010000C94D2D10C9403D20C9434D20C9465D2AB
:100020000C9496D20C947F0F0C947F0F0C947F0F3E
:100030000C947F0F0C947F0F0C947F0F0C94AFB037
:100040000C947F0F0C947F0F0C947F0F0C947F0FF8
:100050000C947F0F0C947F0F0C947F0F0C94C7D2DD
:100060000C947F0F0C941B180C945B180C947F0F4E
:100070000C947F0F0C947F0F0C947F0F0C947F0FC8
:100080000C947F0F0C947F0F0C947F0F0C947F0FB8
:100090000C94AD180C94ED180C947F0F0C9429B4AB
:1000A0000C947F0F0C94DCB00C947F0F0C947F0F9A
:1000B0000C947F0F0C947F0F0C9409B10C947F0F5C
:1000C0000C947F0F0C947F0F0C947F0F0C947F0F78
:1000D0000C947F0F0C947F0F0C943F190C947F1994
:1000E0000C947F0F1F5635563C5626562E564356B7
:1000F0007B566D5666565856AE56AE56AE5674562C
:100100004A56515690568156A056A6565F56084AF2
:10011000D73B3BCE016E84BCBFFDC12F3D6C74311B
:100120009ABD56833DDA3D00C77F11BED9E4BB4C72
:100130003E916BAAAABE000000803F07634236B71B
:100140009BD8A71A39685618AEBAAB558C1D3CB768
:10015000CC5763BD6DEDFD753EF6177231BF0000E3
:1001600000803F05A84CCDB2D44EB93836A9020C58
:1001700050B9918688083CA6AAAA2ABE0000008031
:100180003F0664EC1B3C04BC163E3BE5B93CC93C55
:1001900037C29E5A3D660498083EEA69AAAA3E0004
:1001A0000000803F4C6F670064756D7000000000B8
:1001B000000000000000BF4665726173650000002A
:1001C000000000000000EE3E656E61626C6500009C
:1001D0000000000000001C3E64697361626C6500F1
:1001E0000000000000001C3E706C616E6E657200C5
:1001F0006763730000000000000000000000CF7E75
:10020000736574757000726573657400000000009A
:1002100000000000E53D726164696F0000000000AD
:10022000000000003F5C6D6F64657300000000001B
:1002300000000000AA5B636F6D70617373000000C3
:1002400000000000583D6465636C696E6174696FFD
:100250006E000000443D62617474657279000000B4
:10026000000000001D3D73686F7700000000000073
:1002700000000000E83C657261736500000000004A
:1002800000000000412241726475506C616E65206F
:1002900056322E32372053696D756C6174696F6EFA
:1002A000204D6F6465006C6F6773000000000000F4
:1002B00000000000263C73657475700000000000AB
:1002C000000000000E3C7465737400000000000024
:1002D00000000000F63B68656C7000000000000044
:1002E00000000000371D706C616E6E6572000000CA
:1002F00000000000DE3B746573740070776D0000D1
:10030000000000000000000000395B726164696F4A
:10031000000000000000000000B45A7061737374A4
:100320006872750000000000008D386661696C73AA
:10033000616665000000000000B459626174746574
:10034000727900000000000000892672656C6179F6
:100350000000000000000000003D24776179706F0C
:10036000696E747300000000002A237862656500DE
:100370000000000000000000006622656564756DE5
:10038000700000000000000000D2216D6F646573F2
:100390007769746368000000004B216469707377AB
:1003A00069746368657300000079206C6F67676922
:1003B0006E6700000000000000901F466F726D61C4
:1003C000742076657273696F6E3A20256C782020F0
:1003D000457870656374656420666F726D61742022
:1003E00076657273696F6E3A20256C780A004E75D7
:1003F0006D50616765733A202575202050616765EF
:1004000053697A653A2025750A004D616E756661FB
:100410006374757265723A20307825303278202006
:10042000204465766963653A203078253034780A4F
:10043000004552523A204E6F2064617461666C61CF
:10044000736820696E7365727465640054657374B3
:10045000696E672064617461666C617368206C6F9B
:100460006767696E67004D69783A656C65766F6E8F
:1004700073200972657620656C65763A25642C20B8
:10048000726576206368313A25642C207265762087
:100490006368323A25640A004D69783A7374616E74
:1004A00064617264200972657620726F6C6C3A2503
:1004B000642C207265762070697463683A25642C18
:1004C00020726576207275646465723A25640A004C
:1004D00064697020737769746368657320646973F5
:1004E00061626C65642C207573696E6720454550A8
:1004F000524F4D0048697420456E74657220746FC8
:1005000020657869742E0A0A00506F736974696FE8
:100510006E2025640A00436F6E74726F6C2043482E
:100520002000202530327800253034783A004265AA
:1005300067696E205842656520582D4354552052F6
:10054000616E676520616E64205253534920546583
:1005500073743A0A004C6F69746572207261646941
:1005600075733A2025640A0A004869742072616430
:100570006975733A2025640A0025642077617970D3
:100580006F696E74730A00486F6C6420616C7469E3
:1005900074756465206F662025646D0A00486F6C71
:1005A000642063757272656E7420616C7469747511
:1005B00064650A00636F6D6D616E6420233A2025C7
:1005C000642069643A2564206F7074696F6E733AB1
:1005D00025642070313A25642070323A256C6420FD
:1005E00070333A256C642070343A256C64200A001C
:1005F00052656C6179206F66660A0052656C61799C
:10060000206F6E0A004E6F7420656E61626C6564C7
:100610000A00566F6C74733A20313A25322E3266D6
:100620002C20323A25322E32662C20333A25322EB7
:1006300032662C20343A25322E32660A004C4F5353
:1006400020636175736564206E6F206368616E67F7
:100650006520696E2041504D2E0A005448524F5477
:10066000544C45204641494C534146452041435452
:100670004956415445443A2025642C2000434F4EAE
:1006800054524F4C204D4F4445204348414E47451E
:10069000443A20005448524F54544C45204348415A
:1006A0004E474544202564200A00556E706C7567DE
:1006B00020626174746572792C207468726F74742E
:1006C0006C6520696E206E65757472616C2C207487
:1006D00075726E206F666620726164696F2E0A0003
:1006E0004D5347204653204F4646202575004D5315
:1006F00047204653204F4E20257500494E20313A61
:1007000020256409323A20256409333A20256409FA
:10071000343A20256409353A20256409363A2025E3
:100720006409373A20256409383A2025640A0049CB
:100730004E3A09313A20256409323A2025640933BA
:100740003A20256409343A20256409353A20256485
:1007500009363A20256409373A20256409383A20B9
:1007600025640A00506C616E6E6572204D6F646581
:100770000A0A54686973206D6F6465206973206E7E
:100780006F7420696E74656E64656420666F722094
:100790006D616E75616C207573650A0A00436F6D3B
:1007A0006D616E64733A0A20206C6F67732020209D
:1007B00020202020206C6F67207265616462616375
:1007C0006B2F7365747570206D6F64650A202073DC
:1007D000657475702020202020202073657475704A
:1007E000206D6F64650A20207465737420202020BA
:1007F0002020202074657374206D6F64650A0A4D93
:100800006F76652074686520736C69646520737702
:100810006974636820616E64207265736574207406
:100820006F20464C592E0A0A0054657374204D6F90
:1008300064650A0A005365747570204D6F64650A1B
:100840000A494D504F5254414E543A20696620791E
:100850006F752068617665206E6F742070726576A2
:10086000696F75736C79207365742074686973207F
:1008700073797374656D2075702C207573652074A1
:1008800068650A2772657365742720636F6D6D61F3
:100890006E6420746F20696E697469616C697A6531
:1008A0002074686520454550524F4D20746F207369
:1008B000656E7369626C652064656661756C742031
:1008C00076616C7565730A616E64207468656E206C
:1008D0007468652027726164696F2720636F6D6D8E
:1008E000616E6420746F20636F6E666967757265F0
:1008F00020666F7220796F757220726164696F2E45
:100900000A0A000A547970652027592720616E640D
:100910002068697420456E74657220746F2065725A
:1009200061736520616C6C20776179706F696E749A
:1009300020616E6420706172616D657465722064FF
:100940006174612C20616E79206F74686572206B10
:10095000657920746F2061626F72743A2000646F51
:100960006E650A000A45726173696E6720454550DD
:10097000524F4D0A005261772056616C7565730ABB
:1009800000526164696F0A004348383A20256420A8
:100990007C202564207C2025640A004348373A20C7
:1009A0002564207C202564207C2025640A0043489F
:1009B000363A202564207C202564207C2025640A8A
:1009C000004348353A202564207C202564207C2083
:1009D00025640A004348343A202564207C2025649D
:1009E000207C2025640A004348333A202564207C7B
:1009F000202564207C2025640A004348323A2025C3
:100A000064207C202564207C2025640A0043483132
:100A10003A202564207C202564207C2025640A005F
:100A20004D6F6E69746F72696E6720766F6C747348
:100A300020616E642063757272656E74004D6F6E16
:100A400069746F72696E67206261747420766F6C6E
:100A50007473004D6F6E69746F72696E6720342015
:100A600063656C6C004D6F6E69746F72696E6720A0
:100A7000332063656C6C0042617474206D6F6E6925
:100A8000746F72696E672064697361626C6564007B
:100A900042617474204D6F696E746F720A006E61EA
:100AA0007620706974636820616C743A0A00656E20
:100AB0006572677279207468726F74746C653A0A33
:100AC000006E61762070697463682061697273706A
:100AD0006565643A0A006E617620726F6C6C3A0A42
:100AE00000736572766F207275646465723A0A00ED
:100AF000736572766F2070697463683A0A00736573
:100B000072766F20726F6C6C3A0A004761696E737F
:100B10000A00503A2025342E33662C20493A2534D9
:100B20002E33662C20443A25342E33662C20494D32
:100B300041583A256C640A0058545241434B3A20BC
:100B400025342E32660A58545241434B20616E6759
:100B50006C653A2025640A0043726F737374726186
:100B6000636B0A006D696E3A2025640A6D61783AFC
:100B70002025640A6372756973653A2025640A66E4
:100B800061696C736166655F656E61626C65643A2C
:100B90002025640A6661696C736166655F76616CC5
:100BA00075653A2025640A005468726F74746C6528
:100BB0000A00466C69676874206D6F6465730A008B
:100BC000506F732025643A2000494D550A0047793B
:100BD000726F206F6666736574733A2025342E3207
:100BE000662C2025342E32662C2025342E32660ABF
:100BF00000416363656C206F6666736574733A20A9
:100C000025342E32662C2025342E32662C202534B5
:100C10002E32660A004D6167206F666673657473D5
:100C20003A2025342E34662C2025342E34662C2090
:100C300025342E34660A004D6167204465636C6973
:100C40006E6174696F6E3A2025342E34660A003F57
:100C50003F0048494C00484D433538343300484D37
:100C600043353838334C00436F6D706173733A20ED
:100C70000061626C65640A0064697300656E002D32
:100C8000000A4F7074696F6E733A20302D34000A79
:100C90004F7074696F6E733A5B6F6E2C6F66665D32
:100CA0000A006F666600436F6D7061737320696E32
:100CB000697469616C69736174696F6E20666169DA
:100CC0006C656421006F6E000A4D6F76652052439B
:100CD00020746F67676C652073776974636820742C
:100CE0006F206561636820706F736974696F6E202F
:100CF000746F20656469742C206D6F76652061695E
:100D00006C65726F6E20737469636B20746F2073EF
:100D1000656C656374206D6F6465732E000A5361A2
:100D20007665642053657474696E67730A0A000AF5
:100D30004D6F766520616C6C20636F6E74726F6CA2
:100D40007320746F20656163682065787472656DC7
:100D5000652E2048697420456E74657220746F207A
:100D6000736176653A200A000A4E6F2072616469E9
:100D70006F3B20436865636B20636F6E6E656374C1
:100D80006F72732E000A0A526164696F2053657492
:100D900075703A0A000A464143544F525920524551
:100DA00053455420636F6D706C657465202D207001
:100DB0006C656173652072657365742041504D20C8
:100DC000746F20636F6E74696E7565000A54797074
:100DD000652027592720616E642068697420456E5C
:100DE00074657220746F20706572666F726D206614
:100DF0006163746F72792072657365742C20616E03
:100E000079206F74686572206B657920746F20613A
:100E1000626F72743A2000656E61626C65004355C2
:100E20005200434D4400524157004D4F4445004E3F
:100E300054554E004354554E00504D0047505300FA
:100E400041545449545544455F4D45440041545420
:100E500049545544455F4641535400616C6C006DE4
:100E6000697373696E67206C6F6720747970650AA7
:100E7000000A4C6F67206572617365642E0A000A70
:100E800045726173696E67206C6F672E2E2E0A00A3
:100E9000446F6E650A0044756D70696E67204C6F13
:100EA000672025642C2020202073746172742070C8
:100EB000672025642C202020656E64207067202523
:100EC000640A00626164206C6F67206E756D6265F4
:100ED000720A0064756D70696E6720616C6C0A003F
:100EE00025640A0025642C0900444620706167656A
:100EF0002C206C6F672066696C6520232C206C6F3A
:100F00006720706167653A2025642C09004E756D75
:100F1000626572206F66207061636B657473207206
:100F20006561643A2025640A000A41726475506C58
:100F3000616E652056322E32372053696D756C61B3
:100F400074696F6E204D6F64650A46726565205244
:100F5000414D3A2025750A00454447453534302D2A
:100F600054205232004572726F722052656164697A
:100F70006E6720454E445F425954453A2025640A25
:100F8000004572726F722052656164696E6720500D
:100F900061636B65743A2025640A004154543A2019
:100FA00025642C2025642C2025750A004D4F443AD9
:100FB000004354554E3A004E54554E3A2025342E97
:100FC00034662C2025642C2025342E34662C2025D4
:100FD000342E34662C2025342E34662C2025342ED5
:100FE00034662C2025342E34662C0A00504D3A00ED
:100FF0005241573A00434D443A00435552523A2029
:1010000025642C2025342E34662C2025342E34667D
:101010002C2025640A0020256420636F6D6D616EAD
:10102000647320696E206D656D6F72790A00554E8C
:101030004B4E4F574E2053544152545550202D2063
:101040000047524F554E44205354415254202D20B6
:1010500000414952205354415254202D2000475002
:10106000533A20256C642C2025642C2025642C20E8
:1010700025342E37662C2025342E37662C20256407
:101080002C2025342E34662C2025342E34662C203A
:1010900025342E34662C2025342E34660A00414C2B
:1010A0005432505443485F00454E524759325448D9
:1010B000525F005957325352565F004152535032DB
:1010C000505443485F0050544348325352565F00D7
:1010D000524C4C325352565F0048444E4732524CA9
:1010E0004C5F005243385F005243375F0052433633
:1010F0005F005243355F005243345F005243335F19
:10110000005243325F005243315F00464C41505F12
:10111000325F535045454400464C41505F325F506A
:101120004552434E5400464C41505F315F53504549
:10113000454400464C41505F315F504552434E5448
:101140000041525350445F454E41424C4500534F7D
:101150004E41525F454E41424C4500494E56455224
:10116000544544464C545F434800424154545F4305
:101170004150414349545900494E5055545F564FD0
:101180004C545300414D505F5045525F564F4C54A4
:1011900000564F4C545F4449564944455200424121
:1011A00054545F4D4F4E49544F52004D41475F4597
:1011B0004E41424C4500474E445F4142535F5052BE
:1011C00045535300474E445F54454D5000414C54E5
:1011D0005F484F4C445F52544C005452494D5F504D
:1011E000495443485F4344004D494E5F474E445382
:1011F00050445F434D005452494D5F415253504457
:101200005F434D005253545F5357495443485F4323
:1012100048004C4F475F4C41535446494C45004CA5
:101220004F475F4249544D41534B005359535F4E12
:10123000554D5F52455345545300454C45564F4E0E
:101240005F4348325F52455600454C45564F4E5F0E
:101250004348315F52455600454C45564F4E5F520C
:1012600045564552534500454C45564F4E5F4D49F6
:1012700058494E47005357495443485F454E4142F1
:101280004C45005452494D5F4155544F004C494D17
:101290005F50495443485F4D494E004C494D5F50A3
:1012A000495443485F4D4158004C494D5F524F4CA3
:1012B0004C5F434400464C544D4F44453600464C29
:1012C000544D4F44453500464C544D4F4445340031
:1012D000464C544D4F44453300464C544D4F4445C5
:1012E0003200464C544D4F44453100464C544D4F0E
:1012F00044455F43480046535F4743535F454E4173
:10130000424C0046535F4C4F4E475F4143544E00A2
:1013100046535F53484F52545F4143544E0054521A
:10132000494D5F5448524F54544C45005448525F05
:1013300046535F56414C5545005448525F4641491B
:101340004C53414645005448525F534C4557524117
:101350005445005448525F4D4158005448525F4D27
:10136000494E00414C545F484F4C445F46425743FE
:101370004D0041525350445F4642575F4D41580023
:1013800041525350445F4642575F4D494E004645D7
:101390004E43455F4D4158414C540046454E4345F0
:1013A0005F4D494E414C540046454E43455F4348CE
:1013B000414E4E454C0046454E43455F544F5441C7
:1013C0004C0046454E43455F414354494F4E0057FC
:1013D000505F4C4F495445525F5241440057505F53
:1013E00052414449555300434D445F494E4445588A
:1013F00000434D445F544F54414C004152535044BC
:101400005F4F46465345540041525350445F52414A
:1014100054494F00414C545F4D4958005854524B69
:101420005F414E474C455F4344005854524B5F4721
:1014300041494E5F5343004B46465F544852325039
:10144000544348004B46465F505443483254485238
:10145000004B46465F524444524D4958004B464665
:101460005F50544348434F4D500053455249414CFF
:10147000335F424155440053595349445F4D5947E6
:1014800043530053595349445F544849534D4156BF
:101490000053595349445F53575F545950450053C3
:1014A000595349445F53575F4D52455600445A00C3
:1014B000524556004D4158005452494D004D494E39
:1014C00000414E474C455F4D415800414E474C4509
:1014D0005F4D494E0046554E4354494F4E00494DCD
:1014E0004158004400490050004C6F672025642C8F
:1014F0002020202073746172742025642C20202009
:10150000656E642025640A000A2564206C6F677389
:101510000A000A4E6F206C6F67730A0A0043555227
:101520000020255300434D440020255300524157CD
:1015300000202553004D4F444500202553004E54B4
:10154000554E00202553004354554E00202553008E
:10155000504D002025530047505300202553004193
:10156000545449545544455F4D454400202553008B
:1015700041545449545544455F4641535400202535
:1015800053006E6F6E65006C6F677320656E6162ED
:101590006C65643A200067707320616C743A202592
:1015A0006C7500696E697420686F6D65002B006250
:1015B00061642066656E636520706F696E74006299
:1015C00061642066656E636520706F696E74006685
:1015D000656E63696E67206D757374206265206443
:1015E000697361626C656400666C69676874207019
:1015F0006C616E207265636569766564004375721F
:1016000072656E7420576179506F696E74204E4F09
:1016100054204D4F44494649454400437572726514
:101620006E7420576179506F696E74204D4F444934
:101630004649454400616374696F6E207265636555
:10164000697665643A20006F7574206F6620636F59
:101650006D6D616E6473210052657475726E696E92
:101660006720746F20486F6D6500496E20646F5F5E
:101670006368616E67655F79617728292E20205441
:1016800061726765742068656164696E673A2025D8
:1016900069004A756D7073206C6566743A2025691F
:1016A000004261642052657175657374202D20635A
:1016B000616E6E6F74206368616E676520746F2061
:1016C0006E6F6E2D4E617620636D640045585452E6
:1016D000413300455854524132004558545241312B
:1016E00000504F534954494F4E005241575F4354A5
:1016F000524C0052435F4348414E004558545F539B
:10170000544154005241575F53454E530053523396
:101710005F005352305F00666C69676874206D6FBC
:101720006465203D202575004661696C73616665BE
:10173000202D2053686F7274206576656E74206F5B
:101740006E2C20004661696C73616665202D205304
:10175000686F7274206576656E74206F66660067C8
:10176000656F2D66656E6365207472696767657263
:1017700065640067656F2D66656E6365204F4B007D
:1017800067656F2D66656E6365207365747570207F
:101790006572726F720067656F2D66656E63652096
:1017A0006C6F61646564003C6E6176696761746545
:1017B0003E205750206572726F72202D206469732D
:1017C00074616E6365203C203000766572696679CD
:1017D0005F6E61763A20496E76616C6964206F7243
:1017E000206E6F2063757272656E74204E61762074
:1017F000636D64004D6973736564205750005265D2
:10180000616368656420576179706F696E74202325
:101810002569007665726966795F6E61763A204C5B
:101820004F49544552206F726269747320636F6D23
:10183000706C657465007665726966795F6E617655
:101840003A204C4F495445522074696D6520636FAE
:101850006D706C65746500526561636865642068CD
:101860006F6D65007665726966795F636F6E646936
:10187000746F6E3A20496E76616C6964206F7220D5
:101880006E6F2063757272656E7420436F6E64694B
:1018900074696F6E20636D6400666C69676874209C
:1018A0006D6F6465203D202575004661696C73612C
:1018B0006665202D204C6F6E67206576656E7420FE
:1018C0006F6E2C20000A0A000A0A00202020202027
:1018D0007769746820534C565F41495253504545CF
:1018E0004443414C0A00202020202077697468205E
:1018F000534C565F414952535045454443414C0A6D
:10190000005475726E20416E746963697061746908
:101910006F6E20456E61626C656400776974682043
:1019200074696D656420576179706F696E747300B6
:10193000202020202077697468204D4D5F41444469
:1019400045440A00202020202077697468204D4DEE
:101950005F41444445440A002020202020776974D8
:101960006820534C565F41444445440A00202020DF
:1019700020207769746820534C565F4144444544A5
:101980000A00696E2053696D756C6174696F6E2011
:101990006D6F64652100466C79696E672052322054
:1019A00056656869636C65000A4D6F7665207468DA
:1019B0006520736C6964652073776974636820615E
:1019C0006E6420726573657420746F20464C592EC6
:1019D0000A000A456E746572696E6720696E7465E7
:1019E00072616374697665207365747570206D6FBC
:1019F00064652E2E2E0A0A4966207573696E67206B
:101A00007468652041726475696E6F2053657269F0
:101A1000616C204D6F6E69746F722C20656E7375EA
:101A20007265204C696E6520456E64696E67206939
:101A3000732073657420746F2043617272696167EB
:101A4000652052657475726E2E0A54797065202770
:101A500068656C702720746F206C69737420636FE5
:101A60006D6D616E64732C2027657869742720740E
:101A70006F206C656176652061207375626D656E9F
:101A8000752E0A566973697420746865202773651A
:101A900074757027206D656E7520666F722066699B
:101AA0007273742D74696D6520636F6E66696775F6
:101AB000726174696F6E2E0A0045524153494E4758
:101AC000204C4F4753004E6F2064617461666C6117
:101AD0007368206361726420696E736572746564F3
:101AE000007573696E6720257520627974657320AF
:101AF0006F66206D656D6F7279202825752072657F
:101B000073657473290A006C6F61645F616C6C208B
:101B1000746F6F6B20256C7575730A00646F6E654A
:101B20002E004669726D77617265206368616E6729
:101B3000653A2065726173696E6720454550524F62
:101B40004D2E2E2E0A000A0A496E697420417264D5
:101B500075506C616E652056322E32372053696D98
:101B6000756C6174696F6E204D6F64650A0A467208
:101B700065652052414D3A2025750A00496E76610F
:101B80006C69642053455249414C335F424155448E
:101B9000000A0A20526561647920746F20464C590E
:101BA0002E0047524F554E44205354415254004446
:101BB000656D6F20536572766F73210000407A1057
:101BC000F35A00A0724E18090010A5D4E80000E8EE
:101BD0007648170000E40B54020000CA9A3B00004C
:101BE00000E1F505000080969800000040420F00DB
:101BF0000000A08601000000102700000000E8039C
:101C0000000000006400000000000A000000000066
:101C10000100000000002C76D888DC674F0823DF25
:101C2000C1DFAE59E1B1B796E5E3E453C63AE651F8
:101C3000997696E8E6C28426EB898C9B62ED407C1F
:101C40006FFCEFBC9C9F40F2BAA56FA5F490055ABB
:101C50002AF75C936B6CF9676DC11BFCE0E40D47E0
:101C6000FEF520E6B500D0ED902E03009435770503
:101C70000080841E080000204E0A000000C80C33BB
:101C80003333330F986E12831141EF8D2114893B4A
:101C9000E65516CFFEE6DB18D1844B381BF77C1DCA
:101CA000901DA4BBE424203284725E228100C9F11D
:101CB00024ECA1E53D276E616E00696E660025305B
:101CC00033753A25733A20006E6F7420666F756E17
:101CD0006400253033753A252D33322E3332733A72
:101CE0002000756E6B6E6F776E2074797065006E74
:101CF0006F7420666F756E640025733A20006D69FD
:101D00007373696E67206E616D65206F72207661F6
:101D10006C7565003F3F00256400256400256C64F8
:101D200000256600256600657869740068656C703A
:101D30000044454300434F4D504153535F00000062
:101D40002100240027002A002D003000330001016B
:101D50000000040107010A010000220025002800FC
:101D60002B002E00310034000201000005010801A3
:101D70000B01000020002300260029002C002F006A
:101D800032000001000003010601090105050505F7
:101D9000070508080808020202020A0A08080404E3
:101DA0000404010101010101010103030303030311
:101DB0000303040707070C0C0C0C0C0C0C0C0202A0
:101DC000020206060606060606060B0B0B0B0B0B9D
:101DD0000B0B01021020200808102040102040802A
:101DE00002010201080402010102040810204080DF
:101DF000804020100804020180040201804020106D
:101E000008040201080402010102040810204080B5
:101E100001020408102040800000090A02080B0C8F
:101E20000D07060304010000000000000000000090
:101E300000000000000000000000000000000000A2
:101E400000000000100F0E00000000000000000065
:101E50000000000000000000000000000000494EEB
:101E600046494E4954594E414ECDCCCC3D0AD7231C
:101E70003C17B7D13877CC2B329595E6241FB14F5C
:101E80000A000020410000C84200401C4620BCBEA1
:101E90004CCA1B0E5AAEC59D74008F5426AD5CB45F
:101EA0008A5421AD11241FBECFEFD1E2DEBFCDBFDA
:101EB00000E00CBF14E0A0E0B2E0EAE0F9EB01E0E2
:101EC0000BBF02C007900D92A43FB107D9F71BBE0C
:101ED00016E1A4EFB4E001C01D92AC39B107E1F7FF
:101EE0001EE1C0EADEE104C02297FE010E9462DC2E
:101EF000CA39D107C9F70E942ED50C9479DC0C940D
:101F00000000283008F027E03327DA01990F311D4F
:101F100087FD916000966105710539F432602E5F8E
:101F20003D9330E32A95E1F708959F3F30F08038E4
:101F30007105610509F03C5F3C5F3D93913008F00D
:101F40008068911DDF93CF931F930F93FF92EF92C1
:101F5000192F987F9695E92F96959695E90FFF276B
:101F6000EA5EF34E99273327EE24FF24A701E70109
:101F700005900894079428F4360FE71EF81E491FB1
:101F8000511D660F771F881F991F0694A1F70590B2
:101F9000079428F4E70EF81E491F561FC11D770F3E
:101FA000881F991F661F0694A1F70590079428F4CF
:101FB000F80E491F561FC71FD11D880F991F661F96
:101FC000771F0694A1F70590079420F4490F561F38
:101FD000C71FD81F990F661F771F881F0694A9F780
:101FE00084911095177041F0D695C79557954795F0
:101FF000F794E7941A95C1F7ECEBFBE16894159020
:10200000159135916591959105907FE27395E11851
:10201000F10A430B560BC90BD009C0F7E10CF11EB6
:10202000431F561FC91FD01D7EF4703311F48A95CB
:10203000E6CFE894015030F0080F0AF400270217A9
:1020400008F4202F2395022F7A3328F079E37D932B
:102050002A95E9F710C07D932A9589F606949795FD
:102060006795379517951794E118F10A430B560BAE
:10207000C90BD00998F023957E9173957A3308F0B7
:1020800070E37C932013B8F77E9170617D9330F0FC
:10209000839571E37D9370E32A95E1F71124EF9026
:1020A000FF900F911F91CF91DF91992787FD909518
:1020B0000895FA01AA27283051F1203181F1E894DE
:1020C0006F936E7F6E5F7F4F8F4F9F4FAF4FB1E02B
:1020D0003ED0B4E03CD0670F781F891F9A1FA11D26
:1020E000680F791F8A1F911DA11D6A0F711D811D27
:1020F000911DA11D20D009F468943F912AE0269FEC
:1021000011243019305D3193DEF6CF010895462F4A
:102110004770405D4193B3E00FD0C9F7F6CF462F2B
:102120004F70405D4A3318F0495D31FD4052419394
:1021300002D0A9F7EACFB4E0A69597958795779551
:102140006795BA95C9F700976105710508959B01D8
:10215000AC010A2E06945795479537952795BA9561
:10216000C9F7620F731F841F951FA01D0895A0E378
:10217000B0E0EDEBF0E10C9429DCA8E04E0108940E
:10218000811C911CF401BA2F1192BA95E9F72983A9
:102190003A834B835C836D837E838F839887CE01E4
:1021A0000996FC011192AA95E9F7A986BA86CB8611
:1021B000DC86ED86FE860F87188B29813A814B815C
:1021C0005C812DA73EA74FA758AB79018A018FEFFD
:1021D0009FEFA0E0B0E0E822F9220A231B231A01B6
:1021E0004424552429853A854B855C8529A73AA73F
:1021F0004BA75CA759016A01A822B922CA22DB2297
:102200003A0188249924C601B501A80197010E94CA
:10221000A6DB6DA37EA38FA398A7C401B3010E9480
:10222000A6DB69A37AA38BA39CA3C601B501A20177
:1022300091010E94A6DB7B018C01C401B3010E94C5
:10224000A6DB5B016C0189A19AA1ABA1BCA18E0D9B
:102250009F1DA01FB11F89A39AA3ABA3BCA32DA14F
:102260003EA14FA158A5CA01AA27BB2729A13AA17F
:102270004BA15CA1280F391F4A1F5B1F29A33AA35A
:102280004BA35CA32E153F054007510740F480E0A7
:1022900090E0A1E0B0E0A80EB91ECA1EDB1E89A125
:1022A0009AA1ABA1BCA19D01442755272A0D3B1D36
:1022B0004C1D5D1D2D8F3E8F4F8F58A36C01BB248D
:1022C000AA248DA19EA1AFA1B8A5A070B070A80E40
:1022D000B91ECA1EDB1EA98EBA8ECB8EDC8E9A8CDE
:1022E0008B8C7C8C9E8D6F8D78A1FE01719688E021
:1022F000DF011D928A95E9F72D8B9E8B6F8B788F6E
:102300002D853E854F8558896DA57EA58FA598A9F9
:102310000E94A6DB7B018C012D813E814F81588577
:1023200069A57AA58BA59CA50E94A6DBE60EF71EE3
:10233000081F191F6D897E898F89988D6E0D7F1DED
:10234000801F911F6D8B7E8B8F8B988FEE892A2D2E
:10235000392D482D572D7E2F8F89988DE096E2E1FB
:102360000C9445DC0F931F93CF93DF93689F8001FC
:10237000699F100D789F100D1124C8010DD0EC013C
:10238000009721F060E070E0A80173D1CE01DF91E9
:10239000CF911F910F910895CF93DF93BC018230AD
:1023A000910510F462E070E0A0919816B091991632
:1023B000ED01E0E0F0E040E050E021C0888199814B
:1023C0008617970769F48A819B81309719F0938368
:1023D000828304C09093991680939816FE0134C0AE
:1023E0006817790738F44115510519F084179507D6
:1023F00008F4AC01FE018A819B819C01E9012097D0
:10240000E9F641155105A9F1CA01861B970B0497FE
:1024100008F4BA01E0E0F0E02AC08D919C91119798
:1024200084179507F9F46417750781F412968D9156
:102430009C911397309719F09383828304C09093F3
:10244000991680939816FD0132964CC0CA01861BDE
:10245000970BFD01E80FF91F6193719302978D931C
:102460009C9340C0FD01828193819C01D90110970A
:10247000A1F68091961690919716892B41F4809140
:1024800002039091030390939716809396164091C0
:102490000403509105034115510541F44DB75EB752
:1024A0008091000390910103481B590B20919616CF
:1024B00030919716CA01821B930B8617970780F0FD
:1024C000AB014E5F5F4F8417950750F0420F531FCB
:1024D0005093971640939616F9016193719302C039
:1024E000E0E0F0E0CF01DF91CF910895CF93DF934B
:1024F000009709F450C0EC0122971B821A82A09128
:102500009816B0919916109709F140E050E0AC1779
:10251000BD0708F1BB83AA83FE0121913191E20F2F
:10252000F31FAE17BF0779F48D919C911197280F77
:10253000391F2E5F3F4F3983288312968D919C91CE
:1025400013979B838A834115510571F4D093991693
:10255000C093981620C012968D919C911397AD014F
:10256000009711F0DC01D3CFFA01D383C28321910C
:102570003191E20FF31FCE17DF0769F4888199814B
:10258000280F391F2E5F3F4FFA01318320838A8144
:102590009B8193838283DF91CF910895662777276C
:1025A000D2C21F93FC0199278827BC01E89411919E
:1025B0001032E9F3193010F01E30C8F31B3249F025
:1025C0001D3241F4689405C0B0D0610F711D811DAA
:1025D000911D119110531A30B8F33EF490958095E7
:1025E000709561957F4F8F4F9F4F1F910895FB010D
:1025F000DC0102C005900D9241505040D8F708957B
:10260000FB01DC018D9181341CF08B350CF4805E74
:10261000659161341CF06B350CF4605E861B6111B2
:1026200089F3990B0895FB01DC018D9105908019C8
:102630000110D9F3990B0895FC0105900020E9F7EA
:10264000809590958E0F9F1F0895FC010590615015
:1026500070400110D8F7809590958E0F9F1F0895B8
:10266000FB01DC0102C001900D9241505040D8F7AF
:102670000895DC0101C06D9341505040E0F708958A
:10268000FB01DC018D91019080190110D9F3990BA8
:102690000895FB01DC014150504048F001900D923B
:1026A0000020C9F701C01D9241505040E0F7089545
:1026B000FC016150704001900110D8F78095909511
:1026C0008E0F9F1F0895009731F4DA018D919C9130
:1026D000009709F40EC0DC01FB013D9121912223FA
:1026E00019F03217C9F3FACF332331F4DA011D920E
:1026F0001C928827992708951197AF93BF93FB01E8
:102700003D912191321771F4332321F488279927C1
:10271000119702C01E921196FA01A193B0839F9166
:102720008F910895222369F7EACF592F482F372F29
:10273000262F660F771F881F991F660F771F881F28
:10274000991F620F731F841F951F660F771F881FC5
:10275000991F0895AEE0B0E0E0EBF3E10C9437DCB4
:102760008C0177FF02C060E070E8615070407E83AA
:102770006D831A83098386E08C83CE010196BA01AA
:10278000A90111D02D813E8137FD09C0EF81F88567
:102790002E173F070CF4F901E00FF11F10822E965F
:1027A000E4E00C9453DCABE0B0E0E9EDF3E10C9431
:1027B00029DC3C012B015A01FC011782168283811E
:1027C00081FD03C06FEF7FEFB9C19AE0892E1E0132
:1027D0000894211C311CF3012381F20123FD859112
:1027E00023FF81912F01882309F4A5C1853239F493
:1027F00023FD859123FF81912F01853221F490E003
:10280000B30116D3E8CF982FFF24EE249924FFE1DB
:10281000FF15D0F09B3269F09C3228F4903259F0C9
:10282000933291F40EC09D3249F0903369F441E047
:1028300024C052E0F52A84E0F82A28C098E0F92A5A
:1028400025C0E0E1FE2A22C0F7FC29C0892F805371
:102850008A3070F4F6FE05C0989C902C1124980ED6
:1028600015C0E89CE02C1124E80EF0E2FF2A0EC00F
:102870009E3229F4F6FC5FC140E4F42A07C09C367E
:1028800019F450E8F52A02C0983649F4F20123FD04
:10289000959123FF91912F01992309F0B8CF892FAA
:1028A0008554833018F08052833038F444E050E08F
:1028B000A40EB51E5FE359830FC0933631F09337F2
:1028C00079F0933509F052C01FC0F50180818983EA
:1028D00042E050E0A40EB51E610101E010E011C01D
:1028E000F501C080D180F6FC03C06FEF7FEF02C01E
:1028F000692D70E042E050E0A40EB51EC601D8DE9E
:102900008C015FE7F52213C0F501C080D180F6FC91
:1029100003C06FEF7FEF02C0692D70E042E050E02E
:10292000A40EB51EC60191DE8C0150E8F52AF3FE17
:1029300006C018C080E290E0B3017AD2EA948E2DEE
:1029400090E008171907B0F30DC0F601F7FC859168
:10295000F7FE81916F0190E0B3016AD2E110EA9431
:10296000015010400115110581F7E2C0943611F0B5
:10297000993661F5F7FE08C0F50120813181428169
:10298000538184E090E00AC0F501808191819C012F
:10299000442737FD4095542F82E090E0A80EB91EE1
:1029A0009FE6F92257FF09C0509540953095219533
:1029B0003F4F4F4F5F4FE0E8FE2ACA01B901A10126
:1029C0002AE030E076DBD82ED2183FC0953729F4C4
:1029D0001F2D1F7E2AE030E01DC01F2D197F9F365E
:1029E00061F0903720F4983509F0A5C00FC09037FA
:1029F00039F0983709F09FC004C028E030E00AC0E1
:102A0000106114FD146020E130E004C014FD166074
:102A100020E132E017FF08C0F501608171818281F9
:102A2000938144E050E008C0F50180819181BC01B0
:102A300080E090E042E050E0A40EB51EA10139DB39
:102A4000D82ED2188FE7F82EF122F6FE0BC05EEFDB
:102A5000F522D91438F4F4FE07C0F2FC05C08FEE5D
:102A6000F82202C01D2D01C0192DF4FE0DC0FE017B
:102A7000ED0DF11D8081803319F499EEF92208C023
:102A80001F5FF2FE05C003C08F2D867809F01F5F1F
:102A90000F2DF3FC13C0F0FE0EC01E1510F09D2C80
:102AA0000AC09D2C9E0C911A1E2D05C080E290E05C
:102AB000B301BED11F5F1E15C8F304C01E1510F46C
:102AC000E11A01C0EE2404FF0EC080E390E0B301E0
:102AD000AFD102FF1BC001FD03C088E790E00EC02C
:102AE00088E590E00BC0802F867881F001FF02C05E
:102AF0008BE201C080E2F7FC8DE290E0B30198D157
:102B000005C080E390E0B30193D19A94D914C8F33F
:102B1000DA94F101ED0DF11D808190E0B30188D1CF
:102B2000DD20B1F705C080E290E0B30181D1EA94E5
:102B3000EE20C9F750CEF30166817781CB012B9649
:102B4000E2E10C9445DCA0E0B0E0E9EAF5E10C94A8
:102B50002FDCEC015B016115710519F0FB0191831C
:102B60008083F9908F2D90E00E946EDC892BC9F74D
:102B7000FDE2FF1621F4F990EE24E39405C02BE268
:102B8000F21609F4F990EE248E0101501040C801AC
:102B90006EE57EE143E050E033D1892BF9F48E01FC
:102BA0000E5F1F4FC80161E67EE145E050E028D18D
:102BB000892B19F48E01095F1F4FA114B10419F07C
:102BC000F50111830083E0FC04C070E090E080E830
:102BD00013C070E090E080E86FEF07C1C80166E6BF
:102BE0007EE143E050E00CD1892B69F4A114B104DB
:102BF00029F470E090E080EC6FE7F7C02296F501D1
:102C0000D183C083F6CF8824992440E050E060E06F
:102C100070E0EF2DE053EA30A0F5F2E0EF2A8E2DC0
:102C200090E09C0128703070E2FE06C0232B79F5FD
:102C30000894811C911C2BC0232B19F00894810847
:102C40009108DB01CA0112E0880F991FAA1FBB1F60
:102C50001A95D1F7480F591F6A1F7B1F440F551F44
:102C6000661F771F4E0F511D611D711D483929E9DF
:102C7000520729E9620729E1720748F084E0E82A4F
:102C800006C0EE3F31F4E3FC39C098E0E92AF99040
:102C9000C0CFE53311F0E53189F529912D3219F4D2
:102CA000E0E1EE2A05C02B3219F081E090E003C08C
:102CB000299182E090E0E22FE053EA3018F0C81B3F
:102CC000D90B1CC020E030E0FCE020383F075CF46A
:102CD000C901880F991F880F991F280F391F220FCC
:102CE000331F2E0F311DE991E053EA3068F3E4FE03
:102CF00003C0309521953F4F820E931ECE2CDD24CC
:102D0000E1FE07C0A114B10421F02197F501D183A0
:102D1000C083CB01BA010E94D5D87B018C01F3E0BE
:102D2000CF22DD2423E0C216D10421F417FB109535
:102D300017F9109557016801C801B70120E030E08C
:102D400040E050E00E9404D8882309F44AC097FE6E
:102D50000DC02DE7E22E2EE1F22E90948194910881
:102D60009394C0E2D0E000E010E012C095E9E92EB3
:102D70009EE1F92EF6CFF7012591359145915491B9
:102D8000C601B5010E94B1DA5B016C018C1A9D0A83
:102D90008C169D0684F7D595C7950F5F1F4F06309B
:102DA000110529F08CEF9FEFE80EF91EF1CFC50158
:102DB000D6017C018D018C2D880F8D2D881F8F3FB2
:102DC00051F0C601B50120E030E040E050E00E9443
:102DD00004D8882331F482E290E090939B1680938C
:102DE0009A167E2D9F2D802F612F272F392F482F48
:102DF000562FB901CA01CDB7DEB7ECE00C944BDC1D
:102E0000FB01DC014150504088F08D9181341CF071
:102E10008B350CF4805E659161341CF06B350CF4DD
:102E2000605E861B611171F3990B0895881BFCCFBE
:102E30000F931F93CF93DF938C01EB018B8181FF65
:102E40001BC082FF0DC02E813F818C819D81281780
:102E5000390764F4E881F9810193F983E88306C0B6
:102E6000E885F985802F1995892B31F48E819F8112
:102E700001969F838E8302C00FEF1FEFC801DF9181
:102E8000CF911F910F9108959C01F999FECF32BD0A
:102E900021BDF89A60B5F999FECF2F5F3F4F32BD43
:102EA00021BD21503040F89A70B5F999FECF2E5FC0
:102EB0003F4F32BD21BD22503040F89A80B5F9997C
:102EC000FECF2D5F3F4F32BD21BDF89A90B50895DA
:102ED0009C01F999FECF1FBA32BD21BD40BD0FB68E
:102EE000F894FA9AF99A0FBEF999FECF1FBA2F5F9C
:102EF0003F4F32BD21BD2150304050BD0FB6F89438
:102F0000FA9AF99A0FBEF999FECF1FBA2E5F3F4F7A
:102F100032BD21BD2250304060BD0FB6F894FA9A00
:102F2000F99A0FBEF999FECF1FBA2D5F3F4F32BD00
:102F300021BD70BD0FB6F894FA9AF99A0FBE0895A4
:102F4000CF93DF93FC01EB014230510570F06385B4
:102F500074858585968520E030E040E854E40E9441
:102F6000B1DA0E94A9D87983688382E090E0DF918A
:102F7000CF910895CF93DF93EC01FB0142305105CF
:102F800018F420E030E012C06081718180E090E0B0
:102F90000E94D5D820E030E040E85AE30E94B1DA40
:102FA0006B877C878D879E8722E030E0C901DF91A7
:102FB000CF91089508950895089560E070E080E04D
:102FC00090E0089560E070E080E090E0089560E0B7
:102FD00070E080E090E0089560E070E080E090E0D4
:102FE000089560E070E080E090E0089560E070E0B7
:102FF00080E090E00895DC01FB0187818C9386815D
:1030000011968C931197858112968C9312978481D7
:1030100013968C931397838114968C9314978281C3
:1030200015968C931597818116968C9316978081AF
:1030300017968C9308951F920F920FB60F920BB6AE
:103040000F9211242F933F934F938F939F93EF935E
:10305000FF934091C60020915A1430915B142F5F6A
:103060003F4F80915E1490915F1428233923809103
:103070005C1490915D142817390779F080915A14E7
:1030800090915B14E0916014F0916114E80FF91FC6
:10309000408330935B1420935A14FF91EF919F91DA
:1030A0008F914F913F912F910F900BBE0F900FBEBC
:1030B0000F901F9018951F920F920FB60F920BB69C
:1030C0000F9211242F933F938F939F93EF93FF932E
:1030D00020917C1430917D1480917A1490917B140E
:1030E00028173907E9F080917C1490917D14E091C4
:1030F0008014F0918114E80FF91F80818093C6003D
:1031000080917C1490917D14019620917E143091D1
:103110007F148223932390937D1480937C1410C09A
:1031200020917A1430917B1480917C1490917D14BD
:103130002817390729F48091C1008F7D8093C10041
:10314000FF91EF919F918F913F912F910F900BBE27
:103150000F900FBE0F901F9018951F920F920FB6F1
:103160000F920BB60F9211242F933F934F938F938F
:103170009F93EF93FF934091CE0020916214309182
:1031800063142F5F3F4F809166149091671428233A
:10319000392380916414909165142817390779F0C8
:1031A0008091621490916314E0916814F091691415
:1031B000E80FF91F40833093631420936214FF914A
:1031C000EF919F918F914F913F912F910F900BBE57
:1031D0000F900FBE0F901F9018951F920F920FB671
:1031E0000F920BB60F9211242F933F938F939F93BF
:1031F000EF93FF9320918414309185148091821471
:103200009091831428173907E9F0809184149091E4
:103210008514E0918814F0918914E80FF91F8081DA
:103220008093CE0080918414909185140196209112
:10323000861430918714822393239093851480936E
:10324000841410C0209182143091831480918414CE
:10325000909185142817390729F48091C9008F7D32
:103260008093C900FF91EF919F918F913F912F9192
:103270000F900BBE0F900FBE0F901F9018951F92CE
:103280000F920FB60F920BB60F9211242F933F930C
:103290004F938F939F93EF93FF934091360120912B
:1032A0007214309173142F5F3F4F80917614909178
:1032B000771428233923809174149091751428175A
:1032C000390779F08091721490917314E091781419
:1032D000F0917914E80FF91F408330937314209311
:1032E0007214FF91EF919F918F914F913F912F9188
:1032F0000F900BBE0F900FBE0F901F9018951F924E
:103300000F920FB60F920BB60F9211242F933F938B
:103310008F939F93EF93FF93209194143091951482
:10332000809192149091931428173907E9F08091B5
:10333000941490919514E0919814F0919914E80FD9
:10334000F91F808180933601809194149091951497
:103350000196209196143091971482239323909391
:1033600095148093941410C020919214309193146A
:1033700080919414909195142817390729F480911D
:1033800031018F7D80933101FF91EF919F918F915A
:103390003F912F910F900BBE0F900FBE0F901F907B
:1033A0001895AF92BF92CF92DF92EF92FF920F9358
:1033B0001F938091141490911514A0911614B0913C
:1033C0001714853E2CE0920720E0A20720E0B20708
:1033D0001CF06091C20907C08C51934FAF4FBF4F93
:1033E000C4F46091B609772767FD70957093EB0C74
:1033F0006093EA0C882777FD8095982F0E94D7D894
:103400006093FD137093FE138093FF139093001449
:1034100062C0609105147091061480910714909118
:10342000081420E030E048EC52E40E940BD82091D0
:10343000B2083091B3084091B4085091B5080E9489
:10344000B1DA20E030E048EC52E40E940BD8209141
:10345000FD133091FE134091FF13509100140E9410
:103460003ED75B016C016091B609772767FD7095C7
:10347000872F972F0E94D7D87B018C01C601B501F9
:10348000A80197010E9404D887FD15C06091C20968
:10349000772767FD7095872F972F0E94D7D87B01DC
:1034A0008C01C601B501A80197010E943DDA1816EA
:1034B00014F086017501E092FD13F092FE13009363
:1034C000FF1310930014C801B7010E94A4D8709391
:1034D000EB0C6093EA0C2091EA0C3091EB0C80919C
:1034E000B609992787FD9095281739074CF08091E8
:1034F000C209992787FD9095281739070CF4C9014F
:103500009093EB0C8093EA0C1F910F91FF90EF903A
:10351000DF90CF90BF90AF9008954F925F926F92DF
:103520007F928F929F92AF92BF92CF92DF92EF9253
:10353000FF920F931F93DF93CF93CDB7DEB72F97F3
:103540000FB6F894DEBF0FBECDBF9A2DA982EB2D2A
:10355000BA82FC2DCB82DC82ED82FE820F8318873B
:1035600029873A874B875C876D877E878F874C8159
:103570005D816E817F81A884B984CA84DB844C8498
:103580005D846E847F8497FE03C020E030E00BC032
:1035900080912309A82FBB27A7FDB0959401A815FA
:1035A000B9050CF49D01890184E0000F111F8A9573
:1035B000E1F7021B130B00501C4FE0FD02C0E0E0DE
:1035C00006C0E0E0232B09F4E1E081E0E827F99967
:1035D000FECF1FBA12BD01BD90BD0FB6F894FA9A86
:1035E000F99A0FBEC801AA2797FDA095BA2F019698
:1035F000A11DB11DF999FECF1FBA92BD81BDE0BDDD
:103600000FB6F894FA9AF99A0FBE7C018D010894CE
:10361000E11CF11C011D111DF999FECF1FBAF2BC6E
:10362000E1BCF0BD0FB6F894FA9AF99A0FBE08946F
:10363000E11CF11C011D111DC7014ADC84E090E072
:10364000A0E0B0E0E80EF91E0A1F1B1FC701B6017B
:10365000A5013EDC84E090E0A0E0B0E0E80EF91EB9
:103660000A1F1B1FC701B301A20132DC2F960FB640
:10367000F894DEBF0FBECDBFCF91DF911F910F91A8
:10368000FF90EF90DF90CF90BF90AF909F908F9082
:103690007F906F905F904F900895AF92BF92CF92BE
:1036A000DF92EF92FF920F931F93DF93CF93CDB7EB
:1036B000DEB728970FB6F894DEBF0FBECDBF9C01D2
:1036C00080915F09992787FD90958217930740F4B1
:1036D000AA24BB24650180E090E0A0E0B0E01EC019
:1036E00024513E4F93E0220F331F9A95E1F7790161
:1036F00000E010E0C901C8DBAC01CB01DA015C01DC
:103700006D0184E090E0A0E0B0E0E80EF91E0A1F31
:103710001B1FC701B9DBAC01CB01DA01A982BA8258
:10372000CB82DC828D839E83AF83B8872A2D3A813A
:103730004B815C81682F7E818F81988528960FB69A
:10374000F894DEBF0FBECDBFCF91DF911F910F91D7
:10375000FF90EF90DF90CF90BF90AF900895809151
:103760002003882329F48091690B813009F046C039
:103770008091E7129091E812A091E912B091EA12BB
:1037800020917705309178054091790550917A051F
:10379000821B930BA40BB50B80930D1490930E1406
:1037A000A0930F14B093101480910D1490910E14E7
:1037B000A0910F14B0911014813526E4920720E0F7
:1037C000A20720E0B2072CF0805A9C48A040B040ED
:1037D0000CC0803B29EB92072FEFA2072FEFB20717
:1037E00024F480569347AF4FBF4F80930D149093AE
:1037F0000E14A0930F14B09310140895E091DD12ED
:10380000F091DE128091E7129091E812A091E912F6
:10381000B091EA12248D358D468D578DB9CF209108
:103820001C0C30911D0C8091420C9091430C281B74
:10383000390B253631051CF08AE0809327132C596B
:103840003F4F1CF486EF809327138091271318169F
:103850001CF48150809327138091271387FF03C0A6
:103860008F5F8093271380912713813019F08F3F4A
:1038700009F080E00895CF93DF93FC01EB01443021
:10388000510540F083859485A585B6858883998305
:10389000AA83BB8384E090E0DF91CF910895CF931A
:1038A000DF93EC01FB014430510540F080819181B0
:1038B000A281B3818B879C87AD87BE8784E090E02F
:1038C000DF91CF910895FC01638574858585968588
:1038D0000C94D7D8FC01DB01452B11F083858C9328
:1038E00081E090E00895DC01FB01452B19F0808117
:1038F0001B968C9381E090E00895FC016385772707
:1039000067FD7095872F972F0C94D7D8FC01DB01AA
:103910004230510520F0838594858D939C9382E0FD
:1039200090E00895DC01FB014230510530F08081C8
:1039300091811C969C938E931B9782E090E0089552
:10394000FC0163857485882777FD8095982F0C94FA
:10395000D7D8FC012385348545855685B901CA0130
:103960000895CF93DF93FC01EB014430510540F003
:1039700083859485A585B68588839983AA83BB832F
:1039800084E090E0DF91CF910895CF93DF93EC0135
:10399000FB014430510540F080819181A281B381C7
:1039A0008B879C87AD87BE8784E090E0DF91CF91C5
:1039B0000895EF92FF920F931F937A018B01863245
:1039C000D9F087322CF4893081F0833181F507C03A
:1039D0008F36F1F0833721F1893349F513C0E12C9B
:1039E0007BE4F72E012D112D28C060E8E62E65E25C
:1039F000F62E012D112D21C0E12C56E9F52E012DB9
:103A0000112D1BC0E12C41EEF42E012D112D15C0FE
:103A10003CEFE32E31EBF32E31E0032F112D0DC0DF
:103A2000E12C22ECF22E21E0022F112D06C084EFB2
:103A300094E06CE77BE10E941E9EB701C8011F91D4
:103A40000F91FF90EF90089500D00F9284EF94E0D3
:103A5000EDB7FEB79283818384EF94E094838383F0
:103A60000E94FE9D0F900F900F900F90089500D030
:103A70000F9284EF94E0EDB7FEB7928381838DE9D6
:103A800097E0948383830E94FE9D0F900F900F9088
:103A90000F9080E0089500D00F9284EF94E0EDB78E
:103AA000FEB79283818384E699E0948383830E94A6
:103AB000FE9D80E090E00F900F900F900F90F9998D
:103AC000FECF1FBA92BD81BD10BC0FB6F894FA9A12
:103AD000F99A0FBE0196F0E180309F0781F700D080
:103AE0000F9284EF94E0EDB7FEB7928381838EE569
:103AF00099E0948383830E94FE9D0F900F900F9016
:103B00000F9008950F931F938DB79EB70A970FB626
:103B1000F8949EBF0FBE8DBFEDB7FEB7319604EF90
:103B200014E0ADB7BEB712961C930E9311978DE0BB
:103B30009AE0938382838091350C9091360C958323
:103B400084838091420C9091430C9783868380916B
:103B50004F0C9091500C918780870E94FE9DEDB78D
:103B6000FEB73196ADB7BEB712961C930E93119760
:103B70008AEF99E0938382838091980C9091990CBD
:103B8000958384838091A50C9091A60C978386835E
:103B90008091B20C9091B30C918780870E94FE9D1A
:103BA000EDB7FEB73196ADB7BEB712961C930E9324
:103BB000119787EE99E0938382838091FB0C90911B
:103BC000FC0C958384838091080D9091090D978357
:103BD00086838091150D9091160D918780870E94A4
:103BE000FE9DEDB7FEB73196ADB7BEB712961C93EA
:103BF0000E93119784ED99E09383828380915E0DFB
:103C000090915F0D9583848380916B0D90916C0DE5
:103C1000978386838091780D9091790D9187808725
:103C20000E94FE9DEDB7FEB73196ADB7BEB71296B6
:103C30001C930E93119781EC99E09383828380917A
:103C4000C10D9091C20D958384838091CE0D90918A
:103C5000CF0D978386838091DB0D9091DC0D91874A
:103C600080870E94FE9DEDB7FEB73196ADB7BEB717
:103C700012961C930E9311978EEA99E09383828398
:103C800080914A0E90914B0E958384838091570EBC
:103C90009091580E978386838091640E9091650E63
:103CA000918780870E94FE9DEDB7FEB73196ADB734
:103CB000BEB712961C930E9311978BE999E09383EC
:103CC00082838091D30E9091D40E958384838091CA
:103CD000E00E9091E10E978386838091ED0E909196
:103CE000EE0E918780870E94FE9DEDB7FEB731965C
:103CF000ADB7BEB712961C930E93119788E899E062
:103D00009383828380915C0F90915D0F9583848370
:103D10008091690F90916A0F978386838091760FC7
:103D20009091770F918780870E94FE9D8DB79EB7F7
:103D30000A960FB6F8949EBF0FBE8DBF1F910F91CC
:103D40000895CF93DF93FC018DB79EB744970FB6CC
:103D5000F8949EBF0FBE8DBF2DB73EB72F5F3F4F6C
:103D600084EF94E0ADB7BEB712969C938E931197F3
:103D700082E19BE0E9019B838A8386899789A08DF4
:103D8000B18D8C839D83AE83BF8385A196A1A7A1AE
:103D9000B0A588879987AA87BB8784A995A9A6A972
:103DA000B7A98C879D87AE87BF87ED5BFF4F80816A
:103DB0009181AA2797FDA095BA2FF901808B918B4D
:103DC000A28BB38B0E94FE9D8DB79EB744960FB613
:103DD000F8949EBF0FBE8DBFDF91CF9108958DB730
:103DE0009EB740970FB6F8949EBF0FBE8DBFEDB73C
:103DF000FEB7319684EF94E0ADB7BEB712969C93B0
:103E00008E9311978EEC9BE09383828380E090E009
:103E1000A0E0B0E084839583A683B78380879187F1
:103E2000A287B38784879587A687B7870E94FE9D60
:103E30008DB79EB740960FB6F8949EBF0FBE8DBF4C
:103E400008958DB79EB740970FB6F8949EBF0FBEEA
:103E50008DBFEDB7FEB7319684EF94E0ADB7BEB736
:103E600012969C938E93119781EF9BE093838283AC
:103E700080E090E0A0E0B0E084839583A683B783E0
:103E800080879187A287B38784879587A687B7871E
:103E90000E94FE9D8DB79EB740960FB6F8949EBFC8
:103EA0000FBE8DBF089524EF34E0882349F000D081
:103EB0000F92EDB7FEB7328321838CE79CE008C0F8
:103EC00000D00F92EDB7FEB73283218388E79CE0E4
:103ED000948383830E94FE9D84EF94E0EDB7FEB748
:103EE0009283818381E79CE0948383830E94FE9D7B
:103EF0000F900F900F900F90089500D00F9284EFC5
:103F000094E0EDB7FEB7928381838DE19DE09483C9
:103F100083830E94FE9D0F900F900F900F90089545
:103F2000CF93DF93C4EFD4E0CE016CE474E00E9441
:103F30001E9E8DE395E00E94F6B9882331F4CE01F0
:103F400061E374E00E941E9E83C08DE395E00E94B1
:103F50009CBB2DB73EB7285030400FB6F8943EBFFB
:103F60000FBE2DBFEDB7FEB73196ADB7BEB71296F7
:103F7000DC93CE9311978AE094E0938382838091BF
:103F80004E058483158280914F059091500597834B
:103F900086830E94FE9DEDB7FEB73196ADB7BEB7E2
:103FA0001296DC93CE9311978EEE93E093838283E7
:103FB0008091530590915405019695838483809157
:103FC000510590915205978386830E94FE9D2DB7DF
:103FD0003EB7285F3F4F0FB6F8943EBF0FBE2DBFD0
:103FE00060915305709154056F5F7F4F8DE395E0AD
:103FF0000E94E1B58DE395E00E94F1B6ADB7BEB782
:104000001C970FB6F894BEBF0FBEADBFEDB7FEB79D
:1040100031961296DC93CE9311972BEB33E03383DA
:104020002283648375838683978381E190E2A2E192
:10403000B8E280879187A287B3870E94FE9D2DB743
:104040003EB7245F3F4F0FB6F8943EBF0FBE2DBF63
:1040500080E0DF91CF9108958091AA0A882309F426
:1040600047C080910901881F8827881F8093B60A5E
:10407000882309F56CB1661F6627661F81E19CE005
:104080000E9462C86CB170E0B6E076956795BA950B
:10409000E1F7617084E79CE00E9462C860910901C9
:1040A00070E0A6E076956795AA95E1F761708AE3DE
:1040B0009DE00C9462C88CB11092C20A87FF03C0C5
:1040C00081E08093C20A8CB190E0F6E096958795E6
:1040D000FA95E1F781708093CE0A8091090190E012
:1040E000E6E096958795EA95E1F781708093DA0A84
:1040F0000895CF92DF92EF92FF920F931F93CF9389
:10410000DF93A2DC68EE73E080E090E00E9443D38E
:104110008091AA0A882331F484EF94E060ED74E082
:104120000E941E9E06E6C02E04E0D02E18E9E12E65
:1041300014E0F12EC4EFD4E064E670E080E090E09B
:104140000E9443D389DF8091B60A882349F581E133
:104150009CE00E946CC8082F84E79CE00E946CC819
:10416000182F8AE39DE00E946CC82DB73EB72A50F5
:1041700030400FB6F8943EBF0FBE2DBFEDB7FEB76F
:104180003196ADB7BEB71296DC93CE931197F382FA
:10419000E28204831582168317828087118628C0E5
:1041A0008DB79EB70A970FB6F8949EBF0FBE8DBF0E
:1041B000EDB7FEB73196ADB7BEB71296DC93CE938E
:1041C0001197D382C2828091C20A992787FD909568
:1041D000958384838091CE0A992787FD9095978354
:1041E00086838091DA0A992787FD90959187808749
:1041F0000E94FE9D2DB73EB7265F3F4F0FB6F89445
:104200003EBF0FBE2DBF84EF94E00E947F9E181624
:1042100019060CF091CF80E0DF91CF911F910F91A3
:10422000FF90EF90DF90CF9008956091230A615046
:104230008BE295E00E94DAB19C018F5893408B5934
:10424000944010F08FEF0895C9018F5C944082383C
:10425000910510F481E00895C90181559540823897
:10426000910510F482E00895C901835D954082387C
:10427000910510F483E00895C90185559640813871
:10428000910510F484E00895265D364010F480E036
:10429000089585E00895FF920F931F93CF93DF93C6
:1042A000D3DB68EE73E080E090E00E9443D300D05F
:1042B0000F9204EF14E0ADB7BEB712961C930E93A5
:1042C000119786E195E014969C938E9313970E9424
:1042D000FE9D0F900F900F900F90C80168E070E066
:1042E0004AE050E00E949BD6C9E0D5E0F02E012FB5
:1042F00064E170E080E090E00E9443D396DF182FE5
:10430000809147088117E1F000D000D0EDB7FEB7EB
:104310003196ADB7BEB71196FC92119712960C93D9
:10432000D383C283148315820E94FE9D1093470895
:10433000EDB7FEB736960FB6F894FEBF0FBEEDBFD1
:1043400084EF94E00E947F9E181619068CF680E098
:10435000DF91CF911F910F91FF90089580915309A4
:10436000882361F060916B09662341F061508BE214
:1043700095E00E94DAB1885E934058F4E0912513ED
:10438000F0912613309711F480E00895128280E0B6
:104390000895E091DD12F091DE1280A58823C1F32B
:1043A00081E00895AF92BF92CF92DF92EF92FF9299
:1043B0000F931F93CF93DF9328E2A22E25E0B22E16
:1043C00092E2C92E95E0D92E00E010E084EFE82EAD
:1043D00084E0F82E00D000D0EDB7FEB73196ADB72F
:1043E000BEB71296FC92EE921197B382A282158309
:1043F00004830E94FE9DC0E0D0E08DB79EB7069674
:104400000FB6F8949EBF0FBE8DBFF999FECFCE01B7
:10441000800F911F92BD81BDF89A80B500D000D069
:10442000EDB7FEB73196ADB7BEB71296FC92EE92DD
:104430001197D382C282848315820E94FE9D2196A9
:104440008DB79EB706960FB6F8949EBF0FBE8DBF70
:10445000C031D105D1F6C7010E947DD6005F1F4F44
:1044600090E10030190709F0B5CF80E0DF91CF91DE
:104470001F910F91FF90EF90DF90CF90BF90AF9082
:10448000089500D00F9284EF94E0EDB7FEB79283C9
:10449000818383E099E0948383830E94FE9D0F9043
:1044A0000F900F900F9084EF94E00E94AF9EFFEF6B
:1044B0008F3F9F07C1F38937910529F08935910511
:1044C00011F08FEF0895E7DA80E00895BDDA68EE25
:1044D00073E080E090E00E9443D300D00F9284EF1D
:1044E00094E0EDB7FEB7928381838EE295E09483EA
:1044F00083830E94FE9D0F900F900F900F9088E194
:1045000095E00E947F9E892B49F088E195E00E940A
:10451000AF9E682F88E195E00E940E9F84EF94E0A3
:104520000E947F9E1816190654F780E00895EF92B6
:10453000FF920F931F93CF93DF93EC018091230998
:10454000992787FD9095861797073CF48FE0DE0149
:104550001D928A95E9F7188259C0FB0134E0EE0FED
:10456000FF1F3A95E1F7E61BF70BE050FC4FF99976
:10457000FECFF2BDE1BDF89A80B588839F01442744
:1045800037FD4095542F2F5F3F4F4F4F5F4FF999A5
:10459000FECF32BD21BDF89A80B5898379018A01A9
:1045A0000894E11CF11C011D111DF999FECFF2BC0C
:1045B000E1BCF89A80B58A830894E11CF11C011DC6
:1045C000111DC7010E9444176B837C838D839E83DA
:1045D00084E090E0A0E0B0E0E80EF91E0A1F1B1F87
:1045E000C7010E9444176F83788789879A8784E080
:1045F00090E0A0E0B0E0E80EF91E0A1F1B1FC70103
:104600000E9444176B877C878D879E8788818F35B2
:1046100010F08137B9F4898180FF14C08B819C81AF
:10462000AD81BE8120911F12309120124091211244
:1046300050912212820F931FA41FB51F8B839C835E
:10464000AD83BE83CE01DF91CF911F910F91FF907B
:10465000EF9008958F929F92AF92BF92DF92EF9268
:10466000FF920F931F93DF93CF93CDB7DEB72F97B2
:104670000FB6F894DEBF0FBECDBF68EE73E080E0EA
:1046800090E00E9443D32091400B3091410B84EF86
:1046900094E037FF15C000D00F92ADB7BEB71296A9
:1046A0009C938E9311978DE995E014969C938E932D
:1046B00013970E94FE9D0F900F900F900F9020C0B7
:1046C00000D000D0EDB7FEB73196ADB7BEB71296A9
:1046D0009C938E93119787E895E093838283C90119
:1046E00064E670E00E94C5DB758364830E94FE9DD2
:1046F000EDB7FEB736960FB6F894FEBF0FBEEDBF0E
:1047000000D000D0EDB7FEB7319604EF14E0ADB79E
:10471000BEB712961C930E93119789E795E0938389
:10472000828380912309992787FD909595838483BF
:104730000E94FE9DEDB7FEB73196ADB7BEB712969B
:104740001C930E93119789E695E093838283809161
:104750003B09992787FD9095958384830E94FE9D50
:10476000EDB7FEB73196ADB7BEB712961C930E9358
:10477000119785E595E09383828380914709992776
:1047800087FD9095958384830E94FE9D44EB842E43
:1047900045E0942EFF24EDB7FEB736960FB6F89499
:1047A000FEBF0FBEEDBF5E010894A11CB11CD02E50
:1047B000E12E45C0C501B801BADE8DB79EB7489756
:1047C0000FB6F8949EBF0FBE8DBFEDB7FEB7319602
:1047D000ADB7BEB71196DC9211971296EC92938208
:1047E0008282158304838981868317828A818087E8
:1047F00011868B81828713868C819D81AE81BF81DA
:1048000084879587A687B78788859985AA85BB857C
:10481000808B918BA28BB38B8C859D85AE85BF855C
:10482000848B958BA68BB78B0E94FE9DF394EDB77E
:10483000FEB778960FB6F894FEBF0FBEEDBF0F2DF2
:1048400010E080912309992787FD909580179107A3
:104850000CF0B0CF80E02F960FB6F894DEBF0FBEFD
:10486000CDBFCF91DF911F910F91FF90EF90DF901F
:10487000BF90AF909F908F900895EF92FF920F930B
:104880001F93CF93DF93E0D868EE73E080E090E071
:104890000E9443D35BEFE52E55E0F52E00EF15E0C7
:1048A000C4EFD4E000D00F92EDB7FEB7D283C1833E
:1048B000F482E3820E94FE9D0F900F900F900F9064
:1048C00089E498E00E9496CD68EB7BE080E090E080
:1048D0000E9443D3CE010E947F9E18161906F4F061
:1048E00000D00F92EDB7FEB7D283C1831483038348
:1048F0000E94FE9D0F900F900F900F9089E498E01A
:104900000E949CCD68EB7BE080E090E00E9443D366
:10491000CE010E947F9E1816190624F680E0DF91D2
:10492000CF911F910F91FF90EF900895EF92FF921A
:104930000F931F9380E00E94FED3AA2797FDA095B6
:10494000BA2FBC01CD010E94D7D87B018C016091A8
:10495000AC0B7091AD0B8091AE0B9091AF0B20E042
:1049600030E040E85AE30E94B1DA9B01AC01C80193
:10497000B7010E94B1DA20918E0B30918F0B4091DC
:10498000900B5091910B0E94B1DA2DEC3CEC4CEC69
:104990005DE30E94B1DA7B018C01609107037091A5
:1049A00008038091090390910A0326E636E646E65D
:1049B0005FE30E94B1DA9B01AC01C801B7010E941C
:1049C0003ED7609307037093080380930903909385
:1049D0000A0381E00E94FED3AA2797FDA095BA2F73
:1049E000BC01CD010E94D7D87B018C016091AC0B3A
:1049F0007091AD0B8091AE0B9091AF0B20E030E049
:104A000040E85AE30E94B1DA9B01AC01C801B7014A
:104A10000E94B1DA20918E0B30918F0B4091900B58
:104A20005091910B0E94B1DA2DEC3CEC4CEC5DE323
:104A30000E94B1DA7B018C0160910B0370910C0331
:104A400080910D0390910E0326E636E646E65FE37D
:104A50000E94B1DA9B01AC01C801B7010E943ED7A8
:104A600060930B0370930C0380930D0390930E03DC
:104A700082E00E94FED3AA2797FDA095BA2FBC0121
:104A8000CD010E94D7D87B018C016091AC0B709155
:104A9000AD0B8091AE0B9091AF0B20E030E040E881
:104AA0005AE30E94B1DA9B01AC01C801B7010E9430
:104AB000B1DA20918E0B30918F0B4091900B509179
:104AC000910B0E94B1DA2DEC3CEC4CEC5DE30E94C2
:104AD000B1DA7B018C0160910F037091100380911A
:104AE00011039091120326E636E646E65FE30E9444
:104AF000B1DA9B01AC01C801B7010E943ED76093B7
:104B00000F0370931003809311039093120383E0BB
:104B10000E94FED3AA2797FDA095BA2FBC01CD0114
:104B20000E94D7D87B018C016091AC0B7091AD0BCA
:104B30008091AE0B9091AF0B20E030E040E85AE35B
:104B40000E94B1DA9B01AC01C801B7010E94B1DA41
:104B500020918E0B30918F0B4091900B5091910BC7
:104B60000E94B1DA2DEC3CEC4CEC5DE30E94B1DA32
:104B70007B018C01609113037091140380911503E4
:104B80009091160326E636E646E65FE30E94B1DA28
:104B90009B01AC01C801B7010E943ED77B018C018B
:104BA000CB01D8018093130390931403A0931503B2
:104BB000B09316032091820B213049F480910F03AA
:104BC00090911003A0911103B091120304C0223000
:104BD00059F4C701D8018093170390931803A09349
:104BE0001903B0931A0390C0233019F0243009F050
:104BF0008BC08091070390910803A0910903B091A5
:104C00000A038093170390931803A0931903B0939A
:104C10001A03243009F078C081E00E94FED3AA274D
:104C200097FDA095BA2FBC01CD010E94D7D87B017A
:104C30008C016091AC0B7091AD0B8091AE0B90919B
:104C4000AF0B20E030E040E85AE30E94B1DA9B016C
:104C5000AC01C801B7010E94B1DA20919D0B3091DF
:104C60009E0B40919F0B5091A00B0E94B1DA2DEC4E
:104C70003CEC4CEC5DE30E94B1DA7B018C0160916D
:104C80002B1270912C1280912D1290912E1226E6EB
:104C900036E646E65FE30E94B1DA9B01AC01C8014B
:104CA000B7010E943ED77B018C0160932B12709359
:104CB0002C1280932D1290932E126091331270E07B
:104CC00080E090E00E94D5D89B01AC01C801B701FB
:104CD0000E94B1DA27E830EC41E959E30E94B1DAE9
:104CE0009B01AC0160912F127091301280913112B2
:104CF000909132120E943ED760932F12709330121F
:104D000080933112909332121F910F91FF90EF9088
:104D10000895CF93DF938091820B18160CF065C035
:104D200084300CF062C0C0E0D0E064E170E080E06C
:104D300090E00E9443D3FADD2196C035D105A9F752
:104D40008DB79EB744970FB6F8949EBF0FBE8DBF28
:104D5000EDB7FEB7319684EF94E0ADB7BEB71296CB
:104D60009C938E93119782E196E093838283809146
:104D7000070390910803A0910903B0910A0384836B
:104D80009583A683B78380910B0390910C03A09128
:104D90000D03B0910E0380879187A287B38780911E
:104DA0000F0390911003A0911103B0911203848717
:104DB0009587A687B7878091130390911403A091DC
:104DC0001503B0911603808B918BA28BB38B0E943D
:104DD000FE9DEDB7FEB774960FB6F894FEBF0FBEFA
:104DE000EDBF80E0DF91CF91089500D00F9284EF66
:104DF00094E0ADB7BEB712969C938E93119785E061
:104E000096E014969C938E9313970E94FE9D0F90AC
:104E10000F900F900F90E5CFCF93DF93EC0107C079
:104E2000219784EF94E060E072E00E9492D61C1615
:104E30001D06B4F3DF91CF910895FF920F931F9356
:104E4000F62E00D000D0EDB7FEB7319604EF14E097
:104E5000ADB7BEB712961C930E93119720EC3BE0B2
:104E600033832283848315820E94FE9D8DB79EB773
:104E700006960FB6F8949EBF0FBE8DBFEF2DF0E0E3
:104E8000EE0FFF1FE35BFC4F60817181C8010E9440
:104E900092D61F910F91FF900895EF92FF920F937A
:104EA0001F93CF93DF937FE7E72E7CE0F72EC0E0E0
:104EB000D0E004EF14E000D00F92EDB7FEB71283FC
:104EC0000183F482E3820E94FE9D21960F900F9051
:104ED0000F900F90C832D10571F7C80160E072E001
:104EE0000E9492D6DF91CF911F910F91FF90EF908A
:104EF000089500D00F9284EF94E0EDB7FEB792834F
:104F0000818381E899E0948383830E94FE9D0F90C2
:104F10000F900F900F90C1DF0E94821D82E090E001
:104F20007BCFCF93DF9300D00F92C4EFD4E0EDB7E7
:104F3000FEB7D283C18380E99AE0948383830E9481
:104F4000FE9D0F900F900F900F90A7DF8091820B26
:104F5000882381F400D00F92EDB7FEB7D283C183CE
:104F600087E79AE0948383830E94FE9D0F900F90C1
:104F70000F900F908091820B813091F400D00F92AE
:104F800084EF94E0EDB7FEB79283818385E69AE0E3
:104F9000948383830E94FE9D0F900F900F900F903B
:104FA0008091820B823091F400D00F9284EF94E0D4
:104FB000EDB7FEB79283818383E59AE09483838380
:104FC0000E94FE9D0F900F900F900F908091820B8A
:104FD000833091F400D00F9284EF94E0EDB7FEB7E8
:104FE000928381838DE39AE0948383830E94FE9D64
:104FF0000F900F900F900F908091820B843091F45E
:1050000000D00F9284EF94E0EDB7FEB792838183D6
:1050100080E29AE0948383830E94FE9D0F900F901C
:105020000F900F9082E090E0F7DEDF91CF9108952E
:105030000F931F9300D00F9204EF14E0EDB7FEB76B
:10504000128301838BE09BE0948383830E94FE9D07
:105050000F900F900F900F9020DF00D00F92EDB7C0
:10506000FEB7128301838EEF9AE0948383830E94BC
:10507000FE9D0F900F900F900F9082E190E10E94A3
:10508000A11E00D00F92EDB7FEB71283018380EF0F
:105090009AE0948383830E94FE9D0F900F900F905F
:1050A0000F9083E690E10E94A11E00D00F92EDB711
:1050B000FEB71283018381EE9AE0948383830E947A
:1050C000FE9D0F900F900F900F9085E091E10E9450
:1050D000A11E00D00F92EDB7FEB71283018386EDBB
:1050E0009AE0948383830E94FE9D0F900F900F900F
:1050F0000F9081EC9FE00E94A11E00D00F92EDB7AF
:10510000FEB71283018381EC9AE0948383830E942B
:10511000FE9D0F900F900F900F9084EB90E10E94F6
:10512000A11E00D00F92EDB7FEB7128301838EEA65
:105130009AE0948383830E94FE9D0F900F900F90BE
:105140000F9086E591E10E94A11E00D00F92EDB76D
:10515000FEB7128301838EE99AE0948383830E94D1
:10516000FE9D0F900F900F900F9087EA91E10E94A3
:10517000A11E82E090E050DE1F910F9108950F93E1
:105180001F9300D00F9204EF14E0ADB7BEB7129694
:105190001C930E93119788E59BE014969C938E9335
:1051A00013970E94FE9D0F900F900F900F9075DE49
:1051B000EDB7FEB73A970FB6F894FEBF0FBEEDBF3E
:1051C0003196ADB7BEB712961C930E93119788E334
:1051D0009BE0938382838091D0089091D108A09125
:1051E000D208B091D30884839583A683B783809136
:1051F000DF089091E008918780870E94FE9DEDB7BF
:10520000FEB73A960FB6F894FEBF0FBEEDBF82E030
:1052100090E002DE1F910F9108950F931F9300D02D
:105220000F9204EF14E0ADB7BEB712961C930E9325
:10523000119788EA9BE014969C938E9313970E9493
:10524000FE9D0F900F900F900F9027DEEDB7FEB7E9
:105250003E970FB6F894FEBF0FBEEDBF3196ADB7C7
:10526000BEB712961C930E93119784E69BE093832E
:1052700082838091B609992787FD909595838483D1
:105280008091C209992787FD9095978386838091A5
:10529000F309992787FD9095918780878091DA0996
:1052A000992787FD9095938782878091E609909151
:1052B000E709958784870E94FE9DEDB7FEB73E966D
:1052C0000FB6F894FEBF0FBEEDBF82E090E0A4DD04
:1052D0001F910F9108951F93CF93DF9300D00F92EA
:1052E00084EF94E0EDB7FEB79283818382EB9BE07D
:1052F000948383830E94FE9D0F900F900F900F90D8
:10530000CCDDCFE2DAE010E0812F688196DD2C96CB
:105310001F5F1630C9F782E090E07EDDDF91CF910C
:105320001F91089500D00F9284EF94E0EDB7FEB77F
:105330009283818389EC9BE0948383830E94FE9D0A
:105340000F900F900F900F90A8DD0E94EF1E0E940B
:10535000211F82E090E060CDDF93CF9300D0CDB7E6
:10536000DEB720914803298323E02A8322E02B83A0
:1053700060E0AE014F5F5F4F23E00E94DFCD0F90F2
:105380000F900F90CF91DF9108956F927F928F923F
:105390009F92AF92BF92CF92DF920F931F93DF93B2
:1053A000CF93CDB7DEB76B970FB6F894DEBF0FBEC5
:1053B000CDBF3C014B0180910603863011F187304F
:1053C00048F4813079F1813098F08230A9F085304D
:1053D00089F414C08C3001F18D3028F48A30B1F09A
:1053E0008B3041F416C08F3079F0803119F417C03A
:1053F00012E019C010E017C015E015C016E001E07A
:1054000013C016E002E010C013E00DC014E003E08A
:105410000BC014E005E008C014E008E005C010E08F
:1054200000E002C017E004E06091BB0B7091BC0B80
:10543000882777FD8095982F0E94D7D86C8B7D8B1D
:105440008E8B9F8B20912F12309130124091311210
:10545000509132120E943DD720E030E04AE754E4F8
:105460000E94B1DA2C893D894E895F890E940BD850
:105470000E94A9D85B016C01609117037091180319
:105480008091190390911A0320E030E04AE754E438
:105490000E94B1DA0E94A9D8688F798F8A8F9B8F7A
:1054A0006091CA127091CB128091CC129091CD1262
:1054B00020E030E04AE754E40E94B1DA0E94A9D823
:1054C0007A836983888D998D9C838B83BE82AD821C
:1054D00098868F8219870A8784E08B878A818C87D8
:1054E00089818D878C818E878B818F878E81888B38
:1054F0008D81898B88858A8B8F818B8BC30162E23A
:10550000AE01475F5F4F2BE00E94DFCD6B960FB679
:10551000F894DEBF0FBECDBFCF91DF911F910F91E9
:10552000DF90CF90BF90AF909F908F907F906F90C3
:1055300008952F923F924F925F926F927F928F9237
:105540009F92AF92BF92CF92DF92EF92FF920F9312
:105550001F93DF93CF93CDB7DEB7CE54D0400FB6B5
:10556000F894DEBF0FBECDBF2F969FAF8EAF2F97A3
:10557000DE019596EAE8F5E084E201900D92815013
:10558000E1F72091D9123091DA124091DB1250915B
:10559000DC122D962CAF3DAF4EAF5FAF2D97009133
:1055A000DD121091DE12D80154966D917D918D918E
:1055B0009C9157972AE030E040E050E00E94A6DB43
:1055C0001B012C01F801608D718D828D938D0E94DD
:1055D000D7D87B018C012DA13EA14FA158A50E94D7
:1055E000B1DA0E94A4D83B014C01C801B70129A936
:1055F0003AA94BA95CA90E94B1DA0E94A4D85B0128
:105600006C01C801B701FE01FD9620813181428104
:1056100053810E94B1DA0E94A4D82091D512309112
:10562000D6124091D7125091D8122F8338874987CC
:105630005A872D962CAD3DAD4EAD5FAD2D972B8786
:105640003C874D875E872F86388A498A5A8A7A82B4
:105650006982BC82AB827E836D83FE013796838133
:105660008B8B82818C8B81818D8B8F818E8BFE01C8
:105670003B9683818F8B8281888F8181898F8B85F7
:105680008A8FFE013F9683818B8F82818C8F8181EF
:105690008D8F8F858E8F8A818F8F898188A38C8152
:1056A00089A38B818AA38E818BA38D818CA32F9656
:1056B0008EAD9FAD2F9769E4AE014D5E5F4F22E145
:1056C0000E94DFCDC25BDF4F0FB6F894DEBF0FBE86
:1056D000CDBFCF91DF911F910F91FF90EF90DF90A1
:1056E000CF90BF90AF909F908F907F906F905F9082
:1056F0004F903F902F9008952F923F924F925F923C
:105700006F927F928F929F92AF92BF92CF92DF92D1
:10571000EF92FF920F931F93DF93CF93CDB7DEB736
:10572000EE970FB6F894DEBF0FBECDBF9AAF89AF2C
:105730006091E3127091E4128091E5129091E6126B
:105740000E94D7D820E030E048EC52E40E940BD809
:105750003B014C016091E7127091E8128091E912CF
:105760009091EA120E94D7D820E030E048EC52E451
:105770000E940BD80E94A4D86BAF7CAF8DAF9EAFB8
:105780006091EB127091EC128091ED129091EE12FB
:105790000E94D7D820E030E048EC52E40E940BD8B9
:1057A0000E94A4D81B012C014090EF125090F012DF
:1057B0006091F3127091F4128091F5129091F612AB
:1057C0000E94D7D820E030E048EC52E40E940BD889
:1057D0007B018C016091F7127091F8128091F9129F
:1057E0009091FA120E94D7D820E030E048EC52E4C1
:1057F0000E940BD85B016C018091FB129091FC120E
:10580000A091FD12B091FE128DAB9EABAFABB8AFC5
:105810006091DF127091E0128091E1129091E2129A
:105820000E94D7D820E030E048EC52E40E940BD828
:105830006F83788789879A87C301D4018B879C8778
:10584000AD87BE87ABADBCADBA83A9833C822B824A
:105850005E824D82C701D8018F87988BA98BBA8B46
:10586000C501D6018B8B9C8BAD8BBE8B8DA99EA960
:10587000AFA9B8AD8F8B988FA98FBA8FFE013796DD
:1058800083818B8F82818C8F81818D8F8F818E8F91
:10589000FE013B9683818F8F828188A3818189A3BA
:1058A0008B858AA38A818BA389818CA38C818DA30C
:1058B0008B818EA38E818FA38D8188A7FE013F9659
:1058C000838189A782818AA781818BA78F858CA7F5
:1058D000FE01739683818DA782818EA781818FA718
:1058E0008B8988ABFE017796838189AB82818AABF5
:1058F00081818BAB8F898CAB89AD9AAD6EE3AE01A4
:10590000455E5F4F2AE10E94DFCDEE960FB6F89418
:10591000DEBF0FBECDBFCF91DF911F910F91FF90E2
:10592000EF90DF90CF90BF90AF909F908F907F903F
:105930006F905F904F903F902F900895CF92DF929D
:10594000EF92FF920F931F93DF93CF93CDB7DEB704
:10595000A1970FB6F894DEBF0FBECDBF40917F0C6C
:105960005091800C6091E20C7091E30CE091450D38
:10597000F091460DA091A80DB091A90D0091310EA6
:105980001091320EE090BA0EF090BB0EC090430F13
:10599000D090440F20911C0C30911D0C3A83298328
:1059A0005C834B837E836D83F887EF83BA87A987F7
:1059B0001C870B87FE86ED86D88ACF862A81298BA5
:1059C00029812A8B2C812B8B2B812C8B2E812D8B4B
:1059D0002D812E8B28852F8B2F81288F2A85298F2B
:1059E00029852A8F2C852B8F2B852C8F2E852D8F0B
:1059F0002D852E8F28892F8F2F8528A321E029A37D
:105A000063E2AE014F5E5F4F21E10E94DFCDA196C0
:105A10000FB6F894DEBF0FBECDBFCF91DF911F91BF
:105A20000F91FF90EF90DF90CF900895CF92DF928B
:105A3000EF92FF920F931F93DF93CF93CDB7DEB713
:105A4000A0970FB6F894DEBF0FBECDBF40918B0C70
:105A500050918C0C6091EE0C7091EF0CE091510D17
:105A6000F091520DA091B40DB091B50D00913D0E85
:105A700010913E0EE090C60EF090C70EC0904F0FF2
:105A8000D090500F2091280C3091290C3A83298313
:105A90005C834B837E836D83F887EF83BA87A98706
:105AA0001C870B87FE86ED86D88ACF862A81298BB4
:105AB00029812A8B2C812B8B2B812C8B2E812D8B5A
:105AC0002D812E8B28852F8B2F81288F2A85298F3A
:105AD00029852A8F2C852B8F2B852C8F2E852D8F1A
