:100000000C9444120D94EB220D941C230D944D235B
:100010000D947E230D94AF230D94E0230D941124B1
:100020000D9442240C9471120C9471120C94711260
:100030000C9471120C9471120C9471120C94D0CB1C
:100040000C9471120C9471120C9471120C94711224
:100050000C9471120C9471120C9471120D947324FF
:100060000C9471120C94EC1A0C942C1B0C947112BD
:100070000C9471120C9471120C9471120C947112F4
:100080000C9471120C9471120C9471120C947112E4
:100090000C947E1B0C94BE1B0C9471120C94BBD858
:1000A0000C9471120C94FDCB0C9471120C9471127F
:1000B0000C9471120C9471120C942ACC0C94711241
:1000C0000C9471120C9471120C9471120C947112A4
:1000D0000C9471120C9471120C94101C0C94501C02
:1000E0000C94711247675D6764674E6756676B676C
:1000F000CE67AB67A4678067B267B967C067C76739
:1001000072677967E367D467F367F96787678E6714
:1001100096679D67036EDB363D9A9999993DABAA28
:10012000AA2A3E000000803F084AD73B3BCE016E22
:1001300084BCBFFDC12F3D6C74319ABD56833DDA3E
:100140003D00C77F11BED9E4BB4C3E916BAAAABE4D
:10015000000000803F07634236B79BD8A71A396872
:100160005618AEBAAB558C1D3CB7CC5763BD6DED80
:10017000FD753EF6177231BF000000803F072C7AF4
:10018000A5BA6CC590DA3B9365FC8BBC53F810FDA7
:100190003C5692834DBD879D3AB63DCBC9BF5BBEF1
:1001A00073DA0FC93F05A84CCDB2D44EB93836A981
:1001B000020C50B9918688083CA6AAAA2ABE000063
:1001C00000803F08000000BE922449123EABAAAA5C
:1001D0002ABECDCCCC4C3E00000080BEABAAAAAA61
:1001E0003E00000000BF000000803F000000000053
:1001F000084178D3BB4387D1133D190E3CC3BD42A0
:1002000082AD2B3E68EC8276BED98FE1A93E4C8050
:10021000EFFFBE01C4FF7F3F00000000000664EC5A
:100220001B3C04BC163E3BE5B93CC93C37C29E5A58
:100230003D660498083EEA69AAAA3E000000803F95
:100240004C6F670064756D700000000000000000D6
:1002500000006856657261736500000000000000D0
:100260000000974E656E61626C6500000000000042
:100270000000C54D64697361626C65000000000098
:100280000000C54D706C616E6E657200676373002F
:1002900000000000000000000000ED94736574751C
:1002A00070007265736574000000000000000000BB
:1002B0008E4D726164696F00000000000000000054
:1002C000E46E6D6F646573000000000000000000C4
:1002D0004F6E636F6D70617373000000000000006B
:1002E000004D6465636C696E6174696F6E00000037
:1002F000EB4C6261747465727900000000000000CC
:10030000DD4273686F77000000000000000000000D
:10031000B54C6572617365000000000000000000CC
:10032000924741726475506C616E652056322E3270
:1003300037204749543A2063353134313565203010
:10034000372E32342E3230313420466C696768746F
:10035000006C6F677300000000000000000000AF39
:100360004C73657475700000000000000000009779
:100370004C74657374000000000000000000007FF2
:100380004C68656C70000000000000000000009DDB
:100390001F706C616E6E65720000000000000067E7
:1003A0004C746573740070776D00000000000000ED
:1003B00000000000DE6D726164696F0000000000E3
:1003C00000000000596D70617373746872750000ED
:1003D00000000000564B6661696C73616665000041
:1003E00000000000596C626174746572790000004D
:1003F00000000000773972656C6179000000000030
:1004000000000000FC4A776179706F696E747300B8
:1004100000000000513578626565000000000000B2
:1004200000000000F747656564756D70000000000E
:10043000000000003E496D6F6465737769746368FE
:1004400000000000974A6469707377697463686597
:1004500073000000FA4961646300000000000000BE
:1004600000000000BE48677073000000000000003C
:100470000000000029487261776770730000000077
:1004800000000000B847696D750000000000000022
:10049000000000003A3C6169727370656564000099
:1004A0000000000050466169727072657373757266
:1004B000650000009782636F6D70617373000000C8
:1004C00000000000693E63757272656E7400000082
:1004D00000000000D76B6C6F6767696E67000000F3
:1004E00000000000F421466F726D61742076657221
:1004F00073696F6E3A20256C7820204578706563AB
:1005000074656420666F726D6174207665727369BC
:100510006F6E3A20256C780A004E756D50616765E4
:10052000733A20257520205061676553697A653AD2
:100530002025750A004D616E75666163747572657C
:10054000723A203078253032782020204465766950
:1005500063653A203078253034780A004552523AA3
:10056000204E6F2064617461666C61736820696EEF
:100570007365727465640054657374696E67206492
:10058000617461666C617368206C6F6767696E6720
:10059000004E6F7420656E61626C65640A00563AA5
:1005A0002025342E34662C20413A2025342E346602
:1005B0002C206D41683A2025342E34660A004869A3
:1005C0007420456E74657220746F20657869742E8E
:1005D0000A0A004D5347204653204F4646202575B2
:1005E000004D5347204653204F4E20257500736120
:1005F00076696E67206F66667365747300636F6DEE
:1006000070617373206E6F74206865616C746879B3
:100610000048656164696E673A20256C642C205837
:10062000595A3A2025642C2025642C2025642C0955
:1006300058595A6F66663A2025362E32662C202588
:10064000362E32662C2025362E32660A00436F6D18
:100650007061737320696E697469616C6973617428
:10066000696F6E206661696C65642100436F6D700F
:100670006173733A200061626C65640A0064697397
:1006800000656E004D6167206F6666736574733A2E
:100690002025342E34662C2025342E34662C20253B
:1006A000342E34660A004D6167204465636C696EC0
:1006B0006174696F6E3A2025342E34660A003F3F1C
:1006C0000048494C00484D433538343300484D43C9
:1006D000353838334C00436F6D706173733A2000C6
:1006E0002D00416C743A2025302E32666D2C20523C
:1006F00061773A20256C642054656D706572617471
:100700007572653A20252E31660A006E6F74206876
:1007100065616C74687900556E63616C69627261C1
:100720007465642072656C617469766520616972B4
:1007300070726573737572650A006261726F6D65C0
:100740007465722063616C6962726174696F6E2096
:10075000636F6D706C6574652E006162735F70729B
:1007600065737375726520256C640A00252E3166E9
:10077000206D2F730A0061697273706565643A2099
:100780000061697273706565643A20006169727313
:10079000706565645F63683A20252E31660A0072D1
:1007A0003A2534642020703A2534642020793A2593
:1007B00033642020673D2825352E31662025352ECF
:1007C00031662025352E3166292020613D282535CA
:1007D0002E31662025352E31662025352E316629AD
:1007E0000A002E004C61743A20256C642C204C6F5A
:1007F0006E20256C642C20416C743A20256C646D4D
:100800002C2023736174733A2025640A00252E314D
:100810006609004144430A004D69783A656C657683
:100820006F6E73200972657620656C65763A256473
:100830002C20726576206368313A25642C2072651D
:1008400076206368323A25640A004D69783A7374F9
:10085000616E64617264200972657620726F6C6CDF
:100860003A25642C207265762070697463683A2595
:10087000642C20726576207275646465723A256412
:100880000A00646970207377697463686573206413
:10089000697361626C65642C207573696E672045AD
:1008A0004550524F4D00506F736974696F6E20252B
:1008B000640A00436F6E74726F6C204348200020FE
:1008C0002530327800253034783A00426567696E09
:1008D000205842656520582D4354552052616E675B
:1008E0006520616E64205253534920546573743AF5
:1008F0000A004C6F69746572207261646975733A9D
:100900002025640A0A00486974207261646975735D
:100910003A2025640A00256420776179706F696E3A
:1009200074730A00486F6C6420616C746974756438
:1009300065206F662025646D0A00486F6C64206333
:10094000757272656E7420616C7469747564650A81
:1009500000636F6D6D616E6420233A202564206909
:10096000643A2564206F7074696F6E733A25642051
:1009700070313A25642070323A256C642070333A25
:10098000256C642070343A256C64200A0052656C32
:100990006179206F66660A0052656C6179206F6E1E
:1009A0000A004E6F7420656E61626C65640A0056C1
:1009B0006F6C74733A20313A25322E32662C203215
:1009C0003A25322E32662C20333A25322E32662CCE
:1009D00020343A25322E32660A004C4F5320636190
:1009E00075736564206E6F206368616E676520694A
:1009F0006E2041504D2E0A005448524F54544C45DD
:100A0000204641494C5341464520414354495641B3
:100A10005445443A2025642C2000434F4E54524FF5
:100A20004C204D4F4445204348414E4745443A20D1
:100A3000005448524F54544C45204348414E47457A
:100A400044202564200A00556E706C756720626131
:100A500074746572792C207468726F74746C65207C
:100A6000696E206E65757472616C2C207475726E7F
:100A7000206F666620726164696F2E0A00494E20FD
:100A8000313A20256409323A20256409333A202579
:100A90006409343A20256409353A20256409363A38
:100AA00020256409373A20256409383A2025640A4C
:100AB00000494E3A09313A20256409323A2025642A
:100AC00009333A20256409343A20256409353A204F
:100AD000256409363A20256409373A202564093807
:100AE0003A2025640A00506C616E6E6572204D6F6D
:100AF00064650A0A54686973206D6F6465206973C0
:100B0000206E6F7420696E74656E64656420666F14
:100B100072206D616E75616C207573650A0A004301
:100B20006F6D6D616E64733A0A20206C6F6773207D
:100B3000202020202020206C6F6720726561646275
:100B400061636B2F7365747570206D6F64650A2027
:100B50002073657475702020202020202073657418
:100B60007570206D6F64650A202074657374202091
:100B700020202020202074657374206D6F64650A26
:100B80000A4D6F76652074686520736C6964652012
:100B900073776974636820616E642072657365742D
:100BA00020746F20464C592E0A0A00546573742035
:100BB0004D6F64650A0A005365747570204D6F644B
:100BC000650A0A494D504F5254414E543A206966C5
:100BD00020796F752068617665206E6F7420707261
:100BE0006576696F75736C792073657420746869B4
:100BF000732073797374656D2075702C207573651F
:100C0000207468650A2772657365742720636F6DA9
:100C10006D616E6420746F20696E697469616C69BE
:100C20007A652074686520454550524F4D20746F99
:100C30002073656E7369626C652064656661756CAE
:100C4000742076616C7565730A616E6420746865E2
:100C50006E207468652027726164696F2720636F56
:100C60006D6D616E6420746F20636F6E6669677569
:100C7000726520666F7220796F7572207261646987
:100C80006F2E0A0A000A54797065202759272061BF
:100C90006E642068697420456E74657220746F20DC
:100CA000657261736520616C6C20776179706F6922
:100CB0006E7420616E6420706172616D657465721E
:100CC00020646174612C20616E79206F7468657294
:100CD000206B657920746F2061626F72743A200016
:100CE000646F6E650A000A45726173696E6720451C
:100CF0004550524F4D0A005261772056616C756520
:100D0000730A00526164696F0A004348383A20252B
:100D100064207C202564207C2025640A0043483719
:100D20003A202564207C202564207C2025640A004C
:100D30004348363A202564207C202564207C2025E9
:100D4000640A004348353A202564207C202564202D
:100D50007C2025640A004348343A202564207C2006
:100D60002564207C2025640A004348333A2025640A
:100D7000207C202564207C2025640A004348323AE8
:100D8000202564207C202564207C2025640A0043E3
:100D900048313A202564207C202564207C2025646D
:100DA0000A004D6F6E69746F72696E6720766F6CA2
:100DB000747320616E642063757272656E74004D89
:100DC0006F6E69746F72696E6720626174742076E9
:100DD0006F6C7473004D6F6E69746F72696E67200B
:100DE000342063656C6C004D6F6E69746F72696E50
:100DF0006720332063656C6C0042617474206D6FF2
:100E00006E69746F72696E672064697361626C6584
:100E1000640042617474204D6F696E746F720A00D1
:100E20006E617620706974636820616C743A0A00A0
:100E3000656E6572677279207468726F74746C6520
:100E40003A0A006E61762070697463682061697285
:100E500073706565643A0A006E617620726F6C6C1F
:100E60003A0A00736572766F207275646465723A2F
:100E70000A00736572766F2070697463683A0A00BD
:100E8000736572766F20726F6C6C3A0A0047616905
:100E90006E730A00503A2025342E33662C20493ACE
:100EA00025342E33662C20443A25342E33662C20EC
:100EB000494D41583A256C640A0058545241434BFD
:100EC0003A2025342E32660A58545241434B206151
:100ED0006E676C653A2025640A0043726F73737401
:100EE0007261636B0A006D696E3A2025640A6D6158
:100EF000783A2025640A6372756973653A2025641F
:100F00000A6661696C736166655F656E61626C65D6
:100F1000643A2025640A6661696C736166655F7670
:100F2000616C75653A2025640A005468726F7474A8
:100F30006C650A00466C69676874206D6F64657340
:100F40000A00506F732025643A2000494D550A006D
:100F50004779726F206F6666736574733A20253423
:100F60002E32662C2025342E32662C2025342E324B
:100F7000660A00416363656C206F6666736574730F
:100F80003A2025342E32662C2025342E32662C2031
:100F900025342E32660A000A4F7074696F6E733AF8
:100FA00020302D34000A4F7074696F6E733A5B6F96
:100FB0006E2C6F66665D0A006F666600436F6D702B
:100FC00061737320696E697469616C6973617469B6
:100FD0006F6E206661696C656421006F6E000A4D5A
:100FE0006F766520524320746F67676C6520737756
:100FF0006974636820746F206561636820706F7323
:101000006974696F6E20746F20656469742C206D3B
:101010006F76652061696C65726F6E2073746963A9
:101020006B20746F2073656C656374206D6F6465ED
:10103000732E000A53617665642053657474696E7B
:1010400067730A0A000A4D6F766520616C6C206335
:101050006F6E74726F6C7320746F206561636820AB
:1010600065787472656D652E2048697420456E74CC
:10107000657220746F20736176653A200A000A4E0B
:101080006F20726164696F3B20436865636B206306
:101090006F6E6E6563746F72732E000A0A5261641C
:1010A000696F2053657475703A0A000A46414354CB
:1010B0004F525920524553455420636F6D706C65F3
:1010C0007465202D20706C65617365207265736591
:1010D000742041504D20746F20636F6E74696E757B
:1010E00065000A547970652027592720616E6420B5
:1010F00068697420456E74657220746F2070657223
:10110000666F726D20666163746F727920726573A9
:1011100065742C20616E79206F74686572206B6530
:101120007920746F2061626F72743A2000656E617D
:10113000626C650043555200434D440052415700D4
:101140004D4F4445004E54554E004354554E0050AB
:101150004D004750530041545449545544455F4D48
:1011600045440041545449545544455F4641535405
:1011700000616C6C006D697373696E67206C6F67DA
:1011800020747970650A000A4C6F6720657261737C
:1011900065642E0A000A45726173696E67206C6F80
:1011A000672E2E2E0A00446F6E650A0044756D701E
:1011B000696E67204C6F672025642C2020202073E7
:1011C000746172742070672025642C202020656E65
:1011D000642070672025640A00626164206C6F6778
:1011E000206E756D6265720A0064756D70696E6758
:1011F00020616C6C0A0025640A0025642C090044F7
:101200004620706167652C206C6F672066696C658D
:1012100020232C206C6F6720706167653A2025645D
:101220002C09004E756D626572206F6620706163D7
:101230006B65747320726561643A2025640A000A44
:1012400041726475506C616E652056322E323720C3
:101250004749543A20633531343135652030372ED3
:1012600032342E3230313420466C696768740A4655
:101270007265652052414D3A2025750A004E38347A
:1012800020437562004572726F7220526561646915
:101290006E6720454E445F425954453A2025640A02
:1012A000004572726F722052656164696E672050EA
:1012B00061636B65743A2025640A004154543A20F6
:1012C00025642C2025642C2025750A004D4F443AB6
:1012D000004354554E3A004E54554E3A2025342E74
:1012E00034662C2025642C2025342E34662C2025B1
:1012F000342E34662C2025342E34662C2025342EB2
:1013000034662C2025342E34662C0A00504D3A00C9
:101310005241573A00434D443A00435552523A2005
:1013200025642C2025342E34662C2025342E34665A
:101330002C2025640A0020256420636F6D6D616E8A
:10134000647320696E206D656D6F72790A00554E69
:101350004B4E4F574E2053544152545550202D2040
:101360000047524F554E44205354415254202D2093
:1013700000414952205354415254202D20004750DF
:10138000533A20256C642C2025642C2025642C20C5
:1013900025342E37662C2025342E37662C202564E4
:1013A0002C2025342E34662C2025342E34662C2017
:1013B00025342E34662C2025342E34660A00414C08
:1013C0005432505443485F00454E524759325448B6
:1013D000525F005957325352565F004152535032B8
:1013E000505443485F0050544348325352565F00B4
:1013F000524C4C325352565F0048444E4732524C86
:101400004C5F005243385F005243375F005243360F
:101410005F005243355F005243345F005243335FF5
:10142000005243325F005243315F00464C41505FEF
:10143000325F535045454400464C41505F325F5047
:101440004552434E5400464C41505F315F53504526
:10145000454400464C41505F315F504552434E5425
:101460000041525350445F454E41424C4500534F5A
:101470004E41525F454E41424C4500494E56455201
:10148000544544464C545F434800424154545F43E2
:101490004150414349545900494E5055545F564FAD
:1014A0004C545300414D505F5045525F564F4C5481
:1014B00000564F4C545F44495649444552004241FE
:1014C00054545F4D4F4E49544F52004D41475F4574
:1014D0004E41424C4500474E445F4142535F50529B
:1014E00045535300474E445F54454D5000414C54C2
:1014F0005F484F4C445F52544C005452494D5F502A
:10150000495443485F4344004D494E5F474E44535E
:1015100050445F434D005452494D5F415253504433
:101520005F434D005253545F5357495443485F4300
:1015300048004C4F475F4C41535446494C45004C82
:101540004F475F4249544D41534B005359535F4EEF
:10155000554D5F52455345545300454C45564F4EEB
:101560005F4348325F52455600454C45564F4E5FEB
:101570004348315F52455600454C45564F4E5F52E9
:1015800045564552534500454C45564F4E5F4D49D3
:1015900058494E47005357495443485F454E4142CE
:1015A0004C45005452494D5F4155544F004C494DF4
:1015B0005F50495443485F4D494E004C494D5F5080
:1015C000495443485F4D4158004C494D5F524F4C80
:1015D0004C5F434400464C544D4F44453600464C06
:1015E000544D4F44453500464C544D4F444534000E
:1015F000464C544D4F44453300464C544D4F4445A2
:101600003200464C544D4F44453100464C544D4FEA
:1016100044455F43480046535F4743535F454E414F
:10162000424C0046535F4C4F4E475F4143544E007F
:1016300046535F53484F52545F4143544E005452F7
:10164000494D5F5448524F54544C45005448525FE2
:1016500046535F56414C5545005448525F464149F8
:101660004C53414645005448525F534C45575241F4
:101670005445005448525F4D4158005448525F4D04
:10168000494E00414C545F484F4C445F46425743DB
:101690004D0041525350445F4642575F4D41580000
:1016A00041525350445F4642575F4D494E004645B4
:1016B0004E43455F4D4158414C540046454E4345CD
:1016C0005F4D494E414C540046454E43455F4348AB
:1016D000414E4E454C0046454E43455F544F5441A4
:1016E0004C0046454E43455F414354494F4E0057D9
:1016F000505F4C4F495445525F5241440057505F30
:1017000052414449555300434D445F494E44455866
:1017100000434D445F544F54414C00415253504498
:101720005F4F46465345540041525350445F524127
:1017300054494F00414C545F4D4958005854524B46
:101740005F414E474C455F4344005854524B5F47FE
:1017500041494E5F5343004B46465F544852325016
:10176000544348004B46465F505443483254485215
:10177000004B46465F524444524D4958004B464642
:101780005F50544348434F4D500053455249414CDC
:10179000335F424155440053595349445F4D5947C3
:1017A00043530053595349445F544849534D41569C
:1017B0000053595349445F53575F545950450053A0
:1017C000595349445F53575F4D52455600445A00A0
:1017D000524556004D4158005452494D004D494E16
:1017E00000414E474C455F4D415800414E474C45E6
:1017F0005F4D494E0046554E4354494F4E00494DAA
:10180000415800440049005000494D555F53454E32
:10181000534F525F43414C004C6F672025642C208E
:1018200020202073746172742025642C2020206590
:101830006E642025640A000A2564206C6F67730AB1
:10184000000A4E6F206C6F67730A0A0043555200FE
:1018500020255300434D440020255300524157009A
:10186000202553004D4F444500202553004E54552C
:101870004E00202553004354554E00202553005060
:101880004D0020255300475053002025530041545C
:101890005449545544455F4D45440020255300416B
:1018A000545449545544455F4641535400202553F0
:1018B000006E6F6E65006C6F677320656E61626CA1
:1018C00065643A200047656F46656E63652044692C
:1018D0007361626C65640047656F46656E63652081
:1018E00044697361626C65640047656F46656E6349
:1018F00065206973204E554C4C0047656F46656EF8
:101900006365206973204E554C4C006770732061ED
:101910006C743A20256C7500696E697420686F6D6F
:1019200065002B006261642066656E636520706FE0
:10193000696E74006261642066656E636520706F15
:10194000696E740066656E63696E67206D75737489
:101950002062652064697361626C656400666C690D
:1019600067687420706C616E207265636569766566
:101970006400666C6967687420706C616E207265C3
:101980006365697665640043757272656E7420578D
:101990006179506F696E74204E4F54204D4F444909
:1019A000464945440043757272656E7420576179EB
:1019B000506F696E74204D4F444946494544005765
:1019C0006179706F696E7420496E76616C6964200C
:1019D00053657175656E636500576179506F696E07
:1019E0007420526563656976696E672046414C5381
:1019F000450054696D65202566202034443F202031
:101A000025640A00616374696F6E2072656365699D
:101A10007665643A20006F7574206F6620636F6D81
:101A20006D616E6473210052657475726E696E67C4
:101A300020746F20486F6D6500496E20646F5F638E
:101A400068616E67655F79617728292E202054616F
:101A5000726765742068656164696E673A202569FC
:101A600000436F6D6D616E64204944202325692019
:101A70004E4F54205245434F474E495A454400501B
:101A80006172616D65746572204944202325692067
:101A90004E4F54205245434F474E495A4544003C0F
:101AA000737461727475705F67726F756E643E20D7
:101AB0004E4F206169727370656564003C73746198
:101AC000727475705F67726F756E643E207A6572AE
:101AD0006F2061697273706565642063616C69620F
:101AE000726174656400426567696E6E696E672035
:101AF000494D552063616C6962726174696F6E3B18
:101B000020646F206E6F74206D6F766520706C613D
:101B10006E65005761726D696E6720757020414473
:101B2000432E2E2E0044656D6F20536572766F73C1
:101B300021004261642052657175657374202D2007
:101B400063616E6E6F74206368616E676520746F89
:101B5000206E6F6E2D4E617620636D64004C617453
:101B60006520746F20576179706F696E74202569E4
:101B70002062792025642073656300476F696E6772
:101B800020746F20576179706F696E742025692009
:101B9000696E20256420736563005B2531643A25F6
:101BA00031643A25645D2000455854524133004564
:101BB00058545241320045585452413100504F530D
:101BC0004954494F4E005241575F4354524C0052C2
:101BD000435F4348414E004558545F5354415400BD
:101BE0005241575F53454E53005352335F00535297
:101BF000305F00666C69676874206D6F6465203DB6
:101C0000202575004661696C73616665202D20533F
:101C1000686F7274206576656E74206F6E2C20007C
:101C20004661696C73616665202D2053686F72741C
:101C3000206576656E74206F6666004750532045B8
:101C400052524F523A2041502063616E6E6F7420A1
:101C50004E617669676174650A0067656F2D666518
:101C60006E63652074726967676572656400676595
:101C70006F2D66656E6365204F4B0067656F2D663F
:101C8000656E6365207365747570206572726F721E
:101C90000067656F2D66656E6365206C6F616465B6
:101CA00064003C6E617669676174653E2057502020
:101CB0006572726F72202D2064697374616E636542
:101CC000203C2030004D69737365642057500052EA
:101CD00065616368656420576179706F696E74200F
:101CE0002569005265616368656420576179706F8A
:101CF000696E7420256920696E20256420736563F0
:101D0000007665726966795F6E61763A204C4F495C
:101D1000544552206F726269747320636F6D706CEA
:101D2000657465007665726966795F6E61763A20E2
:101D30004C4F495445522074696D6520636F6D7036
:101D40006C657465004C4F495445522074696D654B
:101D50002023256420286D7329005265616368651E
:101D60006420686F6D65007665726966795F636F80
:101D70006E6469746F6E3A20496E76616C69642096
:101D80006F72206E6F2063757272656E7420436F80
:101D90006E646974696F6E20636D6400496E2076AD
:101DA00065726966795F6368616E67655F7961779F
:101DB00028292E20204E61762042656172696E6767
:101DC0003A20256900496E207665726966795F63FD
:101DD00068616E67655F79617728292E20204E61E2
:101DE000762042656172696E673A20256900666CEB
:101DF00069676874206D6F6465203D202575004615
:101E000061696C73616665202D204C6F6E6720657B
:101E100076656E74206F6E2C20004749543A633506
:101E200031343135652030372E32342E3230313472
:101E300000466C69676874204D6F6465004E3338E6
:101E4000344E41000A4D6F76652074686520736CCE
:101E50006964652073776974636820616E642072B9
:101E60006573657420746F20464C592E0A000A452C
:101E70006E746572696E6720696E746572616374F1
:101E8000697665207365747570206D6F64652E2E9C
:101E90002E0A0A4966207573696E6720746865208A
:101EA00041726475696E6F2053657269616C204D73
:101EB0006F6E69746F722C20656E73757265204C3D
:101EC000696E6520456E64696E672069732073656D
:101ED0007420746F20436172726961676520526576
:101EE0007475726E2E0A54797065202768656C705F
:101EF0002720746F206C69737420636F6D6D616E41
:101F000064732C2027657869742720746F206C65B2
:101F10006176652061207375626D656E752E0A5657
:101F200069736974207468652027736574757027F8
:101F3000206D656E7520666F722066697273742DF0
:101F400074696D6520636F6E666967757261746927
:101F50006F6E2E0A00436F6D7061737320696E6936
:101F60007469616C69736174696F6E206661696C14
:101F70006564210045524153494E47204C4F475319
:101F8000004E6F2064617461666C617368206361E8
:101F9000726420696E736572746564007573696E2E
:101FA00067202575206279746573206F66206D65E2
:101FB0006D6F727920282575207265736574732999
:101FC0000A006C6F61645F616C6C20746F6F6B20D2
:101FD000256C7575730A00646F6E652E0046697214
:101FE0006D77617265206368616E67653A2065721E
:101FF0006173696E6720454550524F4D2E2E2E0A53
:10200000000A0A496E69742041726475506C616EF1
:10201000652056322E3237204749543A20633531F5
:10202000343135652030372E32342E323031342081
:10203000466C696768740A0A467265652052414DAC
:102040003A2025750A00496E76616C696420534513
:102050005249414C335F42415544000A0A205265BF
:1020600061647920746F20464C592E0047524F55B9
:102070004E442053544152540000407A10F35A0009
:10208000A0724E18090010A5D4E80000E8764817A1
:102090000000E40B54020000CA9A3B000000E1F586
:1020A00005000080969800000040420F000000A04C
:1020B0008601000000102700000000E80300000077
:1020C000006400000000000A0000000000010000A1
:1020D0000000002C76D888DC674F0823DFC1DFAE14
:1020E00059E1B1B796E5E3E453C63AE651997696DD
:1020F000E8E6C28426EB898C9B62ED407C6FFCEFA6
:10210000BC9C9F40F2BAA56FA5F490055A2AF75CD3
:10211000936B6CF9676DC11BFCE0E40D47FEF52085
:10212000E6B500D0ED902E0300943577050080844D
:102130001E080000204E0A000000C80C3333333361
:102140000F986E12831141EF8D2114893BE65516CD
:10215000CFFEE6DB18D1844B381BF77C1D901DA405
:10216000BBE424203284725E228100C9F124ECA1F8
:10217000E53D276E616E00696E6600253033753A65
:1021800025733A20006E6F7420666F756E640025AB
:102190003033753A252D33322E3332733A200075A1
:1021A0006E6B6E6F776E2074797065006E6F742041
:1021B000666F756E640025733A20006D69737369EC
:1021C0006E67206E616D65206F722076616C75653B
:1021D000003F3F00256400256400256C64002566EF
:1021E00000256600657869740068656C700024508D
:1021F00047434D442C31362C302C302C302C302C95
:10220000302A36410D0A0024505542582C34312CC6
:10221000312C303030332C303030312C33383430B6
:10222000302C302A32360024505352463130302C74
:10223000302C33383430302C382C312C302A334386
:102240000020536952462000204D544B312E362039
:10225000002075626C6F782000204D544B312E3475
:1022600020006661696C65642C20726574727969FE
:102270006E67004F4B0044454300434F4D50415360
:10228000535F0020002A00496E6974204163636532
:102290006C002A00496E6974204779726F00000053
:1022A0002100240027002A002D0030003300010106
:1022B0000000040107010A01000022002500280097
:1022C0002B002E003100340002010000050108013E
:1022D0000B01000020002300260029002C002F0005
:1022E0003200000100000301060109010505050592
:1022F000070508080808020202020A0A080804047E
:1023000004040101010101010101030303030303AB
:102310000303040707070C0C0C0C0C0C0C0C02023A
:10232000020206060606060606060B0B0B0B0B0B37
:102330000B0B0102102020080810204010204080C4
:102340000201020108040201010204081020408079
:102350008040201008040201800402018040201007
:102360000804020108040201010204081020408050
:1023700001020408102040800000090A02080B0C2A
:102380000D0706030401000000000000000000002B
:10239000000000000000000000000000000000003D
:1023A00000000000100F0E00000000000000000000
:1023B0000000000000000000000000000000494E86
:1023C00046494E4954594E414ECDCCCC3D0AD723B7
:1023D0003C17B7D13877CC2B329595E6241FB14FF7
:1023E0000A000020410000C84200401C4620BCBE3C
:1023F0004CCA1B0E5AAEC59D74000D9496060D94E2
:1024000044000D9487010D9491060D9417060D94C8
:102410002C000D943C000D94951E0D9492060D9485
:10242000B4060D9414060D94B5060D94EF240D9486
:102430009B060D94C3030D9428060D9418000D946B
:1024400003060D94A5060D940E000D9494060D94AC
:1024500034000D94E0260D9493060D94C51E0D9442
:10246000F8260D94AA060D9422000D94CD1E0D940D
:10247000AF060D94A0060D9404000D94B606C36536
:1024800043C8EED8BE653EC811241FBECFEFD1E2CF
:10249000DEBFCDBF00E00CBF16E0A0E0B2E0E8EE8A
:1024A000FCE502E00BBF02C007900D92AC30B10713
:1024B000D9F71BBE19E1ACE0B6E001C01D92A93806
:1024C000B107E1F714E2C4E8D4E204C02297FE01A8
:1024D0000F94512ECE37D107C9F70F94DA260D94F9
:1024E000682E0C940000283008F027E03327DA012A
:1024F000990F311D87FD916000966105710539F4D2
:1025000032602E5F3D9330E32A95E1F708959F3FB7
:1025100030F080387105610509F03C5F3C5F3D9308
:10252000913008F08068911DDF93CF931F930F9334
:10253000FF92EF92192F987F9695E92F9695969591
:10254000E90FFF27ED52FF4D99273327EE24FF2493
:10255000A701E70105900894079428F4360FE71EB9
:10256000F81E491F511D660F771F881F991F06947B
:10257000A1F70590079428F4E70EF81E491F561F8F
:10258000C11D770F881F991F661F0694A1F705903C
:10259000079428F4F80E491F561FC71FD11D880F36
:1025A000991F661F771F0694A1F70590079420F4E2
:1025B000490F561FC71FD81F990F661F771F881F07
:1025C0000694A9F784911095177041F0D695C79598
:1025D00057954795F794E7941A95C1F7E9E7F0E224
:1025E00068941590159135916591959105907FE2CC
:1025F0007395E118F10A430B560BC90BD009C0F7CC
:10260000E10CF11E431F561FC91FD01D7EF470330D
:1026100011F48A95E6CFE894015030F0080F0AF4DF
:102620000027021708F4202F2395022F7A3328F071
:1026300079E37D932A95E9F710C07D932A9589F671
:10264000069497956795379517951794E118F10AB1
:10265000430B560BC90BD00998F023957E917395C7
:102660007A3308F070E37C932013B8F77E917061A1
:102670007D9330F0839571E37D9370E32A95E1F7C4
:102680001124EF90FF900F911F91CF91DF91992727
:1026900087FD90950895FA01AA27283051F120313D
:1026A00081F1E8946F936E7F6E5F7F4F8F4F9F4FE6
:1026B000AF4FB1E03ED0B4E03CD0670F781F891F28
:1026C0009A1FA11D680F791F8A1F911DA11D6A0FF6
:1026D000711D811D911DA11D20D009F468943F91A9
:1026E0002AE0269F11243019305D3193DEF6CF01A8
:1026F0000895462F4770405D4193B3E00FD0C9F76E
:10270000F6CF462F4F70405D4A3318F0495D31FDDA
:102710004052419302D0A9F7EACFB4E0A69597952D
:10272000879577956795BA95C9F700976105710503
:1027300008959B01AC010A2E06945795479537954D
:102740002795BA95C9F7620F731F841F951FA01DA7
:102750000895A0E3B0E0EFEAF3E10D94182EA8E0AD
:102760004E010894811C911CF401BA2F1192BA9564
:10277000E9F729833A834B835C836D837E838F8360
:102780009887CE010996FC011192AA95E9F7A986CE
:10279000BA86CB86DC86ED86FE860F87188B29816C
:1027A0003A814B815C812DA73EA74FA758AB790199
:1027B0008A018FEF9FEFA0E0B0E0E822F9220A2320
:1027C0001B231A014424552429853A854B855C85B1
:1027D00029A73AA74BA75CA759016A01A822B922E9
:1027E000CA22DB223A0188249924C601B501A80136
:1027F00097010F94952D6DA37EA38FA398A7C40175
:10280000B3010F94952D69A37AA38BA39CA3C60152
:10281000B501A20191010F94952D7B018C01C4019A
:10282000B3010F94952D5B016C0189A19AA1ABA115
:10283000BCA18E0D9F1DA01FB11F89A39AA3ABA39E
:10284000BCA32DA13EA14FA158A5CA01AA27BB2711
:1028500029A13AA14BA15CA1280F391F4A1F5B1F78
:1028600029A33AA34BA35CA32E153F0540075107AC
:1028700040F480E090E0A1E0B0E0A80EB91ECA1ECE
:10288000DB1E89A19AA1ABA1BCA19D0144275527BC
:102890002A0D3B1D4C1D5D1D2D8F3E8F4F8F58A364
:1028A0006C01BB24AA248DA19EA1AFA1B8A5A070E4
:1028B000B070A80EB91ECA1EDB1EA98EBA8ECB8EB2
:1028C000DC8E9A8C8B8C7C8C9E8D6F8D78A1FE011A
:1028D000719688E0DF011D928A95E9F72D8B9E8B1A
:1028E0006F8B788F2D853E854F8558896DA57EA588
:1028F0008FA598A90F94952D7B018C012D813E8188
:102900004F81588569A57AA58BA59CA50F94952D17
:10291000E60EF71E081F191F6D897E898F89988D15
:102920006E0D7F1D801F911F6D8B7E8B8F8B988FFF
:10293000EE892A2D392D482D572D7E2F8F89988D80
:10294000E096E2E10D94342E0F931F93CF93DF9323
:10295000689F8001699F100D789F100D1124C80198
:102960000DD0EC01009721F060E070E0A80173D178
:10297000CE01DF91CF911F910F910895CF93DF93F7
:10298000BC018230910510F462E070E0A0918519DD
:10299000B0918619ED01E0E0F0E040E050E021C0A8
:1029A000888199818617970769F48A819B8130977E
:1029B00019F09383828304C09093861980938519BC
:1029C000FE0134C06817790738F44115510519F034
:1029D0008417950708F4AC01FE018A819B819C0154
:1029E000E9012097E9F641155105A9F1CA01861BB5
:1029F000970B049708F4BA01E0E0F0E02AC08D914B
:102A00009C91119784179507F9F46417750781F461
:102A100012968D919C911397309719F0938382832E
:102A200004C09093861980938519FD0132964CC09D
:102A3000CA01861B970BFD01E80FF91F6193719383
:102A400002978D939C9340C0FD01828193819C01EC
:102A5000D9011097A1F68091831990918419892B3F
:102A600041F48091950390919603909384198093FB
:102A7000831940919703509198034115510541F4F2
:102A80004DB75EB78091930390919403481B590B07
:102A90002091831930918419CA01821B930B8617E8
:102AA000970780F0AB014E5F5F4F8417950750F09A
:102AB000420F531F5093841940938319F901619376
:102AC000719302C0E0E0F0E0CF01DF91CF91089573
:102AD000CF93DF93009709F450C0EC0122971B823B
:102AE0001A82A0918519B0918619109709F140E0DA
:102AF00050E0AC17BD0708F1BB83AA83FE0121910A
:102B00003191E20FF31FAE17BF0779F48D919C91BD
:102B10001197280F391F2E5F3F4F39832883129654
:102B20008D919C9113979B838A834115510571F474
:102B3000D0938619C093851920C012968D919C91CF
:102B40001397AD01009711F0DC01D3CFFA01D383C5
:102B5000C28321913191E20FF31FCE17DF0769F491
:102B600088819981280F391F2E5F3F4FFA013183E9
:102B700020838A819B8193838283DF91CF91089503
:102B800066277727D2C21F93FC0199278827BC01AB
:102B9000E89411911032E9F3193010F01E30C8F3A7
:102BA0001B3249F01D3241F4689405C0B0D0610F6A
:102BB000711D811D911D119110531A30B8F33EF40F
:102BC00090958095709561957F4F8F4F9F4F1F9186
:102BD0000895FB01DC0102C005900D924150504068
:102BE000D8F70895FB01DC018D9181341CF08B3501
:102BF0000CF4805E659161341CF06B350CF4605E02
:102C0000861B611189F3990B0895FB01DC018D91FD
:102C1000059080190110D9F3990B0895FC010590D6
:102C20000020E9F7809590958E0F9F1F0895FC0175
:102C30000590615070400110D8F7809590958E0FE7
:102C40009F1F0895FB01DC0102C001900D924150CD
:102C50005040D8F70895DC0101C06D9341505040B9
:102C6000E0F70895FB01DC018D91019080190110BE
:102C7000D9F3990B0895FB01DC014150504048F015
:102C800001900D920020C9F701C01D9241505040A3
:102C9000E0F70895FC016150704001900110D8F7F1
:102CA000809590958E0F9F1F0895009731F4DA015B
:102CB0008D919C91009709F40EC0DC01FB013D91C0
:102CC0002191222319F03217C9F3FACF332331F4BB
:102CD000DA011D921C928827992708951197AF93C6
:102CE000BF93FB013D912191321771F4332321F4FD
:102CF00088279927119702C01E921196FA01A19375
:102D0000B0839F918F910895222369F7EACF592FBD
:102D1000482F372F262F660F771F881F991F660FA2
:102D2000771F881F991F620F731F841F951F660FDF
:102D3000771F881F991F0895AEE0B0E0E2EAF6E140
:102D40000D94262E8C0177FF02C060E070E8615080
:102D500070407E836D831A83098386E08C83CE0165
:102D60000196BA01A90111D02D813E8137FD09C01C
:102D7000EF81F8852E173F070CF4F901E00FF11FE2
:102D800010822E96E4E00D94422EABE0B0E0EBEC26
:102D9000F6E10D94182E3C012B015A01FC0117821B
:102DA0001682838181FD03C06FEF7FEFB9C19AE086
:102DB000892E1E010894211C311CF3012381F2018C
:102DC00023FD859123FF81912F01882309F4A5C15B
:102DD000853239F423FD859123FF81912F018532BE
:102DE00021F490E0B30116D3E8CF982FFF24EE240E
:102DF0009924FFE1FF15D0F09B3269F09C3228F452
:102E0000903259F0933291F40EC09D3249F09033D4
:102E100069F441E024C052E0F52A84E0F82A28C091
:102E200098E0F92A25C0E0E1FE2A22C0F7FC29C07B
:102E3000892F80538A3070F4F6FE05C0989C902C40
:102E40001124980E15C0E89CE02C1124E80EF0E245
:102E5000FF2A0EC09E3229F4F6FC5FC140E4F42A3A
:102E600007C09C3619F450E8F52A02C0983649F498
:102E7000F20123FD959123FF91912F01992309F0F0
:102E8000B8CF892F8554833018F08052833038F4BE
:102E900044E050E0A40EB51E5FE359830FC09336A3
:102EA00031F0933779F0933509F052C01FC0F50126
:102EB0008081898342E050E0A40EB51E610101E0EB
:102EC00010E011C0F501C080D180F6FC03C06FEFA7
:102ED0007FEF02C0692D70E042E050E0A40EB51E05
:102EE000C601D8DE8C015FE7F52213C0F501C08072
:102EF000D180F6FC03C06FEF7FEF02C0692D70E058
:102F000042E050E0A40EB51EC60191DE8C0150E8EF
:102F1000F52AF3FE06C018C080E290E0B3017AD231
:102F2000EA948E2D90E008171907B0F30DC0F60152
:102F3000F7FC8591F7FE81916F0190E0B3016AD2B1
:102F4000E110EA94015010400115110581F7E2C02B
:102F5000943611F0993661F5F7FE08C0F50120812D
:102F600031814281538184E090E00AC0F501808183
:102F700091819C01442737FD4095542F82E090E0D9
:102F8000A80EB91E9FE6F92257FF09C0509540953B
:102F9000309521953F4F4F4F5F4FE0E8FE2ACA0121
:102FA000B901A1012AE030E076DBD82ED2183FC06B
:102FB000953729F41F2D1F7E2AE030E01DC01F2DFC
:102FC000197F9F3661F0903720F4983509F0A5C03D
:102FD0000FC0903739F0983709F09FC004C028E03F
:102FE00030E00AC0106114FD146020E130E004C03C
:102FF00014FD166020E132E017FF08C0F501608182
:1030000071818281938144E050E008C0F5018081A4
:103010009181BC0180E090E042E050E0A40EB51E3A
:10302000A10139DBD82ED2188FE7F82EF122F6FE57
:103030000BC05EEFF522D91438F4F4FE07C0F2FCA1
:1030400005C08FEEF82202C01D2D01C0192DF4FE1F
:103050000DC0FE01ED0DF11D8081803319F499EE54
:10306000F92208C01F5FF2FE05C003C08F2D8678CD
:1030700009F01F5F0F2DF3FC13C0F0FE0EC01E15EC
:1030800010F09D2C0AC09D2C9E0C911A1E2D05C07F
:1030900080E290E0B301BED11F5F1E15C8F304C0EB
:1030A0001E1510F4E11A01C0EE2404FF0EC080E3E7
:1030B00090E0B301AFD102FF1BC001FD03C088E760
:1030C00090E00EC088E590E00BC0802F867881F0FC
:1030D00001FF02C08BE201C080E2F7FC8DE290E0CC
:1030E000B30198D105C080E390E0B30193D19A94E5
:1030F000D914C8F3DA94F101ED0DF11D808190E04F
:10310000B30188D1DD20B1F705C080E290E0B301C2
:1031100081D1EA94EE20C9F750CEF3016681778120
:10312000CB012B96E2E10D94342EA0E0B0E0EBE968
:10313000F8E10D941E2EEC015B016115710519F08B
:10314000FB0191838083F9908F2D90E00F945D2E89
:10315000892BC9F7FDE2FF1621F4F990EE24E394E0
:1031600005C02BE2F21609F4F990EE248E0101500D
:103170001040C8016EEB73E243E050E033D1892B7D
:10318000F9F48E010E5F1F4FC80161EC73E245E058
:1031900050E028D1892B19F48E01095F1F4FA1142B
:1031A000B10419F0F50111830083E0FC04C070E064
:1031B00090E080E813C070E090E080E86FEF07C116
:1031C000C80166EC73E243E050E00CD1892B69F44E
:1031D000A114B10429F470E090E080EC6FE7F7C02F
:1031E0002296F501D183C083F6CF8824992440E04C
:1031F00050E060E070E0EF2DE053EA30A0F5F2E03F
:10320000EF2A8E2D90E09C0128703070E2FE06C0FF
:10321000232B79F50894811C911C2BC0232B19F0CA
:10322000089481089108DB01CA0112E0880F991FF8
:10323000AA1FBB1F1A95D1F7480F591F6A1F7B1F82
:10324000440F551F661F771F4E0F511D611D711DC5
:10325000483929E9520729E9620729E1720748F04C
:1032600084E0E82A06C0EE3F31F4E3FC39C098E080
:10327000E92AF990C0CFE53311F0E53189F52991BC
:103280002D3219F4E0E1EE2A05C02B3219F081E06D
:1032900090E003C0299182E090E0E22FE053EA3011
:1032A00018F0C81BD90B1CC020E030E0FCE020382F
:1032B0003F075CF4C901880F991F880F991F280FD9
:1032C000391F220F331F2E0F311DE991E053EA30D1
:1032D00068F3E4FE03C0309521953F4F820E931EA4
:1032E000CE2CDD24E1FE07C0A114B10421F021970A
:1032F000F501D183C083CB01BA010F94A22A7B01CF
:103300008C01F3E0CF22DD2423E0C216D10421F4A6
:1033100017FB109517F9109557016801C801B701FF
:1033200020E030E040E050E00F94D129882309F4F8
:103330004AC097FE0DC02DEDE22E23E2F22E9094AE
:10334000819491089394C0E2D0E000E010E012C0B4
:1033500095EFE92E93E2F92EF6CFF70125913591FD
:1033600045915491C601B5010F94A02C5B016C01ED
:103370008C1A9D0A8C169D0684F7D595C7950F5F0C
:103380001F4F0630110529F08CEF9FEFE80EF91E54
:10339000F1CFC501D6017C018D018C2D880F8D2DBB
:1033A000881F8F3F51F0C601B50120E030E040E0BA
:1033B00050E00F94D129882331F482E290E0909379
:1033C0008819809387197E2D9F2D802F612F272F9D
:1033D000392F482F562FB901CA01CDB7DEB7ECE01F
:1033E0000D943A2EFB01DC014150504088F08D9144
:1033F00081341CF08B350CF4805E659161341CF0D7
:103400006B350CF4605E861B611171F3990B0895A6
:10341000881BFCCF0F931F93CF93DF938C01EB019D
:103420008B8181FF1BC082FF0DC02E813F818C816B
:103430009D812817390764F4E881F9810193F983A4
:10344000E88306C0E885F985802F1995892B31F42A
:103450008E819F8101969F838E8302C00FEF1FEFA5
:10346000C801DF91CF911F910F9108959C01F999A7
:10347000FECF32BD21BDF89A60B5F999FECF2F5F1E
:103480003F4F32BD21BD21503040F89A70B5F999B7
:10349000FECF2E5F3F4F32BD21BD22503040F89A03
:1034A00080B5F999FECF2D5F3F4F32BD21BDF89A0F
:1034B00090B508959C01F999FECF1FBA32BD21BD88
:1034C00040BD0FB6F894FA9AF99A0FBEF999FECF5B
:1034D0001FBA2F5F3F4F32BD21BD2150304050BD3C
:1034E0000FB6F894FA9AF99A0FBEF999FECF1FBA5F
:1034F0002E5F3F4F32BD21BD2250304060BD0FB620
:10350000F894FA9AF99A0FBEF999FECF1FBA2D5F77
:103510003F4F32BD21BD70BD0FB6F894FA9AF99AAB
:103520000FBE0895CF93DF93FC01EB0142305105AC
:1035300070F0638574858585968520E030E040E8ED
:1035400054E40F94A02C0F94762A7983688382E048
:1035500090E0DF91CF910895CF93DF93EC01FB01D1
:103560004230510518F420E030E012C060817181D2
:1035700080E090E00F94A22A20E030E040E85AE397
:103580000F94A02C6B877C878D879E8722E030E08C
:10359000C901DF91CF910895DC01FB0187818C93F4
:1035A000868111968C931197858112968C93129730
:1035B000848113968C931397838114968C9314971C
:1035C000828115968C931597818116968C93169708
:1035D000808117968C9308951F920F920FB60F92C9
:1035E0000BB60F9211242F933F934F938F939F937A
:1035F000EF93FF934091C60020910F173091101761
:103600002F5F3F4F80911317909114172823392370
:1036100080911117909112172817390779F080912E
:103620000F1790911017E0911517F0911617E80FEA
:10363000F91F40833093101720930F17FF91EF91DC
:103640009F918F914F913F912F910F900BBE0F90B3
:103650000FBE0F901F9018951F920F920FB60F92EA
:103660000BB60F9211242F933F938F939F93EF9359
:10367000FF93209131173091321780912F1790913D
:10368000301728173907E9F08091311790913217D8
:10369000E0913517F0913617E80FF91F808180937C
:1036A000C6008091311790913217019620913317FF
:1036B00030913417822393239093321780933117DC
:1036C00010C020912F1730913017809131179091B1
:1036D00032172817390729F48091C1008F7D809314
:1036E000C100FF91EF919F918F913F912F910F908A
:1036F0000BBE0F900FBE0F901F9018951F920F9248
:103700000FB60F920BB60F9211242F933F934F9346
:103710008F939F93EF93FF934091CE0020911717C3
:10372000309118172F5F3F4F80911B1790911C17F6
:10373000282339238091191790911A1728173907D0
:1037400079F08091171790911817E0911D17F0915B
:103750001E17E80FF91F408330931817209317178F
:10376000FF91EF919F918F914F913F912F910F90EA
:103770000BBE0F900FBE0F901F9018951F920F92C7
:103780000FB60F920BB60F9211242F933F938F9386
:103790009F93EF93FF932091391730913A178091BF
:1037A00037179091381728173907E9F080913917A2
:1037B00090913A17E0913D17F0913E17E80FF91FED
:1037C00080818093CE008091391790913A170196AD
:1037D00020913B1730913C178223932390933A1703
:1037E0008093391710C02091371730913817809186
:1037F000391790913A172817390729F48091C90091
:103800008F7D8093C900FF91EF919F918F913F91A0
:103810002F910F900BBE0F900FBE0F901F90189519
:103820001F920F920FB60F920BB60F9211242F9387
:103830003F934F938F939F93EF93FF934091360164
:1038400020912717309128172F5F3F4F80912B171A
:1038500090912C17282339238091291790912A17AA
:103860002817390779F08091271790912817E09150
:103870002D17F0912E17E80FF91F4083309328176A
:1038800020932717FF91EF919F918F914F913F9137
:103890002F910F900BBE0F900FBE0F901F90189599
:1038A0001F920F920FB60F920BB60F9211242F9307
:1038B0003F938F939F93EF93FF93209149173091FC
:1038C0004A17809147179091481728173907E9F050
:1038D0008091491790914A17E0914D17F0914E173A
:1038E000E80FF91F808180933601809149179091EC
:1038F0004A17019620914B1730914C17822393233E
:1039000090934A178093491710C020914717309120
:1039100048178091491790914A172817390729F4B9
:10392000809131018F7D80933101FF91EF919F91C3
:103930008F913F912F910F900BBE0F900FBE0F9064
:103940001F9018956091050A7091060A8091070AE8
:103950009091080A0F94712A9B016031710534F02F
:10396000CB0164E670E00F94C82D9C0180E0275FD6
:103970003F4F2331310508F081E008956091050A39
:103980007091060A8091070A9091080A0F94712A93
:103990009B016739710534F0CB0168EE73E00F9439
:1039A000C82D9C0180E02D593F4F273C310508F080
:1039B00081E008954F925F926F927F928F929F92D3
:1039C000AF92BF92CF92DF92EF92FF920F931F932D
:1039D000DF93CF93CDB7DEB72F970FB6F894DEBF46
:1039E0000FBECDBF9A2DA982EB2DBA82FC2DCB82C2
:1039F000DC82ED82FE820F83188729873A874B8706
:103A00005C876D877E878F874C815D816E817F812A
:103A1000A884B984CA84DB844C845D846E847F84EA
:103A200097FE03C020E030E00BC080912D0AA82F44
:103A3000BB27A7FDB0959401A815B9050CF49D010D
:103A4000890184E0000F111F8A95E1F7021B130B17
:103A500000501C4FE0FD02C0E0E006C0E0E0232B78
:103A600009F4E1E081E0E827F999FECF1FBA12BD21
:103A700001BD90BD0FB6F894FA9AF99A0FBEC8012D
:103A8000AA2797FDA095BA2F0196A11DB11DF999FE
:103A9000FECF1FBA92BD81BDE0BD0FB6F894FA9A71
:103AA000F99A0FBE7C018D010894E11CF11C011DE7
:103AB000111DF999FECF1FBAF2BCE1BCF0BD0FB6E3
:103AC000F894FA9AF99A0FBE0894E11CF11C011DB2
:103AD000111DC701EFDC84E090E0A0E0B0E0E80E4B
:103AE000F91E0A1F1B1FC701B601A501E3DC84E014
:103AF00090E0A0E0B0E0E80EF91E0A1F1B1FC7010E
:103B0000B301A201D7DC2F960FB6F894DEBF0FBE2B
:103B1000CDBFCF91DF911F910F91FF90EF90DF907C
:103B2000CF90BF90AF909F908F907F906F905F905D
:103B30004F900895AF92BF92CF92DF92EF92FF9293
:103B40000F931F93DF93CF93CDB7DEB728970FB6B0
:103B5000F894DEBF0FBECDBF9C018091690A992702
:103B600087FD90958217930740F4AA24BB24650132
:103B700080E090E0A0E0B0E01EC024513E4F93E012
:103B8000220F331F9A95E1F7790100E010E0C90197
:103B90006DDCAC01CB01DA015C016D0184E090E0E9
:103BA000A0E0B0E0E80EF91E0A1F1B1FC7015EDC93
:103BB000AC01CB01DA01A982BA82CB82DC828D838F
:103BC0009E83AF83B8872A2D3A814B815C81682F11
:103BD0007E818F81988528960FB6F894DEBF0FBE40
:103BE000CDBFCF91DF911F910F91FF90EF90DF90AC
:103BF000CF90BF90AF9008958091B703882321F4B0
:103C00008091730C8130B1F5209158153091591580
:103C100040915A1550915B15809126079091270786
:103C2000A0912807B0912907281B390B4A0B5B0B81
:103C3000213586E4380780E0480780E058072CF0FB
:103C4000205A3C48404050400CC0203B89EB38078C
:103C50008FEF48078FEF580724F4205633474F4F14
:103C60005F4F2093E8153093E9154093EA15509380
:103C7000EB150895E0914814F091491420915815DE
:103C80003091591540915A1550915B15848D958D41
:103C9000A68DB78DC9CF2091260D3091270D80912B
:103CA0004C0D90914D0D281B390B253631051CF01C
:103CB0008AE08093F9152C593F4F1CF486EF8093CE
:103CC000F9158091F91518161CF481508093F91597
:103CD0008091F91587FF03C08F5F8093F91580915C
:103CE000F915813019F08F3F09F080E00895CF93E6
:103CF000DF93FC01EB014430510540F0838594854E
:103D0000A585B68588839983AA83BB8384E090E0E8
:103D1000DF91CF910895CF93DF93EC01FB01443005
:103D2000510540F080819181A281B3818B879C876E
:103D3000AD87BE8784E090E0DF91CF910895FC01CC
:103D400063857485858596850D94A42AFC01DB0125
:103D5000452B11F083858C9381E090E00895DC0180
:103D6000FB01452B19F080811B968C9381E090E03C
:103D70000895FC016385772767FD7095872F972F3E
:103D80000D94A42AFC01DB014230510520F083850B
:103D900094858D939C9382E090E00895DC01FB0173
:103DA0004230510530F0808191811C969C938E9316
:103DB0001B9782E090E00895FC0163857485882755
:103DC00077FD8095982F0D94A42AFC0123853485D6
:103DD00045855685B901CA010895CF93DF93FC014B
:103DE000EB014430510540F083859485A585B68567
:103DF00088839983AA83BB8384E090E0DF91CF918D
:103E00000895CF93DF93EC01FB014430510540F05E
:103E100080819181A281B3818B879C87AD87BE878A
:103E200084E090E0DF91CF910895EF92FF920F939D
:103E30001F937A018B018632D9F087322CF48930B6
:103E400081F0833181F507C08F36F1F0833721F19E
:103E5000893349F513C0E12C7BE4F72E012D112D98
:103E600028C060E8E62E65E2F62E012D112D21C056
:103E7000E12C56E9F52E012D112D1BC0E12C41EE50
:103E8000F42E012D112D15C03CEFE32E31EBF32E56
:103E900031E0032F112D0DC0E12C22ECF22E21E098
:103EA000022F112D06C08CE096E066E470E20E94BD
:103EB0003BB9B701C8011F910F91FF90EF90089592
:103EC00000D00F928CE096E0EDB7FEB7928381832D
:103ED0008EEB95E0948383830E941BB90F900F9023
:103EE0000F900F9008952CE036E0882349F000D021
:103EF0000F92EDB7FEB73283218381E896E008C0C8
:103F000000D00F92EDB7FEB7328321838DE796E0A4
:103F1000948383830E941BB98CE096E0EDB7FEB7D3
:103F20009283818386E796E0948383830E941BB902
:103F30000F900F900F900F90089500D00F928CE08B
:103F400096E0EDB7FEB7928381838FE19BE0948387
:103F500083830E941BB90F900F900F900F9080E009
:103F6000089500D00F928CE096E0EDB7FEB79283F3
:103F7000818386EE9CE0948383830E941BB980E05A
:103F800090E00F900F900F900F90F999FECF1FBA0D
:103F900092BD81BD10BC0FB6F894FA9AF99A0FBE83
:103FA0000196F0E180309F0781F700D00F928CE0FE
:103FB00096E0EDB7FEB79283818380EE9CE0948318
:103FC00083830E941BB90F900F900F900F9008955C
:103FD0000F931F938DB79EB70A970FB6F8949EBFA5
:103FE0000FBE8DBFEDB7FEB731960CE016E0ADB752
:103FF000BEB712961C930E9311978FE89DE09383A2
:10400000828380913F0D9091400D958384838091B0
:104010004C0D90914D0D978386838091590D909111
:104020005A0D918780870E941BB9EDB7FEB7319674
:10403000ADB7BEB712961C930E9311978CE79DE017
:10404000938382838091A20D9091A30D95838483A5
:104050008091AF0D9091B00D978386838091BC0DB8
:104060009091BD0D918780870E941BB9EDB7FEB777
:104070003196ADB7BEB712961C930E93119789E691
:104080009DE0938382838091050E9091060E958327
:1040900084838091120E9091130E97838683809172
:1040A0001F0E9091200E918780870E941BB9EDB75B
:1040B000FEB73196ADB7BEB712961C930E9311970B
:1040C00086E59DE0938382838091680E9091690ECE
:1040D000958384838091750E9091760E9783868365
:1040E0008091820E9091830E918780870E941BB9E8
:1040F000EDB7FEB73196ADB7BEB712961C930E93CF
:10410000119783E49DE0938382838091CB0E9091FD
:10411000CC0E958384838091D80E9091D90E97838D
:1041200086838091E50E9091E60E918780870E94AC
:104130001BB9EDB7FEB73196ADB7BEB712961C935B
:104140000E93119780E39DE0938382838091540FB7
:104150009091550F958384838091610F9091620FA8
:104160009783868380916E0F90916F0F91878087E0
:104170000E941BB9EDB7FEB73196ADB7BEB7129628
:104180001C930E9311978DE19DE093838283809120
:10419000DD0F9091DE0F958384838091EA0F9091DB
:1041A000EB0F978386838091F70F9091F80F91879B
:1041B00080870E941BB9EDB7FEB73196ADB7BEB789
:1041C00012961C930E9311978AE09DE0938382834D
:1041D000809166109091671095838483809173100D
:1041E00090917410978386838091801090918110B4
:1041F000918780870E941BB98DB79EB70A960FB62C
:10420000F8949EBF0FBE8DBF1F910F910895CF935D
:10421000DF93FC018DB79EB744970FB6F8949EBF0D
:104220000FBE8DBF2DB73EB72F5F3F4F8CE096E09E
:10423000ADB7BEB712969C938E93119784E99EE01A
:10424000E9019B838A8386899789A08DB18D8C83B0
:104250009D83AE83BF8385A196A1A7A1B0A58887C2
:104260009987AA87BB8784A995A9A6A9B7A98C878E
:104270009D87AE87BF87ED5BFF4F80819181AA2725
:1042800097FDA095BA2FF901808B918BA28BB38BF0
:104290000E941BB98DB79EB744960FB6F8949EBF87
:1042A0000FBE8DBFDF91CF9108958DB79EB7409718
:1042B0000FB6F8949EBF0FBE8DBFEDB7FEB7319617
:1042C0008CE096E0ADB7BEB712969C938E93119793
:1042D00080E59FE093838283809106079091070792
:1042E000A0910807B091090784839583A683B783BB
:1042F00080910A0790910B07A0910C07B0910D07D0
:1043000080879187A287B38780910E0790910F07CE
:10431000A0911007B091110784879587A687B7876A
:104320000E941BB98DB79EB740960FB6F8949EBFFA
:104330000FBE8DBF08958DB79EB740970FB6F89406
:104340009EBF0FBE8DBFEDB7FEB731968CE096E0F5
:10435000ADB7BEB712969C938E93119783E79FE0FB
:10436000938382838091120790911307A091140781
:10437000B091150784839583A683B7838091160730
:1043800090911707A0911807B0911907808791871E
:10439000A287B38780911A0790911B07A0911C07F1
:1043A000B0911D0784879587A687B7870E941BB9A0
:1043B0008DB79EB740960FB6F8949EBF0FBE8DBFC7
:1043C000089500D00F928CE096E0EDB7FEB792838F
:1043D000818383E390E1948383830E941BB90F90D0
:1043E0000F900F900F900895CF93DF93CCE0D6E01D
:1043F000CE0167E775E00E943BB985E596E00E9433
:1044000056E0882331F4CE016CE575E00E943BB99B
:1044100083C085E596E00E94FCE12DB73EB72850A9
:1044200030400FB6F8943EBF0FBE2DBFEDB7FEB7BC
:104430003196ADB7BEB71296DC93CE93119785E354
:1044400095E09383828380916606848315828091B0
:10445000670690916806978386830E941BB9EDB723
:10446000FEB73196ADB7BEB71296DC93CE931197D7
:1044700089E195E09383828380916B0690916C062D
:104480000196958384838091690690916A0697834B
:1044900086830E941BB92DB73EB7285F3F4F0FB6EA
:1044A000F8943EBF0FBE2DBF60916B0670916C06F5
:1044B0006F5F7F4F85E596E00E9441DC85E596E0E1
:1044C0000E9451DDADB7BEB71C970FB6F894BEBFC2
:1044D0000FBEADBFEDB7FEB731961296DC93CE930B
:1044E000119726EE34E033832283648375838683B9
:1044F000978381E190E2A2E1B8E280879187A28769
:10450000B3870E941BB92DB73EB7245F3F4F0FB64C
:10451000F8943EBF0FBE2DBF80E0DF91CF9108958C
:1045200080915D0A882361F06091750A662341F0ED
:10453000615083E496E00E94FBCC885E934058F47F
:10454000E091AC15F091AD15309711F480E008952D
:10455000128280E00895E0914814F091491480A5FA
:104560008823C1F381E0089560912D0B615083E4AD
:1045700096E00E94FBCC9C018F5893408B5994404D
:1045800010F08FEF0895C9018F5C94408238910537
:1045900010F481E00895C901815595408238910554
:1045A00010F482E00895C901835D95408238910539
:1045B00010F483E00895C90185559640813891052E
:1045C00010F484E00895265D364010F480E00895EC
:1045D00085E00895DF93CF9300D00F920F92CDB76F
:1045E000DEB730912D0A2091FB03298323E02A8333
:1045F00022E02B8324E52C833D8360E0AE014F5FF6
:104600005F4F25E00F948B1F0F900F900F900F902E
:104610000F90CF91DF9108956F927F928F929F922A
:10462000AF92BF92CF92DF920F931F93DF93CF93FE
:10463000CDB7DEB76B970FB6F894DEBF0FBECDBF18
:104640003C014B0180919903863011F1873048F489
:10465000813079F1813098F08230A9F0853089F489
:1046600014C08C3001F18D3028F48A30B1F08B30D9
:1046700041F416C08F3079F0803119F417C012E080
:1046800019C010E017C015E015C016E001E013C016
:1046900016E002E010C013E00DC014E003E00BC010
:1046A00014E005E008C014E008E005C010E000E0F8
:1046B00002C017E004E06091C50C7091C60C882719
:1046C00077FD8095982F0F94A42A6C8B7D8B8E8B11
:1046D0009F8B20919614309197144091981450918B
:1046E00099140F94F32820E030E04AE754E40F9443
:1046F000A02C2C893D894E895F890F94D8290F946D
:10470000762A5B016C0160919A0370919B03809102
:104710009C0390919D0320E030E04AE754E40F941D
:10472000A02C0F94762A688F798F8A8F9B8F609147
:104730003D1570913E1580913F159091401520E0F8
:1047400030E04AE754E40F94A02C0F94762A7A8341
:104750006983888D998D9C838B83BE82AD82988678
:104760008F8219870A8784E08B878A818C87898169
:104770008D878C818E878B818F878E81888B8D81B1
:10478000898B88858A8B8F818B8BC30162E2AE0116
:10479000475F5F4F2BE00F948B1F6B960FB6F8941B
:1047A000DEBF0FBECDBFCF91DF911F910F91DF9084
:1047B000CF90BF90AF909F908F907F906F90089513
:1047C0002F923F924F925F926F927F928F929F9221
:1047D000AF92BF92CF92DF92EF92FF920F931F930F
:1047E000DF93CF93CDB7DEB7CE54D0400FB6F89459
:1047F000DEBF0FBECDBF2F969FAF8EAF2F97DE01CE
:104800009596E0E5F7E084E201900D928150E1F7A2
:1048100020914C1530914D1540914E1550914F15EA
:104820002D962CAF3DAF4EAF5FAF2D970091481442
:1048300010914914D80154966D917D918D919C9160
:1048400057972AE030E040E050E00F94952D1B018F
:104850002C01F801608D718D828D938D0F94A42AA7
:104860007B018C012DA13EA14FA158A50F94A02C36
:104870000F94712A3B014C01C801B70129A93AA93B
:104880004BA95CA90F94A02C0F94712A5B016C01B9
:10489000C801B701FE01FD9620813181428153811B
:1048A0000F94A02C0F94712A20914815309149152E
:1048B00040914A1550914B152F83388749875A8765
:1048C0002D962CAD3DAD4EAD5FAD2D972B873C8722
:1048D0004D875E872F86388A498A5A8A7A8269820A
:1048E000BC82AB827E836D83FE01379683818B8B86
:1048F00082818C8B81818D8B8F818E8BFE013B968B
:1049000083818F8B8281888F8181898F8B858A8F2C
:10491000FE013F9683818B8F82818C8F81818D8F69
:104920008F858E8F8A818F8F898188A38C8189A3BF
:104930008B818AA38E818BA38D818CA32F968EADC4
:104940009FAD2F9769E4AE014D5E5F4F22E10F945A
:104950008B1FC25BDF4F0FB6F894DEBF0FBECDBF1B
:10496000CF91DF911F910F91FF90EF90DF90CF904B
:10497000BF90AF909F908F907F906F905F904F907F
:104980003F902F9008952F923F924F925F926F9297
:104990007F928F929F92AF92BF92CF92DF92EF92CF
:1049A000FF920F931F93DF93CF93CDB7DEB7EE97B0
:1049B0000FB6F894DEBF0FBECDBF9AAF89AF60913E
:1049C00054157091551580915615909157150F9467
:1049D000A42A20E030E048EC52E40F94D8293B01AF
:1049E0004C01609158157091591580915A1590910C
:1049F0005B150F94A42A20E030E048EC52E40F94B9
:104A0000D8290F94712A6BAF7CAF8DAF9EAF6091A8
:104A10005C1570915D1580915E1590915F150F94F6
:104A2000A42A20E030E048EC52E40F94D8290F94F7
:104A3000712A1B012C014090601550906115609106
:104A400064157091651580916615909167150F94A6
:104A5000A42A20E030E048EC52E40F94D8297B01EE
:104A60008C01609168157091691580916A1590911B
:104A70006B150F94A42A20E030E048EC52E40F9428
:104A8000D8295B016C0180916C1590916D15A091F6
:104A90006E15B0916F158DAB9EABAFABB8AF60919B
:104AA00050157091511580915215909153150F9496
:104AB000A42A20E030E048EC52E40F94D8296F8318
:104AC000788789879A87C301D4018B879C87AD87B4
:104AD000BE87ABADBCADBA83A9833C822B825E821C
:104AE0004D82C701D8018F87988BA98BBA8BC501DE
:104AF000D6018B8B9C8BAD8BBE8B8DA99EA9AFA94C
:104B0000B8AD8F8B988FA98FBA8FFE0137968381AE
:104B10008B8F82818C8F81818D8F8F818E8FFE0113
:104B20003B9683818F8F828188A3818189A38B8526
:104B30008AA38A818BA389818CA38C818DA38B818D
:104B40008EA38E818FA38D8188A7FE013F968381DE
:104B500089A782818AA781818BA78F858CA7FE0177
:104B6000739683818DA782818EA781818FA78B8980
:104B700088ABFE017796838189AB82818AAB818184
:104B80008BAB8F898CAB89AD9AAD6EE3AE01455E80
:104B90005F4F2AE10F948B1FEE960FB6F894DEBF9D
:104BA0000FBECDBFCF91DF911F910F91FF90EF907E
:104BB000DF90CF90BF90AF909F908F907F906F903D
:104BC0005F904F903F902F900895CF92DF92EF9299
:104BD000FF920F931F93DF93CF93CDB7DEB7A197CB
:104BE0000FB6F894DEBF0FBECDBF4091890D509136
:104BF0008A0D6091EC0D7091ED0DE0914F0EF091EA
:104C0000500EA091B20EB091B30E00913B0F1091D7
:104C10003C0FE090C40FF090C50FC0904D10D090A5
:104C20004E102091260D3091270D3A8329835C8305
:104C30004B837E836D83F887EF83BA87A9871C87B0
:104C40000B87FE86ED86D88ACF862A81298B29811B
:104C50002A8B2C812B8B2B812C8B2E812D8B2D81C4
:104C60002E8B28852F8B2F81288F2A85298F2985A8
:104C70002A8F2C852B8F2B852C8F2E852D8F2D8584
:104C80002E8F28892F8F2F8528A321E029A363E267
:104C9000AE014F5E5F4F21E10F948B1FA1960FB6BF
:104CA000F894DEBF0FBECDBFCF91DF911F910F9162
:104CB000FF90EF90DF90CF900895DF93CF93CDB723
:104CC000DEB764970FB6F894DEBF0FBECDBFE0919C
:104CD000A015F091A115A091A215B091A315409136
:104CE0006815509169156091641570916515209152
:104CF0005815309159153A8329835C834B837E8301
:104D00006D8318861F82E987FA87AB87BC872A8163
:104D10002D8729812E872C812F872B81288B2E810F
:104D2000298B2D812A8B28852B8B2F812C8B61E75A
:104D3000AE01475F5F4F2CE00F948B1F64960FB658
:104D4000F894DEBF0FBECDBFCF91DF910895CF9213
:104D5000DF92EF92FF920F931F93DF93CF93CDB724
:104D6000DEB7A0970FB6F894DEBF0FBECDBF40915F
:104D7000950D5091960D6091F80D7091F90DE0919F
:104D80005B0EF0915C0EA091BE0EB091BF0E009133
:104D9000470F1091480FE090D00FF090D10FC090C6
:104DA0005910D0905A102091320D3091330D3A8322
:104DB00029835C834B837E836D83F887EF83BA8777
:104DC000A9871C870B87FE86ED86D88ACF862A8125
:104DD000298B29812A8B2C812B8B2B812C8B2E814B
:104DE0002D8B2D812E8B28852F8B2F81288F2A8527
:104DF000298F29852A8F2C852B8F2B852C8F2E850B
:104E00002D8F2D852E8F28892F8F2F8528A365E242
:104E1000AE014F5E5F4F20E10F948B1FA0960FB63F
:104E2000F894DEBF0FBECDBFCF91DF911F910F91E0
:104E3000FF90EF90DF90CF900895DF93CF9300D055
:104E40000F92CDB7DEB72091390A332727FD309571
:104E50003A8329832A812B8329812C836AE2AE013C
:104E60004D5F5F4F22E00F948B1F0F900F900F90BC
:104E70000F90CF91DF9108950F931F93DF93CF93FE
:104E8000CDB7DEB72E970FB6F894DEBF0FBECDBFFD
:104E90008C0146DB882361F1E091AC15F091AD15F2
:104EA000309731F162817581268137814085518546
:104EB000838194819A8389832B833C834D835E8392
:104EC0006F838A818887898189877A87FE013396F3
:104ED00083818B8782818C8781818D878B818E876F
:104EE000C80162EAAE01495F5F4F28E00F948B1F53
:104EF0002E960FB6F894DEBF0FBECDBFCF91DF91D7
:104F00001F910F910895DF93CF9300D000D0CDB7BC
:104F1000DEB7FC0187898823E9F0408951898091B7
:104F20002D0A992787FD90958417950798F083851A
:104F30009485228934895A8349832B833C832A812F
:104F40002D8329812E8368E2AE014D5F5F4F24E0FF
:104F50000F948B1F26960FB6F894DEBF0FBECDBF01
:104F6000CF91DF910895EF92FF920F931F93DF93FC
:104F7000CF93CDB7DEB728970FB6F894DEBF0FBE3C
:104F8000CDBF7C0100918319109184190F94AA223E
:104F90001A8309839C838B838A818D8389818E8385
:104FA0008C818F838B818887C70168E9AE014B5F55
:104FB0005F4F24E00F948B1F28960FB6F894DEBF46
:104FC0000FBECDBFCF91DF911F910F91FF90EF905A
:104FD00008952F923F924F925F926F927F928F929D
:104FE0009F92AF92BF92CF92DF92EF92FF920F9378
:104FF0001F93DF93CF93CDB7DEB7CA54D0400FB61F
:10500000F894DEBF0FBECDBF2B969FAF8EAF2B9710
:105010008091AC079091AD07A091AE07B091AF071A
:1050200029968CAF9DAFAEAFBFAF29978091A807EF
:105030009091A907A091AA07B091AB0725968CAFD4
:105040009DAFAEAFBFAF25972090A4073090A507C6
:105050004090A6075090A7070F94C9245B016C01EC
:1050600060902A0770902B0780902C0790902D0756
:1050700080913D0C90913E0C64E670E00F94C82D39
:10508000882777FD8095982F0F94A42A25E33AEF7F
:105090004EE85CEB0F94A02C20912E0730912F0747
:1050A00040913007509131070F94F4282091320736
:1050B000309133074091340750913507A98EBA8E4D
:1050C000CB8EDC8E1D8E1E8E1F8E18A269827A8278
:1050D0008B829C82182F092FCB01A12FB02F8D839B
:1050E0009E83AF83B88729873A874B875C872D8655
:1050F0003E864F86588A25968CAD9DADAEADBFAD30
:105100002597898B9A8BAB8BBC8B29968CAD9DADEB
:10511000AEADBFAD29978D8B9E8BAF8BB88F8E01B7
:105120000F5D1F4FC801BE01675E7F4F0E94CC1A02
:10513000FE013196838189A782818AA781818BA70D
:1051400089818CA7FE01359683818DA782818EA7E8
:1051500081818FA78D8188ABFE013996838189ABD0
:1051600082818AAB81818BAB89858CABFE013D96B8
:1051700083818DAB82818EAB81818FAB8D8588AF32
:10518000FE017196838189AF82818AAF81818BAF65
:1051900089898CAFFE01759683818DAF82818EAF38
:1051A00081818FAF8D89FE01E05CFF4F80832B965C
:1051B0008EAD9FAD2B976EE1A80120E20F948B1F5F
:1051C000C65BDF4F0FB6F894DEBF0FBECDBFCF91E9
:1051D000DF911F910F91FF90EF90DF90CF90BF90E4
:1051E000AF909F908F907F906F905F904F903F9087
:1051F0002F9008952F923F924F925F926F927F92DD
:105200008F929F92AF92BF92CF92DF92EF92FF92D6
:105210000F931F93DF93CF93CDB7DEB7C655D04022
:105220000FB6F894DEBF0FBECDBF1C010F94C9248A
:105230005B016C018090481490904914F401F7A927
:105240002B96FFAF2B97F40164857585868597852E
:105250000F94A42A20E836E948E15BE40F94D829AA
:105260002B013C01F40160897189828993890F9433
:10527000A42A20E836E948E15BE40F94D8292F9668
:105280006CAF7DAF8EAF9FAF2F97F40164897589A6
:10529000868997890F94A42A20E030E048EC52E4F4
:1052A0000F94D82963966CAF7DAF8EAF9FAF639795
:1052B000F40164A175A1882777FD8095982F0F943C
:1052C000A42A6D877E878F87988BF401608D718DFE
:1052D000828D938D0F94A42A20E030E048EC52E4B4
:1052E0000F94D82967966CAF7DAF8EAF9FAF67974D
:1052F000F401648D758D868D978D0F94A42A20E01E
:1053000030E048EC52E40F94D829AD8EBE8ECF8E9B
:10531000D8A219A21AA21BA21CA29201A30129833E
:105320003A834B835C832C96EFAD2C972D96FFAD83
:105330002D972E96AFAD2E972F96BFAD2F979F012D
:10534000AD012D833E834F8358876096EFAD609704
:105350006196FFAD61976296AFAD62976396BFAD00
:1053600063979F01AD0129873A874B875C8720E0CF
:1053700030E040E050E0298B3A8B4B8B5C8B64969D
:10538000EFAD64976596FFAD65976696AFAD66978E
:105390006796BFAD67979F01AD012D8B3E8B4F8BFD
:1053A000588FAC01CB01DA01898F9A8FAB8FBC8FFC
:1053B0008E010B5D1F4FC801BE01635E7F4F0E94CF
:1053C000CC1A2B96FFAD2B97FDA7FE01319683815A
:1053D0008EA782818FA7818188AB898189ABFE01ED
:1053E000359683818AAB82818BAB81818CAB8D8139
:1053F0008DABFE01399683818EAB82818FAB81812B
:1054000088AF898589AFFE013D9683818AAF82810D
:105410008BAF81818CAF8D858DAFFE0171968381BD
:105420008EAF82818FAF8181FE01E05CFF4F808370
:105430008989FE01EF5BFF4F8083DE01559613964D
:105440008C911397FE01EE5BFF4F808312968C9137
:105450001297FE01ED5BFF4F808311968C91FE0148
:10546000EC5BFF4F80838D89FE01EB5BFF4F8083F8
:10547000DE01599613968C911397FE01EA5BFF4F5C
:10548000808312968C911297FE01E95BFF4F808317
:1054900011968C91FE01E85BFF4F8083898DFE01A0
:1054A000E75BFF4F8083C10160E2A80125E20F9412
:1054B0008B1FCA5ADF4F0FB6F894DEBF0FBECDBFA9
:1054C000CF91DF911F910F91FF90EF90DF90CF90E0
:1054D000BF90AF909F908F907F906F905F904F9014
:1054E0003F902F9008952F923F924F925F926F922C
:1054F0007F928F929F92AF92BF92CF92DF92EF9264
:10550000FF920F931F93DF93CF93CDB7DEB7C256B1
:10551000D0400FB6F894DEBF0FBECDBFA3969FAFAD
:105520008EAFA3970091701510917115E0907215D0
:10553000F0907315C0907415D0907515A0907615E5
:10554000B0907715809078159090791560907A15C5
:1055500070907B1540907C1550907D1520907E15A5
:1055600030907F158091801590918115A1969FAF05
:105570008EAFA19780918215909183156F969FAF02
:105580008EAF6F9780918415909185156D969FAF22
:105590008EAF6D9780918615909187156B969FAF12
:1055A0008EAF6B97809188159091891569969FAF02
:1055B0008EAF699780918A1590918B1567969FAFF2
:1055C0008EAF679780918C1590918D1565969FAFE2
:1055D0008EAF659780918E1590918F1563969FAFD2
:1055E0008EAF63970F94C9249B01AC011A83098382
:1055F000FC82EB82DE82CD82B886AF829A86898673
:105600007C866B865E864D86388A2F86A1968EAD07
:105610009FADA1979A8B898B6F968EAD9FAD6F973B
:105620009C8B8B8B6D968EAD9FAD6D979E8B8D8B6E
:105630006B968EAD9FAD6B97988F8F8B69968EAD65
:105640009FAD69979A8F898F67968EAD9FAD67974B
:105650009C8F8B8F65968EAD9FAD65979E8F8D8F3E
:1056600063968EAD9FAD639798A38F8F29A33AA3BE
:105670004BA35CA31DA21EA21FA218A68A8189A704
:1056800089818AA78C818BA78B818CA78E818DA71E
:105690008D818EA788858FA78F8188AB8A8589ABFE
:1056A00089858AAB8C858BAB8B858CAB8E858DABDE
:1056B0008D858EAB88898FAB8F8588AF8A8989AFBE
:1056C00089898AAF8C898BAF8B898CAF8E898DAF9E
:1056D0008D898EAF888D8FAF8F89FE01E05CFF4F83
:1056E00080838A8DFE01EF5BFF4F8083898DFE01F1
:1056F000EE5BFF4F80838C8DFE01ED5BFF4F80835F
:105700008B8DFE01EC5BFF4F80838E8DFE01EB5B8A
:10571000FF4F80838D8DFE01EA5BFF4F808388A160
:10572000FE01E95BFF4F80838F8DFE01E85BFF4F39
:1057300080838E01075D1F4FC8018096BE016F5D9B
:105740007F4F0E94CC1AA3968EAD9FADA3976FE6B4
:10575000A80128E20F948B1FCE59DF4F0FB6F894A3
:10576000DEBF0FBECDBFCF91DF911F910F91FF9094
:10577000EF90DF90CF90BF90AF909F908F907F90F1
:105780006F905F904F903F902F9008952F923F928F
:105790004F925F926F927F928F929F92AF92BF9241
:1057A000CF92DF92EF92FF920F931F93DF93CF93ED
:1057B000CDB7DEB7C45CD0400FB6F894DEBF0FBEE5
:1057C000CDBF1C016091701570917115882777FD10
:1057D0008095982F0F94A42ACF53DF4F6883798345
:1057E0008A839B83C15CD04060919A1470E080E012
:1057F00090E00F94A22A2B013C01609190157091CA
:105800009115809192159091931520E030E048EC2D
:1058100052E40F94D8296B017C016091941570912A
:105820009515809196159091971520E030E048EC01
:1058300052E40F94D8294B015C0160919815709146
:10584000991580919A1590919B150F94A42AC35491
:10585000DF4F688379838A839B83CD5BD0408091BF
:105860009C1590919D15A0919E15B0919F15C754C0
:10587000DF4F88839983AA83BB83C95BD040809123
:10588000561490915714A0915814B0915914CB54B8
:10589000DF4F88839983AA83BB83C55BD040809107
:1058A0005A1490915B14A0915C14B0915D14CF5484
:1058B000DF4F88839983AA83BB83C15BD0408091EB
:1058C0005E1490915F14A0916014B0916114C3555F
:1058D000DF4F88839983AA83BB83CD5AD0408091C0
:1058E000621490916314A0916414B0916514C7552B
:1058F000DF4F88839983AA83BB83C95AD0408091A4
:10590000661490916714A0916814B0916914CB55F6
:10591000DF4F88839983AA83BB83C55AD040809187
:105920006A1490916B14A0916C14B0916D14CF55C2
:10593000DF4F88839983AA83BB83C15AD04060918B
:10594000881570918915882777FD8095982F0F9479
:10595000A42AC356DF4F688379838A839B83CD59FA
:10596000D04060918A1570918B15882777FD8095BE
:10597000982F0F94A42AC756DF4F688379838A83B0
:105980009B83C959D04060918C1570918D158827E3
:1059900077FD8095982F0F94A42ACB56DF4F68830C
:1059A00079838A839B83C559D04060918E1570910D
:1059B0008F15882777FD8095982F0F94A42ACF56AE
:1059C000DF4F688379838A839B83C159D0400F94CA
:1059D000C9248B019C01CF53DF4F88819981AA8113
:1059E000BB81C15CD04089839A83AB83BC834D82E9
:1059F0005E826F827886C601AE2DBF2D89879A8719
:105A0000AB87BC87C401AA2DBB2D8D879E87AF872E
:105A1000B88BC354DF4F88819981AA81BB81CD5B4C
:105A2000D040898B9A8BAB8BBC8BC754DF4F88815E
:105A30009981AA81BB81C95BD0408D8B9E8BAF8B36
:105A4000B88FCB54DF4F88819981AA81BB81C55B18
:105A5000D040898F9A8FAB8FBC8FCF54DF4F888116
:105A60009981AA81BB81C15BD0408D8F9E8FAF8F02
:105A7000B8A3C355DF4F88819981AA81BB81CD5AD4
:105A8000D04089A39AA3ABA3BCA3C755DF4F88819D
:105A90009981AA81BB81C95AD0408DA39EA3AFA38F
:105AA000B8A7CB55DF4F88819981AA81BB81C55AA0
:105AB000D04089A79AA7ABA7BCA7CF55DF4F888155
:105AC0009981AA81BB81C15AD0408DA79EA7AFA75B
:105AD000B8ABC356DF4F88819981AA81BB81CD596C
