:100000000C945E100C94D4DA0C9405DB0C9436DB63
:100010000C9467DB0C9498DB0C94C9DB0C94FADB32
:100020000C942BDC0C948B100C948B100C948B1078
:100030000C948B100C948B100C948B100C947BBA3A
:100040000C948B100C948B100C948B100C948B10C4
:100050000C948B100C948B100C948B100C945CDC17
:100060000C948B100C9427190C9467190C948B101A
:100070000C948B100C948B100C948B100C948B1094
:100080000C948B100C948B100C948B100C948B1084
:100090000C94B9190C94F9190C948B100C94F5BDAF
:1000A0000C948B100C94A8BA0C948B100C948B109D
:1000B0000C948B100C948B100C94D5BA0C948B1060
:1000C0000C948B100C948B100C948B100C948B1044
:1000D0000C948B100C948B100C944B1A0C948B1A60
:1000E0000C948B10D558EB58F258DC58E458F9585A
:1000F0004E59395932590E594059815981594759E8
:1001000000590759635954597359795915591C594C
:1001100024592B59084AD73B3BCE016E84BCBFFD06
:10012000C12F3D6C74319ABD56833DDA3D00C77FC7
:1001300011BED9E4BB4C3E916BAAAABE0000008060
:100140003F05A84CCDB2D44EB93836A9020C50B9EF
:10015000918688083CA6AAAA2ABE000000803F0219
:100160008988083EABAAAAAABE000000803F0664A8
:10017000EC1B3C04BC163E3BE5B93CC93C37C29E77
:100180005A3D660498083EEA69AAAA3E000000802B
:100190003F07634236B79BD8A71A39685618AEBADC
:1001A000AB558C1D3CB7CC5763BD6DEDFD753EF670
:1001B000177231BF000000803F4C6F670064756D9F
:1001C00070000000000000000000007749657261C7
:1001D0007365000000000000000000A641656E612C
:1001E000626C650000000000000000D44064697388
:1001F00061626C6500000000000000D440706C611A
:100200006E6E6572006763730000000000000000FE
:10021000000000768673657475700072657365748E
:100220000000000000000000009D40726164696FE2
:10023000000000000000000000FB5E6D6F6465734D
:10024000000000000000000000665E636F6D7061DA
:1002500073730000000000000010406465636C6967
:100260006E6174696F6E000000FC3F6261747465BA
:10027000727900000000000000D53F73686F7700BE
:10028000000000000000000000A03F65726173657F
:100290000000000000000000009D234172647550C2
:1002A0006C616E652056322E3237204D61792031D7
:1002B00033746820323031342053696D756C617449
:1002C000696F6E204D6F6465006C6F67730000008E
:1002D00000000000000000DE3E73657475700000D1
:1002E00000000000000000C63E746573740000004A
:1002F00000000000000000AE3E68656C7000000069
:1003000000000000000000931E706C616E6E65724C
:1003100000000000000000963E7465737400707762
:100320006D0000000000000000000000F55D72613B
:1003300064696F000000000000000000705D7061E3
:10034000737374687275000000000000453B6661BD
:10035000696C73616665000000000000705C62619A
:10036000747465727900000000000000E527726572
:100370006C617900000000000000000099257761A1
:1003800079706F696E7473000000000086247862D3
:10039000656500000000000000000000C2236565E4
:1003A00064756D7000000000000000002E236D6F6A
:1003B000646573776974636800000000A72264694C
:1003C000707377697463686573000000D5216C6F82
:1003D0006767696E6700000000000000EC20466F50
:1003E000726D61742076657273696F6E3A20256C48
:1003F000782020457870656374656420666F726D3F
:1004000061742076657273696F6E3A20256C780A84
:10041000004E756D50616765733A20257520205038
:1004200061676553697A653A2025750A004D616EEA
:100430007566616374757265723A20307825303262
:10044000782020204465766963653A20307825302D
:1004500034780A004552523A204E6F20646174612C
:10046000666C61736820696E7365727465640054AC
:10047000657374696E672064617461666C6173682A
:10048000206C6F6767696E67004D69783A656C65C7
:10049000766F6E73200972657620656C65763A25F5
:1004A000642C20726576206368313A25642C2072B2
:1004B0006576206368323A25640A004D69783A739C
:1004C00074616E64617264200972657620726F6C6B
:1004D0006C3A25642C207265762070697463683AE2
:1004E00025642C20726576207275646465723A25E5
:1004F000640A0064697020737769746368657320A7
:1005000064697361626C65642C207573696E672021
:10051000454550524F4D0048697420456E746572D0
:1005200020746F20657869742E0A0A00506F736911
:1005300074696F6E2025640A00436F6E74726F6C6D
:100540002043482000202530327800253034783A86
:1005500000426567696E205842656520582D4354F6
:10056000552052616E676520616E64205253534975
:1005700020546573743A0A004C6F69746572207276
:1005800061646975733A2025640A0A004869742019
:100590007261646975733A2025640A0025642077C6
:1005A0006179706F696E74730A00486F6C642061C2
:1005B0006C746974756465206F662025646D0A002B
:1005C000486F6C642063757272656E7420616C7420
:1005D00069747564650A00636F6D6D616E642023D4
:1005E0003A2025642069643A2564206F7074696F2D
:1005F0006E733A25642070313A25642070323A25B2
:100600006C642070333A256C642070343A256C6435
:10061000200A0052656C6179206F66660A00526597
:100620006C6179206F6E0A004E6F7420656E616296
:100630006C65640A00566F6C74733A20313A253247
:100640002E32662C20323A25322E32662C20333A56
:1006500025322E32662C20343A25322E32660A009C
:100660004C4F5320636175736564206E6F2063681F
:10067000616E676520696E2041504D2E0A00544816
:10068000524F54544C45204641494C534146452015
:100690004143544956415445443A2025642C200096
:1006A000434F4E54524F4C204D4F444520434841F8
:1006B0004E4745443A20005448524F54544C45202C
:1006C0004348414E474544202564200A00556E703A
:1006D0006C756720626174746572792C207468721D
:1006E0006F74746C6520696E206E65757472616CD0
:1006F0002C207475726E206F666620726164696F5B
:100700002E0A004D5347204653204F46462025755C
:10071000004D5347204653204F4E20257500494E2B
:1007200020313A20256409323A20256409333A20E1
:10073000256409343A20256409353A2025640936B0
:100740003A20256409373A20256409383A2025647F
:100750000A00494E3A09313A20256409323A2025E7
:100760006409333A20256409343A20256409353A6E
:1007700020256409363A20256409373A2025640982
:10078000383A2025640A00506C616E6E6572204D07
:100790006F64650A0A54686973206D6F6465206927
:1007A00073206E6F7420696E74656E646564206674
:1007B0006F72206D616E75616C207573650A0A0039
:1007C000436F6D6D616E64733A0A20206C6F6773BE
:1007D00020202020202020206C6F6720726561641B
:1007E0006261636B2F7365747570206D6F64650A49
:1007F00020207365747570202020202020207365D0
:10080000747570206D6F64650A20207465737420A0
:100810002020202020202074657374206D6F646573
:100820000A0A4D6F76652074686520736C6964658B
:100830002073776974636820616E642072657365E4
:100840007420746F20464C592E0A0A005465737444
:10085000204D6F64650A0A005365747570204D6FF2
:1008600064650A0A494D504F5254414E543A20692A
:100870006620796F752068617665206E6F742070D0
:10088000726576696F75736C79207365742074680E
:1008900069732073797374656D2075702C2075737E
:1008A00065207468650A2772657365742720636F15
:1008B0006D6D616E6420746F20696E697469616C1E
:1008C000697A652074686520454550524F4D207403
:1008D0006F2073656E7369626C652064656661750F
:1008E0006C742076616C7565730A616E642074683F
:1008F000656E207468652027726164696F272063C4
:100900006F6D6D616E6420746F20636F6E666967D2
:1009100075726520666F7220796F757220726164DE
:10092000696F2E0A0A000A5479706520275927201A
:10093000616E642068697420456E74657220746FFE
:1009400020657261736520616C6C20776179706FCE
:10095000696E7420616E6420706172616D6574658A
:100960007220646174612C20616E79206F746865F7
:1009700072206B657920746F2061626F72743A2007
:1009800000646F6E650A000A45726173696E6720C4
:10099000454550524F4D0A005261772056616C75A3
:1009A00065730A00526164696F0A004348383A204F
:1009B0002564207C202564207C2025640A0043488F
:1009C000373A202564207C202564207C2025640A79
:1009D000004348363A202564207C202564207C2072
:1009E00025640A004348353A202564207C2025648C
:1009F000207C2025640A004348343A202564207C6A
:100A0000202564207C2025640A004348333A2025B1
:100A100064207C202564207C2025640A0043483221
:100A20003A202564207C202564207C2025640A004F
:100A30004348313A202564207C202564207C2025F1
:100A4000640A004D6F6E69746F72696E6720766F0D
:100A50006C747320616E642063757272656E7400CD
:100A60004D6F6E69746F72696E6720626174742075
:100A7000766F6C7473004D6F6E69746F72696E6718
:100A800020342063656C6C004D6F6E69746F726901
:100A90006E6720332063656C6C0042617474206D56
:100AA0006F6E69746F72696E672064697361626CDE
:100AB00065640042617474204D6F696E746F720AD0
:100AC000006E617620706974636820616C743A0A04
:100AD00000656E6572677279207468726F74746CE9
:100AE000653A0A006E6176207069746368206169F6
:100AF0007273706565643A0A006E617620726F6C7D
:100B00006C3A0A00736572766F2072756464657260
:100B10003A0A00736572766F2070697463683A0AE6
:100B200000736572766F20726F6C6C3A0A004761D1
:100B3000696E730A00503A2025342E33662C204902
:100B40003A25342E33662C20443A25342E33662C35
:100B500020494D41583A256C640A0058545241438B
:100B60004B3A2025342E32660A58545241434B20CA
:100B7000616E676C653A2025640A0043726F737377
:100B8000747261636B0A006D696E3A2025640A6DA8
:100B900061783A2025640A6372756973653A202585
:100BA000640A6661696C736166655F656E61626C3B
:100BB00065643A2025640A6661696C736166655FE5
:100BC00076616C75653A2025640A005468726F740A
:100BD000746C650A00466C69676874206D6F6465A3
:100BE000730A00506F732025643A2000494D550A5E
:100BF000004779726F206F6666736574733A2025BB
:100C0000342E32662C2025342E32662C2025342EAC
:100C100032660A00416363656C206F6666736574B3
:100C2000733A2025342E32662C2025342E32662C41
:100C30002025342E32660A004D6167206F66667388
:100C40006574733A2025342E34662C2025342E34D6
:100C5000662C2025342E34660A004D6167204465D9
:100C6000636C696E6174696F6E3A2025342E346648
:100C70000A003F3F0048494C00484D433538343363
:100C800000484D43353838334C00436F6D70617305
:100C9000733A200061626C65640A006469730065E0
:100CA0006E002D000A4F7074696F6E733A20302DFC
:100CB00034000A4F7074696F6E733A5B6F6E2C6FFD
:100CC00066665D0A006F666600436F6D70617373E0
:100CD00020696E697469616C69736174696F6E20F3
:100CE0006661696C656421006F6E000A4D6F766500
:100CF00020524320746F67676C6520737769746353
:100D00006820746F206561636820706F736974690F
:100D10006F6E20746F20656469742C206D6F76652A
:100D20002061696C65726F6E20737469636B2074E7
:100D30006F2073656C656374206D6F6465732E003E
:100D40000A53617665642053657474696E67730A2B
:100D50000A000A4D6F766520616C6C20636F6E74BB
:100D6000726F6C7320746F2065616368206578749E
:100D700072656D652E2048697420456E7465722019
:100D8000746F20736176653A200A000A4E6F2072F4
:100D90006164696F3B20436865636B20636F6E6EAF
:100DA0006563746F72732E000A0A526164696F2062
:100DB00053657475703A0A000A464143544F5259BC
:100DC00020524553455420636F6D706C65746520E7
:100DD0002D20706C656173652072657365742041A8
:100DE000504D20746F20636F6E74696E7565000AD4
:100DF000547970652027592720616E6420686974D2
:100E000020456E74657220746F20706572666F7213
:100E10006D20666163746F72792072657365742CDE
:100E200020616E79206F74686572206B657920741B
:100E30006F2061626F72743A2000656E61626C654A
:100E40000043555200434D4400524157004D4F441A
:100E500045004E54554E004354554E00504D0047EA
:100E600050530041545449545544455F4D45440046
:100E700041545449545544455F4641535400616CB4
:100E80006C006D697373696E67206C6F672074798D
:100E900070650A000A4C6F67206572617365642E85
:100EA0000A000A45726173696E67206C6F672E2EA7
:100EB0002E0A00446F6E650A0044756D70696E6796
:100EC000204C6F672025642C2020202073746172D1
:100ED000742070672025642C202020656E642070AB
:100EE000672025640A00626164206C6F67206E755C
:100EF0006D6265720A0064756D70696E6720616C61
:100F00006C0A0025640A0025642C09004446207000
:100F10006167652C206C6F672066696C6520232CE7
:100F2000206C6F6720706167653A2025642C09008A
:100F30004E756D626572206F66207061636B6574BB
:100F40007320726561643A2025640A000A41726464
:100F500075506C616E652056322E3237204D6179A6
:100F6000203133746820323031342053696D756C10
:100F70006174696F6E204D6F64650A467265652005
:100F800052414D3A2025750A0048696C2053696D1D
:100F90002045646765004572726F72205265616416
:100FA000696E6720454E445F425954453A20256496
:100FB0000A004572726F722052656164696E672023
:100FC0005061636B65743A2025640A004154543AB9
:100FD0002025642C2025642C2025750A004D4F44C3
:100FE0003A004354554E3A004E54554E3A2025345B
:100FF0002E34662C2025642C2025342E34662C209B
:1010000025342E34662C2025342E34662C202534AD
:101010002E34662C2025342E34662C0A00504D3A8E
:10102000005241573A00434D443A00435552523A18
:101030002025642C2025342E34662C2025342E3493
:10104000662C2025640A0020256420636F6D6D6185
:101050006E647320696E206D656D6F72790A00553C
:101060004E4B4E4F574E2053544152545550202D05
:10107000200047524F554E44205354415254202D86
:101080002000414952205354415254202D20004702
:1010900050533A20256C642C2025642C2025642C88
:1010A0002025342E37662C2025342E37662C20251B
:1010B000642C2025342E34662C2025342E34662CC6
:1010C0002025342E34662C2025342E34660A004127
:1010D0004C5432505443485F00454E5247593254A5
:1010E00048525F005957325352565F004152535095
:1010F00032505443485F0050544348325352565F75
:1011000000524C4C325352565F0048444E473252C4
:101110004C4C5F005243385F005243375F005243EC
:10112000365F005243355F005243345F0052433311
:101130005F005243325F005243315F00464C4150E2
:101140005F325F535045454400464C41505F325F2B
:10115000504552434E5400464C41505F315F53500E
:1011600045454400464C41505F315F504552434E27
:10117000540041525350445F454E41424C45005348
:101180004F4E41525F454E41424C4500494E5645F7
:1011900052544544464C545F434800424154545FC6
:1011A000434150414349545900494E5055545F56AC
:1011B0004F4C545300414D505F5045525F564F4C79
:1011C0005400564F4C545F444956494445520042DE
:1011D0004154545F4D4F4E49544F52004D41475F6B
:1011E000454E41424C4500474E445F4142535F509B
:1011F0005245535300474E445F54454D5000414CB7
:10120000545F484F4C445F52544C005452494D5F18
:1012100050495443485F4344004D494E5F474E4454
:101220005350445F434D005452494D5F4152535017
:10123000445F434D005253545F5357495443485FF2
:101240004348004C4F475F4C41535446494C45007E
:101250004C4F475F4249544D41534B005359535FE4
:101260004E554D5F52455345545300454C45564FDE
:101270004E5F4348325F52455600454C45564F4EEF
:101280005F4348315F52455600454C45564F4E5FCF
:101290005245564552534500454C45564F4E5F4DBD
:1012A0004958494E47005357495443485F454E41BA
:1012B000424C45005452494D5F4155544F004C49F2
:1012C0004D5F50495443485F4D494E004C494D5F76
:1012D00050495443485F4D4158004C494D5F524F6F
:1012E0004C4C5F434400464C544D4F4445360046F9
:1012F0004C544D4F44453500464C544D4F444534B5
:1013000000464C544D4F44453300464C544D4F44D9
:10131000453200464C544D4F44453100464C544DE7
:101320004F44455F43480046535F4743535F454E34
:1013300041424C0046535F4C4F4E475F4143544E31
:101340000046535F53484F52545F4143544E00543C
:1013500052494D5F5448524F54544C4500544852E2
:101360005F46535F56414C5545005448525F4641D5
:10137000494C53414645005448525F534C455752DF
:10138000415445005448525F4D4158005448525F03
:101390004D494E00414C545F484F4C445F464257C4
:1013A000434D0041525350445F4642575F4D4158B0
:1013B0000041525350445F4642575F4D494E0046EC
:1013C000454E43455F4D4158414C540046454E43C0
:1013D000455F4D494E414C540046454E43455F43A1
:1013E00048414E4E454C0046454E43455F544F5490
:1013F000414C0046454E43455F414354494F4E00E2
:1014000057505F4C4F495445525F5241440057502A
:101410005F52414449555300434D445F494E444552
:101420005800434D445F544F54414C004152535077
:10143000445F4F46465345540041525350445F5217
:101440004154494F00414C545F4D49580058545243
:101450004B5F414E474C455F4344005854524B5FED
:101460004741494E5F5343004B46465F5448523212
:1014700050544348004B46465F505443483254480A
:1014800052004B46465F524444524D4958004B4629
:10149000465F50544348434F4D50005345524941D5
:1014A0004C335F424155440053595349445F4D59B1
:1014B0004743530053595349445F544849534D419E
:1014C000560053595349445F53575F545950450090
:1014D00053595349445F53575F4D52455600445A40
:1014E00000524556004D4158005452494D004D4957
:1014F0004E00414E474C455F4D415800414E474CD0
:10150000455F4D494E0046554E4354494F4E0049A4
:101510004D4158004400490050004C6F672025643D
:101520002C2020202073746172742025642C2020CC
:1015300020656E642025640A000A2564206C6F67AC
:10154000730A000A4E6F206C6F67730A0A004355D6
:10155000520020255300434D4400202553005241A2
:101560005700202553004D4F444500202553004E81
:1015700054554E00202553004354554E002025530A
:1015800000504D00202553004750530020255300A4
:1015900041545449545544455F4D4544002025531A
:1015A0000041545449545544455F4641535400202A
:1015B0002553006E6F6E65006C6F677320656E61FA
:1015C000626C65643A200047656F46656E6365200E
:1015D00044697361626C65640047656F46656E635C
:1015E000652044697361626C65640047656F466598
:1015F0006E6365206973204E554C4C0047656F46FD
:10160000656E6365206973204E554C4C006770739E
:1016100020616C743A20256C7500696E69742068CD
:101620006F6D65002B006261642066656E636520E6
:10163000706F696E74006261642066656E63652018
:10164000706F696E740066656E63696E67206D7594
:1016500073742062652064697361626C65640066FE
:101660006C6967687420706C616E2072656365696F
:1016700076656400666C6967687420706C616E20C2
:1016800072656365697665640043757272656E7430
:1016900020576179506F696E74204E4F54204D4F22
:1016A0004449464945440043757272656E7420573B
:1016B0006179506F696E74204D4F444946494544E5
:1016C00000576179706F696E7420496E76616C693C
:1016D000642053657175656E636500576179506F5D
:1016E000696E7420526563656976696E672046414C
:1016F0004C53450054696D65202566202034443FD5
:10170000202025640A004D41564C494E4B5F4D53F5
:10171000475F49445F504152414D5F5245515545E5
:1017200053545F4C49535420617049443D25642013
:101730002067637349443D2564204641494C454434
:101740000A004D41564C494E4B5F4D53475F49444B
:101750005F504152414D5F524551554553545F4C86
:1017600049535420617049443D25642020676373C8
:1017700049443D2564204641494C45440A00616383
:1017800074696F6E2072656365697665643A2000DE
:101790006F7574206F6620636F6D6D616E64732169
:1017A0000052657475726E696E6720746F20486FA1
:1017B0006D6500496E20646F5F6368616E67655F89
:1017C00079617728292E202054617267657420681A
:1017D000656164696E673A20256900436F6D6D61CC
:1017E0006E6420494420232569204E4F54205245E1
:1017F000434F474E495A454400546172676574200F
:10180000537065656420256900506172616D65746F
:10181000657220494420232569204E4F54205245AB
:10182000434F474E495A4544004261642052657116
:1018300075657374202D2063616E6E6F742063680C
:10184000616E676520746F206E6F6E2D4E6176201D
:10185000636D64004C61746520746F20576179700A
:101860006F696E7420256920627920256420736574
:101870006300476F696E6720746F20576179706FDE
:10188000696E7420256920696E2025642073656364
:10189000005B2531643A2531643A25645D200045BA
:1018A000585452413300455854524132004558541F
:1018B00052413100504F534954494F4E0052415705
:1018C0005F4354524C0052435F4348414E004558D9
:1018D000545F53544154005241575F53454E530097
:1018E0005352335F005352305F00666C696768740F
:1018F000206D6F6465203D202575004661696C731D
:10190000616665202D2053686F7274206576656E60
:1019100074206F6E2C20004661696C7361666520CF
:101920002D2053686F7274206576656E74206F6623
:10193000660067656F2D66656E6365207472696702
:1019400067657265640067656F2D66656E63652007
:101950004F4B0067656F2D66656E63652073657418
:101960007570206572726F720067656F2D66656EA7
:101970006365206C6F61646564003C6E61766967C5
:101980006174653E205750206572726F72202D2061
:1019900064697374616E6365203C2030004D697327
:1019A0007365642057500052656163686564205711
:1019B0006179706F696E7420256900526561636892
:1019C000656420576179706F696E7420256920699C
:1019D0006E20256420736563007665726966795FA1
:1019E0006E61763A204C4F49544552206F726269BD
:1019F000747320636F6D706C6574650076657269D1
:101A000066795F6E61763A204C4F49544552207496
:101A1000696D6520636F6D706C657465004C4F492E
:101A20005445522074696D652023256420286D7308
:101A300029005265616368656420686F6D65007692
:101A400065726966795F636F6E6469746F6E3A2060
:101A5000496E76616C6964206F72206E6F206375C9
:101A60007272656E7420436F6E646974696F6E2064
:101A7000636D6400496E207665726966795F63689C
:101A8000616E67655F79617728292E20204E617627
:101A90002042656172696E673A20256900496E20AF
:101AA0007665726966795F6368616E67655F7961A3
:101AB0007728292E20204E61762042656172696E5A
:101AC000673A20256900666C69676874206D6F64E9
:101AD00065203D202575004661696C73616665204F
:101AE0002D204C6F6E67206576656E74206F6E2CAE
:101AF000200053706565644572726F7220252E3127
:101B0000662050494420252E3166205468726F7437
:101B1000746C6520252E31660A0053706565644536
:101B200072726F7220252E31662050494420252E76
:101B30003166205468726F74746C6520252E31668E
:101B40000A00696E2073696D756C6174696F6E202F
:101B50006D6F64650048696C2053696D204564674A
:101B60006500466C79696E6720000A4D6F766520C6
:101B700074686520736C6964652073776974636841
:101B800020616E6420726573657420746F20464C0A
:101B9000592E0A000A456E746572696E6720696E77
:101BA00074657261637469766520736574757020FD
:101BB0006D6F64652E2E2E0A0A4966207573696E54
:101BC00067207468652041726475696E6F20536583
:101BD0007269616C204D6F6E69746F722C20656E36
:101BE00073757265204C696E6520456E64696E6719
:101BF0002069732073657420746F20436172726969
:101C00006167652052657475726E2E0A547970652D
:101C1000202768656C702720746F206C69737420AE
:101C2000636F6D6D616E64732C202765786974270E
:101C300020746F206C656176652061207375626D1C
:101C4000656E752E0A56697369742074686520275D
:101C5000736574757027206D656E7520666F7220D0
:101C600066697273742D74696D6520636F6E666941
:101C70006775726174696F6E2E0A0045524153494F
:101C80004E47204C4F4753004E6F2064617461668D
:101C90006C617368206361726420696E736572742D
:101CA0006564007573696E672025752062797465B7
:101CB00073206F66206D656D6F7279202825752001
:101CC000726573657473290A006C6F61645F616C7F
:101CD0006C20746F6F6B20256C7575730A00646FD0
:101CE0006E652E004669726D77617265206368616A
:101CF0006E67653A2065726173696E67204545506D
:101D0000524F4D2E2E2E0A000A0A496E6974204148
:101D1000726475506C616E652056322E3237204DDC
:101D20006179203133746820323031342053696D49
:101D3000756C6174696F6E204D6F64650A0A467236
:101D400065652052414D3A2025750A00496E76613D
:101D50006C69642053455249414C335F42415544BC
:101D6000003131353230302042415544003131317B
:101D70003130302042415544002035373630302054
:101D800042415544002033383430302042415544DC
:101D90000020313932303020424155440020203972
:101DA0003630302042415544000A0A2052656164B1
:101DB0007920746F20464C592E0047524F554E449F
:101DC0002053544152540044656D6F205365727620
:101DD0006F73210000407A10F35A00A0724E180968
:101DE0000010A5D4E80000E87648170000E40B5482
:101DF000020000CA9A3B000000E1F5050000809651
:101E00009800000040420F000000A0860100000082
:101E1000102700000000E80300000000640000003C
:101E200000000A00000000000100000000002C7605
:101E3000D888DC674F0823DFC1DFAE59E1B1B79620
:101E4000E5E3E453C63AE651997696E8E6C284267D
:101E5000EB898C9B62ED407C6FFCEFBC9C9F40F259
:101E6000BAA56FA5F490055A2AF75C936B6CF967D5
:101E70006DC11BFCE0E40D47FEF520E6B500D0ED9A
:101E8000902E0300943577050080841E0800002002
:101E90004E0A000000C80C333333330F986E1283A0
:101EA0001141EF8D2114893BE65516CFFEE6DB1874
:101EB000D1844B381BF77C1D901DA4BBE424203239
:101EC00084725E228100C9F124ECA1E53D276E6198
:101ED0006E00696E6600253033753A25733A20002E
:101EE0006E6F7420666F756E6400253033753A2509
:101EF0002D33322E3332733A2000756E6B6E6F774E
:101F00006E2074797065006E6F7420666F756E64F4
:101F10000025733A20006D697373696E67206E61E6
:101F20006D65206F722076616C7565003F3F0025FE
:101F30006400256400256C64002566002566006544
:101F40007869740068656C700044454300434F4DE8
:101F5000504153535F0000002100240027002A0055
:101F60002D003000330001010000040107010A01C7
:101F700000002200250028002B002E003100340034
:101F800002010000050108010B01000020002300F0
:101F9000260029002C002F00320000010000030160
:101FA00006010901050505050705080808080202DC
:101FB00002020A0A080804040404010101010101E3
:101FC00001010303030303030303040707070C0CC6
:101FD0000C0C0C0C0C0C020202020606060606068D
:101FE00006060B0B0B0B0B0B0B0B01021020200832
:101FF0000810204010204080020102010804020164
:1020000001020408102040808040201008040201D2
:10201000800402018040201008040201080402012B
:1020200001020408102040800102040810204080B2
:102030000000090A02080B0C0D070603040100004A
:102040000000000000000000000000000000000090
:10205000000000000000000000000000100F0E0053
:102060000000000000000000000000000000000070
:10207000000000000000494E46494E4954594E4167
:102080004ECDCCCC3D0AD7233C17B7D13877CC2BDB
:10209000329595E6241FB14F0A000020410000C888
:1020A0004200401C4620BCBE4CCA1B0E5AAEC59D09
:1020B00074004557F2B628BE4057EDB611241FBE36
:1020C000CFEFD1E2DEBFCDBF00E00CBF14E0A0E057
:1020D000B2E0EEE7FCEC01E00BBF02C007900D920E
:1020E000A03BB107D9F71BBE16E1A0EBB4E001C0DD
:1020F0001D92AA3CB107E1F710E2C8EBD0E204C0A0
:102100002297FE010E941CE6C23BD107C9F70E943C
:10211000C3DE0C9433E60C940000283008F027E06E
:102120003327DA01990F311D87FD91600096610513
:10213000710539F432602E5F3D9330E32A95E1F763
:1021400008959F3F30F080387105610509F03C5FCC
:102150003C5F3D93913008F08068911DDF93CF93F1
:102160001F930F93FF92EF92192F987F9695E92F67
:1021700096959695E90FFF27E25DF14E9927332753
:10218000EE24FF24A701E70105900894079428F4A2
:10219000360FE71EF81E491F511D660F771F881F57
:1021A000991F0694A1F70590079428F4E70EF81EEE
:1021B000491F561FC11D770F881F991F661F069460
:1021C000A1F70590079428F4F80E491F561FC71F62
:1021D000D11D880F991F661F771F0694A1F70590E0
:1021E000079420F4490F561FC71FD81F990F661F69
:1021F000771F881F0694A9F784911095177041F0F6
:10220000D695C79557954795F794E7941A95C1F7D2
:10221000E4EDFDE1689415901591359165919591E6
:1022200005907FE27395E118F10A430B560BC90B39
:10223000D009C0F7E10CF11E431F561FC91FD01D66
:102240007EF4703311F48A95E6CFE894015030F0B3
:10225000080F0AF40027021708F4202F2395022FF5
:102260007A3328F079E37D932A95E9F710C07D93BE
:102270002A9589F60694979567953795179517943B
:10228000E118F10A430B560BC90BD00998F02395BE
:102290007E9173957A3308F070E37C932013B8F73E
:1022A0007E9170617D9330F0839571E37D9370E34F
:1022B0002A95E1F71124EF90FF900F911F91CF9194
:1022C000DF91992787FD90950895FA01AA27283074
:1022D00051F1203181F1E8946F936E7F6E5F7F4FF3
:1022E0008F4F9F4FAF4FB1E03ED0B4E03CD0670F6F
:1022F000781F891F9A1FA11D680F791F8A1F911DC2
:10230000A11D6A0F711D811D911DA11D20D009F411
:1023100068943F912AE0269F11243019305D319353
:10232000DEF6CF010895462F4770405D4193B3E03C
:102330000FD0C9F7F6CF462F4F70405D4A3318F0E3
:10234000495D31FD4052419302D0A9F7EACFB4E094
:10235000A6959795879577956795BA95C9F700974C
:102360006105710508959B01AC010A2E06945795ED
:10237000479537952795BA95C9F7620F731F841F44
:10238000951FA01D0895A0E3B0E0E9ECF1E10C94E5
:10239000E3E5A8E04E010894811C911CF401BA2FDA
:1023A0001192BA95E9F729833A834B835C836D8355
:1023B0007E838F839887CE010996FC011192AA959E
:1023C000E9F7A986BA86CB86DC86ED86FE860F877E
:1023D000188B29813A814B815C812DA73EA74FA79D
:1023E00058AB79018A018FEF9FEFA0E0B0E0E822BF
:1023F000F9220A231B231A014424552429853A85EE
:102400004B855C8529A73AA74BA75CA759016A01B0
:10241000A822B922CA22DB223A0188249924C601C3
:10242000B501A80197010E9460E56DA37EA38FA36B
:1024300098A7C401B3010E9460E569A37AA38BA3A6
:102440009CA3C601B501A20191010E9460E57B0138
:102450008C01C401B3010E9460E55B016C0189A19C
:102460009AA1ABA1BCA18E0D9F1DA01FB11F89A376
:102470009AA3ABA3BCA32DA13EA14FA158A5CA010D
:10248000AA27BB2729A13AA14BA15CA1280F391F7C
:102490004A1F5B1F29A33AA34BA35CA32E153F053C
:1024A0004007510740F480E090E0A1E0B0E0A80EC2
:1024B000B91ECA1EDB1E89A19AA1ABA1BCA19D01B8
:1024C000442755272A0D3B1D4C1D5D1D2D8F3E8F2A
:1024D0004F8F58A36C01BB24AA248DA19EA1AFA14C
:1024E000B8A5A070B070A80EB91ECA1EDB1EA98EBA
:1024F000BA8ECB8EDC8E9A8C8B8C7C8C9E8D6F8D65
:1025000078A1FE01719688E0DF011D928A95E9F7B6
:102510002D8B9E8B6F8B788F2D853E854F855889AF
:102520006DA57EA58FA598A90E9460E57B018C0111
:102530002D813E814F81588569A57AA58BA59CA5E3
:102540000E9460E5E60EF71E081F191F6D897E893F
:102550008F89988D6E0D7F1D801F911F6D8B7E8BD7
:102560008F8B988FEE892A2D392D482D572D7E2F50
:102570008F89988DE096E2E10C94FFE50F931F930D
:10258000CF93DF93689F8001699F100D789F100D96
:102590001124C8010DD0EC01009721F060E070E03B
:1025A000A80173D1CE01DF91CF911F910F910895B2
:1025B000CF93DF93BC018230910510F462E070E0AC
:1025C000A091C616B091C716ED01E0E0F0E040E042
:1025D00050E021C0888199818617970769F48A8124
:1025E0009B81309719F09383828304C09093C71620
:1025F0008093C616FE0134C06817790738F4411578
:10260000510519F08417950708F4AC01FE018A8181
:102610009B819C01E9012097E9F641155105A9F13B
:10262000CA01861B970B049708F4BA01E0E0F0E0BA
:102630002AC08D919C91119784179507F9F464171E
:10264000750781F412968D919C911397309719F02C
:102650009383828304C09093C7168093C616FD01AE
:1026600032964CC0CA01861B970BFD01E80FF91F7B
:102670006193719302978D939C9340C0FD01828179
:1026800093819C01D9011097A1F68091C416909175
:10269000C516892B41F48091C2029091C302909398
:1026A000C5168093C4164091C4025091C5024115CD
:1026B000510541F44DB75EB78091C0029091C102BF
:1026C000481B590B2091C4163091C516CA01821BB4
:1026D000930B8617970780F0AB014E5F5F4F84170F
:1026E000950750F0420F531F5093C5164093C416E0
:1026F000F9016193719302C0E0E0F0E0CF01DF9156
:10270000CF910895CF93DF93009709F450C0EC0167
:1027100022971B821A82A091C616B091C7161097F5
:1027200009F140E050E0AC17BD0708F1BB83AA8374
:10273000FE0121913191E20FF31FAE17BF0779F42B
:102740008D919C911197280F391F2E5F3F4F398330
:10275000288312968D919C9113979B838A834115B0
:10276000510571F4D093C716C093C61620C01296B7
:102770008D919C911397AD01009711F0DC01D3CF9F
:10278000FA01D383C28321913191E20FF31FCE1757
:10279000DF0769F488819981280F391F2E5F3F4F29
:1027A000FA01318320838A819B8193838283DF9125
:1027B000CF91089566277727D2C21F93FC019927EE
:1027C0008827BC01E89411911032E9F3193010F018
:1027D0001E30C8F31B3249F01D3241F4689405C025
:1027E000B0D0610F711D811D911D119110531A30D0
:1027F000B8F33EF490958095709561957F4F8F4F1B
:102800009F4F1F910895FB01DC0102C005900D92BE
:1028100041505040D8F70895FB01DC018D9181347F
:102820001CF08B350CF4805E659161341CF06B35C7
:102830000CF4605E861B611189F3990B0895FB010E
:10284000DC018D91059080190110D9F3990B089541
:10285000FC0105900020E9F7809590958E0F9F1F51
:102860000895FC010590615070400110D8F78095E3
:1028700090958E0F9F1F0895FB01DC0102C001900F
:102880000D9241505040D8F70895DC0101C06D937E
:1028900041505040E0F70895FB01DC018D9101901B
:1028A00080190110D9F3990B0895FB01DC01415007
:1028B000504048F001900D920020C9F701C01D92D0
:1028C00041505040E0F70895FC0161507040019084
:1028D0000110D8F7809590958E0F9F1F089500974F
:1028E00031F4DA018D919C91009709F40EC0DC015E
:1028F000FB013D912191222319F03217C9F3FACF40
:10290000332331F4DA011D921C9288279927089508
:102910001197AF93BF93FB013D912191321771F451
:10292000332321F488279927119702C01E9211960C
:10293000FA01A193B0839F918F910895222369F7A3
:10294000EACF592F482F372F262F660F771F881F62
:10295000991F660F771F881F991F620F731F841FAF
:10296000951F660F771F881F991F0895AEE0B0E08E
:10297000ECEBF4E10C94F1E58C0177FF02C060E030
:1029800070E8615070407E836D831A83098386E00E
:102990008C83CE010196BA01A90111D02D813E810F
:1029A00037FD09C0EF81F8852E173F070CF4F901B8
:1029B000E00FF11F10822E96E4E00C940DE6ABE0E0
:1029C000B0E0E5EEF4E10C94E3E53C012B015A01A3
:1029D000FC0117821682838181FD03C06FEF7FEFB8
:1029E000B9C19AE0892E1E010894211C311CF30103
:1029F0002381F20123FD859123FF81912F018823FB
:102A000009F4A5C1853239F423FD859123FF819115
:102A10002F01853221F490E0B30116D3E8CF982F2F
:102A2000FF24EE249924FFE1FF15D0F09B3269F0DA
:102A30009C3228F4903259F0933291F40EC09D32BA
:102A400049F0903369F441E024C052E0F52A84E073
:102A5000F82A28C098E0F92A25C0E0E1FE2A22C021
:102A6000F7FC29C0892F80538A3070F4F6FE05C028
:102A7000989C902C1124980E15C0E89CE02C1124F1
:102A8000E80EF0E2FF2A0EC09E3229F4F6FC5FC188
:102A900040E4F42A07C09C3619F450E8F52A02C035
:102AA000983649F4F20123FD959123FF91912F016E
:102AB000992309F0B8CF892F8554833018F08052BC
:102AC000833038F444E050E0A40EB51E5FE3598330
:102AD0000FC0933631F0933779F0933509F052C037
:102AE0001FC0F5018081898342E050E0A40EB51E2D
:102AF000610101E010E011C0F501C080D180F6FC59
:102B000003C06FEF7FEF02C0692D70E042E050E03C
:102B1000A40EB51EC601D8DE8C015FE7F52213C0F6
:102B2000F501C080D180F6FC03C06FEF7FEF02C0DB
:102B3000692D70E042E050E0A40EB51EC60191DEA2
:102B40008C0150E8F52AF3FE06C018C080E290E040
:102B5000B3017AD2EA948E2D90E008171907B0F3EA
:102B60000DC0F601F7FC8591F7FE81916F0190E0B1
:102B7000B3016AD2E110EA94015010400115110529
:102B800081F7E2C0943611F0993661F5F7FE08C07E
:102B9000F501208131814281538184E090E00AC0B7
:102BA000F501808191819C01442737FD4095542F88
:102BB00082E090E0A80EB91E9FE6F92257FF09C0F7
:102BC00050954095309521953F4F4F4F5F4FE0E82E
:102BD000FE2ACA01B901A1012AE030E076DBD82E35
:102BE000D2183FC0953729F41F2D1F7E2AE030E010
:102BF0001DC01F2D197F9F3661F0903720F4983546
:102C000009F0A5C00FC0903739F0983709F09FC080
:102C100004C028E030E00AC0106114FD146020E117
:102C200030E004C014FD166020E132E017FF08C058
:102C3000F501608171818281938144E050E008C098
:102C4000F50180819181BC0180E090E042E050E09C
:102C5000A40EB51EA10139DBD82ED2188FE7F82EAD
:102C6000F122F6FE0BC05EEFF522D91438F4F4FE23
:102C700007C0F2FC05C08FEEF82202C01D2D01C076
:102C8000192DF4FE0DC0FE01ED0DF11D8081803384
:102C900019F499EEF92208C01F5FF2FE05C003C0C7
:102CA0008F2D867809F01F5F0F2DF3FC13C0F0FE07
:102CB0000EC01E1510F09D2C0AC09D2C9E0C911A62
:102CC0001E2D05C080E290E0B301BED11F5F1E152E
:102CD000C8F304C01E1510F4E11A01C0EE2404FF6D
:102CE0000EC080E390E0B301AFD102FF1BC001FD35
:102CF00003C088E790E00EC088E590E00BC0802F0D
:102D0000867881F001FF02C08BE201C080E2F7FC0F
:102D10008DE290E0B30198D105C080E390E0B3016B
:102D200093D19A94D914C8F3DA94F101ED0DF11D01
:102D3000808190E0B30188D1DD20B1F705C080E249
:102D400090E0B30181D1EA94EE20C9F750CEF301AF
:102D500066817781CB012B96E2E10C94FFE5A0E040
:102D6000B0E0E5EBF6E10C94E9E5EC015B016115FF
:102D7000710519F0FB0191838083F9908F2D90E00C
:102D80000E9428E6892BC9F7FDE2FF1621F4F9908D
:102D9000EE24E39405C02BE2F21609F4F990EE2438
:102DA0008E0101501040C80166E770E243E050E038
:102DB00033D1892BF9F48E010E5F1F4FC80169E7EB
:102DC00070E245E050E028D1892B19F48E01095FAB
:102DD0001F4FA114B10419F0F50111830083E0FC29
:102DE00004C070E090E080E813C070E090E080E8FC
:102DF0006FEF07C1C8016EE770E243E050E00CD10D
:102E0000892B69F4A114B10429F470E090E080ECFE
:102E10006FE7F7C02296F501D183C083F6CF8824EF
:102E2000992440E050E060E070E0EF2DE053EA309C
:102E3000A0F5F2E0EF2A8E2D90E09C012870307012
:102E4000E2FE06C0232B79F50894811C911C2BC04F
:102E5000232B19F0089481089108DB01CA0112E0C4
:102E6000880F991FAA1FBB1F1A95D1F7480F591F2A
:102E70006A1F7B1F440F551F661F771F4E0F511D82
:102E8000611D711D483929E9520729E9620729E1C5
:102E9000720748F084E0E82A06C0EE3F31F4E3FC14
:102EA00039C098E0E92AF990C0CFE53311F0E53157
:102EB00089F529912D3219F4E0E1EE2A05C02B3273
:102EC00019F081E090E003C0299182E090E0E22FC8
:102ED000E053EA3018F0C81BD90B1CC020E030E0EA
:102EE000FCE020383F075CF4C901880F991F880F68
:102EF000991F280F391F220F331F2E0F311DE99103
:102F0000E053EA3068F3E4FE03C0309521953F4F6B
:102F1000820E931ECE2CDD24E1FE07C0A114B10465
:102F200021F02197F501D183C083CB01BA010E9422
:102F300030E27B018C01F3E0CF22DD2423E0C216D6
:102F4000D10421F417FB109517F91095570168016A
:102F5000C801B70120E030E040E050E00E9490E17D
:102F6000882309F44AC097FE0DC025E9E22E20E22D
:102F7000F22E9094819491089394C0E2D0E000E006
:102F800010E012C09DEAE92E90E2F92EF6CFF7018B
:102F90002591359145915491C601B5010E94A3E355
:102FA0005B016C018C1A9D0A8C169D0684F7D595E1
:102FB000C7950F5F1F4F0630110529F08CEF9FEF6B
:102FC000E80EF91EF1CFC501D6017C018D018C2DD3
:102FD000880F8D2D881F8F3F51F0C601B50120E06D
:102FE00030E040E050E00E9490E1882331F482E23A
:102FF00090E09093C9168093C8167E2D9F2D802F48
:10300000612F272F392F482F562FB901CA01CDB76D
:10301000DEB7ECE00C9405E6FB01DC0141505040CA
:1030200088F08D9181341CF08B350CF4805E6591B5
:1030300061341CF06B350CF4605E861B611171F31A
:10304000990B0895881BFCCF0F931F93CF93DF93A9
:103050008C01EB018B8181FF1BC082FF0DC02E8193
:103060003F818C819D812817390764F4E881F981BB
:103070000193F983E88306C0E885F985802F1995C7
:10308000892B31F48E819F8101969F838E8302C0AC
:103090000FEF1FEFC801DF91CF911F910F9108959E
:1030A0009C01F999FECF32BD21BDF89A60B5F9991E
:1030B000FECF2F5F3F4F32BD21BD21503040F89AE7
:1030C00070B5F999FECF2E5F3F4F32BD21BD225022
:1030D0003040F89A80B5F999FECF2D5F3F4F32BD51
:1030E00021BDF89A90B508959C01F999FECF1FBAB9
:1030F00032BD21BD40BD0FB6F894FA9AF99A0FBEC1
:10310000F999FECF1FBA2F5F3F4F32BD21BD21502D
:10311000304050BD0FB6F894FA9AF99A0FBEF9995B
:10312000FECF1FBA2E5F3F4F32BD21BD225030402F
:1031300060BD0FB6F894FA9AF99A0FBEF999FECFCE
:103140001FBA2D5F3F4F32BD21BD70BD0FB6F89441
:10315000FA9AF99A0FBE0895CF93DF93FC01EB0121
:103160004230510570F0638574858585968520E031
:1031700030E040E854E40E94A3E30E9404E2798333
:10318000688382E090E0DF91CF910895CF93DF9341
:10319000EC01FB014230510518F420E030E012C090
:1031A0006081718180E090E00E9430E220E030E0B8
:1031B00040E85AE30E94A3E36B877C878D879E8754
:1031C00022E030E0C901DF91CF910895089508957C
:1031D000089560E070E080E090E0089560E070E0C5
:1031E00080E090E0089560E070E080E090E0089575
:1031F00060E070E080E090E0089560E070E080E0E2
:1032000090E0089560E070E080E090E00895DC01D7
:10321000FB0187818C93868111968C931197858110
:1032200012968C931297848113968C9313978381B3
:1032300014968C931497828115968C93159781819F
:1032400016968C931697808117968C9308951F92EB
:103250000F920FB60F920BB60F9211242F933F933C
:103260004F938F939F93EF93FF934091C6002091CC
:103270008814309189142F5F3F4F80918C14909166
:103280008D142823392380918A1490918B14281748
:10329000390779F08091881490918914E0918E1407
:1032A000F0918F14E80FF91F408330938914209315
:1032B0008814FF91EF919F918F914F913F912F91A2
:1032C0000F900BBE0F900FBE0F901F9018951F927E
:1032D0000F920FB60F920BB60F9211242F933F93BC
:1032E0008F939F93EF93FF932091AA143091AB1487
:1032F0008091A8149091A91428173907E9F08091BA
:10330000AA149091AB14E091AE14F091AF14E80FB1
:10331000F91F80818093C6008091AA149091AB140C
:1033200001962091AC143091AD1482239323909395
:10333000AB148093AA1410C02091A8143091A91442
:103340008091AA149091AB142817390729F4809121
:10335000C1008F7D8093C100FF91EF919F918F916C
:103360003F912F910F900BBE0F900FBE0F901F90AB
:1033700018951F920F920FB60F920BB60F92112451
:103380002F933F934F938F939F93EF93FF9340918E
:10339000CE0020919014309191142F5F3F4F809177
:1033A000941490919514282339238091921490912C
:1033B00093142817390779F0809190149091911403
:1033C000E0919614F0919714E80FF91F4083309321
:1033D000911420939014FF91EF919F918F914F91B1
:1033E0003F912F910F900BBE0F900FBE0F901F902B
:1033F00018951F920F920FB60F920BB60F921124D1
:103400002F933F938F939F93EF93FF932091B21449
:103410003091B3148091B0149091B11428173907EA
:10342000E9F08091B2149091B314E091B614F09148
:10343000B714E80FF91F80818093CE008091B214F9
:103440009091B31401962091B4143091B514822355
:1034500093239093B3148093B21410C02091B014AE
:103460003091B1148091B2149091B3142817390798
:1034700029F48091C9008F7D8093C900FF91EF915D
:103480009F918F913F912F910F900BBE0F900FBE88
:103490000F901F9018951F920F920FB60F920BB6B8
:1034A0000F9211242F933F934F938F939F93EF93FA
:1034B000FF93409136012091A0143091A1142F5F09
:1034C0003F4F8091A4149091A51428233923809113
:1034D000A2149091A3142817390779F08091A014B1
:1034E0009091A114E091A614F091A714E80FF91F90
:1034F00040833093A1142093A014FF91EF919F91EA
:103500008F914F913F912F910F900BBE0F900FBE57
:103510000F901F9018951F920F920FB60F920BB637
:103520000F9211242F933F938F939F93EF93FF93C9
:103530002091C2143091C3148091C0149091C11491
:1035400028173907E9F08091C2149091C314E091D3
:10355000C614F091C714E80FF91F808180933601DB
:103560008091C2149091C31401962091C41430919B
:10357000C514822393239093C3148093C21410C064
:103580002091C0143091C1148091C2149091C31441
:103590002817390729F4809131018F7D80933101FB
:1035A000FF91EF919F918F913F912F910F900BBEC3
:1035B0000F900FBE0F901F9018956091B7087091F3
:1035C000B8088091B9089091BA080E94FFE19B0168
:1035D0006031710534F0CB0164E670E00E947FE554
:1035E0009C0180E0275F3F4F2331310508F081E0E7
:1035F00008956091B7087091B8088091B9089091CA
:10360000BA080E94FFE19B016739710534F0CB01D4
:1036100068EE73E00E947FE59C0180E02D593F4FEA
:10362000273C310508F081E008954F925F926F9238
:103630007F928F929F92AF92BF92CF92DF92EF9242
:10364000FF920F931F93DF93CF93CDB7DEB72F97E2
:103650000FB6F894DEBF0FBECDBF9A2DA982EB2D19
:10366000BA82FC2DCB82DC82ED82FE820F8318872A
:1036700029873A874B875C876D877E878F874C8148
:103680005D816E817F81A884B984CA84DB844C8487
:103690005D846E847F8497FE03C020E030E00BC021
:1036A0008091DF08A82FBB27A7FDB0959401A8152E
:1036B000B9050CF49D01890184E0000F111F8A9562
:1036C000E1F7021B130B00501C4FE0FD02C0E0E0CD
:1036D00006C0E0E0232B09F4E1E081E0E827F99956
:1036E000FECF1FBA12BD01BD90BD0FB6F894FA9A75
:1036F000F99A0FBEC801AA2797FDA095BA2F019687
:10370000A11DB11DF999FECF1FBA92BD81BDE0BDCB
:103710000FB6F894FA9AF99A0FBE7C018D010894BD
:10372000E11CF11C011D111DF999FECF1FBAF2BC5D
:10373000E1BCF0BD0FB6F894FA9AF99A0FBE08945E
:10374000E11CF11C011D111DC701CEDC84E090E0DD
:10375000A0E0B0E0E80EF91E0A1F1B1FC701B6016A
:10376000A501C2DC84E090E0A0E0B0E0E80EF91E24
:103770000A1F1B1FC701B301A201B6DC2F960FB6AB
:10378000F894DEBF0FBECDBFCF91DF911F910F9197
:10379000FF90EF90DF90CF90BF90AF909F908F9071
:1037A0007F906F905F904F900895AF92BF92CF92AD
:1037B000DF92EF92FF920F931F93DF93CF93CDB7DA
:1037C000DEB728970FB6F894DEBF0FBECDBF9C01C1
:1037D00080911B09992787FD90958217930740F4E4
:1037E000AA24BB24650180E090E0A0E0B0E01EC008
:1037F00024513E4F93E0220F331F9A95E1F7790150
:1038000000E010E0C9014CDCAC01CB01DA015C0145
:103810006D0184E090E0A0E0B0E0E80EF91E0A1F20
:103820001B1FC7013DDCAC01CB01DA01A982BA82C2
:10383000CB82DC828D839E83AF83B8872A2D3A8129
:103840004B815C81682F7E818F81988528960FB689
:10385000F894DEBF0FBECDBFCF91DF911F910F91C6
:10386000FF90EF90DF90CF90BF90AF900895EF92D0
:10387000FF920F931F938091E002882329F4809197
:10388000250B813009F0E2C0E0903305F09034055B
:103890000091350510913605809193129091941204
:1038A000A0919512B09196128E199F09A00BB10BA1
:1038B000813526E4920720E0A20720E0B2072CF031
:1038C000805A9C48A040B0400CC0803B69EB9607F2
:1038D0006FEFA6076FEFB60724F480569347AF4FFC
:1038E000BF4F8093FA139093FB13A093FC13B093F4
:1038F000FD13209197123091981240919912509196
:103900009A12DA01C9018E199F09A00BB10B8135FA
:1039100006E4900700E0A00700E0B0072CF0805A12
:103920009C48A040B0400CC0803B19EB91071FEFB2
:10393000A1071FEFB10724F480569347AF4FBF4F45
:103940008093FE139093FF13A0930014B09301147F
:10395000E0918912F0918A12848D958DA68DB78D94
:1039600079018A01E81AF90A0A0B1B0BD801C70171
:10397000813506E4900700E0A00700E0B0072CF0D6
:10398000805A9C48A040B04054C0803B19EB91073E
:103990001FEFA1071FEFB1070CF04BC080569347F4
:1039A000AF4FBF4F46C0805A9C48A040B0400CC0AB
:1039B000803B69EB96076FEFA6076FEFB60724F41D
:1039C00080569347AF4FBF4F8093FA139093FB13EA
:1039D000A093FC13B093FD138091971290919812CD
:1039E000A0919912B0919A12821B930BA40BB50B64
:1039F000813506E4900700E0A00700E0B0072CF056
:103A0000805A9C48A040B0400CC0803B19EB910705
:103A10001FEFA1071FEFB10724F480569347AF4F64
:103A2000BF4F8093FE139093FF13A0930014B093A5
:103A300001148093021490930314A0930414B09380
:103A400005141F910F91FF90EF900895E091891256
:103A5000F0918A12248D358D468D578D8091931269
:103A600090919412A0919512B0919612821B930B93
:103A7000A40BB50B813566E4960760E0A60760E00D
:103A8000B6070CF090CF94CF2091D80B3091D90B82
:103A90008091FA0B9091FB0B281B390B25363105D1
:103AA0001CF08AE08093F5122C593F4F1CF486EFEE
:103AB0008093F5128091F51218161CF481508093B2
:103AC000F5128091F51287FF03C08F5F8093F51286
:103AD0008091F512813019F08F3F09F080E0089550
:103AE000CF93DF93FC01EB014430510540F0838517
:103AF0009485A585B68588839983AA83BB8384E052
:103B000090E0DF91CF910895CF93DF93EC01FB011B
:103B10004430510540F080819181A281B3818B872F
:103B20009C87AD87BE8784E090E0DF91CF910895B8
:103B3000FC0163857485858596850C9432E2FC01D1
:103B4000DB01452B11F083858C9381E090E0089593
:103B5000DC01FB01452B19F080811B968C9381E0E1
:103B600090E00895FC016385772767FD7095872FA6
:103B7000972F0C9432E2FC01DB014230510520F01A
:103B8000838594858D939C9382E090E00895DC0179
:103B9000FB014230510530F0808191811C969C934D
:103BA0008E931B9782E090E00895FC0163857485F5
:103BB000882777FD8095982F0C9432E2FC012385AD
:103BC000348545855685B901CA010895CF93DF93A1
:103BD000FC01EB014430510540F083859485A585B7
:103BE000B68588839983AA83BB8384E090E0DF91C4
:103BF000CF910895CF93DF93EC01FB014430510541
:103C000040F080819181A281B3818B879C87AD87B1
:103C1000BE8784E090E0DF91CF910895EF92FF920C
:103C20000F931F937A018B01863251F1873234F45E
:103C3000893069F0833109F056C016C08F36C1F162
:103C4000833709F443C0893309F04DC025C080EBA8
:103C500094E06DE97DE10E94EAA770E8E72E75E245
:103C6000F72E012D112D45C080EB94E061E97DE137
:103C70000E94EAA7E12C6BE4F62E012D112D39C02C
:103C800080EB94E065E87DE10E94EAA7E12C56E92B
:103C9000F52E012D112D2DC080EB94E069E77DE11B
:103CA0000E94EAA7E12C41EEF42E012D112D21C036
:103CB00080EB94E06DE67DE10E94EAA73CEFE32E05
:103CC00031EBF32E31E0032F112D13C080EB94E084
:103CD00061E67DE10E94EAA7E12C22ECF22E21E0D0
:103CE000022F112D06C080EB94E06CE47DE10E9470
:103CF000EAA7B701C8011F910F91FF90EF900895B7
:103D000000D00F9280EB94E0EDB7FEB792838183F1
:103D100087E195E0948383830E94CAA70F900F9058
:103D20000F900F90089500D00F9280EB94E0EDB7C4
:103D3000FEB79283818380EC97E0948383830E9413
:103D4000CAA70F900F900F900F9080E0089500D0B9
:103D50000F9280EB94E0EDB7FEB79283818387E802
:103D600099E0948383830E94CAA780E090E00F903B
:103D70000F900F900F90F999FECF1FBA92BD81BDA1
:103D800010BC0FB6F894FA9AF99A0FBE0196F0E1BA
:103D900080309F0781F700D00F9280EB94E0EDB761
:103DA000FEB79283818381E899E0948383830E94A4
:103DB000CAA70F900F900F900F9008950F931F9325
:103DC0008DB79EB70A970FB6F8949EBF0FBE8DBFF2
:103DD000EDB7FEB7319600EB14E0ADB7BEB7129663
:103DE0001C930E93119780E39AE0938382838091D2
:103DF000ED0B9091EE0B958384838091FA0B90915B
:103E0000FB0B978386838091070C9091080C918718
:103E100080870E94CAA7EDB7FEB73196ADB7BEB78F
:103E200012961C930E9311978DE19AE093838283EF
:103E300080914C0C90914D0C958384838091590C0A
:103E400090915A0C978386838091660C9091670CB1
:103E5000918780870E94CAA7EDB7FEB73196ADB7AC
:103E6000BEB712961C930E9311978AE09AE0938343
:103E700082838091AB0C9091AC0C9583848380916C
:103E8000B80C9091B90C978386838091C50C909162
:103E9000C60C918780870E94CAA7EDB7FEB73196FE
:103EA000ADB7BEB712961C930E93119787EF99E0AA
:103EB0009383828380910A0D90910B0D9583848367
:103EC0008091170D9091180D978386838091240D12
:103ED0009091250D918780870E94CAA7EDB7FEB704
:103EE0003196ADB7BEB712961C930E93119784EE20
:103EF00099E0938382838091690D90916A0D9583F7
:103F000084838091760D9091770D9783868380913D
:103F1000830D9091840D918780870E94CAA7EDB789
:103F2000FEB73196ADB7BEB712961C930E9311979C
:103F300081ED99E0938382838091EE0D9091EF0D56
:103F4000958384838091FB0D9091FC0D97838683EC
:103F50008091080E9091090E918780870E94CAA7D0
:103F6000EDB7FEB73196ADB7BEB712961C930E9360
:103F700011978EEB99E0938382838091730E9091D9
:103F8000740E958384838091800E9091810E978327
:103F9000868380918D0E90918E0E918780870E94EE
:103FA000CAA7EDB7FEB73196ADB7BEB712961C9350
:103FB0000E9311978BEA99E0938382838091F80E98
:103FC0009091F90E958384838091050F9091060F4F
:103FD000978386838091120F9091130F918780872A
:103FE0000E94CAA78DB79EB70A960FB6F8949EBFD7
:103FF0000FBE8DBF1F910F910895CF93DF93FC01EA
:104000008DB79EB744970FB6F8949EBF0FBE8DBF75
:104010002DB73EB72F5F3F4F80EB94E0ADB7BEB7F3
:1040200012969C938E93119785E39BE0E9019B8305
:104030008A8386899789A08DB18D8C839D83AE8379
:10404000BF8385A196A1A7A1B0A588879987AA87D4
:10405000BB8784A995A9A6A9B7A98C879D87AE8798
:10406000BF87ED5BFF4F80819181AA2797FDA095C7
:10407000BA2FF901808B918BA28BB38B0E94CAA7B8
:104080008DB79EB744960FB6F8949EBF0FBE8DBFF6
:10409000DF91CF9108958DB79EB740970FB6F894F2
:1040A0009EBF0FBE8DBFEDB7FEB7319680EB94E09B
:1040B000ADB7BEB712969C938E93119781EF9BE09C
:1040C0009383828380E090E0A0E0B0E084839583D6
:1040D000A683B78380879187A287B38784879587D4
:1040E000A687B7870E94CAA78DB79EB740960FB61E
:1040F000F8949EBF0FBE8DBF08958DB79EB74097B1
:104100000FB6F8949EBF0FBE8DBFEDB7FEB73196C8
:1041100080EB94E0ADB7BEB712969C938E93119747
:1041200084E19CE09383828380E090E0A0E0B0E0B3
:1041300084839583A683B78380879187A287B3877B
:1041400084879587A687B7870E94CAA78DB79EB731
:1041500040960FB6F8949EBF0FBE8DBF089520EB1A
:1041600034E0882349F000D00F92EDB7FEB73283D8
:1041700021838FE99CE008C000D00F92EDB7FEB715
:10418000328321838BE99CE0948383830E94CAA7B6
:1041900080EB94E0EDB7FEB79283818384E99CE0E5
:1041A000948383830E94CAA70F900F900F900F9063
:1041B000089500D00F9280EB94E0EDB7FEB79283A4
:1041C000818380E49DE0948383830E94CAA70F903B
:1041D0000F900F900F900895CF93DF93C0EBD4E032
:1041E000CE016FE674E00E94EAA789EF94E00E9496
:1041F000C2C3882331F4CE0164E574E00E94EAA7CB
:1042000083C089EF94E00E9468C52DB73EB728505F
:1042100030400FB6F8943EBF0FBE2DBFEDB7FEB7CE
:104220003196ADB7BEB71296DC93CE9311978DE25F
:1042300094E09383828380910A0584831582809120
:104240000B0590910C05978386830E94CAA7EDB752
:10425000FEB73196ADB7BEB71296DC93CE931197E9
:1042600081E194E09383828380910F059091100502
:1042700001969583848380910D0590910E05978317
:1042800086830E94CAA72DB73EB7285F3F4F0FB65F
:10429000F8943EBF0FBE2DBF60910F0570911005C1
:1042A0006F5F7F4F89EF94E00E94ADBF89EF94E08C
:1042B0000E94BDC0ADB7BEB71C970FB6F894BEBF85
:1042C0000FBEADBFEDB7FEB731961296DC93CE931D
:1042D00011972EED33E033832283648375838683C5
:1042E000978381E190E2A2E1B8E280879187A2877B
:1042F000B3870E94CAA72DB73EB7245F3F4F0FB6C2
:10430000F8943EBF0FBE2DBF80E0DF91CF9108959E
:104310008091660A882309F447C080910901881FAB
:104320008827881F8093720A882309F56CB1661F5D
:104330006627661F8DEC9BE00E942ED26CB170E068
:10434000B6E076956795BA95E1F761708CE29CE0EE
:104350000E942ED26091090170E0A6E076956795E3
:10436000AA95E1F761708AEE9CE00C942ED28CB194
:1043700010927E0A87FF03C081E080937E0A8CB191
:1043800090E0F6E096958795FA95E1F78170809335
:104390008A0A8091090190E0E6E096958795EA9572
:1043A000E1F781708093960A0895CF92DF92EF92A1
:1043B000FF920F931F93CF93DF93A2DC68EE73E01D
:1043C00080E090E00E94D8DC8091660A882331F476
:1043D00080EB94E063EF74E00E94EAA709E8C02E46
:1043E00004E0D02E1BEBE12E14E0F12EC0EBD4E064
:1043F00064E670E080E090E00E94D8DC89DF809184
:10440000720A882349F58DEC9BE00E9438D2082F70
:104410008CE29CE00E9438D2182F8AEE9CE00E9429
:1044200038D22DB73EB72A5030400FB6F8943EBF71
:104430000FBE2DBFEDB7FEB73196ADB7BEB7129622
:10444000DC93CE931197F382E28204831582168364
:1044500017828087118628C08DB79EB70A970FB63E
:10446000F8949EBF0FBE8DBFEDB7FEB73196ADB7C6
:10447000BEB71296DC93CE931197D382C2828091FD
:104480007E0A992787FD90959583848380918A0A77
:10449000992787FD9095978386838091960A99271F
:1044A00087FD9095918780870E94CAA72DB73EB758
:1044B000265F3F4F0FB6F8943EBF0FBE2DBF80EB77
:1044C00094E00E944BA8181619060CF091CF80E0DA
:1044D000DF91CF911F910F91FF90EF90DF90CF90E0
:1044E00008956091DF09615087EE94E00E94A6BBB9
:1044F0009C018F5893408B59944010F08FEF089592
:10450000C9018F5C94408238910510F481E00895D0
:10451000C901815595408238910510F482E00895D3
:10452000C901835D95408238910510F483E00895B8
:10453000C901855596408138910510F484E00895AD
:10454000265D364010F480E0089585E00895FF92DE
:104550000F931F93CF93DF93D3DB68EE73E080E07C
:1045600090E00E94D8DC00D00F9200EB14E0ADB7D1
:10457000BEB712961C930E93119789E395E014969B
:104580009C938E9313970E94CAA70F900F900F9041
:104590000F90C80168E070E04AE050E00E9430E00F
:1045A000CCE2D5E0F02E012F64E170E080E090E0F5
:1045B0000E94D8DC96DF182F809103088117E1F064
:1045C00000D000D0EDB7FEB73196ADB7BEB71196AB
:1045D000FC92119712960C93D383C2831483158295
:1045E0000E94CAA710930308EDB7FEB736960FB620
:1045F000F894FEBF0FBEEDBF80EB94E00E944BA885
:10460000181619068CF680E0DF91CF911F910F915B
:10461000FF90089580910F09882361F06091270928
:10462000662341F0615087EE94E00E94A6BB885E4D
:10463000934058F4E091F312F091F412309711F492
:1046400080E00895128280E00895E0918912F0914F
:104650008A1280A58823C1F381E00895AF92BF92AA
:10466000CF92DF92EF92FF920F931F93CF93DF933E
:104670002BE4A22E25E0B22E95E4C92E95E0D92E8A
:1046800000E010E080EBE82E84E0F82E00D000D0AF
:10469000EDB7FEB73196ADB7BEB71296FC92EE926B
:1046A0001197B382A282158304830E94CAA7C0E037
:1046B000D0E08DB79EB706960FB6F8949EBF0FBE9A
:1046C0008DBFF999FECFCE01800F911F92BD81BDA4
:1046D000F89A80B500D000D0EDB7FEB73196ADB7EF
:1046E000BEB71296FC92EE921197D382C282848357
:1046F00015820E94CAA721968DB79EB706960FB65F
:10470000F8949EBF0FBE8DBFC031D105D1F6C70151
:104710000E9412E0005F1F4F90E10030190709F07E
:10472000B5CF80E0DF91CF911F910F91FF90EF9077
:10473000DF90CF90BF90AF90089500D00F9280EBA4
:1047400094E0EDB7FEB79283818386E299E094838B
:1047500083830E94CAA70F900F900F900F9080EB59
:1047600094E00E947BA8FFEF8F3F9F07C1F389373A
:10477000910529F08935910511F08FEF0895E7DA59
:1047800080E00895BDDA68EE73E080E090E00E947A
:10479000D8DC00D00F9280EB94E0EDB7FEB79283A7
:1047A000818381E595E0948383830E94CAA70F905B
:1047B0000F900F900F9084ED94E00E944BA8892BEE
:1047C00049F084ED94E00E947BA8682F84ED94E08A
:1047D0000E94DAA880EB94E00E944BA818161906F4
:1047E00054F780E00895EF92FF920F931F93CF93B9
:1047F000DF93EC018091DF08992787FD909586175C
:1048000097073CF48FE0DE011D928A95E9F7188244
:1048100059C0FB0134E0EE0FFF1F3A95E1F7E61BAC
:10482000F70BE050FC4FF999FECFF2BDE1BDF89ACD
:1048300080B588839F01442737FD4095542F2F5F13
:104840003F4F4F4F5F4FF999FECF32BD21BDF89AD0
:1048500080B5898379018A010894E11CF11C011D4E
:10486000111DF999FECFF2BCE1BCF89A80B58A839C
:104870000894E11CF11C011D111DC7010E94501874
:104880006B837C838D839E8384E090E0A0E0B0E026
:10489000E80EF91E0A1F1B1FC7010E9450186F83E4
:1048A000788789879A8784E090E0A0E0B0E0E80EFE
:1048B000F91E0A1F1B1FC7010E9450186B877C87B7
:1048C0008D879E8788818F3510F08137B9F4898173
:1048D00080FF14C08B819C81AD81BE812091BF116E
:1048E0003091C0114091C1115091C211820F931F9C
:1048F000A41FB51F8B839C83AD83BE83CE01DF9144
:10490000CF911F910F91FF90EF9008958F929F92FA
:10491000AF92BF92DF92EF92FF920F931F93DF93BC
:10492000CF93CDB7DEB72F970FB6F894DEBF0FBE8B
:10493000CDBF68EE73E080E090E00E94D8DC20916B
:10494000FC0A3091FD0A80EB94E037FF15C000D0DF
:104950000F92ADB7BEB712969C938E93119780ECD1
:1049600095E014969C938E9313970E94CAA70F907C
:104970000F900F900F9020C000D000D0EDB7FEB781
:104980003196ADB7BEB712969C938E9311978AEA73
:1049900095E093838283C90164E670E00E947FE51D
:1049A000758364830E94CAA7EDB7FEB736960FB62B
:1049B000F894FEBF0FBEEDBF00D000D0EDB7FEB73C
:1049C000319600EB14E0ADB7BEB712961C930E9370
:1049D00011978CE995E0938382838091DF08992772
:1049E00087FD9095958384830E94CAA7EDB7FEB793
:1049F0003196ADB7BEB712961C930E9311978CE803
:104A000095E0938382838091F708992787FD90959D
:104A1000958384830E94CAA7EDB7FEB73196ADB7E0
:104A2000BEB712961C930E93119788E795E0938377
:104A3000828380910309992787FD909595838483CC
:104A40000E94CAA747ED842E45E0942EFF24EDB7BF
:104A5000FEB736960FB6F894FEBF0FBEEDBF5E01EF
:104A60000894A11CB11CD02EE12E45C0C501B8018F
:104A7000BADE8DB79EB748970FB6F8949EBF0FBEAB
:104A80008DBFEDB7FEB73196ADB7BEB71196DC92CC
:104A900011971296EC929382828215830483898106
:104AA000868317828A81808711868B81828713860D
:104AB0008C819D81AE81BF8184879587A687B787CA
:104AC00088859985AA85BB85808B918BA28BB38BBA
:104AD0008C859D85AE85BF85848B958BA68BB78B8A
:104AE0000E94CAA7F394EDB7FEB778960FB6F89474
:104AF000FEBF0FBEEDBF0F2D10E08091DF0899279C
:104B000087FD9095801791070CF0B0CF80E02F962D
:104B10000FB6F894DEBF0FBECDBFCF91DF911F91CE
:104B20000F91FF90EF90DF90BF90AF909F908F908C
:104B30000895EF92FF920F931F93CF93DF93E0D8E6
:104B400068EE73E080E090E00E94D8DC5EE1E52E44
:104B500056E0F52E03E116E0C0EBD4E000D00F9252
:104B6000EDB7FEB7D283C183F482E3820E94CAA765
:104B70000F900F900F900F9085E098E00E9429D73A
:104B800068EB7BE080E090E00E94D8DCCE010E94E0
:104B90004BA818161906F4F000D00F92EDB7FEB727
:104BA000D283C183148303830E94CAA70F900F90FE
:104BB0000F900F9085E098E00E942FD768EB7BE084
:104BC00080E090E00E94D8DCCE010E944BA818162D
:104BD000190624F680E0DF91CF911F910F91FF908D
:104BE000EF900895EF92FF920F931F9380E00E9441
:104BF00093DDAA2797FDA095BA2FBC01CD010E9495
:104C000032E27B018C016091680B7091690B80919D
:104C10006A0B90916B0B20E030E040E85AE30E9471
:104C2000A3E39B01AC01C801B7010E94A3E320915B
:104C30004A0B30914B0B40914C0B50914D0B0E9405
:104C4000A3E32DEC3CEC4CEC5DE30E94A3E37B0181
:104C50008C016091C7027091C8028091C902909145
:104C6000CA0226E636E646E65FE30E94A3E39B011E
:104C7000AC01C801B7010E94CAE06093C7027093FB
:104C8000C8028093C9029093CA0281E00E9493DD1A
:104C9000AA2797FDA095BA2FBC01CD010E9432E250
:104CA0007B018C016091680B7091690B80916A0B9C
:104CB00090916B0B20E030E040E85AE30E94A3E3C0
:104CC0009B01AC01C801B7010E94A3E320914A0BEC
:104CD00030914B0B40914C0B50914D0B0E94A3E334
:104CE0002DEC3CEC4CEC5DE30E94A3E37B018C01DA
:104CF0006091CB027091CC028091CD029091CE0256
:104D000026E636E646E65FE30E94A3E39B01AC019C
:104D1000C801B7010E94CAE06093CB027093CC0235
:104D20008093CD029093CE0282E00E9493DDAA2769
:104D300097FDA095BA2FBC01CD010E9432E27B0104
:104D40008C016091680B7091690B80916A0B909156
:104D50006B0B20E030E040E85AE30E94A3E39B01A4
:104D6000AC01C801B7010E94A3E320914A0B309126
:104D70004B0B40914C0B50914D0B0E94A3E32DEC3B
:104D80003CEC4CEC5DE30E94A3E37B018C01609161
:104D9000CF027091D0028091D1029091D20226E68A
:104DA00036E646E65FE30E94A3E39B01AC01C8013F
:104DB000B7010E94CAE06093CF027093D002809343
:104DC000D1029093D20283E00E9493DDAA2797FD3F
:104DD000A095BA2FBC01CD010E9432E27B018C016B
:104DE0006091680B7091690B80916A0B90916B0BCD
:104DF00020E030E040E85AE30E94A3E39B01AC01CD
:104E0000C801B7010E94A3E320914A0B30914B0BDC
:104E100040914C0B50914D0B0E94A3E32DEC3CECC8
:104E20004CEC5DE30E94A3E37B018C016091D30213
:104E30007091D4028091D5029091D60226E636E692
:104E400046E65FE30E94A3E39B01AC01C801B70102
:104E50000E94CAE07B018C01CB01D8018093D30270
:104E60009093D402A093D502B093D60220913E0B2A
:104E7000213049F48091CF029091D002A091D102CB
:104E8000B091D20204C0223059F4C701D8018093F6
:104E9000D7029093D802A093D902B093DA0290C0BF
:104EA000233019F0243009F08BC08091C702909113
:104EB000C802A091C902B091CA028093D702909310
:104EC000D802A093D902B093DA02243009F078C056
:104ED00081E00E9493DDAA2797FDA095BA2FBC011F
:104EE000CD010E9432E27B018C016091680B7091D0
:104EF000690B80916A0B90916B0B20E030E040E8E9
:104F00005AE30E94A3E39B01AC01C801B7010E94D0
:104F1000A3E32091590B30915A0B40915B0B5091B8
:104F20005C0B0E94A3E32DEC3CEC4CEC5DE30E9497
:104F3000A3E37B018C016091CB117091CC11809126
:104F4000CD119091CE1126E636E646E65FE30E944B
:104F5000A3E39B01AC01C801B7010E94CAE07B0139
:104F60008C016093CB117093CC118093CD119093F1
:104F7000CE116091D31170E080E090E00E9430E2A9
:104F80009B01AC01C801B7010E94A3E327E830EC04
:104F900041E959E30E94A3E39B01AC016091CF1169
:104FA0007091D0118091D1119091D2110E94CAE0DC
:104FB0006093CF117093D0118093D1119093D2113F
:104FC0001F910F91FF90EF900895CF93DF93809101
:104FD0003E0B18160CF065C084300CF062C0C0E0C7
:104FE000D0E064E170E080E090E00E94D8DCFADD7F
:104FF0002196C035D105A9F78DB79EB744970FB656
:10500000F8949EBF0FBE8DBFEDB7FEB7319680EB13
:1050100094E0ADB7BEB712969C938E93119785E33B
:1050200096E0938382838091C7029091C802A091F9
:10503000C902B091CA0284839583A683B783809105
:10504000CB029091CC02A091CD02B091CE0280878C
:105050009187A287B3878091CF029091D002A091CF
:10506000D102B091D20284879587A687B7878091B5
:10507000D3029091D402A091D502B091D602808B38
:10508000918BA28BB38B0E94CAA7EDB7FEB7749623
:105090000FB6F894FEBF0FBEEDBF80E0DF91CF9159
:1050A000089500D00F9280EB94E0ADB7BEB7129692
:1050B0009C938E93119788E296E014969C938E931E
:1050C00013970E94CAA70F900F900F900F90E5CFF3
:1050D000CF93DF93EC0107C0219780EB94E060E071
:1050E00072E00E9427E01C161D06B4F3DF91CF91F9
:1050F0000895FF920F931F93F62E00D000D0EDB7C6
:10510000FEB7319600EB14E0ADB7BEB712961C9314
:105110000E93119723EE3BE0338322838483158221
:105120000E94CAA78DB79EB706960FB6F8949EBF89
:105130000FBE8DBFEF2DF0E0EE0FFF1FE75FFC4FBE
:1051400060817181C8010E9427E01F910F91FF903B
:105150000895EF92FF920F931F93CF93DF9372EA1C
:10516000E72E7CE0F72EC0E0D0E000EB14E000D0AA
:105170000F92EDB7FEB712830183F482E3820E949F
:10518000CAA721960F900F900F900F90C832D105AB
:1051900071F7C80160E072E00E9427E0DF91CF91D3
:1051A0001F910F91FF90EF90089500D00F9280EB28
:1051B00094E0EDB7FEB79283818384EA99E094830B
:1051C00083830E94CAA70F900F900F900F90C1DFAA
:1051D0000E94DE1E82E090E07BCFCF93DF9300D071
:1051E0000F92C0EBD4E0EDB7FEB7D283C18383EB5F
:1051F0009AE0948383830E94CAA70F900F900F9028
:105200000F90A7DF80913E0B882381F400D00F928E
:10521000EDB7FEB7D283C1838AE99AE09483838392
:105220000E94CAA70F900F900F900F9080913E0B95
:10523000813091F400D00F9280EB94E0EDB7FEB78F
:105240009283818388E89AE0948383830E94CAA72B
:105250000F900F900F900F9080913E0B823091F441
:1052600000D00F9280EB94E0EDB7FEB7928381837C
:1052700086E79AE0948383830E94CAA70F900F90D9
:105280000F900F9080913E0B833091F400D00F92DD
:1052900080EB94E0EDB7FEB79283818380E69AE0DD
:1052A000948383830E94CAA70F900F900F900F9052
:1052B00080913E0B843091F400D00F9280EB94E00B
:1052C000EDB7FEB79283818383E49AE0948383836E
:1052D0000E94CAA70F900F900F900F9082E090E06D
:1052E000F7DEDF91CF9108950F931F9300D00F92B7
:1052F00000EB14E0EDB7FEB7128301838EE29BE072
:10530000948383830E94CAA70F900F900F900F90F1
:1053100020DF00D00F92EDB7FEB71283018381E248
:105320009BE0948383830E94CAA70F900F900F90F5
:105330000F908EEA9FE00E94FD1F00D00F92EDB704
:10534000FEB71283018383E19BE0948383830E94F1
:10535000CAA70F900F900F900F908FEF9FE00E94C1
:10536000FD1F00D00F92EDB7FEB71283018384E0DA
:105370009BE0948383830E94CAA70F900F900F90A5
:105380000F9081EA90E10E94FD1F00D00F92EDB7CF
:10539000FEB71283018389EF9AE0948383830E948E
:1053A000CAA70F900F900F900F908DE59FE00E947D
:1053B000FD1F00D00F92EDB7FEB71283018384EE7C
:1053C0009AE0948383830E94CAA70F900F900F9056
:1053D0000F9080E590E10E94FD1F00D00F92EDB785
:1053E000FEB71283018381ED9AE0948383830E9448
:1053F000CAA70F900F900F900F9082EF90E10E943C
:10540000FD1F00D00F92EDB7FEB71283018381EC30
:105410009AE0948383830E94CAA70F900F900F9005
:105420000F9083E491E10E94FD1F82E090E050DE46
:105430001F910F9108950F931F9300D00F9200EBCF
:1054400014E0ADB7BEB712961C930E9311978BE77D
:105450009BE014969C938E9313970E94CAA70F907B
:105460000F900F900F9075DEEDB7FEB73A970FB61D
:10547000F894FEBF0FBEEDBF3196ADB7BEB7129622
:105480001C930E9311978BE59BE09383828380910D
:105490008C0890918D08A0918E08B0918F0884831C
:1054A0009583A683B78380919B0890919C089187F0
:1054B00080870E94CAA7EDB7FEB73A960FB6F89458
:1054C000FEBF0FBEEDBF82E090E002DE1F910F91A4
:1054D00008950F931F9300D00F9200EB14E0ADB727
:1054E000BEB712961C930E9311978BEC9BE014960B
:1054F0009C938E9313970E94CAA70F900F900F90C2
:105500000F9027DEEDB7FEB73E970FB6F894FEBFBB
:105510000FBEEDBF3196ADB7BEB712961C930E937A
:10552000119787E89BE09383828380917209992782
:1055300087FD90959583848380917E09992787FDC7
:105540009095978386838091AF09992787FD9095E1
:105550009187808780919609992787FD90959387F9
:1055600082878091A2099091A309958784870E94E0
:10557000CAA7EDB7FEB73E960FB6F894FEBF0FBEB2
:10558000EDBF82E090E0A4DD1F910F9108951F937D
:10559000CF93DF9300D00F9280EB94E0EDB7FEB78E
:1055A0009283818385ED9BE0948383830E94CAA7C5
:1055B0000F900F900F900F90CCDDCBEED9E010E064
:1055C000812F688196DD2C961F5F1630C9F782E027
:1055D00090E07EDDDF91CF911F91089500D00F9272
:1055E00080EB94E0EDB7FEB7928381838CEE9BE075
:1055F000948383830E94CAA70F900F900F900F90FF
:10560000A8DD0E944B200E947D2082E090E060CDCA
:10561000DF93CF9300D00F920F92CDB7DEB73091CA
:10562000DF0820910403298323E02A8322E02B83CF
:105630002FE52C833D8360E0AE014F5F5F4F25E097
:105640000E9472D70F900F900F900F900F90CF91F4
:10565000DF9108956F927F928F929F92AF92BF9247
:10566000CF92DF920F931F93DF93CF93CDB7DEB727
:105670006B970FB6F894DEBF0FBECDBF3C014B0158
:105680008091C602863011F1873048F4813079F17B
:10569000813098F08230A9F0853089F414C08C30C4
:1056A00001F18D3028F48A30B1F08B3041F416C00E
:1056B0008F3079F0803119F417C012E019C010E072
:1056C00017C015E015C016E001E013C016E002E0B7
:1056D00010C013E00DC014E003E00BC014E005E0BF
:1056E00008C014E008E005C010E000E002C017E0C8
:1056F00004E06091770B7091780B882777FD809597
:10570000982F0E9432E26C8B7D8B8E8B9F8B209129
:10571000CF113091D0114091D1115091D2110E94EE
:10572000C9E020E030E04AE754E40E94A3E32C897A
:105730003D894E895F890E9497E10E9404E25B01E6
:105740006C016091D7027091D8028091D90290913A
:10575000DA0220E030E04AE754E40E94A3E30E942A
:1057600004E2688F798F8A8F9B8F60917612709197
:105770007712809178129091791220E030E04AE718
:1057800054E40E94A3E30E9404E27A836983888D33
:10579000998D9C838B83BE82AD8298868F82198778
:1057A0000A8784E08B878A818C8789818D878C81A9
:1057B0008E878B818F878E81888B8D81898B888561
:1057C0008A8B8F818B8BC30162E2AE01475F5F4F93
:1057D0002BE00E9472D76B960FB6F894DEBF0FBE17
:1057E000CDBFCF91DF911F910F91DF90CF90BF90F0
:1057F000AF909F908F907F906F9008952F923F92DF
:105800004F925F926F927F928F929F92AF92BF92D0
:10581000CF92DF92EF92FF920F931F93DF93CF937C
:10582000CDB7DEB7CE54D0400FB6F894DEBF0FBE72
:10583000CDBF2F969FAF8EAF2F97DE019596E6E4F2
:10584000F5E084E201900D928150E1F720918512FC
:105850003091861240918712509188122D962CAF6C
:105860003DAF4EAF5FAF2D970091891210918A1214
:10587000D80154966D917D918D919C9157972AE016
:1058800030E040E050E00E9460E51B012C01F8018F
:10589000608D718D828D938D0E9432E27B018C012F
:1058A0002DA13EA14FA158A50E94A3E30E94FFE1B4
:1058B0003B014C01C801B70129A93AA94BA95CA930
:1058C0000E94A3E30E94FFE15B016C01C801B701E4
:1058D000FE01FD9620813181428153810E94A3E324
:1058E0000E94FFE120918112309182124091831237
:1058F000509184122F83388749875A872D962CAD73
:105900003DAD4EAD5FAD2D972B873C874D875E87B4
:105910002F86388A498A5A8A7A826982BC82AB8207
:105920007E836D83FE01379683818B8B82818C8B86
:1059300081818D8B8F818E8BFE013B9683818F8B36
:105940008281888F8181898F8B858A8FFE013F9626
:1059500083818B8F82818C8F81818D8F8F858E8FBC
:105960008A818F8F898188A38C8189A38B818AA367
:105970008E818BA38D818CA32F968EAD9FAD2F979B
:1059800069E4AE014D5E5F4F22E10E9472D7C25BB7
:10599000DF4F0FB6F894DEBF0FBECDBFCF91DF91C2
:1059A0001F910F91FF90EF90DF90CF90BF90AF903D
:1059B0009F908F907F906F905F904F903F902F902F
:1059C00008952F923F924F925F926F927F928F92A3
:1059D0009F92AF92BF92CF92DF92EF92FF920F937E
:1059E0001F93DF93CF93CDB7DEB7EE970FB6F89442
:1059F000DEBF0FBECDBF9AAF89AF60918F1270919D
:105A0000901280919112909192120E9432E220E0C5
:105A100030E048EC52E40E9497E13B014C01609178
:105A200093127091941280919512909196120E9407
:105A300032E220E030E048EC52E40E9497E10E941C
:105A4000FFE16BAF7CAF8DAF9EAF6091971270910D
:105A500098128091991290919A120E9432E220E05D
:105A600030E048EC52E40E9497E10E94FFE11B0104
:105A70002C0140909B1250909C1260919F1270914B
:105A8000A0128091A1129091A2120E9432E220E015
:105A900030E048EC52E40E9497E17B018C01609178
:105AA000A3127091A4128091A5129091A6120E9447
:105AB00032E220E030E048EC52E40E9497E15B01E2
:105AC0006C018091A7129091A812A091A912B09197
:105AD000AA128DAB9EABAFABB8AF60918B12709139
