:100000000C942A100C94C7DD0C94F8DD0C9429DEB6
:100010000C945ADE0C948BDE0C94BCDE0C94EDDE5A
:100020000C941EDF0C9457100C9457100C9457101E
:100030000C9457100C9457100C9457100C9437BD17
:100040000C9457100C9457100C9457100C94571094
:100050000C9457100C9457100C9457100C944FDFBD
:100060000C9457100C94F3180C9433190C945710EB
:100070000C9457100C9457100C9457100C94571064
:100080000C9457100C9457100C9457100C94571054
:100090000C9485190C94C5190C9457100C94B1C08C
:1000A0000C9457100C9464BD0C9457100C9457107A
:1000B0000C9457100C9457100C9491BD0C9457103D
:1000C0000C9457100C9457100C9457100C94571014
:1000D0000C9457100C9457100C94171A0C94571A30
:1000E0000C945710E658FC580359ED58F5580A5926
:1000F0005F594A5943591F59515992599259585960
:10010000115918597459655984598A5926592D59C4
:1001100035593C59084AD73B3BCE016E84BCBFFDE4
:10012000C12F3D6C74319ABD56833DDA3D00C77FC7
:1001300011BED9E4BB4C3E916BAAAABE0000008060
:100140003F05A84CCDB2D44EB93836A9020C50B9EF
:10015000918688083CA6AAAA2ABE000000803F0615
:1001600064EC1B3C04BC163E3BE5B93CC93C37C2C1
:100170009E5A3D660498083EEA69AAAA3E0000001D
:10018000803F4C6F670064756D70000000000000D8
:100190000000000086496572617365000000000080
:1001A00000000000B541656E61626C6500000000F2
:1001B00000000000E34064697361626C6500000048
:1001C00000000000E340706C616E6E657200676352
:1001D000730000000000000000000000D28773657B
:1001E0007475700072657365740000000000000093
:1001F0000000AC40726164696F0000000000000004
:100200000000105F6D6F6465730000000000000067
:1002100000007B5E636F6D7061737300000000000F
:1002200000001F406465636C696E6174696F6E00E5
:1002300000000B4062617474657279000000000078
:100240000000E43F73686F770000000000000000CA
:100250000000AF3F657261736500000000000000A0
:100260000000AB2241726475506C616E652056329D
:100270002E323720417567757374203230746820D0
:10028000323031332053696D756C6174696F6E2043
:100290004D6F6465006C6F67730000000000000024
:1002A000000000ED3E7365747570000000000000F2
:1002B000000000D53E74657374000000000000006B
:1002C000000000BD3E68656C70000000000000008A
:1002D000000000A11D706C616E6E65720000000070
:1002E000000000A53E746573740070776D00000017
:1002F00000000000000000000A5E726164696F0087
:100300000000000000000000855D70617373746878
:100310007275000000000000493B6661696C736102
:100320006665000000000000855C6261747465729F
:100330007900000000000000F32672656C6179000E
:100340000000000000000000A724776179706F6949
:100350006E747300000000009423786265650000ED
:100360000000000000000000D022656564756D701B
:1003700000000000000000003C226D6F6465737790
:100380006974636800000000B5216469707377695F
:100390007463686573000000E3206C6F6767696EC3
:1003A0006700000000000000FA1F466F726D617464
:1003B0002076657273696F6E3A20256C782020452F
:1003C0007870656374656420666F726D6174207601
:1003D000657273696F6E3A20256C780A004E756DF0
:1003E00050616765733A2025752020506167655319
:1003F000697A653A2025750A004D616E75666163FC
:1004000074757265723A2030782530327820202059
:100410004465766963653A203078253034780A007F
:100420004552523A204E6F2064617461666C61736C
:100430006820696E736572746564005465737469CD
:100440006E672064617461666C617368206C6F67AD
:1004500067696E67004D69783A656C65766F6E7393
:10046000200972657620656C65763A25642C2072C9
:100470006576206368313A25642C207265762063A6
:1004800068323A25640A004D69783A7374616E6483
:10049000617264200972657620726F6C6C3A256413
:1004A0002C207265762070697463683A25642C206C
:1004B000726576207275646465723A25640A006418
:1004C0006970207377697463686573206469736108
:1004D000626C65642C207573696E672045455052C7
:1004E0004F4D0048697420456E74657220746F200A
:1004F000657869742E0A0A00506F736974696F6EAB
:100500002025640A00436F6E74726F6C204348208C
:1005100000202530327800253034783A0042656773
:10052000696E205842656520582D4354552052610C
:100530006E676520616E6420525353492054657381
:10054000743A0A004C6F697465722072616469754F
:10055000733A2025640A0A0048697420726164694C
:1005600075733A2025640A00256420776179706FDD
:10057000696E74730A00486F6C6420616C746974EE
:10058000756465206F662025646D0A00486F6C6491
:100590002063757272656E7420616C746974756421
:1005A000650A00636F6D6D616E6420233A202564D7
:1005B0002069643A2564206F7074696F6E733A2500
:1005C000642070313A25642070323A256C642070C2
:1005D000333A256C642070343A256C64200A00524A
:1005E000656C6179206F66660A0052656C617920DE
:1005F0006F6E0A004E6F7420656E61626C65640AEE
:1006000000566F6C74733A20313A25322E32662CC4
:1006100020323A25322E32662C20333A25322E32C1
:10062000662C20343A25322E32660A004C4F532075
:10063000636175736564206E6F206368616E6765C2
:1006400020696E2041504D2E0A005448524F545498
:100650004C45204641494C5341464520414354496D
:1006600056415445443A2025642C2000434F4E54B3
:10067000524F4C204D4F4445204348414E4745443E
:100680003A20005448524F54544C45204348414E60
:10069000474544202564200A00556E706C7567201C
:1006A000626174746572792C207468726F74746CF2
:1006B0006520696E206E65757472616C2C2074758E
:1006C000726E206F666620726164696F2E0A004D3B
:1006D0005347204653204F4646202575004D53472B
:1006E000204653204F4E20257500494E20313A2098
:1006F000256409323A20256409333A2025640934F7
:100700003A20256409353A20256409363A202564C3
:1007100009373A20256409383A2025640A00494EF1
:100720003A09313A20256409323A20256409333ADE
:1007300020256409343A20256409353A20256409C6
:10074000363A20256409373A20256409383A2025AD
:10075000640A00506C616E6E6572204D6F64650AAC
:100760000A54686973206D6F6465206973206E6F29
:100770007420696E74656E64656420666F72206DA6
:10078000616E75616C207573650A0A00436F6D6D4B
:10079000616E64733A0A20206C6F677320202020FA
:1007A000202020206C6F6720726561646261636B3A
:1007B0002F7365747570206D6F64650A20207365F2
:1007C000747570202020202020207365747570209F
:1007D0006D6F64650A2020746573742020202020CA
:1007E00020202074657374206D6F64650A0A4D6F54
:1007F00076652074686520736C6964652073776919
:1008000074636820616E6420726573657420746F10
:1008100020464C592E0A0A0054657374204D6F64AB
:10082000650A0A005365747570204D6F64650A0A85
:10083000494D504F5254414E543A20696620796FC9
:10084000752068617665206E6F74207072657669B8
:100850006F75736C79207365742074686973207385
:10086000797374656D2075702C20757365207468BC
:10087000650A2772657365742720636F6D6D616EFD
:100880006420746F20696E697469616C697A65208F
:1008900074686520454550524F4D20746F20736534
:1008A0006E7369626C652064656661756C74207630
:1008B000616C7565730A616E64207468656E20747E
:1008C00068652027726164696F2720636F6D6D61B1
:1008D0006E6420746F20636F6E6669677572652041
:1008E000666F7220796F757220726164696F2E0A6B
:1008F0000A000A547970652027592720616E642008
:1009000068697420456E74657220746F2065726129
:10091000736520616C6C20776179706F696E7420EB
:10092000616E6420706172616D65746572206461CE
:1009300074612C20616E79206F74686572206B651C
:100940007920746F2061626F72743A2000646F6E58
:10095000650A000A45726173696E67204545505209
:100960004F4D0A005261772056616C7565730A001D
:10097000526164696F0A004348383A202564207C3C
:10098000202564207C2025640A004348373A20252E
:1009900064207C202564207C2025640A004348369E
:1009A0003A202564207C202564207C2025640A00D0
:1009B0004348353A202564207C202564207C20256E
:1009C000640A004348343A202564207C20256420B2
:1009D0007C2025640A004348333A202564207C208B
:1009E0002564207C2025640A004348323A2025648F
:1009F000207C202564207C2025640A004348313A6D
:100A0000202564207C202564207C2025640A004D5C
:100A10006F6E69746F72696E6720766F6C74732085
:100A2000616E642063757272656E74004D6F6E69DD
:100A3000746F72696E67206261747420766F6C7473
:100A400073004D6F6E69746F72696E672034206336
:100A5000656C6C004D6F6E69746F72696E672033E0
:100A60002063656C6C0042617474206D6F6E6974F4
:100A70006F72696E672064697361626C65640042BD
:100A8000617474204D6F696E746F720A006E6176C6
:100A900020706974636820616C743A0A00656E6541
:100AA00072677279207468726F74746C653A0A00A8
:100AB0006E61762070697463682061697273706515
:100AC00065643A0A006E617620726F6C6C3A0A00B7
:100AD000736572766F207275646465723A0A00738A
:100AE0006572766F2070697463683A0A0073657284
:100AF000766F20726F6C6C3A0A004761696E730AF8
:100B000000503A2025342E33662C20493A25342EC5
:100B100033662C20443A25342E33662C20494D412F
:100B2000583A256C640A0058545241434B3A2025E8
:100B3000342E32660A58545241434B20616E676C22
:100B4000653A2025640A0043726F7373747261639F
:100B50006B0A006D696E3A2025640A6D61783A204F
:100B600025640A6372756973653A2025640A6661B3
:100B7000696C736166655F656E61626C65643A207D
:100B800025640A6661696C736166655F76616C7580
:100B9000653A2025640A005468726F74746C650AA3
:100BA00000466C69676874206D6F6465730A005055
:100BB0006F732025643A2000494D550A0047797229
:100BC0006F206F6666736574733A2025342E326623
:100BD0002C2025342E32662C2025342E32660A0035
:100BE000416363656C206F6666736574733A202594
:100BF000342E32662C2025342E32662C2025342EBD
:100C000032660A004D6167206F6666736574733AD9
:100C10002025342E34662C2025342E34662C2025B5
:100C2000342E34660A004D6167204465636C696E3A
:100C30006174696F6E3A2025342E34660A003F3F96
:100C40000048494C00484D433538343300484D4343
:100C5000353838334C00436F6D706173733A200040
:100C600061626C65640A0064697300656E002D0042
:100C70000A4F7074696F6E733A20302D34000A4F3A
:100C80007074696F6E733A5B6F6E2C6F66665D0A87
:100C9000006F666600436F6D7061737320696E69E3
:100CA0007469616C69736174696F6E206661696CE7
:100CB000656421006F6E000A4D6F766520524320F7
:100CC000746F67676C652073776974636820746FED
:100CD000206561636820706F736974696F6E20743A
:100CE0006F20656469742C206D6F76652061696C76
:100CF00065726F6E20737469636B20746F20736507
:100D00006C656374206D6F6465732E000A536176A1
:100D100065642053657474696E67730A0A000A4D2E
:100D20006F766520616C6C20636F6E74726F6C738C
:100D300020746F20656163682065787472656D65E5
:100D40002E2048697420456E74657220746F20737C
:100D50006176653A200A000A4E6F20726164696FFD
:100D60003B20436865636B20636F6E6E6563746FD1
:100D700072732E000A0A526164696F20536574759C
:100D8000703A0A000A464143544F52592052455383
:100D9000455420636F6D706C657465202D20706CF8
:100DA000656173652072657365742041504D2074D0
:100DB0006F20636F6E74696E7565000A5479706593
:100DC0002027592720616E642068697420456E745D
:100DD000657220746F20706572666F726D20666137
:100DE00063746F72792072657365742C20616E79FB
:100DF000206F74686572206B657920746F20616262
:100E00006F72743A2000656E61626C6500435552E2
:100E100000434D4400524157004D4F4445004E544D
:100E2000554E004354554E00504D0047505300411D
:100E3000545449545544455F4D4544004154544928
:100E4000545544455F4641535400616C6C006D69D4
:100E50007373696E67206C6F6720747970650A0020
:100E60000A4C6F67206572617365642E0A000A453B
:100E7000726173696E67206C6F672E2E2E0A0044B4
:100E80006F6E650A0044756D70696E67204C6F6700
:100E90002025642C202020207374617274207067D8
:100EA0002025642C202020656E6420706720256436
:100EB0000A00626164206C6F67206E756D626572F6
:100EC0000A0064756D70696E6720616C6C0A00259C
:100ED000640A0025642C0900444620706167652C73
:100EE000206C6F672066696C6520232C206C6F670F
:100EF00020706167653A2025642C09004E756D628B
:100F00006572206F66207061636B65747320726513
:100F100061643A2025640A000A41726475506C616C
:100F20006E652056322E32372041756775737420F6
:100F30003230746820323031332053696D756C6102
:100F400074696F6E204D6F64650A46726565205244
:100F5000414D3A2025750A0048696C2053696D207F
:100F600045646765004572726F72205265616469FD
:100F70006E6720454E445F425954453A2025640A25
:100F8000004572726F722052656164696E6720500D
:100F900061636B65743A2025640A004154543A2019
:100FA00025642C2025642C2025750A004D4F443AD9
:100FB000004354554E3A004E54554E3A2025342E97
:100FC00034662C2025642C2025342E34662C2025D4
:100FD000342E34662C2025342E34662C2025342ED5
:100FE00034662C2025342E34662C0A00504D3A00ED
:100FF0005241573A00434D443A00435552523A2029
:1010000025642C2025342E34662C2025342E34667D
:101010002C2025640A0020256420636F6D6D616EAD
:10102000647320696E206D656D6F72790A00554E8C
:101030004B4E4F574E2053544152545550202D2063
:101040000047524F554E44205354415254202D20B6
:1010500000414952205354415254202D2000475002
:10106000533A20256C642C2025642C2025642C20E8
:1010700025342E37662C2025342E37662C20256407
:101080002C2025342E34662C2025342E34662C203A
:1010900025342E34662C2025342E34660A00414C2B
:1010A0005432505443485F00454E524759325448D9
:1010B000525F005957325352565F004152535032DB
:1010C000505443485F0050544348325352565F00D7
:1010D000524C4C325352565F0048444E4732524CA9
:1010E0004C5F005243385F005243375F0052433633
:1010F0005F005243355F005243345F005243335F19
:10110000005243325F005243315F00464C41505F12
:10111000325F535045454400464C41505F325F506A
:101120004552434E5400464C41505F315F53504549
:10113000454400464C41505F315F504552434E5448
:101140000041525350445F454E41424C4500534F7D
:101150004E41525F454E41424C4500494E56455224
:10116000544544464C545F434800424154545F4305
:101170004150414349545900494E5055545F564FD0
:101180004C545300414D505F5045525F564F4C54A4
:1011900000564F4C545F4449564944455200424121
:1011A00054545F4D4F4E49544F52004D41475F4597
:1011B0004E41424C4500474E445F4142535F5052BE
:1011C00045535300474E445F54454D5000414C54E5
:1011D0005F484F4C445F52544C005452494D5F504D
:1011E000495443485F4344004D494E5F474E445382
:1011F00050445F434D005452494D5F415253504457
:101200005F434D005253545F5357495443485F4323
:1012100048004C4F475F4C41535446494C45004CA5
:101220004F475F4249544D41534B005359535F4E12
:10123000554D5F52455345545300454C45564F4E0E
:101240005F4348325F52455600454C45564F4E5F0E
:101250004348315F52455600454C45564F4E5F520C
:1012600045564552534500454C45564F4E5F4D49F6
:1012700058494E47005357495443485F454E4142F1
:101280004C45005452494D5F4155544F004C494D17
:101290005F50495443485F4D494E004C494D5F50A3
:1012A000495443485F4D4158004C494D5F524F4CA3
:1012B0004C5F434400464C544D4F44453600464C29
:1012C000544D4F44453500464C544D4F4445340031
:1012D000464C544D4F44453300464C544D4F4445C5
:1012E0003200464C544D4F44453100464C544D4F0E
:1012F00044455F43480046535F4743535F454E4173
:10130000424C0046535F4C4F4E475F4143544E00A2
:1013100046535F53484F52545F4143544E0054521A
:10132000494D5F5448524F54544C45005448525F05
:1013300046535F56414C5545005448525F4641491B
:101340004C53414645005448525F534C4557524117
:101350005445005448525F4D4158005448525F4D27
:10136000494E00414C545F484F4C445F46425743FE
:101370004D0041525350445F4642575F4D41580023
:1013800041525350445F4642575F4D494E004645D7
:101390004E43455F4D4158414C540046454E4345F0
:1013A0005F4D494E414C540046454E43455F4348CE
:1013B000414E4E454C0046454E43455F544F5441C7
:1013C0004C0046454E43455F414354494F4E0057FC
:1013D000505F4C4F495445525F5241440057505F53
:1013E00052414449555300434D445F494E4445588A
:1013F00000434D445F544F54414C004152535044BC
:101400005F4F46465345540041525350445F52414A
:1014100054494F00414C545F4D4958005854524B69
:101420005F414E474C455F4344005854524B5F4721
:1014300041494E5F5343004B46465F544852325039
:10144000544348004B46465F505443483254485238
:10145000004B46465F524444524D4958004B464665
:101460005F50544348434F4D500053455249414CFF
:10147000335F424155440053595349445F4D5947E6
:1014800043530053595349445F544849534D4156BF
:101490000053595349445F53575F545950450053C3
:1014A000595349445F53575F4D52455600445A00C3
:1014B000524556004D4158005452494D004D494E39
:1014C00000414E474C455F4D415800414E474C4509
:1014D0005F4D494E0046554E4354494F4E00494DCD
:1014E0004158004400490050004C6F672025642C8F
:1014F0002020202073746172742025642C20202009
:10150000656E642025640A000A2564206C6F677389
:101510000A000A4E6F206C6F67730A0A0043555227
:101520000020255300434D440020255300524157CD
:1015300000202553004D4F444500202553004E54B4
:10154000554E00202553004354554E00202553008E
:10155000504D002025530047505300202553004193
:10156000545449545544455F4D454400202553008B
:1015700041545449545544455F4641535400202535
:1015800053006E6F6E65006C6F677320656E6162ED
:101590006C65643A200047656F46656E636520445C
:1015A000697361626C65640047656F46656E63656B
:1015B0002044697361626C65640047656F46656EBF
:1015C0006365206973204E554C4C0047656F466536
:1015D0006E6365206973204E554C4C006770732014
:1015E000616C743A20256C7500696E697420686FAF
:1015F0006D65002B006261642066656E6365207016
:101600006F696E74006261642066656E6365207048
:101610006F696E740066656E63696E67206D7573C1
:10162000742062652064697361626C656400666C35
:101630006967687420706C616E2072656365697695
:10164000656400666C6967687420706C616E2072F6
:10165000656365697665640043757272656E7420B2
:10166000576179506F696E74204E4F54204D4F442E
:1016700049464945440043757272656E742057614E
:1016800079506F696E74204D4F4449464945440076
:10169000576179706F696E7420496E76616C696408
:1016A0002053657175656E636500576179506F6988
:1016B0006E7420526563656976696E672046414C99
:1016C00053450054696D65202566202034443F2031
:1016D0002025640A0053797374656D20636865631F
:1016E0006B2053554345535346554C0053797374FF
:1016F000656D20636865636B204641494C45440035
:101700005061636B6574207379733D256420206399
:101710006F6D703D25640A00616374696F6E20729D
:10172000656365697665643A200052454A454354CD
:101730003A2041505B25642C25645D204D73675B26
:1017400025642C25645D206D736769643D256420E4
:10175000636E743D25640A0052454A4543543A205D
:1017600041505B25642C25645D204D73675B2564C7
:101770002C25645D206D736769643D256420636E6C
:10178000743D25640A006F7574206F6620636F6D69
:101790006D616E6473210052657475726E696E6757
:1017A00020746F20486F6D6500496E20646F5F6321
:1017B00068616E67655F79617728292E2020546102
:1017C000726765742068656164696E673A2025698F
:1017D00000436F6D6D616E642049442023256920AC
:1017E0004E4F54205245434F474E495A45440050AE
:1017F0006172616D657465722049442023256920FA
:101800004E4F54205245434F474E495A454400429B
:1018100061642052657175657374202D2063616E5B
:101820006E6F74206368616E676520746F206E6FE1
:101830006E2D4E617620636D64004C61746520747A
:101840006F20576179706F696E7420256920627905
:101850002025642073656300476F696E6720746F8D
:1018600020576179706F696E7420256920696E2038
:10187000256420736563005B2531643A2531643A41
:1018800025645D2000455854524133004558545258
:1018900041320045585452413100504F5349544948
:1018A0004F4E005241575F4354524C0052435F43E6
:1018B00048414E004558545F5354415400524157DB
:1018C0005F53454E53005352335F005352305F0015
:1018D000666C69676874206D6F6465203D202575AE
:1018E000004661696C73616665202D2053686F72D4
:1018F00074206576656E74206F6E2C2000466169D9
:101900006C73616665202D2053686F727420657654
:10191000656E74206F66660067656F2D66656E6321
:1019200065207472696767657265640067656F2D0D
:1019300066656E6365204F4B0067656F2D66656E4B
:101940006365207365747570206572726F720067CD
:10195000656F2D66656E6365206C6F6164656400FC
:101960003C6E617669676174653E205750206572F0
:10197000726F72202D2064697374616E6365203C00
:101980002030004D697373656420575000526561C3
:101990006368656420576179706F696E742025698A
:1019A000005265616368656420576179706F696E84
:1019B0007420256920696E20256420736563007694
:1019C00065726966795F6E61763A204C4F4954457D
:1019D00052206F726269747320636F6D706C6574EE
:1019E00065007665726966795F6E61763A204C4F64
:1019F000495445522074696D6520636F6D706C6544
:101A00007465004C4F495445522074696D6520231C
:101A1000256420286D732900526561636865642020
:101A2000686F6D65007665726966795F636F6E6475
:101A300069746F6E3A20496E76616C6964206F72CA
:101A4000206E6F2063757272656E7420436F6E64D2
:101A50006974696F6E20636D6400496E20766572EB
:101A60006966795F6368616E67655F796177282968
:101A70002E20204E61762042656172696E673A20A1
:101A8000256900496E207665726966795F636861D1
:101A90006E67655F79617728292E20204E61762058
:101AA00042656172696E673A20256900666C6967F4
:101AB0006874206D6F6465203D202575004661695E
:101AC0006C73616665202D204C6F6E6720657665AE
:101AD0006E74206F6E2C2000696E2073696D756CBA
:101AE0006174696F6E206D6F64650048696C205386
:101AF000696D204564676500466C79696E672000F2
:101B00000A4D6F76652074686520736C6964652082
:101B100073776974636820616E642072657365749D
:101B200020746F20464C592E0A000A456E74657267
:101B3000696E6720696E7465726163746976652089
:101B40007365747570206D6F64652E2E2E0A0A49B8
:101B500066207573696E67207468652041726475CC
:101B6000696E6F2053657269616C204D6F6E697488
:101B70006F722C20656E73757265204C696E6520DE
:101B8000456E64696E672069732073657420746F95
:101B90002043617272696167652052657475726E67
:101BA0002E0A54797065202768656C702720746F41
:101BB000206C69737420636F6D6D616E64732C208B
:101BC00027657869742720746F206C6561766520BD
:101BD00061207375626D656E752E0A56697369743E
:101BE000207468652027736574757027206D656E95
:101BF0007520666F722066697273742D74696D65E5
:101C000020636F6E66696775726174696F6E2E0A04
:101C10000045524153494E47204C4F4753004E6FA9
:101C20002064617461666C61736820636172642012
:101C3000696E736572746564007573696E672025DB
:101C400075206279746573206F66206D656D6F72A3
:101C5000792028257520726573657473290A006CD4
:101C60006F61645F616C6C20746F6F6B20256C75A5
:101C700075730A00646F6E652E004669726D776138
:101C80007265206368616E67653A20657261736989
:101C90006E6720454550524F4D2E2E2E0A000A0ADF
:101CA000496E69742041726475506C616E6520568E
:101CB000322E323720417567757374203230746864
:101CC00020323031332053696D756C6174696F6EE9
:101CD000204D6F64650A0A467265652052414D3A8F
:101CE0002025750A00496E76616C6964205345525F
:101CF00049414C335F424155440031313532303037
:101D0000204241554400313131313030204241557B
:101D100044002035373630302042415544002033CE
:101D2000383430302042415544002031393230308F
:101D30002042415544002020393630302042415560
:101D400044000A0A20526561647920746F20464C71
:101D5000592E0047524F554E44205354415254007F
:101D600044656D6F20536572766F73210000407A71
:101D700010F35A00A0724E18090010A5D4E8000014
:101D8000E87648170000E40B54020000CA9A3B00B2
:101D90000000E1F505000080969800000040420F29
:101DA000000000A08601000000102700000000E8ED
:101DB00003000000006400000000000A00000000B2
:101DC000000100000000002C76D888DC674F082353
:101DD000DFC1DFAE59E1B1B796E5E3E453C63AE6B9
:101DE00051997696E8E6C28426EB898C9B62ED4099
:101DF0007C6FFCEFBC9C9F40F2BAA56FA5F49005E8
:101E00005A2AF75C936B6CF9676DC11BFCE0E40D1B
:101E100047FEF520E6B500D0ED902E03009435770F
:101E2000050080841E080000204E0A000000C80C37
:101E3000333333330F986E12831141EF8D211489A0
:101E40003BE65516CFFEE6DB18D1844B381BF77CFA
:101E50001D901DA4BBE424203284725E228100C93F
:101E6000F124ECA1E53D276E616E00696E660025E8
:101E70003033753A25733A20006E6F7420666F75A3
:101E80006E6400253033753A252D33322E3332738C
:101E90003A2000756E6B6E6F776E207479706500F6
:101EA0006E6F7420666F756E640025733A20006D46
:101EB000697373696E67206E616D65206F7220763D
:101EC000616C7565003F3F00256400256400256C4A
:101ED0006400256600256600657869740068656C95
:101EE000700044454300434F4D504153535F000041
:101EF000002100240027002A002D003000330001BB
:101F0000010000040107010A010000220025002849
:101F1000002B002E003100340002010000050108F2
:101F2000010B01000020002300260029002C002FB7
:101F3000003200000100000301060109010505054A
:101F400005070508080808020202020A0A08080430
:101F5000040404010101010101010103030303035E
:101F6000030303040707070C0C0C0C0C0C0C0C02ED
:101F700002020206060606060606060B0B0B0B0BF4
:101F80000B0B0B01021020200808102040102040ED
:101F9000800201020108040201010204081020402D
:101FA000808040201008040201800402018040204B
:101FB0001008040201080402010102040810204074
:101FC0008001020408102040800000090A02080B6A
:101FD0000C0D0706030401000000000000000000D3
:101FE00000000000000000000000000000000000F1
:101FF0000000000000100F0E0000000000000000B4
:102000000000000000000000000000000000004987
:102010004E46494E4954594E414ECDCCCC3D0AD73F
:10202000233C17B7D13877CC2B329595E6241FB1D6
:102030004F0A000020410000C84200401C4620BC5E
:10204000BE4CCA1B0E5AAEC59D745657AEB9E4C0FD
:102050005157A9B911241FBECFEFD1E2DEBFCDBFCA
:1020600000E00CBF14E0A0E0B2E0E4EDF0ED01E030
:102070000BBF02C007900D92AC3FB107D9F71BBE52
:1020800017E1ACEFB4E001C01D92A133B107E1F755
:1020900010E2C0E5D0E204C02297FE010E9447E8AA
:1020A000CA34D107C9F70E94B6E10C945EE80C94DB
:1020B0000000283008F027E03327DA01990F311D9E
:1020C00087FD916000966105710539F432602E5FDD
:1020D0003D9330E32A95E1F708959F3F30F0803833
:1020E0007105610509F03C5F3C5F3D93913008F05C
:1020F0008068911DDF93CF931F930F93FF92EF9210
:10210000192F987F9695E92F96959695E90FFF27B9
:10211000E953F24E99273327EE24FF24A701E70164
:1021200005900894079428F4360FE71EF81E491FFF
:10213000511D660F771F881F991F0694A1F7059000
:10214000079428F4E70EF81E491F561FC11D770F8C
:10215000881F991F661F0694A1F70590079428F41D
:10216000F80E491F561FC71FD11D880F991F661FE4
:10217000771F0694A1F70590079420F4490F561F86
:10218000C71FD81F990F661F771F881F0694A9F7CE
:1021900084911095177041F0D695C795579547953E
:1021A000F794E7941A95C1F7EDE6FDE16894159070
:1021B000159135916591959105907FE27395E118A0
:1021C000F10A430B560BC90BD009C0F7E10CF11E05
:1021D000431F561FC91FD01D7EF4703311F48A951A
:1021E000E6CFE894015030F0080F0AF400270217F8
:1021F00008F4202F2395022F7A3328F079E37D937A
:102200002A95E9F710C07D932A9589F6069497954B
:102210006795379517951794E118F10A430B560BFC
:10222000C90BD00998F023957E9173957A3308F005
:1022300070E37C932013B8F77E9170617D9330F04A
:10224000839571E37D9370E32A95E1F71124EF9074
:10225000FF900F911F91CF91DF91992787FD909566
:102260000895FA01AA27283051F1203181F1E8942C
:102270006F936E7F6E5F7F4F8F4F9F4FAF4FB1E079
:102280003ED0B4E03CD0670F781F891F9A1FA11D74
:10229000680F791F8A1F911DA11D6A0F711D811D75
:1022A000911DA11D20D009F468943F912AE0269F3A
:1022B00011243019305D3193DEF6CF010895462F99
:1022C0004770405D4193B3E00FD0C9F7F6CF462F7A
:1022D0004F70405D4A3318F0495D31FD40524193E3
:1022E00002D0A9F7EACFB4E0A695979587957795A0
:1022F0006795BA95C9F700976105710508959B0127
:10230000AC010A2E06945795479537952795BA95AF
:10231000C9F7620F731F841F951FA01D0895A0E3C6
:10232000B0E0E5E9F1E10C940EE8A8E04E01089474
:10233000811C911CF401BA2F1192BA95E9F72983F7
:102340003A834B835C836D837E838F839887CE0132
:102350000996FC011192AA95E9F7A986BA86CB865F
:10236000DC86ED86FE860F87188B29813A814B81AA
:102370005C812DA73EA74FA758AB79018A018FEF4B
:102380009FEFA0E0B0E0E822F9220A231B231A0104
:102390004424552429853A854B855C8529A73AA78D
:1023A0004BA75CA759016A01A822B922CA22DB22E5
:1023B0003A0188249924C601B501A80197010E9419
:1023C0008BE76DA37EA38FA398A7C401B3010E94DE
:1023D0008BE769A37AA38BA39CA3C601B501A201D5
:1023E00091010E948BE77B018C01C401B3010E9423
:1023F0008BE75B016C0189A19AA1ABA1BCA18E0DF9
:102400009F1DA01FB11F89A39AA3ABA3BCA32DA19D
:102410003EA14FA158A5CA01AA27BB2729A13AA1CD
:102420004BA15CA1280F391F4A1F5B1F29A33AA3A8
:102430004BA35CA32E153F054007510740F480E0F5
:1024400090E0A1E0B0E0A80EB91ECA1EDB1E89A173
:102450009AA1ABA1BCA19D01442755272A0D3B1D84
:102460004C1D5D1D2D8F3E8F4F8F58A36C01BB24DB
:10247000AA248DA19EA1AFA1B8A5A070B070A80E8E
:10248000B91ECA1EDB1EA98EBA8ECB8EDC8E9A8C2C
:102490008B8C7C8C9E8D6F8D78A1FE01719688E06F
:1024A000DF011D928A95E9F72D8B9E8B6F8B788FBC
:1024B0002D853E854F8558896DA57EA58FA598A948
:1024C0000E948BE77B018C012D813E814F815885D5
:1024D00069A57AA58BA59CA50E948BE7E60EF71E41
:1024E000081F191F6D897E898F89988D6E0D7F1D3C
:1024F000801F911F6D8B7E8B8F8B988FEE892A2D7D
:10250000392D482D572D7E2F8F89988DE096E2E149
:102510000C942AE80F931F93CF93DF93689F800159
:10252000699F100D789F100D1124C8010DD0EC018A
:10253000009721F060E070E0A80173D1CE01DF9137
:10254000CF911F910F910895CF93DF93BC018230FB
:10255000910510F462E070E0A0912D17B0912E1754
:10256000ED01E0E0F0E040E050E021C08881998199
:102570008617970769F48A819B81309719F09383B6
:10258000828304C090932E1780932D17FE0134C0D0
:102590006817790738F44115510519F08417950724
:1025A00008F4AC01FE018A819B819C01E90120971E
:1025B000E9F641155105A9F1CA01861B970B04974D
:1025C00008F4BA01E0E0F0E02AC08D919C911197E7
:1025D00084179507F9F46417750781F412968D91A5
:1025E0009C911397309719F09383828304C0909342
:1025F0002E1780932D17FD0132964CC0CA01861B01
:10260000970BFD01E80FF91F6193719302978D936A
:102610009C9340C0FD01828193819C01D901109758
:10262000A1F680912B1790912C17892B41F4809162
:102630000F039091100390932C1780932B174091C8
:102640001103509112034115510541F44DB75EB786
:1026500080910D0390910E03481B590B20912B176D
:1026600030912C17CA01821B930B8617970780F0B5
:10267000AB014E5F5F4F8417950750F0420F531F19
:1026800050932C1740932B17F9016193719302C05B
:10269000E0E0F0E0CF01DF91CF910895CF93DF9399
:1026A000009709F450C0EC0122971B821A82A09176
:1026B0002D17B0912E17109709F140E050E0AC179C
:1026C000BD0708F1BB83AA83FE0121913191E20F7E
:1026D000F31FAE17BF0779F48D919C911197280FC6
:1026E000391F2E5F3F4F3983288312968D919C911D
:1026F00013979B838A834115510571F4D0932E174C
:10270000C0932D1720C012968D919C911397AD0107
:10271000009711F0DC01D3CFFA01D383C28321915A
:102720003191E20FF31FCE17DF0769F48881998199
:10273000280F391F2E5F3F4FFA01318320838A8192
:102740009B8193838283DF91CF91089566277727BA
:10275000D2C21F93FC0199278827BC01E8941191EC
:102760001032E9F3193010F01E30C8F31B3249F073
:102770001D3241F4689405C0B0D0610F711D811DF8
:10278000911D119110531A30B8F33EF49095809535
:10279000709561957F4F8F4F9F4F1F910895FB015B
:1027A000DC0102C005900D9241505040D8F70895C9
:1027B000FB01DC018D9181341CF08B350CF4805EC3
:1027C000659161341CF06B350CF4605E861B611101
:1027D00089F3990B0895FB01DC018D910590801917
:1027E0000110D9F3990B0895FC0105900020E9F739
:1027F000809590958E0F9F1F0895FC010590615064
:1028000070400110D8F7809590958E0F9F1F089506
:10281000FB01DC0102C001900D9241505040D8F7FD
:102820000895DC0101C06D9341505040E0F70895D8
:10283000FB01DC018D91019080190110D9F3990BF6
:102840000895FB01DC014150504048F001900D9289
:102850000020C9F701C01D9241505040E0F7089593
:10286000FC016150704001900110D8F7809590955F
:102870008E0F9F1F0895009731F4DA018D919C917E
:10288000009709F40EC0DC01FB013D912191222348
:1028900019F03217C9F3FACF332331F4DA011D925C
:1028A0001C928827992708951197AF93BF93FB0136
:1028B0003D912191321771F4332321F48827992710
:1028C000119702C01E921196FA01A193B0839F91B5
:1028D0008F910895222369F7EACF592F482F372F78
:1028E000262F660F771F881F991F660F771F881F77
:1028F000991F620F731F841F951F660F771F881F14
:10290000991F0895AEE0B0E0E8E8F4E10C941CE80B
:102910008C0177FF02C060E070E8615070407E83F8
:102920006D831A83098386E08C83CE010196BA01F8
:10293000A90111D02D813E8137FD09C0EF81F885B5
:102940002E173F070CF4F901E00FF11F10822E96AD
:10295000E4E00C9438E8ABE0B0E0E1EBF4E10C9497
:102960000EE83C012B015A01FC011782168283817B
:1029700081FD03C06FEF7FEFB9C19AE0892E1E0180
:102980000894211C311CF3012381F20123FD859160
:1029900023FF81912F01882309F4A5C1853239F4E1
:1029A00023FD859123FF81912F01853221F490E051
:1029B000B30116D3E8CF982FFF24EE249924FFE12A
:1029C000FF15D0F09B3269F09C3228F4903259F018
:1029D000933291F40EC09D3249F0903369F441E096
:1029E00024C052E0F52A84E0F82A28C098E0F92AA9
:1029F00025C0E0E1FE2A22C0F7FC29C0892F8053C0
:102A00008A3070F4F6FE05C0989C902C1124980E24
:102A100015C0E89CE02C1124E80EF0E2FF2A0EC05D
:102A20009E3229F4F6FC5FC140E4F42A07C09C36CC
:102A300019F450E8F52A02C0983649F4F20123FD52
:102A4000959123FF91912F01992309F0B8CF892FF8
:102A50008554833018F08052833038F444E050E0DD
:102A6000A40EB51E5FE359830FC0933631F0933740
:102A700079F0933509F052C01FC0F5018081898338
:102A800042E050E0A40EB51E610101E010E011C06B
:102A9000F501C080D180F6FC03C06FEF7FEF02C06C
:102AA000692D70E042E050E0A40EB51EC601D8DEEC
:102AB0008C015FE7F52213C0F501C080D180F6FCE0
:102AC00003C06FEF7FEF02C0692D70E042E050E07D
:102AD000A40EB51EC60191DE8C0150E8F52AF3FE66
:102AE00006C018C080E290E0B3017AD2EA948E2D3D
:102AF00090E008171907B0F30DC0F601F7FC8591B7
:102B0000F7FE81916F0190E0B3016AD2E110EA947F
:102B1000015010400115110581F7E2C0943611F003
:102B2000993661F5F7FE08C0F501208131814281B7
:102B3000538184E090E00AC0F501808191819C017D
:102B4000442737FD4095542F82E090E0A80EB91E2F
:102B50009FE6F92257FF09C0509540953095219581
:102B60003F4F4F4F5F4FE0E8FE2ACA01B901A10174
:102B70002AE030E076DBD82ED2183FC0953729F412
:102B80001F2D1F7E2AE030E01DC01F2D197F9F36AC
:102B900061F0903720F4983509F0A5C00FC0903748
:102BA00039F0983709F09FC004C028E030E00AC02F
:102BB000106114FD146020E130E004C014FD1660C3
:102BC00020E132E017FF08C0F50160817181828148
:102BD000938144E050E008C0F50180819181BC01FF
:102BE00080E090E042E050E0A40EB51EA10139DB88
:102BF000D82ED2188FE7F82EF122F6FE0BC05EEF2A
:102C0000F522D91438F4F4FE07C0F2FC05C08FEEAB
:102C1000F82202C01D2D01C0192DF4FE0DC0FE01C9
:102C2000ED0DF11D8081803319F499EEF92208C071
:102C30001F5FF2FE05C003C08F2D867809F01F5F6D
:102C40000F2DF3FC13C0F0FE0EC01E1510F09D2CCE
:102C50000AC09D2C9E0C911A1E2D05C080E290E0AA
:102C6000B301BED11F5F1E15C8F304C01E1510F4BA
:102C7000E11A01C0EE2404FF0EC080E390E0B3012E
:102C8000AFD102FF1BC001FD03C088E790E00EC07A
:102C900088E590E00BC0802F867881F001FF02C0AC
:102CA0008BE201C080E2F7FC8DE290E0B30198D1A5
:102CB00005C080E390E0B30193D19A94D914C8F38E
:102CC000DA94F101ED0DF11D808190E0B30188D11E
:102CD000DD20B1F705C080E290E0B30181D1EA9434
:102CE000EE20C9F750CEF30166817781CB012B9698
:102CF000E2E10C942AE8A0E0B0E0E1E8F6E10C940F
:102D000014E8EC015B016115710519F0FB01918379
:102D10008083F9908F2D90E00E9453E8892BC9F7AA
:102D2000FDE2FF1621F4F990EE24E39405C02BE2B6
:102D3000F21609F4F990EE248E0101501040C801FA
:102D40006FE070E243E050E033D1892BF9F48E015B
:102D50000E5F1F4FC80162E170E245E050E028D1EC
:102D6000892B19F48E01095F1F4FA114B10419F0CA
:102D7000F50111830083E0FC04C070E090E080E87E
:102D800013C070E090E080E86FEF07C1C80167E111
:102D900070E243E050E00CD1892B69F4A114B10436
:102DA00029F470E090E080EC6FE7F7C02296F5011F
:102DB000D183C083F6CF8824992440E050E060E0BE
:102DC00070E0EF2DE053EA30A0F5F2E0EF2A8E2D0F
:102DD00090E09C0128703070E2FE06C0232B79F54C
:102DE0000894811C911C2BC0232B19F00894810896
:102DF0009108DB01CA0112E0880F991FAA1FBB1FAF
:102E00001A95D1F7480F591F6A1F7B1F440F551F92
:102E1000661F771F4E0F511D611D711D483929E92D
:102E2000520729E9620729E1720748F084E0E82A9D
:102E300006C0EE3F31F4E3FC39C098E0E92AF9908E
:102E4000C0CFE53311F0E53189F529912D3219F420
:102E5000E0E1EE2A05C02B3219F081E090E003C0DA
:102E6000299182E090E0E22FE053EA3018F0C81B8D
:102E7000D90B1CC020E030E0FCE020383F075CF4B8
:102E8000C901880F991F880F991F280F391F220F1A
:102E9000331F2E0F311DE991E053EA3068F3E4FE51
:102EA00003C0309521953F4F820E931ECE2CDD241A
:102EB000E1FE07C0A114B10421F02197F501D183EF
:102EC000C083CB01BA010E9423E57B018C01F3E0B2
:102ED000CF22DD2423E0C216D10421F417FB109584
:102EE00017F9109557016801C801B70120E030E0DB
:102EF00040E050E00E9483E4882309F44AC097FE32
:102F00000DC02EE2E22E20E2F22E909481949108E0
:102F10009394C0E2D0E000E010E012C096E4E92E05
:102F200090E2F92EF6CFF701259135914591549114
:102F3000C601B5010E9496E65B016C018C1A9D0AE0
:102F40008C169D0684F7D595C7950F5F1F4F0630E9
:102F5000110529F08CEF9FEFE80EF91EF1CFC501A6
:102F6000D6017C018D018C2D880F8D2D881F8F3F00
:102F700051F0C601B50120E030E040E050E00E9491
:102F800083E4882331F482E290E0909330178093B9
:102F90002F177E2D9F2D802F612F272F392F482F00
:102FA000562FB901CA01CDB7DEB7ECE00C9430E87A
:102FB000FB01DC014150504088F08D9181341CF0C0
:102FC0008B350CF4805E659161341CF06B350CF42C
:102FD000605E861B611171F3990B0895881BFCCF0D
:102FE0000F931F93CF93DF938C01EB018B8181FFB4
:102FF0001BC082FF0DC02E813F818C819D812817CF
:10300000390764F4E881F9810193F983E88306C004
:10301000E885F985802F1995892B31F48E819F8160
:1030200001969F838E8302C00FEF1FEFC801DF91CF
:10303000CF911F910F9108959C01F999FECF32BD58
:1030400021BDF89A60B5F999FECF2F5F3F4F32BD91
:1030500021BD21503040F89A70B5F999FECF2E5F0E
:103060003F4F32BD21BD22503040F89A80B5F999CA
:10307000FECF2D5F3F4F32BD21BDF89A90B5089528
:103080009C01F999FECF1FBA32BD21BD40BD0FB6DC
:10309000F894FA9AF99A0FBEF999FECF1FBA2F5FEA
:1030A0003F4F32BD21BD2150304050BD0FB6F89486
:1030B000FA9AF99A0FBEF999FECF1FBA2E5F3F4FC9
:1030C00032BD21BD2250304060BD0FB6F894FA9A4F
:1030D000F99A0FBEF999FECF1FBA2D5F3F4F32BD4F
:1030E00021BD70BD0FB6F894FA9AF99A0FBE0895F3
:1030F000CF93DF93FC01EB014230510570F0638503
:1031000074858585968520E030E040E854E40E948F
:1031100096E60E94F7E47983688382E090E0DF918D
:10312000CF910895CF93DF93EC01FB01423051051D
:1031300018F420E030E012C06081718180E090E0FE
:103140000E9423E520E030E040E85AE30E9496E642
:103150006B877C878D879E8722E030E0C901DF91F5
:10316000CF91089508950895089560E070E080E09B
:1031700090E0089560E070E080E090E0089560E005
:1031800070E080E090E0089560E070E080E090E022
:10319000089560E070E080E090E0089560E070E005
:1031A00080E090E00895DC01FB0187818C938681AB
:1031B00011968C931197858112968C931297848126
:1031C00013968C931397838114968C931497828112
:1031D00015968C931597818116968C9316978081FE
:1031E00017968C9308951F920F920FB60F920BB6FD
:1031F0000F9211242F933F934F938F939F93EF93AD
:10320000FF934091C6002091EF143091F0142F5F8E
:103210003F4F8091F3149091F41428233923809127
:10322000F1149091F2142817390779F08091EF1476
:103230009091F014E091F514F091F614E80FF91F55
:1032400040833093F0142093EF14FF91EF919F91FE
:103250008F914F913F912F910F900BBE0F900FBE0A
:103260000F901F9018951F920F920FB60F920BB6EA
:103270000F9211242F933F938F939F93EF93FF937C
:10328000209111153091121580910F159091101504
:1032900028173907E9F08091111590911215E091E6
:1032A0001515F0911615E80FF91F80818093C6005F
:1032B000809111159091121501962091131530915E
:1032C000141582239323909312158093111510C027
:1032D00020910F15309110158091111590911215B4
:1032E0002817390729F48091C1008F7D8093C10090
:1032F000FF91EF919F918F913F912F910F900BBE76
:103300000F900FBE0F901F9018951F920F920FB63F
:103310000F920BB60F9211242F933F934F938F93DD
:103320009F93EF93FF934091CE002091F71430913B
:10333000F8142F5F3F4F8091FB149091FC142823C9
:1033400039238091F9149091FA142817390779F0EC
:103350008091F7149091F814E091FD14F091FE140F
:10336000E80FF91F40833093F8142093F714FF916E
:10337000EF919F918F914F913F912F910F900BBEA5
:103380000F900FBE0F901F9018951F920F920FB6BF
:103390000F920BB60F9211242F933F938F939F930D
:1033A000EF93FF932091191530911A1580911715FD
:1033B0009091181528173907E9F080911915909107
:1033C0001A15E0911D15F0911E15E80FF91F808167
:1033D0008093CE008091191590911A150196209135
:1033E0001B1530911C158223932390931A158093FB
:1033F000191510C0209117153091181580911915C5
:1034000090911A152817390729F48091C9008F7DEA
:103410008093C900FF91EF919F918F913F912F91E0
:103420000F900BBE0F900FBE0F901F9018951F921C
:103430000F920FB60F920BB60F9211242F933F935A
:103440004F938F939F93EF93FF9340913601209179
:103450000715309108152F5F3F4F80910B15909104
:103460000C15282339238091091590910A152817E6
:10347000390779F08091071590910815E0910D15A5
:10348000F0910E15E80FF91F408330930815209333
:103490000715FF91EF919F918F914F913F912F9140
:1034A0000F900BBE0F900FBE0F901F9018951F929C
:1034B0000F920FB60F920BB60F9211242F933F93DA
:1034C0008F939F93EF93FF932091291530912A15A5
:1034D000809127159091281528173907E9F08091D8
:1034E000291590912A15E0912D15F0912E15E80FD0
:1034F000F91F8081809336018091291590912A15BA
:10350000019620912B1530912C15822393239093B3
:103510002A158093291510C0209127153091281560
:103520008091291590912A152817390729F480913F
:1035300031018F7D80933101FF91EF919F918F91A8
:103540003F912F910F900BBE0F900FBE0F901F90C9
:103550001895609103097091040980910509909173
:1035600006090E94F2E49B016031710534F0CB0141
:1035700064E670E00E94AAE79C0180E0275F3F4F6D
:103580002331310508F081E00895609103097091BD
:10359000040980910509909106090E94F2E49B01BB
:1035A0006739710534F0CB0168EE73E00E94AAE739
:1035B0009C0180E02D593F4F273C310508F081E008
:1035C00008954F925F926F927F928F929F92AF92E7
:1035D000BF92CF92DF92EF92FF920F931F93DF93F0
:1035E000CF93CDB7DEB72F970FB6F894DEBF0FBEDF
:1035F000CDBF9A2DA982EB2DBA82FC2DCB82DC8225
:10360000ED82FE820F83188729873A874B875C8774
:103610006D877E878F874C815D816E817F81A884D5
:10362000B984CA84DB844C845D846E847F8497FE75
:1036300003C020E030E00BC080912B09A82FBB27EE
:10364000A7FDB0959401A815B9050CF49D01890159
:1036500084E0000F111F8A95E1F7021B130B005045
:103660001C4FE0FD02C0E0E006C0E0E0232B09F4BF
:10367000E1E081E0E827F999FECF1FBA12BD01BD54
:1036800090BD0FB6F894FA9AF99A0FBEC801AA270E
:1036900097FDA095BA2F0196A11DB11DF999FECFF6
:1036A0001FBA92BD81BDE0BD0FB6F894FA9AF99A9F
:1036B0000FBE7C018D010894E11CF11C011D111D40
:1036C000F999FECF1FBAF2BCE1BCF0BD0FB6F89479
:1036D000FA9AF99A0FBE0894E11CF11C011D111D04
:1036E000C701CEDC84E090E0A0E0B0E0E80EF91E77
:1036F0000A1F1B1FC701B601A501C2DC84E090E0D0
:10370000A0E0B0E0E80EF91E0A1F1B1FC701B301BD
:10371000A201B6DC2F960FB6F894DEBF0FBECDBF68
:10372000CF91DF911F910F91FF90EF90DF90CF909D
:10373000BF90AF909F908F907F906F905F904F90D1
:103740000895AF92BF92CF92DF92EF92FF920F93C4
:103750001F93DF93CF93CDB7DEB728970FB6F894BA
:10376000DEBF0FBECDBF9C0180916709992787FD01
:1037700090958217930740F4AA24BB24650180E04A
:1037800090E0A0E0B0E01EC024513E4F93E0220F35
:10379000331F9A95E1F7790100E010E0C9014CDC94
:1037A000AC01CB01DA015C016D0184E090E0A0E0A6
:1037B000B0E0E80EF91E0A1F1B1FC7013DDCAC017B
:1037C000CB01DA01A982BA82CB82DC828D839E830F
:1037D000AF83B8872A2D3A814B815C81682F7E8127
:1037E0008F81988528960FB6F894DEBF0FBECDBFA7
:1037F000CF91DF911F910F91FF90EF90DF90CF90CD
:10380000BF90AF90089580912D03882321F480917B
:10381000710B8130B1F52091FB123091FC12409177
:10382000FD125091FE1280917F0590918005A0912C
:103830008105B0918205281B390B4A0B5B0B2135A2
:1038400086E4380780E0480780E058072CF0205ACB
:103850003C48404050400CC0203B89EB38078FEF7C
:1038600048078FEF580724F4205633474F4F5F4FD8
:103870002093601430936114409362145093631446
:103880000895E091F112F091F2122091FB12309123
:10389000FC124091FD125091FE12848D958DA68DE3
:1038A000B78DC9CF2091240C3091250C80914A0C02
:1038B00090914B0C281B390B253631051CF08AE002
:1038C000809359132C593F4F1CF486EF8093591362
:1038D0008091591318161CF48150809359138091CC
:1038E000591387FF03C08F5F809359138091591339
:1038F000813019F08F3F09F080E00895CF93DF9376
:10390000FC01EB014430510540F083859485A58589
:10391000B68588839983AA83BB8384E090E0DF9196
:10392000CF910895CF93DF93EC01FB014430510513
:1039300040F080819181A281B3818B879C87AD8784
:10394000BE8784E090E0DF91CF910895FC0163850C
:103950007485858596850C9425E5FC01DB01452B56
:1039600011F083858C9381E090E00895DC01FB01E8
:10397000452B19F080811B968C9381E090E008958F
:10398000FC016385772767FD7095872F972F0C942F
:1039900025E5FC01DB014230510520F0838594854B
:1039A0008D939C9382E090E00895DC01FB0142300E
:1039B000510530F0808191811C969C938E931B97CA
:1039C00082E090E00895FC0163857485882777FD87
:1039D0008095982F0C9425E5FC0123853485458539
:1039E0005685B901CA010895CF93DF93FC01EB011D
:1039F0004430510540F083859485A585B68588833C
:103A00009983AA83BB8384E090E0DF91CF910895EE
:103A1000CF93DF93EC01FB014430510540F08081EE
:103A20009181A281B3818B879C87AD87BE8784E01B
:103A300090E0DF91CF910895EF92FF920F931F9343
:103A40007A018B01863251F1873234F4893069F082
:103A5000833109F056C016C08F36C1F1833709F49F
:103A600043C0893309F04DC025C08CEF94E066E374
:103A70007DE10E94A6AA70E8E72E75E2F72E012DDF
:103A8000112D45C08CEF94E06AE27DE10E94A6AA68
:103A9000E12C6BE4F62E012D112D39C08CEF94E052
:103AA0006EE17DE10E94A6AAE12C56E9F52E012DDA
:103AB000112D2DC08CEF94E062E17DE10E94A6AA59
:103AC000E12C41EEF42E012D112D21C08CEF94E05C
:103AD00066E07DE10E94A6AA3CEFE32E31EBF32ED7
:103AE00031E0032F112D13C08CEF94E06AEF7CE1DD
:103AF0000E94A6AAE12C22ECF22E21E0022F112D29
:103B000006C08CEF94E065EE7CE10E94A6AAB701A6
:103B1000C8011F910F91FF90EF90089500D00F9270
:103B20008CEF94E0EDB7FEB79283818383EE94E04F
:103B3000948383830E9486AA0F900F900F900F901A
:103B4000089500D00F928CEF94E0EDB7FEB792830A
:103B500081838CE897E0948383830E9486AA0F90E8
:103B60000F900F900F9080E0089500D00F928CEF8F
:103B700094E0EDB7FEB79283818383E599E0948367
:103B800083830E9486AA80E090E00F900F900F90B0
:103B90000F90F999FECF1FBA92BD81BD10BC0FB630
:103BA000F894FA9AF99A0FBE0196F0E180309F07D7
:103BB00081F700D00F928CEF94E0EDB7FEB79283BF
:103BC00081838DE499E0948383830E9486AA0F9079
:103BD0000F900F900F9008950F931F938DB79EB77E
:103BE0000A970FB6F8949EBF0FBE8DBFEDB7FEB714
:103BF00031960CEF14E0ADB7BEB712961C930E933E
:103C000011978CEF99E09383828380913D0C909182
:103C10003E0C9583848380914A0C90914B0C978342
:103C200086838091570C9091580C918780870E94D1
:103C300086AAEDB7FEB73196ADB7BEB712961C9304
:103C40000E93119789EE99E0938382838091A00C63
:103C50009091A10C958384838091AD0C9091AE0CD2
:103C6000978386838091BA0C9091BB0C9187808753
:103C70000E9486AAEDB7FEB73196ADB7BEB71296D1
:103C80001C930E93119786ED99E093838283809124
:103C9000030D9091040D958384838091100D909174
:103CA000110D9783868380911D0D90911E0D918734
:103CB00080870E9486AAEDB7FEB73196ADB7BEB732
:103CC00012961C930E93119783EC99E09383828351
:103CD0008091660D9091670D958384838091730D1B
:103CE0009091740D978386838091800D9091810DC2
:103CF000918780870E9486AAEDB7FEB73196ADB74F
:103D0000BEB712961C930E93119780EB99E09383A4
:103D100082838091C90D9091CA0D9583848380918F
:103D2000D60D9091D70D978386838091E30D909166
:103D3000E40D918780870E9486AAEDB7FEB7319681
:103D4000ADB7BEB712961C930E9311978DE999E00B
:103D5000938382838091520E9091530E9583848336
:103D600080915F0E9091600E9783868380916C0E98
:103D700090916D0E918780870E9486AAEDB7FEB75D
:103D80003196ADB7BEB712961C930E9311978AE881
:103D900099E0938382838091DB0E9091DC0E958372
:103DA00084838091E80E9091E90E978386838091B9
:103DB000F50E9091F60E918780870E9486AAEDB746
:103DC000FEB73196ADB7BEB712961C930E931197FE
:103DD00087E799E0938382838091640F9091650FC8
:103DE000958384838091710F9091720F978386835E
:103DF00080917E0F90917F0F918780870E9486AA85
:103E00008DB79EB70A960FB6F8949EBF0FBE8DBFB2
:103E10001F910F910895CF93DF93FC018DB79EB74B
:103E200044970FB6F8949EBF0FBE8DBF2DB73EB717
:103E30002F5F3F4F8CEF94E0ADB7BEB712969C93C7
:103E40008E93119781E09BE0E9019B838A838689A9
:103E50009789A08DB18D8C839D83AE83BF8385A10F
:103E600096A1A7A1B0A588879987AA87BB8784A9AF
:103E700095A9A6A9B7A98C879D87AE87BF87ED5B5B
:103E8000FF4F80819181AA2797FDA095BA2FF90154
:103E9000808B918BA28BB38B0E9486AA8DB79EB725
:103EA00044960FB6F8949EBF0FBE8DBFDF91CF91A1
:103EB00008958DB79EB740970FB6F8949EBF0FBE7A
:103EC0008DBFEDB7FEB731968CEF94E0ADB7BEB7BE
:103ED00012969C938E9311978DEB9BE09383828334
:103EE00080E090E0A0E0B0E084839583A683B78370
:103EF00080879187A287B38784879587A687B787AE
:103F00000E9486AA8DB79EB740960FB6F8949EBFC2
:103F10000FBE8DBF08958DB79EB740970FB6F8942A
:103F20009EBF0FBE8DBFEDB7FEB731968CEF94E00C
:103F3000ADB7BEB712969C938E93119780EE9BE01F
:103F40009383828380E090E0A0E0B0E08483958357
:103F5000A683B78380879187A287B3878487958755
:103F6000A687B7870E9486AA8DB79EB740960FB6E0
:103F7000F8949EBF0FBE8DBF08952CEF34E08823C8
:103F800049F000D00F92EDB7FEB7328321838BE664
:103F90009CE008C000D00F92EDB7FEB732832183BA
:103FA00087E69CE0948383830E9486AA8CEF94E04A
:103FB000EDB7FEB79283818380E69CE09483838390
:103FC0000E9486AA0F900F900F900F90089500D036
:103FD0000F928CEF94E0EDB7FEB7928381838CE073
:103FE0009DE0948383830E9486AA0F900F900F9088
:103FF0000F900895CF93DF93CCEFD4E0CE016BE325
:1040000074E00E94A6AA85E495E00E947EC68823FB
:1040100031F4CE0160E274E00E94A6AA83C085E478
:1040200095E00E9424C82DB73EB7285030400FB607
:10403000F8943EBF0FBE2DBFEDB7FEB73196ADB7BA
:10404000BEB71296DC93CE93119789EF93E09383DA
:1040500082838091560584831582809157059091C3
:104060005805978386830E9486AAEDB7FEB73196DE
:10407000ADB7BEB71296DC93CE9311978DED93E05A
:104080009383828380915B0590915C050196958373
:1040900084838091590590915A05978386830E9465
:1040A00086AA2DB73EB7285F3F4F0FB6F8943EBFA4
:1040B0000FBE2DBF60915B0570915C056F5F7F4FF8
:1040C00085E495E00E9469C285E495E00E9479C389
:1040D000ADB7BEB71C970FB6F894BEBF0FBEADBF4D
:1040E000EDB7FEB731961296DC93CE9311972AEA7C
:1040F00033E033832283648375838683978381E1EE
:1041000090E2A2E1B8E280879187A287B3870E94FC
:1041100086AA2DB73EB7245F3F4F0FB6F8943EBF37
:104120000FBE2DBF80E0DF91CF9108958091B20A3C
:10413000882309F447C080910901881F8827881FB8
:104140008093BE0A882309F56CB1661F6627661F37
:1041500089E19CE00E94EAD46CB170E0B6E076950B
:104160006795BA95E1F761708CE79CE00E94EAD40C
:104170006091090170E0A6E076956795AA95E1F750
:10418000617082E49DE00C94EAD48CB11092CA0A6A
:1041900087FF03C081E08093CA0A8CB190E0F6E00B
:1041A00096958795FA95E1F781708093D60A80916C
:1041B000090190E0E6E096958795EA95E1F7817030
:1041C0008093E20A0895CF92DF92EF92FF920F93CD
:1041D0001F93CF93DF93A2DC68EE73E080E090E062
:1041E0000E94CBDF8091B20A882331F48CEF94E0F7
:1041F0006FEB74E00E94A6AA05E5C02E04E0D02E65
:1042000017E8E12E14E0F12ECCEFD4E064E670E084
:1042100080E090E00E94CBDF89DF8091BE0A882396
:1042200049F589E19CE00E94F4D4082F8CE79CE0DA
:104230000E94F4D4182F82E49DE00E94F4D42DB79C
:104240003EB72A5030400FB6F8943EBF0FBE2DBF88
:10425000EDB7FEB73196ADB7BEB71296DC93CE93ED
:104260001197F382E2820483158216831782808776
:10427000118628C08DB79EB70A970FB6F8949EBFD7
:104280000FBE8DBFEDB7FEB73196ADB7BEB7129674
:10429000DC93CE931197D382C2828091CA0A992768
:1042A00087FD9095958384838091D60A992787FD11
:1042B0009095978386838091E20A992787FD909550
:1042C000918780870E9486AA2DB73EB7265F3F4F11
:1042D0000FB6F8943EBF0FBE2DBF8CEF94E00E9446
:1042E00007AB181619060CF091CF80E0DF91CF9143
:1042F0001F910F91FF90EF90DF90CF900895609104
:104300002B0A615083E395E00E9462BE9C018F58A6
:1043100093408B59944010F08FEF0895C9018F5C42
:1043200094408238910510F481E00895C9018155C7
:1043300095408238910510F482E00895C901835DAB
:1043400095408238910510F483E00895C9018555A0
:1043500096408138910510F484E00895265D36403A
:1043600010F480E0089585E00895FF920F931F9365
:10437000CF93DF93D3DB68EE73E080E090E00E94A0
:10438000CBDF00D00F920CEF14E0ADB7BEB71296A2
:104390001C930E93119785E095E014969C938E9351
:1043A00013970E9486AA0F900F900F900F90C8014C
:1043B00068E070E04AE050E00E9423E3C8EFD4E0F8
:1043C000F02E012F64E170E080E090E00E94CBDFEE
:1043D00096DF182F80914F088117E1F000D000D0B0
:1043E000EDB7FEB73196ADB7BEB71196FC921197F7
:1043F00012960C93D383C283148315820E9486AADB
:1044000010934F08EDB7FEB736960FB6F894FEBF7F
:104410000FBEEDBF8CEF94E00E9407AB1816190693
:104420008CF680E0DF91CF911F910F91FF9008955E
:1044300080915B09882361F060917309662341F0E4
:10444000615083E395E00E9462BE885E934058F419
:10445000E0915713F0915813309711F480E00895CC
:10446000128280E00895E091F112F091F21280A59D
:104470008823C1F381E00895AF92BF92CF92DF927B
:10448000EF92FF920F931F93CF93DF9327E1A22E1A
:1044900025E0B22E91E1C92E95E0D92E00E010E082
:1044A0008CEFE82E84E0F82E00D000D0EDB7FEB7F8
:1044B0003196ADB7BEB71296FC92EE921197B382C9
:1044C000A282158304830E9486AAC0E0D0E08DB743
:1044D0009EB706960FB6F8949EBF0FBE8DBFF99992
:1044E000FECFCE01800F911F92BD81BDF89A80B59D
:1044F00000D000D0EDB7FEB73196ADB7BEB712967B
:10450000FC92EE921197D382C282848315820E941C
:1045100086AA21968DB79EB706960FB6F8949EBFD1
:104520000FBE8DBFC031D105D1F6C7010E9405E392
:10453000005F1F4F90E10030190709F0B5CF80E010
:10454000DF91CF911F910F91FF90EF90DF90CF906F
:10455000BF90AF90089500D00F928CEF94E0EDB72C
:10456000FEB79283818382EF98E0948383830E94D5
:1045700086AA0F900F900F900F908CEF94E00E94FE
:1045800037ABFFEF8F3F9F07C1F38937910529F0C4
:104590008935910511F08FEF0895E7DA80E00895ED
:1045A000BDDA68EE73E080E090E00E94CBDF00D0DF
:1045B0000F928CEF94E0EDB7FEB7928381838DE18B
:1045C00095E0948383830E9486AA0F900F900F90AA
:1045D0000F9080E295E00E9407AB892B49F080E2C2
:1045E00095E00E9437AB682F80E295E00E9496AB81
:1045F0008CEF94E00E9407AB1816190654F780E080
:104600000895EF92FF920F931F93CF93DF93EC01E6
:1046100080912B09992787FD9095861797073CF481
:104620008FE0DE011D928A95E9F7188259C0FB01DF
:1046300034E0EE0FFF1F3A95E1F7E61BF70BE05071
:10464000FC4FF999FECFF2BDE1BDF89A80B58883A1
:104650009F01442737FD4095542F2F5F3F4F4F4F09
:104660005F4FF999FECF32BD21BDF89A80B589839D
:1046700079018A010894E11CF11C011D111DF999B1
:10468000FECFF2BCE1BCF89A80B58A830894E11CA5
:10469000F11C011D111DC7010E941C186B837C8336
:1046A0008D839E8384E090E0A0E0B0E0E80EF91EE8
:1046B0000A1F1B1FC7010E941C186F8378878987F8
:1046C0009A8784E090E0A0E0B0E0E80EF91E0A1FAF
:1046D0001B1FC7010E941C186B877C878D879E87D4
:1046E00088818F3510F08137B9F4898180FF14C03B
:1046F0008B819C81AD81BE8120912712309128123F
:104700004091291250912A12820F931FA41FB51FA6
:104710008B839C83AD83BE83CE01DF91CF911F91AC
:104720000F91FF90EF9008958F929F92AF92BF925A
:10473000DF92EF92FF920F931F93DF93CF93CDB74A
:10474000DEB72F970FB6F894DEBF0FBECDBF68EE71
:1047500073E080E090E00E94CBDF2091480B309125
:10476000490B8CEF94E037FF15C000D00F92ADB726
:10477000BEB712969C938E9311978CE895E0149691
:104780009C938E9313970E9486AA0F900F900F9080
:104790000F9020C000D000D0EDB7FEB73196ADB776
:1047A000BEB712969C938E93119786E795E09383FC
:1047B0008283C90164E670E00E94AAE7758364837E
:1047C0000E9486AAEDB7FEB736960FB6F894FEBFE4
:1047D0000FBEEDBF00D000D0EDB7FEB731960CEFA5
:1047E00014E0ADB7BEB712961C930E93119788E6EE
:1047F00095E09383828380912B09992787FD90957B
:10480000958384830E9486AAEDB7FEB73196ADB733
:10481000BEB712961C930E93119788E595E093838B
:10482000828380914309992787FD9095958384839E
:104830000E9486AAEDB7FEB73196ADB7BEB7129605
:104840001C930E93119784E495E093838283809167
:104850004F09992787FD9095958384830E9486AAA6
:1048600043EA842E45E0942EFF24EDB7FEB736963A
:104870000FB6F894FEBF0FBEEDBF5E010894A11CF9
:10488000B11CD02EE12E45C0C501B801BADE8DB7EE
:104890009EB748970FB6F8949EBF0FBE8DBFEDB779
:1048A000FEB73196ADB7BEB71196DC92119712964E
:1048B000EC92938282821583048389818683178296
:1048C0008A81808711868B81828713868C819D8166
:1048D000AE81BF8184879587A687B78788859985AC
:1048E000AA85BB85808B918BA28BB38B8C859D8594
:1048F000AE85BF85848B958BA68BB78B0E9486AACD
:10490000F394EDB7FEB778960FB6F894FEBF0FBEDE
:10491000EDBF0F2D10E080912B09992787FD909511
:10492000801791070CF0B0CF80E02F960FB6F89467
:10493000DEBF0FBECDBFCF91DF911F910F91FF90D2
:10494000EF90DF90BF90AF909F908F900895EF927F
:10495000FF920F931F93CF93DF93E0D868EE73E03D
:1049600080E090E00E94CBDF5AEEE52E55E0F52E78
:104970000FED15E0CCEFD4E000D00F92EDB7FEB70D
:10498000D283C183F482E3820E9486AA0F900F90A3
:104990000F900F9081E598E00E941EDA68EB7BE0B3
:1049A00080E090E00E94CBDFCE010E9407AB18169A
:1049B0001906F4F000D00F92EDB7FEB7D283C18391
:1049C000148303830E9486AA0F900F900F900F907C
:1049D00081E598E00E9424DA68EB7BE080E090E0DB
:1049E0000E94CBDFCE010E9407AB1816190624F6F1
:1049F00080E0DF91CF911F910F91FF90EF9008958C
:104A0000EF92FF920F931F9380E00E9486E0AA2707
:104A100097FDA095BA2FBC01CD010E9425E57B0131
:104A20008C016091B40B7091B50B8091B60B909195
:104A3000B70B20E030E040E85AE30E9496E69B0185
:104A4000AC01C801B7010E9496E62091960B309107
:104A5000970B4091980B5091990B0E9496E62DEC84
:104A60003CEC4CEC5DE30E9496E67B018C0160918E
:104A7000140370911503809116039091170326E695
:104A800036E646E65FE30E9496E69B01AC01C8016C
:104A9000B7010E94BDE360931403709315038093E4
:104AA00016039093170381E00E9486E0AA2797FDE2
:104AB000A095BA2FBC01CD010E9425E57B018C0198
:104AC0006091B40B7091B50B8091B60B9091B70BC0
:104AD00020E030E040E85AE30E9496E69B01AC01FA
:104AE000C801B7010E9496E62091960B3091970B72
:104AF0004091980B5091990B0E9496E62DEC3CEC5E
:104B00004CEC5DE30E9496E67B018C0160911803FA
:104B10007091190380911A0390911B0326E636E6E3
:104B200046E65FE30E9496E69B01AC01C801B7012F
:104B30000E94BDE3609318037093190380931A03D6
:104B400090931B0382E00E9486E0AA2797FDA09520
:104B5000BA2FBC01CD010E9425E57B018C0160913B
:104B6000B40B7091B50B8091B60B9091B70B20E010
:104B700030E040E85AE30E9496E69B01AC01C80190
:104B8000B7010E9496E62091960B3091970B4091C9
:104B9000980B5091990B0E9496E62DEC3CEC4CEC56
:104BA0005DE30E9496E67B018C0160911C0370918D
:104BB0001D0380911E0390911F0326E636E646E60C
:104BC0005FE30E9496E69B01AC01C801B7010E9419
:104BD000BDE360931C0370931D0380931E039093A9
:104BE0001F0383E00E9486E0AA2797FDA095BA2FB5
:104BF000BC01CD010E9425E57B018C016091B40BC5
:104C00007091B50B8091B60B9091B70B20E030E01E
:104C100040E85AE30E9496E69B01AC01C801B70147
:104C20000E9496E62091960B3091970B4091980B3D
:104C30005091990B0E9496E62DEC3CEC4CEC5DE318
:104C40000E9496E67B018C01609120037091210304
:104C5000809122039091230326E636E646E65FE341
:104C60000E9496E69B01AC01C801B7010E94BDE31A
:104C70007B018C01CB01D801809320039093210309
:104C8000A0932203B093230320918A0B213049F48F
:104C900080911C0390911D03A0911E03B0911F03EE
:104CA00004C0223059F4C701D801809324039093A3
:104CB0002503A0932603B093270390C0233019F057
:104CC000243009F08BC08091140390911503A091BA
:104CD0001603B09117038093240390932503A093A8
:104CE0002603B0932703243009F078C081E00E94A6
:104CF00086E0AA2797FDA095BA2FBC01CD010E949E
:104D000025E57B018C016091B40B7091B50B80910E
:104D1000B60B9091B70B20E030E040E85AE30E94D8
:104D200096E69B01AC01C801B7010E9496E620916E
:104D3000A50B3091A60B4091A70B5091A80B0E9498
:104D400096E62DEC3CEC4CEC5DE30E9496E67B0194
:104D50008C016091331270913412809135129091D0
:104D6000361226E636E646E65FE30E9496E69B01AB
:104D7000AC01C801B7010E94BDE37B018C016093C7
:104D800033127093341280933512909336126091DF
:104D90003B1270E080E090E00E9423E59B01AC01B3
:104DA000C801B7010E9496E627E830EC41E959E3D3
:104DB0000E9496E69B01AC01609137127091381207
:104DC0008091391290913A120E94BDE3609337129C
:104DD000709338128093391290933A121F910F9169
:104DE000FF90EF900895CF93DF9380918A0B181670
:104DF0000CF065C084300CF062C0C0E0D0E064E12B
:104E000070E080E090E00E94CBDFFADD2196C035B3
:104E1000D105A9F78DB79EB744970FB6F8949EBFFA
:104E20000FBE8DBFEDB7FEB731968CEF94E0ADB7F6
:104E3000BEB712969C938E93119781E096E0938370
:104E400082838091140390911503A0911603B09171
:104E5000170384839583A683B78380911803909169
:104E60001903A0911A03B0911B0380879187A28731
:104E7000B38780911C0390911D03A0911E03B091F4
:104E80001F0384879587A687B78780912003909119
:104E90002103A0912203B0912303808B918BA28BDD
:104EA000B38B0E9486AAEDB7FEB774960FB6F8943E
:104EB000FEBF0FBEEDBF80E0DF91CF91089500D01F
:104EC0000F928CEF94E0ADB7BEB712969C938E9381
:104ED000119784EF95E014969C938E9313970E94FC
:104EE00086AA0F900F900F900F90E5CFCF93DF938E
:104EF000EC0107C021978CEF94E060E072E00E9423
:104F00001AE31C161D06B4F3DF91CF910895FF92AA
:104F10000F931F93F62E00D000D0EDB7FEB7319659
:104F20000CEF14E0ADB7BEB712961C930E93119719
:104F30002FEA3BE033832283848315820E9486AA72
:104F40008DB79EB706960FB6F8949EBF0FBE8DBF65
:104F5000EF2DF0E0EE0FFF1FEA5AFC4F60817181E8
:104F6000C8010E941AE31F910F91FF900895EF92DC
:104F7000FF920F931F93CF93DF937EE6E72E7CE0A3
:104F8000F72EC0E0D0E00CEF14E000D00F92EDB7A8
:104F9000FEB712830183F482E3820E9486AA2196DF
:104FA0000F900F900F900F90C832D10571F7C80184
:104FB00060E072E00E941AE3DF91CF911F910F91A0
:104FC000FF90EF90089500D00F928CEF94E0EDB732
:104FD000FEB79283818380E799E0948383830E9464
:104FE00086AA0F900F900F900F90C1DF0E94EC1DCA
:104FF00082E090E07BCFCF93DF9300D00F92CCEF95
:10500000D4E0EDB7FEB7D283C1838FE79AE09483F3
:1050100083830E9486AA0F900F900F900F90A7DFB6
:1050200080918A0B882381F400D00F92EDB7FEB7F0
:10503000D283C18386E69AE0948383830E9486AA02
:105040000F900F900F900F9080918A0B813091F408
:1050500000D00F928CEF94E0EDB7FEB7928381837E
:1050600084E59AE0948383830E9486AA0F900F9030
:105070000F900F9080918A0B823091F400D00F92A4
:105080008CEF94E0EDB7FEB79283818382E49AE0DF
:10509000948383830E9486AA0F900F900F900F90A5
:1050A00080918A0B833091F400D00F928CEF94E0C2
:1050B000EDB7FEB7928381838CE29AE09483838379
:1050C0000E9486AA0F900F900F900F9080918A0BEC
:1050D000843091F400D00F928CEF94E0EDB7FEB7DE
:1050E000928381838FE09AE0948383830E9486AACF
:1050F0000F900F900F900F9082E090E0F7DEDF911D
:10510000CF9108950F931F9300D00F920CEF14E0EE
:10511000EDB7FEB7128301838AEF9AE0948383830D
:105120000E9486AA0F900F900F900F9020DF00D062
:105130000F92EDB7FEB7128301838DEE9AE0948350
:1051400083830E9486AA0F900F900F900F908AE1A0
:1051500090E10E940B1F00D00F92EDB7FEB71283B3
:1051600001838FED9AE0948383830E9486AA0F9037
:105170000F900F900F908BE690E10E940B1F00D0D4
:105180000F92EDB7FEB71283018380ED9AE094830E
:1051900083830E9486AA0F900F900F900F908DE04E
:1051A00091E10E940B1F00D00F92EDB7FEB7128362
:1051B000018385EC9AE0948383830E9486AA0F90F2
:1051C0000F900F900F9089EC9FE00E940B1F00D072
:1051D0000F92EDB7FEB71283018380EB9AE09483C0
:1051E00083830E9486AA0F900F900F900F908CEBF4
:1051F00090E10E940B1F00D00F92EDB7FEB7128313
:1052000001838DE99AE0948383830E9486AA0F909C
:105210000F900F900F908EE591E10E940B1F00D030
:105220000F92EDB7FEB7128301838DE89AE0948365
:1052300083830E9486AA0F900F900F900F908FEAA1
:1052400091E10E940B1F82E090E050DE1F910F91D0
:1052500008950F931F9300D00F920CEF14E0ADB799
:10526000BEB712961C930E93119787E49BE0149699
:105270009C938E9313970E9486AA0F900F900F9085
:105280000F9075DEEDB7FEB73A970FB6F894FEBFF4
:105290000FBEEDBF3196ADB7BEB712961C930E93FD
:1052A000119787E29BE0938382838091D808909145
:1052B000D908A091DA08B091DB0884839583A6838E
:1052C000B7838091E7089091E808918780870E94D2
:1052D00086AAEDB7FEB73A960FB6F894FEBF0FBE9A
:1052E000EDBF82E090E002DE1F910F9108950F93D1
:1052F0001F9300D00F920CEF14E0ADB7BEB712961B
:105300001C930E93119787E99BE014969C938E93C0
:1053100013970E9486AA0F900F900F900F9027DE90
:10532000EDB7FEB73E970FB6F894FEBF0FBEEDBFC8
:105330003196ADB7BEB712961C930E93119783E5C5
:105340009BE0938382838091BE09992787FD909586
:10535000958384838091CA09992787FD90959783C7
:1053600086838091FB09992787FD90959187808797
:105370008091E209992787FD909593878287809194
:10538000EE099091EF09958784870E9486AAEDB770
:10539000FEB73E960FB6F894FEBF0FBEEDBF82E09B
:1053A00090E0A4DD1F910F9108951F93CF93DF9399
:1053B00000D00F928CEF94E0EDB7FEB7928381831B
:1053C00081EA9BE0948383830E9486AA0F900F90CA
:1053D0000F900F90CCDDC7E3DAE010E0812F6881F9
:1053E00096DD2C961F5F1630C9F782E090E07EDDD7
:1053F000DF91CF911F91089500D00F928CEF94E030
:10540000EDB7FEB79283818388EB9BE0948383831F
:105410000E9486AA0F900F900F900F90A8DD0E9417
:10542000591F0E948B1F82E090E060CDDF93CF93E5
:1054300000D00F920F92CDB7DEB730912B0920919B
:105440005103298323E02A8322E02B8328E52C8340
:105450003D8360E0AE014F5F5F4F25E00E9467DA59
:105460000F900F900F900F900F90CF91DF910895B4
:105470006F927F928F929F92AF92BF92CF92DF9264
:105480000F931F93DF93CF93CDB7DEB76B970FB614
:10549000F894DEBF0FBECDBF3C014B0180911303DA
:1054A000863011F1873048F4813079F1813098F0FD
:1054B0008230A9F0853089F414C08C3001F18D3030
:1054C00028F48A30B1F08B3041F416C08F3079F077
:1054D000803119F417C012E019C010E017C015E0B0
:1054E00015C016E001E013C016E002E010C013E0A2
:1054F0000DC014E003E00BC014E005E008C014E0A8
:1055000008E005C010E000E002C017E004E0609190
:10551000C30B7091C40B882777FD8095982F0E944C
:1055200025E56C8B7D8B8E8B9F8B20913712309174
:1055300038124091391250913A120E94BCE320E097
:1055400030E04AE754E40E9496E62C893D894E8972
:105550005F890E948AE40E94F7E45B016C0160911C
:10556000240370912503809126039091270320E066
:1055700030E04AE754E40E9496E60E94F7E4688F20
:10558000798F8A8F9B8F6091DE127091DF128091EC
:10559000E0129091E11220E030E04AE754E40E94EA
:1055A00096E60E94F7E47A836983888D998D9C83BF
:1055B0008B83BE82AD8298868F8219870A8784E0AA
:1055C0008B878A818C8789818D878C818E878B815F
:1055D0008F878E81888B8D81898B88858A8B8F813F
:1055E0008B8BC30162E2AE01475F5F4F2BE00E94ED
:1055F00067DA6B960FB6F894DEBF0FBECDBFCF91C2
:10560000DF911F910F91DF90CF90BF90AF909F904F
:105610008F907F906F9008952F923F924F925F925C
:105620006F927F928F929F92AF92BF92CF92DF92B2
:10563000EF92FF920F931F93DF93CF93CDB7DEB717
:10564000CE54D0400FB6F894DEBF0FBECDBF2F961C
:105650009FAF8EAF2F97DE019596E2E9F5E084E2E9
:1056600001900D928150E1F72091ED123091EE12F0
:105670004091EF125091F0122D962CAF3DAF4EAFEE
:105680005FAF2D970091F1121091F212D80154964C
:105690006D917D918D919C9157972AE030E040E08B
:1056A00050E00E948BE71B012C01F801608D718D89
:1056B000828D938D0E9425E57B018C012DA13EA159
:1056C0004FA158A50E9496E60E94F2E43B014C01CE
:1056D000C801B70129A93AA94BA95CA90E9496E67D
:1056E0000E94F2E45B016C01C801B701FE01FD9666
:1056F00020813181428153810E9496E60E94F2E42A
:105700002091E9123091EA124091EB125091EC1283
:105710002F83388749875A872D962CAD3DAD4EADE6
:105720005FAD2D972B873C874D875E872F86388A04
:10573000498A5A8A7A826982BC82AB827E836D836F
:10574000FE01379683818B8B82818C8B81818D8B3F
:105750008F818E8BFE013B9683818F8B8281888F18
:105760008181898F8B858A8FFE013F9683818B8F04
:1057700082818C8F81818D8F8F858E8F8A818F8F93
:10578000898188A38C8189A38B818AA38E818BA335
:105790008D818CA32F968EAD9FAD2F9769E4AE01BE
:1057A0004D5E5F4F22E10E9467DAC25BDF4F0FB6AA
:1057B000F894DEBF0FBECDBFCF91DF911F910F9147
:1057C000FF90EF90DF90CF90BF90AF909F908F9021
:1057D0007F906F905F904F903F902F9008952F9201
:1057E0003F924F925F926F927F928F929F92AF9271
:1057F000BF92CF92DF92EF92FF920F931F93DF93AE
:10580000CF93CDB7DEB7EE970FB6F894DEBF0FBEDD
:10581000CDBF9AAF89AF6091F7127091F812809165
:10582000F9129091FA120E9425E520E030E048EC50
:1058300052E40E948AE43B014C016091FB1270919A
:10584000FC128091FD129091FE120E9425E520E04D
:1058500030E048EC52E40E948AE40E94F2E46BAF2C
:105860007CAF8DAF9EAF6091FF127091001380915D
:105870000113909102130E9425E520E030E048ECEE
:1058800052E40E948AE40E94F2E41B012C01409041
:1058900003135090041360910713709108138091C3
:1058A000091390910A130E9425E520E030E048ECAE
:1058B00052E40E948AE47B018C0160910B13709189
:1058C0000C1380910D1390910E130E9425E520E09A
:1058D00030E048EC52E40E948AE45B016C01809164
:1058E0000F1390911013A0911113B09112138DAB5F
:1058F0009EABAFABB8AF6091F3127091F412809190
:10590000F5129091F6120E9425E520E030E048EC77
:1059100052E40E948AE46F83788789879A87C3015B
:10592000D4018B879C87AD87BE87ABADBCADBA83F6
:10593000A9833C822B825E824D82C701D8018F876A
:10594000988BA98BBA8BC501D6018B8B9C8BAD8BA9
:10595000BE8B8DA99EA9AFA9B8AD8F8B988FA98F4B
:10596000BA8FFE01379683818B8F82818C8F8181E4
:105970008D8F8F818E8FFE013B9683818F8F8281E9
:1059800088A3818189A38B858AA38A818BA389813E
:105990008CA38C818DA38B818EA38E818FA38D810F
:1059A00088A7FE013F96838189A782818AA781818A
:1059B0008BA78F858CA7FE01739683818DA782812B
:1059C0008EA781818FA78B8988ABFE017796838113
:1059D00089AB82818AAB81818BAB8F898CAB89AD9E
:1059E0009AAD6EE3AE01455E5F4F2AE10E9467DA31
:1059F000EE960FB6F894DEBF0FBECDBFCF91DF910C
:105A00001F910F91FF90EF90DF90CF90BF90AF90DC
:105A10009F908F907F906F905F904F903F902F90CE
:105A20000895CF92DF92EF92FF920F931F93DF932F
:105A3000CF93CDB7DEB7A1970FB6F894DEBF0FBEF8
:105A4000CDBF4091870C5091880C6091EA0C709109
:105A5000EB0CE0914D0DF0914E0DA091B00DB09179
:105A6000B10D0091390E10913A0EE090C20EF090F7
:105A7000C30EC0904B0FD0904C0F2091240C30914E
:105A8000250C3A8329835C834B837E836D83F8875F
:105A9000EF83BA87A9871C870B87FE86ED86D88A95
:105AA000CF862A81298B29812A8B2C812B8B2B81D4
:105AB0002C8B2E812D8B2D812E8B28852F8B2F814A
:105AC000288F2A85298F29852A8F2C852B8F2B8536
:105AD0002C8F2E852D8F2D852E8F28892F8F2F850A
