:100000000C9446120D944A210D947B210D94AC2141
:100010000D94DD210D940E220D943F220D9470223B
:100020000D94A1220C9473120C9473120C947312FD
:100030000C9473120C9473120C9473120C942FCAB8
:100040000C9473120C9473120C9473120C9473121C
:100050000C9473120C9473120C9473120D94D2229C
:100060000C9473120C94EE1A0C942E1B0C947312B5
:100070000C9473120C9473120C9473120C947312EC
:100080000C9473120C9473120C9473120C947312DC
:100090000C94801B0C94C01B0C9473120C941AD7F4
:1000A0000C9473120C945CCA0C9473120C9473121B
:1000B0000C9473120C9473120C9489CA0C947312DE
:1000C0000C9473120C9473120C9473120C9473129C
:1000D0000C9473120C9473120C94121C0C94521CFA
:1000E0000C947312A866BE66C566AF66B766CC662A
:1000F0002F670C670567E16613671A672167286732
:10010000D366DA664467356754675A67E866EF6610
:10011000F766FE66036EDB363D9A9999993DABAA68
:10012000AA2A3E000000803F084AD73B3BCE016E22
:1001300084BCBFFDC12F3D6C74319ABD56833DDA3E
:100140003D00C77F11BED9E4BB4C3E916BAAAABE4D
:10015000000000803F07634236B79BD8A71A396872
:100160005618AEBAAB558C1D3CB7CC5763BD6DED80
:10017000FD753EF6177231BF000000803F072C7AF4
:10018000A5BA6CC590DA3B9365FC8BBC53F810FDA7
:100190003C5692834DBD879D3AB63DCBC9BF5BBEF1
:1001A00073DA0FC93F05A84CCDB2D44EB93836A981
:1001B000020C50B9918688083CA6AAAA2ABE000063
:1001C00000803F08000000BE922449123EABAAAA5C
:1001D0002ABECDCCCC4C3E00000080BEABAAAAAA61
:1001E0003E00000000BF000000803F000000000053
:1001F000084178D3BB4387D1133D190E3CC3BD42A0
:1002000082AD2B3E68EC8276BED98FE1A93E4C8050
:10021000EFFFBE01C4FF7F3F00000000000664EC5A
:100220001B3C04BC163E3BE5B93CC93C37C29E5A58
:100230003D660498083EEA69AAAA3E000000803F95
:100240004C6F670064756D700000000000000000D6
:10025000000019566572617365000000000000001F
:100260000000484E656E61626C6500000000000091
:100270000000764D64697361626C650000000000E7
:100280000000764D706C616E6E657200676373007E
:10029000000000000000000000004D9473657475BC
:1002A00070007265736574000000000000000000BB
:1002B0003F4D726164696F000000000000000000A3
:1002C0002D6E6D6F6465730000000000000000007B
:1002D000986D636F6D706173730000000000000023
:1002E000B14C6465636C696E6174696F6E00000087
:1002F0009C4C62617474657279000000000000001B
:10030000DD4273686F77000000000000000000000D
:10031000664C65726173650000000000000000001B
:10032000434741726475506C616E652056322E32BF
:1003300037205348412D313A2032383039666662D1
:100340002030362E32342E32303134006C6F6773E9
:1003500000000000000000000000604C7365747530
:1003600070000000000000000000484C74657374C9
:1003700000000000000000000000304C68656C7058
:10038000000000000000000000009F1F706C616E04
:100390006E657200000000000000184C74657374F4
:1003A0000070776D000000000000000000000027D2
:1003B0006D726164696F000000000000000000A21F
:1003C0006C70617373746872750000000000000740
:1003D0004B6661696C73616665000000000000A2F5
:1003E0006B62617474657279000000000000007730
:1003F0003972656C6179000000000000000000ADFA
:100400004A776179706F696E747300000000005163
:10041000357862656500000000000000000000A85B
:1004200047656564756D700000000000000000EF16
:10043000486D6F64657377697463680000000048F5
:100440004A6469707377697463686573000000AB10
:100450004961646300000000000000000000006FBC
:10046000486770730000000000000000000000DA20
:100470004772617767707300000000000000006938
:1004800047696D7500000000000000000000003AA0
:100490003C616972737065656400000000000001D2
:1004A0004661697270726573737572650000002A27
:1004B00082636F6D7061737300000000000000695B
:1004C0003E63757272656E740000000000000020CB
:1004D0006B6C6F6767696E6700000000000000F6D4
:1004E00021466F726D61742076657273696F6E3A22
:1004F00020256C78202045787065637465642066DB
:100500006F726D61742076657273696F6E3A202523
:100510006C780A004E756D50616765733A202575D9
:1005200020205061676553697A653A2025750A0075
:100530004D616E7566616374757265723A203078CC
:10054000253032782020204465766963653A203072
:1005500078253034780A004552523A204E6F206494
:10056000617461666C61736820696E73657274652D
:10057000640054657374696E672064617461666CAD
:10058000617368206C6F6767696E67004E6F7420D7
:10059000656E61626C65640A00563A2025342E341B
:1005A000662C20413A2025342E34662C206D41687B
:1005B0003A2025342E34660A0048697420456E744A
:1005C000657220746F20657869742E0A0A004D5395
:1005D00047204653204F4646202575004D5347205F
:1005E0004653204F4E20257500736176696E672053
:1005F0006F66667365747300636F6D7061737320EB
:100600006E6F74206865616C746879004865616418
:10061000696E673A20256C642C2058595A3A202577
:10062000642C2025642C2025642C0958595A6F66A7
:10063000663A2025362E32662C2025362E32662C40
:100640002025362E32660A00436F6D706173732069
:10065000696E697469616C69736174696F6E206633
:1006600061696C65642100436F6D706173733A203A
:100670000061626C65640A0064697300656E004D18
:100680006167206F6666736574733A2025342E3473
:10069000662C2025342E34662C2025342E34660A10
:1006A000004D6167204465636C696E6174696F6EAB
:1006B0003A2025342E34660A003F3F0048494C005A
:1006C000484D433538343300484D43353838334C82
:1006D00000436F6D706173733A20002D00416C749C
:1006E0003A2025302E32666D2C205261773A202533
:1006F0006C642054656D70657261747572653A2022
:10070000252E31660A006E6F74206865616C74680E
:100710007900556E63616C69627261746564207200
:10072000656C617469766520616972707265737356
:100730007572650A006261726F6D6574657220631F
:10074000616C6962726174696F6E20636F6D706C49
:100750006574652E006162735F7072657373757284
:100760006520256C640A00252E3166206D2F730AE2
:100770000061697273706565643A20006169727323
:10078000706565643A200061697273706565645FC5
:1007900063683A20252E31660A00723A25346420B7
:1007A00020703A2534642020793A2533642020676C
:1007B0003D2825352E31662025352E3166202535FC
:1007C0002E3166292020613D2825352E31662025D1
:1007D000352E31662025352E3166290A002E004C33
:1007E00061743A20256C642C204C6F6E20256C645B
:1007F0002C20416C743A20256C646D2C202373618D
:1008000074733A2025640A00252E3166090041449C
:10081000430A004D69783A656C65766F6E732009FE
:1008200072657620656C65763A25642C2072657653
:10083000206368313A25642C207265762063683223
:100840003A25640A004D69783A7374616E64617286
:1008500064200972657620726F6C6C3A25642C20D6
:100860007265762070697463683A25642C2072651D
:1008700076207275646465723A25640A0064697052
:100880002073776974636865732064697361626C4F
:1008900065642C207573696E6720454550524F4D35
:1008A00000506F736974696F6E2025640A00436F8E
:1008B0006E74726F6C20434820002025303278001F
:1008C000253034783A00426567696E205842656584
:1008D00020582D4354552052616E676520616E6427
:1008E000205253534920546573743A0A004C6F697F
:1008F000746572207261646975733A2025640A0A0E
:1009000000486974207261646975733A2025640A2D
:1009100000256420776179706F696E74730A0048EE
:100920006F6C6420616C746974756465206F6620F7
:1009300025646D0A00486F6C642063757272656E81
:100940007420616C7469747564650A00636F6D6D01
:10095000616E6420233A2025642069643A2564206E
:100960006F7074696F6E733A25642070313A256434
:100970002070323A256C642070333A256C64207004
:10098000343A256C64200A0052656C6179206F66E8
:10099000660A0052656C6179206F6E0A004E6F74B2
:1009A00020656E61626C65640A00566F6C74733A00
:1009B00020313A25322E32662C20323A25322E3220
:1009C000662C20333A25322E32662C20343A2532DA
:1009D0002E32660A004C4F532063617573656420A4
:1009E0006E6F206368616E676520696E2041504DAF
:1009F0002E0A005448524F54544C45204641494C0D
:100A000053414645204143544956415445443A20B8
:100A100025642C2000434F4E54524F4C204D4F44E0
:100A200045204348414E4745443A20005448524FE0
:100A300054544C45204348414E47454420256420AA
:100A40000A00556E706C7567206261747465727906
:100A50002C207468726F74746C6520696E206E65EA
:100A6000757472616C2C207475726E206F666620CE
:100A7000726164696F2E0A00494E20313A20256464
:100A800009323A20256409333A20256409343A2092
:100A9000256409353A20256409363A20256409374A
:100AA0003A20256409383A2025640A00494E3A095B
:100AB000313A20256409323A20256409333A202549
:100AC0006409343A20256409353A20256409363A08
:100AD00020256409373A20256409383A2025640A1C
:100AE00000506C616E6E6572204D6F64650A0A5429
:100AF000686973206D6F6465206973206E6F742060
:100B0000696E74656E64656420666F72206D616ED7
:100B100075616C207573650A0A00436F6D6D616EB7
:100B200064733A0A20206C6F6773202020202020F5
:100B300020206C6F6720726561646261636B2F7344
:100B400065747570206D6F64650A20207365747517
:100B500070202020202020207365747570206D6F18
:100B600064650A20207465737420202020202020D2
:100B70002074657374206D6F64650A0A4D6F766525
:100B80002074686520736C69646520737769746389
:100B90006820616E6420726573657420746F2046EE
:100BA0004C592E0A0A0054657374204D6F64650A0F
:100BB0000A005365747570204D6F64650A0A494DCB
:100BC000504F5254414E543A20696620796F752037
:100BD00068617665206E6F742070726576696F75D6
:100BE000736C7920736574207468697320737973EA
:100BF00074656D2075702C20757365207468650AA6
:100C00002772657365742720636F6D6D616E642054
:100C1000746F20696E697469616C697A65207468A3
:100C20006520454550524F4D20746F2073656E739B
:100C300069626C652064656661756C742076616CB0
:100C40007565730A616E64207468656E20746865EA
:100C50002027726164696F2720636F6D6D616E6418
:100C600020746F20636F6E66696775726520666FAA
:100C70007220796F757220726164696F2E0A0A00A2
:100C80000A547970652027592720616E64206869AD
:100C90007420456E74657220746F2065726173658F
:100CA00020616C6C20776179706F696E7420616E61
:100CB0006420706172616D65746572206461746135
:100CC0002C20616E79206F74686572206B657920C5
:100CD000746F2061626F72743A2000646F6E650AEF
:100CE000000A45726173696E6720454550524F4D49
:100CF0000A005261772056616C7565730A00526173
:100D000064696F0A004348383A202564207C202516
:100D100064207C2025640A004348373A202564205B
:100D20007C202564207C2025640A004348363A2034
:100D30002564207C202564207C2025640A0043480B
:100D4000353A202564207C202564207C2025640AF7
:100D5000004348343A202564207C202564207C20F0
:100D600025640A004348333A202564207C2025640A
:100D7000207C2025640A004348323A202564207CE8
:100D8000202564207C2025640A004348313A202530
:100D900064207C202564207C2025640A004D6F6E31
:100DA00069746F72696E6720766F6C747320616E00
:100DB000642063757272656E74004D6F6E69746F36
:100DC00072696E67206261747420766F6C74730050
:100DD0004D6F6E69746F72696E6720342063656C45
:100DE0006C004D6F6E69746F72696E67203320639B
:100DF000656C6C0042617474206D6F6E69746F7203
:100E0000696E672064697361626C65640042617435
:100E100074204D6F696E746F720A006E6176207077
:100E20006974636820616C743A0A00656E65726764
:100E30007279207468726F74746C653A0A006E611E
:100E40007620706974636820616972737065656487
:100E50003A0A006E617620726F6C6C3A0A00736514
:100E600072766F207275646465723A0A00736572F7
:100E7000766F2070697463683A0A00736572766FE2
:100E800020726F6C6C3A0A004761696E730A0050F9
:100E90003A2025342E33662C20493A25342E3366E9
:100EA0002C20443A25342E33662C20494D41583AA3
:100EB000256C640A0058545241434B3A2025342E85
:100EC00032660A58545241434B20616E676C653A52
:100ED0002025640A0043726F7373747261636B0A36
:100EE000006D696E3A2025640A6D61783A202564A8
:100EF0000A6372756973653A2025640A6661696CD4
:100F0000736166655F656E61626C65643A20256435
:100F10000A6661696C736166655F76616C75653AD6
:100F20002025640A005468726F74746C650A004668
:100F30006C69676874206D6F6465730A00506F7325
:100F40002025643A2000494D550A004779726F20E8
:100F50006F6666736574733A2025342E32662C20D2
:100F600025342E32662C2025342E32660A00416349
:100F700063656C206F6666736574733A2025342E42
:100F800032662C2025342E32662C2025342E3266F3
:100F90000A000A4F7074696F6E733A20302D340066
:100FA0000A4F7074696F6E733A5B6F6E2C6F666672
:100FB0005D0A006F666600436F6D70617373206930
:100FC0006E697469616C69736174696F6E206661C2
:100FD000696C656421006F6E000A4D6F7665205262
:100FE0004320746F67676C6520737769746368204A
:100FF000746F206561636820706F736974696F6EC8
:1010000020746F20656469742C206D6F7665206193
:10101000696C65726F6E20737469636B20746F20E6
:1010200073656C656374206D6F6465732E000A537D
:10103000617665642053657474696E67730A0A008B
:101040000A4D6F766520616C6C20636F6E74726FF1
:101050006C7320746F2065616368206578747265B5
:101060006D652E2048697420456E74657220746F1A
:1010700020736176653A200A000A4E6F207261641F
:10108000696F3B20436865636B20636F6E6E6563B9
:10109000746F72732E000A0A526164696F2053657F
:1010A0007475703A0A000A464143544F525920520F
:1010B0004553455420636F6D706C657465202D2019
:1010C000706C656173652072657365742041504D65
:1010D00020746F20636F6E74696E7565000A5479B1
:1010E00070652027592720616E6420686974204547
:1010F0006E74657220746F20706572666F726D20F9
:10110000666163746F72792072657365742C2061F7
:101110006E79206F74686572206B657920746F201A
:1011200061626F72743A2000656E61626C650043A3
:10113000555200434D4400524157004D4F44450025
:101140004E54554E004354554E00504D0047505399
:101150000041545449545544455F4D454400415461
:101160005449545544455F4641535400616C6C00EA
:101170006D697373696E67206C6F67207479706531
:101180000A000A4C6F67206572617365642E0A005D
:101190000A45726173696E67206C6F672E2E2E0A86
:1011A00000446F6E650A0044756D70696E67204C6F
:1011B0006F672025642C20202020737461727420B6
:1011C00070672025642C202020656E6420706720C5
:1011D00025640A00626164206C6F67206E756D6221
:1011E00065720A0064756D70696E6720616C6C0AC7
:1011F0000025640A0025642C0900444620706167BC
:10120000652C206C6F672066696C6520232C206C30
:101210006F6720706167653A2025642C09004E7560
:101220006D626572206F66207061636B65747320F8
:10123000726561643A2025640A000A41726475503F
:101240006C616E652056322E3237205348412D3165
:101250003A20323830396666622030362E32342EEB
:10126000323031340A467265652052414D3A2025AC
:10127000750A004E383520437562004572726F72F0
:101280002052656164696E6720454E445F4259543F
:10129000453A2025640A004572726F7220526561DA
:1012A00064696E67205061636B65743A2025640A37
:1012B000004154543A2025642C2025642C202575A7
:1012C0000A004D4F443A004354554E3A004E54558F
:1012D0004E3A2025342E34662C2025642C202534CB
:1012E0002E34662C2025342E34662C2025342E34C2
:1012F000662C2025342E34662C2025342E34662C82
:101300000A00504D3A005241573A00434D443A00CA
:10131000435552523A2025642C2025342E34662C15
:101320002025342E34662C2025640A0020256420D4
:10133000636F6D6D616E647320696E206D656D6F96
:1013400072790A00554E4B4E4F574E20535441521E
:10135000545550202D200047524F554E4420535491
:10136000415254202D20004149522053544152549F
:10137000202D20004750533A20256C642C202564F2
:101380002C2025642C2025342E37662C2025342E45
:1013900037662C2025642C2025342E34662C2025FD
:1013A000342E34662C2025342E34662C2025342E01
:1013B00034660A00414C5432505443485F00454E55
:1013C000524759325448525F005957325352565F70
:1013D000004152535032505443485F0050544348E8
:1013E000325352565F00524C4C325352565F0048B3
:1013F000444E4732524C4C5F005243385F005243D8
:10140000375F005243365F005243355F005243342A
:101410005F005243335F005243325F005243315FFB
:1014200000464C41505F325F535045454400464CA6
:1014300041505F325F504552434E5400464C41503C
:101440005F315F535045454400464C41505F315F2A
:10145000504552434E540041525350445F454E4113
:10146000424C4500534F4E41525F454E41424C4520
:1014700000494E564552544544464C545F4348003B
:10148000424154545F434150414349545900494EED
:101490005055545F564F4C545300414D505F50458A
:1014A000525F564F4C5400564F4C545F4449564976
:1014B00044455200424154545F4D4F4E49544F529F
:1014C000004D41475F454E41424C4500474E445F09
:1014D0004142535F505245535300474E445F544579
:1014E0004D5000414C545F484F4C445F52544C00A7
:1014F0005452494D5F50495443485F4344004D495D
:101500004E5F474E445350445F434D005452494D43
:101510005F41525350445F434D005253545F535701
:10152000495443485F4348004C4F475F4C41535434
:1015300046494C45004C4F475F4249544D41534B3F
:10154000005359535F4E554D5F5245534554530018
:10155000454C45564F4E5F4348325F524556004515
:101560004C45564F4E5F4348315F52455600454CFF
:1015700045564F4E5F5245564552534500454C45E2
:10158000564F4E5F4D4958494E47005357495443B3
:10159000485F454E41424C45005452494D5F4155CC
:1015A000544F004C494D5F50495443485F4D494E9C
:1015B000004C494D5F50495443485F4D4158004CE1
:1015C000494D5F524F4C4C5F434400464C544D4F85
:1015D00044453600464C544D4F44453500464C5426
:1015E0004D4F44453400464C544D4F44453300461E
:1015F0004C544D4F44453200464C544D4F444531B8
:1016000000464C544D4F44455F43480046535F47A6
:1016100043535F454E41424C0046535F4C4F4E474B
:101620005F4143544E0046535F53484F52545F410D
:1016300043544E005452494D5F5448524F54544CF9
:1016400045005448525F46535F56414C554500543F
:1016500048525F4641494C53414645005448525F09
:10166000534C455752415445005448525F4D4158E0
:10167000005448525F4D494E00414C545F484F4C16
:10168000445F464257434D0041525350445F4642E7
:10169000575F4D41580041525350445F4642575F97
:1016A0004D494E0046454E43455F4D4158414C54CF
:1016B0000046454E43455F4D494E414C540046451A
:1016C0004E43455F4348414E4E454C0046454E43D0
:1016D000455F544F54414C0046454E43455F41439E
:1016E00054494F4E0057505F4C4F495445525F523A
:1016F00041440057505F52414449555300434D44C3
:101700005F494E44455800434D445F544F54414C4B
:101710000041525350445F4F464653455400415296
:101720005350445F524154494F00414C545F4D491E
:1017300058005854524B5F414E474C455F4344005C
:101740005854524B5F4741494E5F5343004B464606
:101750005F5448523250544348004B46465F505401
:10176000434832544852004B46465F524444524D1F
:101770004958004B46465F50544348434F4D500034
:1017800053455249414C335F4241554400535953EC
:1017900049445F4D594743530053595349445F549B
:1017A0004849534D41560053595349445F53575F7D
:1017B000545950450053595349445F53575F4D5254
:1017C000455600445A00524556004D415800545267
:1017D000494D004D494E00414E474C455F4D4158E3
:1017E00000414E474C455F4D494E0046554E4354CF
:1017F000494F4E00494D41580044004900500049AE
:101800004D555F53454E534F525F43414C004C6F13
:10181000672025642C202020207374617274202599
:10182000642C202020656E642025640A000A25644B
:10183000206C6F67730A000A4E6F206C6F67730A23
:101840000A004355520020255300434D44002025F3
:10185000530052415700202553004D4F444500206E
:101860002553004E54554E00202553004354554EE9
:101870000020255300504D002025530047505300B1
:101880002025530041545449545544455F4D454427
:10189000002025530041545449545544455F464166
:1018A000535400202553006E6F6E65006C6F677394
:1018B00020656E61626C65643A200047656F46651D
:1018C0006E63652044697361626C65640047656F8F
:1018D00046656E63652044697361626C65640047A8
:1018E000656F46656E6365206973204E554C4C00EC
:1018F00047656F46656E6365206973204E554C4C95
:101900000067707320616C743A20256C7500696EF5
:10191000697420686F6D65002B00626164206665E4
:101920006E636520706F696E740062616420666525
:101930006E636520706F696E740066656E63696EB4
:1019400067206D7573742062652064697361626CD1
:10195000656400666C6967687420706C616E2072E3
:101960006563656976656400666C69676874207094
:101970006C616E207265636569766564004375729B
:1019800072656E7420576179506F696E74204E4F86
:1019900054204D4F44494649454400437572726591
:1019A0006E7420576179506F696E74204D4F4449B1
:1019B0004649454400576179706F696E7420496EDD
:1019C00076616C69642053657175656E6365005757
:1019D0006179506F696E7420526563656976696ECE
:1019E000672046414C53450054696D6520256620AB
:1019F0002034443F202025640A00616374696F6EBF
:101A00002072656365697665643A20006F7574209D
:101A10006F6620636F6D6D616E6473210052657433
:101A200075726E696E6720746F20486F6D6500492E
:101A30006E20646F5F6368616E67655F79617728A8
:101A4000292E20205461726765742068656164697D
:101A50006E673A20256900436F6D6D616E642049A1
:101A60004420232569204E4F54205245434F474E72
:101A7000495A454400506172616D65746572204930
:101A80004420232569204E4F54205245434F474E52
:101A9000495A4544003C737461727475705F677293
:101AA0006F756E643E204E4F20616972737065657C
:101AB00064003C737461727475705F67726F756EE9
:101AC000643E207A65726F20616972737065656427
:101AD0002063616C69627261746564004265676964
:101AE0006E6E696E6720494D552063616C69627244
:101AF0006174696F6E3B20646F206E6F74206D6F30
:101B0000766520706C616E65005761726D696E67F5
:101B1000207570204144432E2E2E0044656D6F20A9
:101B2000536572766F73210042616420526571754E
:101B3000657374202D2063616E6E6F74206368611D
:101B40006E676520746F206E6F6E2D4E6176206318
:101B50006D64004C61746520746F20576179706FFB
:101B6000696E74202569206279202564207365637D
:101B700000476F696E6720746F20576179706F69D5
:101B80006E7420256920696E2025642073656300CA
:101B90005B2531643A2531643A25645D200045585F
:101BA0005452413300455854524132004558545222
:101BB000413100504F534954494F4E005241575FF5
:101BC0004354524C0052435F4348414E00455854E1
:101BD0005F53544154005241575F53454E53005395
:101BE00052335F005352305F00666C69676874203F
:101BF0006D6F6465203D202575004661696C7361D9
:101C00006665202D2053686F7274206576656E744A
:101C1000206F6E2C20004661696C73616665202D13
:101C20002053686F7274206576656E74206F6666E7
:101C30000067656F2D66656E6365207472696767FE
:101C4000657265640067656F2D66656E6365204F1C
:101C50004B0067656F2D66656E63652073657475EF
:101C600070206572726F720067656F2D66656E63B6
:101C700065206C6F61646564003C6E6176696761C4
:101C800074653E205750206572726F72202D20645B
:101C9000697374616E6365203C2030004D69737315
:101CA0006564205750005265616368656420576120
:101CB00079706F696E74202569005265616368658B
:101CC0006420576179706F696E7420256920696E90
:101CD00020256420736563007665726966795F6E9E
:101CE00061763A204C4F49544552206F72626974B4
:101CF0007320636F6D706C657465007665726966DC
:101D0000795F6E61763A204C4F4954455220746990
:101D10006D6520636F6D706C657465004C4F495440
:101D200045522074696D652023256420286D732930
:101D3000005265616368656420686F6D6500766553
:101D4000726966795F636F6E6469746F6E3A204979
:101D50006E76616C6964206F72206E6F206375729D
:101D600072656E7420436F6E646974696F6E206370
:101D70006D6400496E207665726966795F6368619B
:101D80006E67655F79617728292E20204E61762065
:101D900042656172696E673A20256900496E207656
:101DA00065726966795F6368616E67655F7961779F
:101DB00028292E20204E61762042656172696E6767
:101DC0003A20256900666C69676874206D6F6465E8
:101DD000203D202575004661696C73616665202D84
:101DE000204C6F6E67206576656E74206F6E2C20B8
:101DF00000616C743D252E326620206261726F3D59
:101E0000252E326620206770733D252E32662020F5
:101E1000686F6D653D252E3266202074617267659E
:101E2000743D252E32660A00616C743D252E3266A3
:101E300020206261726F3D252E326620206770730C
:101E40003D252E32662020686F6D653D252E326659
:101E500020207461726765743D252E32660A004643
:101E60006C69676874204D6F6465004E3338354E79
:101E700041000A4D6F76652074686520736C696453
:101E8000652073776974636820616E64207265737E
:101E9000657420746F20464C592E0A000A456E74F2
:101EA0006572696E6720696E7465726163746976C4
:101EB00065207365747570206D6F64652E2E2E0A13
:101EC0000A4966207573696E6720746865204172DF
:101ED0006475696E6F2053657269616C204D6F6E19
:101EE00069746F722C20656E73757265204C696E13
:101EF0006520456E64696E67206973207365742080
:101F0000746F2043617272696167652052657475F0
:101F1000726E2E0A54797065202768656C702720D0
:101F2000746F206C69737420636F6D6D616E647380
:101F30002C2027657869742720746F206C65617682
:101F4000652061207375626D656E752E0A56697322
:101F50006974207468652027736574757027206D17
:101F6000656E7520666F722066697273742D746970
:101F70006D6520636F6E66696775726174696F6EF7
:101F80002E0A00436F6D7061737320696E69746906
:101F9000616C69736174696F6E206661696C6564F8
:101FA000210045524153494E47204C4F4753004E64
:101FB0006F2064617461666C617368206361726430
:101FC00020696E736572746564007573696E67204D
:101FD0002575206279746573206F66206D656D6F5D
:101FE00072792028257520726573657473290A003B
:101FF0006C6F61645F616C6C20746F6F6B20256C1B
:102000007575730A00646F6E652E004669726D7790
:10201000617265206368616E67653A2065726173FD
:10202000696E6720454550524F4D2E2E2E0A000AEC
:102030000A496E69742041726475506C616E652046
:1020400056322E3237205348412D313A2032383023
:10205000396666622030362E32342E323031340A00
:102060000A467265652052414D3A2025750A00499D
:102070006E76616C69642053455249414C335F422E
:10208000415544000A0A20526561647920746F202A
:10209000464C592E0047524F554E442053544152FE
:1020A000540000407A10F35A00A0724E1809001034
:1020B000A5D4E80000E87648170000E40B540200BD
:1020C00000CA9A3B000000E1F505000080969800E8
:1020D000000040420F000000A08601000000102711
:1020E00000000000E80300000000640000000000A1
:1020F0000A00000000000100000000002C76D888D3
:10210000DC674F0823DFC1DFAE59E1B1B796E5E3E5
:10211000E453C63AE651997696E8E6C28426EB89FE
:102120008C9B62ED407C6FFCEFBC9C9F40F2BAA59B
:102130006FA5F490055A2AF75C936B6CF9676DC133
:102140001BFCE0E40D47FEF520E6B500D0ED902E37
:102150000300943577050080841E080000204E0A95
:10216000000000C80C333333330F986E12831141D3
:10217000EF8D2114893BE65516CFFEE6DB18D1849E
:102180004B381BF77C1D901DA4BBE42420328472C5
:102190005E228100C9F124ECA1E53D276E616E004D
:1021A000696E6600253033753A25733A20006E6FEC
:1021B0007420666F756E6400253033753A252D33B3
:1021C000322E3332733A2000756E6B6E6F776E204D
:1021D00074797065006E6F7420666F756E6400258B
:1021E000733A20006D697373696E67206E616D6567
:1021F000206F722076616C7565003F3F002564009A
:10220000256400256C6400256600256600657869F4
:10221000740068656C7000245047434D442C31367F
:102220002C302C302C302C302C302A36410D0A002A
:1022300024505542582C34312C312C303030332C32
:10224000303030312C33383430302C302A323600B4
:1022500024505352463130302C302C333834303007
:102260002C382C312C302A3343002053695246201D
:1022700000204D544B312E3620002075626C6F7853
:102280002000204D544B312E3420006661696C656E
:10229000642C207265747279696E67004F4B00443C
:1022A000454300434F4D504153535F0020002A00E7
:1022B000496E697420416363656C002A00496E6948
:1022C00074204779726F0000002100240027002A43
:1022D000002D003000330001010000040107010A55
:1022E0000100002200250028002B002E00310034C0
:1022F0000002010000050108010B0100002000237D
:1023000000260029002C002F0032000001000003ED
:102310000106010901050505050705080808080269
:102320000202020A0A08080404040401010101016E
:102330000101010303030303030303040707070C5D
:102340000C0C0C0C0C0C0C02020202060606060613
:102350000606060B0B0B0B0B0B0B0B0102102020C0
:1023600008081020401020408002010201080402E9
:10237000010102040810204080804020100804025F
:1023800001800402018040201008040201080402B8
:1023900001010204081020408001020408102040BE
:1023A000800000090A02080B0C0D07060304010057
:1023B000000000000000000000000000000000001D
:1023C00000000000000000000000000000100F0EE0
:1023D00000000000000000000000000000000000FD
:1023E00000000000000000494E46494E4954594E35
:1023F000414ECDCCCC3D0AD7233C17B7D13877CC52
:102400002B329595E6241FB14F0A000020410000B1
:10241000C84200401C4620BCBE4CCA1B0E5AAEC56A
:102420009D740D94FA040D94F0040D9422020D9401
:10243000F1040D9487040D944E230D943F250D94C3
:10244000F2040D9414050D9476040D9415050D9465
:10245000FF040D9462040D94F41C0D9473040D9408
:1024600009050D94F5040D9457250D94F3040D946E
:102470002C1D0D940E050D9413050D94241D0D9423
:1024800004052465A2C64DD71F659DC611241FBE35
:10249000CFEFD1E2DEBFCDBF00E00CBF15E0A0E082
:1024A000B2E0E6EAF9E502E00BBF02C007900D9248
:1024B000A83DB107D9F71BBE19E1A8EDB5E001C0F1
:1024C0001D92A733B107E1F714E2C8E8D4E204C0D3
:1024D0002297FE010F94B02CC238D107C9F70F9490
:1024E00039250D94C72C0C940000283008F027E003
:1024F0003327DA01990F311D87FD91600096610540
:10250000710539F432602E5F3D9330E32A95E1F78F
:1025100008959F3F30F080387105610509F03C5FF8
:102520003C5F3D93913008F08068911DDF93CF931D
:102530001F930F93FF92EF92192F987F9695E92F93
:1025400096959695E90FFF27E450FF4D992733277D
:10255000EE24FF24A701E70105900894079428F4CE
:10256000360FE71EF81E491F511D660F771F881F83
:10257000991F0694A1F70590079428F4E70EF81E1A
:10258000491F561FC11D770F881F991F661F06948C
:10259000A1F70590079428F4F80E491F561FC71F8E
:1025A000D11D880F991F661F771F0694A1F705900C
:1025B000079420F4490F561FC71FD81F990F661F95
:1025C000771F881F0694A9F784911095177041F022
:1025D000D695C79557954795F794E7941A95C1F7FF
:1025E000E2EAF0E268941590159135916591959124
:1025F00005907FE27395E118F10A430B560BC90B66
:10260000D009C0F7E10CF11E431F561FC91FD01D92
:102610007EF4703311F48A95E6CFE894015030F0DF
:10262000080F0AF40027021708F4202F2395022F21
:102630007A3328F079E37D932A95E9F710C07D93EA
:102640002A9589F606949795679537951795179467
:10265000E118F10A430B560BC90BD00998F02395EA
:102660007E9173957A3308F070E37C932013B8F76A
:102670007E9170617D9330F0839571E37D9370E37B
:102680002A95E1F71124EF90FF900F911F91CF91C0
:10269000DF91992787FD90950895FA01AA272830A0
:1026A00051F1203181F1E8946F936E7F6E5F7F4F1F
:1026B0008F4F9F4FAF4FB1E03ED0B4E03CD0670F9B
:1026C000781F891F9A1FA11D680F791F8A1F911DEE
:1026D000A11D6A0F711D811D911DA11D20D009F43E
:1026E00068943F912AE0269F11243019305D319380
:1026F000DEF6CF010895462F4770405D4193B3E069
:102700000FD0C9F7F6CF462F4F70405D4A3318F00F
:10271000495D31FD4052419302D0A9F7EACFB4E0C0
:10272000A6959795879577956795BA95C9F7009778
:102730006105710508959B01AC010A2E0694579519
:10274000479537952795BA95C9F7620F731F841F70
:10275000951FA01D0895A0E3B0E0E1EBF3E10D9417
:10276000772CA8E04E010894811C911CF401BA2F2B
:102770001192BA95E9F729833A834B835C836D8381
:102780007E838F839887CE010996FC011192AA95CA
:10279000E9F7A986BA86CB86DC86ED86FE860F87AA
:1027A000188B29813A814B815C812DA73EA74FA7C9
:1027B00058AB79018A018FEF9FEFA0E0B0E0E822EB
:1027C000F9220A231B231A014424552429853A851A
:1027D0004B855C8529A73AA74BA75CA759016A01DD
:1027E000A822B922CA22DB223A0188249924C601F0
:1027F000B501A80197010F94F42B6DA37EA38FA3BD
:1028000098A7C401B3010F94F42B69A37AA38BA3F7
:102810009CA3C601B501A20191010F94F42B7B0189
:102820008C01C401B3010F94F42B5B016C0189A1ED
:102830009AA1ABA1BCA18E0D9F1DA01FB11F89A3A2
:102840009AA3ABA3BCA32DA13EA14FA158A5CA0139
:10285000AA27BB2729A13AA14BA15CA1280F391FA8
:102860004A1F5B1F29A33AA34BA35CA32E153F0568
:102870004007510740F480E090E0A1E0B0E0A80EEE
:10288000B91ECA1EDB1E89A19AA1ABA1BCA19D01E4
:10289000442755272A0D3B1D4C1D5D1D2D8F3E8F56
:1028A0004F8F58A36C01BB24AA248DA19EA1AFA178
:1028B000B8A5A070B070A80EB91ECA1EDB1EA98EE6
:1028C000BA8ECB8EDC8E9A8C8B8C7C8C9E8D6F8D91
:1028D00078A1FE01719688E0DF011D928A95E9F7E3
:1028E0002D8B9E8B6F8B788F2D853E854F855889DC
:1028F0006DA57EA58FA598A90F94F42B7B018C0163
:102900002D813E814F81588569A57AA58BA59CA50F
:102910000F94F42BE60EF71E081F191F6D897E8990
:102920008F89988D6E0D7F1D801F911F6D8B7E8B03
:102930008F8B988FEE892A2D392D482D572D7E2F7C
:102940008F89988DE096E2E10D94932C0F931F935D
:10295000CF93DF93689F8001699F100D789F100DC2
:102960001124C8010DD0EC01009721F060E070E067
:10297000A80173D1CE01DF91CF911F910F910895DE
:10298000CF93DF93BC018230910510F462E070E0D8
:10299000A0913319B0913419ED01E0E0F0E040E08E
:1029A00050E021C0888199818617970769F48A8150
:1029B0009B81309719F09383828304C090933419DC
:1029C00080933319FE0134C06817790738F4411534
:1029D000510519F08417950708F4AC01FE018A81AE
:1029E0009B819C01E9012097E9F641155105A9F168
:1029F000CA01861B970B049708F4BA01E0E0F0E0E7
:102A00002AC08D919C91119784179507F9F464174A
:102A1000750781F412968D919C911397309719F058
:102A20009383828304C09093341980933319FD01FA
:102A300032964CC0CA01861B970BFD01E80FF91FA7
:102A40006193719302978D939C9340C0FD018281A5
:102A500093819C01D9011097A1F680913119909131
:102A60003219892B41F48091620390916303909312
:102A700032198093311940916403509165034115D7
:102A8000510541F44DB75EB78091600390916103A9
:102A9000481B590B2091311930913219CA01821B00
:102AA000930B8617970780F0AB014E5F5F4F84173B
:102AB000950750F0420F531F50933219409331192C
:102AC000F9016193719302C0E0E0F0E0CF01DF9182
:102AD000CF910895CF93DF93009709F450C0EC0194
:102AE00022971B821A82A0913319B0913419109742
:102AF00009F140E050E0AC17BD0708F1BB83AA83A1
:102B0000FE0121913191E20FF31FAE17BF0779F457
:102B10008D919C911197280F391F2E5F3F4F39835C
:102B2000288312968D919C9113979B838A834115DC
:102B3000510571F4D0933419C093331920C0129603
:102B40008D919C911397AD01009711F0DC01D3CFCB
:102B5000FA01D383C28321913191E20FF31FCE1783
:102B6000DF0769F488819981280F391F2E5F3F4F55
:102B7000FA01318320838A819B8193838283DF9151
:102B8000CF91089566277727D2C21F93FC0199271A
:102B90008827BC01E89411911032E9F3193010F044
:102BA0001E30C8F31B3249F01D3241F4689405C051
:102BB000B0D0610F711D811D911D119110531A30FC
:102BC000B8F33EF490958095709561957F4F8F4F47
:102BD0009F4F1F910895FB01DC0102C005900D92EB
:102BE00041505040D8F70895FB01DC018D918134AC
:102BF0001CF08B350CF4805E659161341CF06B35F4
:102C00000CF4605E861B611189F3990B0895FB013A
:102C1000DC018D91059080190110D9F3990B08956D
:102C2000FC0105900020E9F7809590958E0F9F1F7D
:102C30000895FC010590615070400110D8F780950F
:102C400090958E0F9F1F0895FB01DC0102C001903B
:102C50000D9241505040D8F70895DC0101C06D93AA
:102C600041505040E0F70895FB01DC018D91019047
:102C700080190110D9F3990B0895FB01DC01415033
:102C8000504048F001900D920020C9F701C01D92FC
:102C900041505040E0F70895FC01615070400190B0
:102CA0000110D8F7809590958E0F9F1F089500977B
:102CB00031F4DA018D919C91009709F40EC0DC018A
:102CC000FB013D912191222319F03217C9F3FACF6C
:102CD000332331F4DA011D921C9288279927089535
:102CE0001197AF93BF93FB013D912191321771F47E
:102CF000332321F488279927119702C01E92119639
:102D0000FA01A193B0839F918F910895222369F7CF
:102D1000EACF592F482F372F262F660F771F881F8E
:102D2000991F660F771F881F991F620F731F841FDB
:102D3000951F660F771F881F991F0895AEE0B0E0BA
:102D4000E4EAF6E10D94852C8C0177FF02C060E087
:102D500070E8615070407E836D831A83098386E03A
:102D60008C83CE010196BA01A90111D02D813E813B
:102D700037FD09C0EF81F8852E173F070CF4F901E4
:102D8000E00FF11F10822E96E4E00D94A12CABE031
:102D9000B0E0EDECF6E10D94772C3C012B015A01EB
:102DA000FC0117821682838181FD03C06FEF7FEFE4
:102DB000B9C19AE0892E1E010894211C311CF3012F
:102DC0002381F20123FD859123FF81912F01882327
:102DD00009F4A5C1853239F423FD859123FF819142
:102DE0002F01853221F490E0B30116D3E8CF982F5C
:102DF000FF24EE249924FFE1FF15D0F09B3269F007
:102E00009C3228F4903259F0933291F40EC09D32E6
:102E100049F0903369F441E024C052E0F52A84E09F
:102E2000F82A28C098E0F92A25C0E0E1FE2A22C04D
:102E3000F7FC29C0892F80538A3070F4F6FE05C054
:102E4000989C902C1124980E15C0E89CE02C11241D
:102E5000E80EF0E2FF2A0EC09E3229F4F6FC5FC1B4
:102E600040E4F42A07C09C3619F450E8F52A02C061
:102E7000983649F4F20123FD959123FF91912F019A
:102E8000992309F0B8CF892F8554833018F08052E8
:102E9000833038F444E050E0A40EB51E5FE359835C
:102EA0000FC0933631F0933779F0933509F052C063
:102EB0001FC0F5018081898342E050E0A40EB51E59
:102EC000610101E010E011C0F501C080D180F6FC85
:102ED00003C06FEF7FEF02C0692D70E042E050E069
:102EE000A40EB51EC601D8DE8C015FE7F52213C023
:102EF000F501C080D180F6FC03C06FEF7FEF02C008
:102F0000692D70E042E050E0A40EB51EC60191DECE
:102F10008C0150E8F52AF3FE06C018C080E290E06C
:102F2000B3017AD2EA948E2D90E008171907B0F316
:102F30000DC0F601F7FC8591F7FE81916F0190E0DD
:102F4000B3016AD2E110EA94015010400115110555
:102F500081F7E2C0943611F0993661F5F7FE08C0AA
:102F6000F501208131814281538184E090E00AC0E3
:102F7000F501808191819C01442737FD4095542FB4
:102F800082E090E0A80EB91E9FE6F92257FF09C023
:102F900050954095309521953F4F4F4F5F4FE0E85A
:102FA000FE2ACA01B901A1012AE030E076DBD82E61
:102FB000D2183FC0953729F41F2D1F7E2AE030E03C
:102FC0001DC01F2D197F9F3661F0903720F4983572
:102FD00009F0A5C00FC0903739F0983709F09FC0AD
:102FE00004C028E030E00AC0106114FD146020E144
:102FF00030E004C014FD166020E132E017FF08C085
:10300000F501608171818281938144E050E008C0C4
:10301000F50180819181BC0180E090E042E050E0C8
:10302000A40EB51EA10139DBD82ED2188FE7F82ED9
:10303000F122F6FE0BC05EEFF522D91438F4F4FE4F
:1030400007C0F2FC05C08FEEF82202C01D2D01C0A2
:10305000192DF4FE0DC0FE01ED0DF11D80818033B0
:1030600019F499EEF92208C01F5FF2FE05C003C0F3
:103070008F2D867809F01F5F0F2DF3FC13C0F0FE33
:103080000EC01E1510F09D2C0AC09D2C9E0C911A8E
:103090001E2D05C080E290E0B301BED11F5F1E155A
:1030A000C8F304C01E1510F4E11A01C0EE2404FF99
:1030B0000EC080E390E0B301AFD102FF1BC001FD61
:1030C00003C088E790E00EC088E590E00BC0802F39
:1030D000867881F001FF02C08BE201C080E2F7FC3C
:1030E0008DE290E0B30198D105C080E390E0B30198
:1030F00093D19A94D914C8F3DA94F101ED0DF11D2E
:10310000808190E0B30188D1DD20B1F705C080E275
:1031100090E0B30181D1EA94EE20C9F750CEF301DB
:1031200066817781CB012B96E2E10D94932CA0E090
:10313000B0E0EDE9F8E10D947D2CEC015B01611547
:10314000710519F0FB0191838083F9908F2D90E038
:103150000F94BC2C892BC9F7FDE2FF1621F4F990DE
:10316000EE24E39405C02BE2F21609F4F990EE2464
:103170008E0101501040C80167EE73E243E050E059
:1031800033D1892BF9F48E010E5F1F4FC8016AEE0F
:1031900073E245E050E028D1892B19F48E01095FD4
:1031A0001F4FA114B10419F0F50111830083E0FC55
:1031B00004C070E090E080E813C070E090E080E828
:1031C0006FEF07C1C8016FEE73E243E050E00CD12E
:1031D000892B69F4A114B10429F470E090E080EC2B
:1031E0006FE7F7C02296F501D183C083F6CF88241C
:1031F000992440E050E060E070E0EF2DE053EA30C9
:10320000A0F5F2E0EF2A8E2D90E09C01287030703E
:10321000E2FE06C0232B79F50894811C911C2BC07B
:10322000232B19F0089481089108DB01CA0112E0F0
:10323000880F991FAA1FBB1F1A95D1F7480F591F56
:103240006A1F7B1F440F551F661F771F4E0F511DAE
:10325000611D711D483929E9520729E9620729E1F1
:10326000720748F084E0E82A06C0EE3F31F4E3FC40
:1032700039C098E0E92AF990C0CFE53311F0E53183
:1032800089F529912D3219F4E0E1EE2A05C02B329F
:1032900019F081E090E003C0299182E090E0E22FF4
:1032A000E053EA3018F0C81BD90B1CC020E030E016
:1032B000FCE020383F075CF4C901880F991F880F94
:1032C000991F280F391F220F331F2E0F311DE9912F
:1032D000E053EA3068F3E4FE03C0309521953F4F98
:1032E000820E931ECE2CDD24E1FE07C0A114B10492
:1032F00021F02197F501D183C083CB01BA010F944E
:1033000001297B018C01F3E0CF22DD2423E0C216EA
:10331000D10421F417FB109517F910955701680196
:10332000C801B70120E030E040E050E00F943028C1
:10333000882309F44AC097FE0DC026E0E22E24E25D
:10334000F22E9094819491089394C0E2D0E000E032
:1033500010E012C09EE1E92E94E2F92EF6CFF701BB
:103360002591359145915491C601B5010F94FF2ADD
:103370005B016C018C1A9D0A8C169D0684F7D5950D
:10338000C7950F5F1F4F0630110529F08CEF9FEF97
:10339000E80EF91EF1CFC501D6017C018D018C2DFF
:1033A000880F8D2D881F8F3F51F0C601B50120E099
:1033B00030E040E050E00F943028882331F482E27E
:1033C00090E090933619809335197E2D9F2D802F94
:1033D000612F272F392F482F562FB901CA01CDB79A
:1033E000DEB7ECE00D94992CFB01DC01415050401C
:1033F00088F08D9181341CF08B350CF4805E6591E2
:1034000061341CF06B350CF4605E861B611171F346
:10341000990B0895881BFCCF0F931F93CF93DF93D5
:103420008C01EB018B8181FF1BC082FF0DC02E81BF
:103430003F818C819D812817390764F4E881F981E7
:103440000193F983E88306C0E885F985802F1995F3
:10345000892B31F48E819F8101969F838E8302C0D8
:103460000FEF1FEFC801DF91CF911F910F910895CA
:103470009C01F999FECF32BD21BDF89A60B5F9994A
:10348000FECF2F5F3F4F32BD21BD21503040F89A13
:1034900070B5F999FECF2E5F3F4F32BD21BD22504E
:1034A0003040F89A80B5F999FECF2D5F3F4F32BD7D
:1034B00021BDF89A90B508959C01F999FECF1FBAE5
:1034C00032BD21BD40BD0FB6F894FA9AF99A0FBEED
:1034D000F999FECF1FBA2F5F3F4F32BD21BD21505A
:1034E000304050BD0FB6F894FA9AF99A0FBEF99988
:1034F000FECF1FBA2E5F3F4F32BD21BD225030405C
:1035000060BD0FB6F894FA9AF99A0FBEF999FECFFA
:103510001FBA2D5F3F4F32BD21BD70BD0FB6F8946D
:10352000FA9AF99A0FBE0895CF93DF93FC01EB014D
:103530004230510570F0638574858585968520E05D
:1035400030E040E854E40F94FF2A0F94D5287983A3
:10355000688382E090E0DF91CF910895CF93DF936D
:10356000EC01FB014230510518F420E030E012C0BC
:103570006081718180E090E00F94012920E030E0CB
:1035800040E85AE30F94FF2A6B877C878D879E87DC
:1035900022E030E0C901DF91CF910895DC01FB0109
:1035A00087818C93868111968C93119785811296D1
:1035B0008C931297848113968C931397838114961E
:1035C0008C931497828115968C931597818116960A
:1035D0008C931697808117968C9308951F920F9263
:1035E0000FB60F920BB60F9211242F933F934F9368
:1035F0008F939F93EF93FF934091C6002091BD1648
:103600003091BE162F5F3F4F8091C1169091C21628
:10361000282339238091BF169091C01628173907A7
:1036200079F08091BD169091BE16E091C316F0918D
:10363000C416E80FF91F40833093BE162093BD16C1
:10364000FF91EF919F918F914F913F912F910F900B
:103650000BBE0F900FBE0F901F9018951F920F92E8
:103660000FB60F920BB60F9211242F933F938F93A7
:103670009F93EF93FF932091DF163091E016809196
:10368000DD169091DE1628173907E9F08091DF16D4
:103690009091E016E091E316F091E416E80FF91F1F
:1036A00080818093C6008091DF169091E01601968C
:1036B0002091E1163091E216822393239093E01635
:1036C0008093DF1610C02091DD163091DE168091B8
:1036D000DF169091E0162817390729F48091C10070
:1036E0008F7D8093C100FF91EF919F918F913F91CA
:1036F0002F910F900BBE0F900FBE0F901F9018953B
:103700001F920F920FB60F920BB60F9211242F93A8
:103710003F934F938F939F93EF93FF934091CE00EE
:103720002091C5163091C6162F5F3F4F8091C91664
:103730009091CA16282339238091C7169091C816F4
:103740002817390779F08091C5169091C616E09137
:10375000CB16F091CC16E80FF91F40833093C616B4
:103760002093C516FF91EF919F918F914F913F91BB
:103770002F910F900BBE0F900FBE0F901F901895BA
:103780001F920F920FB60F920BB60F9211242F9328
:103790003F938F939F93EF93FF932091E716309180
:1037A000E8168091E5169091E61628173907E9F09A
:1037B0008091E7169091E816E091EB16F091EC16E7
:1037C000E80FF91F80818093CE008091E7169091D9
:1037D000E81601962091E9163091EA168223932388
:1037E0009093E8168093E71610C02091E51630916B
:1037F000E6168091E7169091E8162817390729F404
:103800008091C9008F7D8093C900FF91EF919F91B6
:103810008F913F912F910F900BBE0F900FBE0F9085
:103820001F9018951F920F920FB60F920BB60F9222
:1038300011242F933F934F938F939F93EF93FF9375
:10384000409136012091D5163091D6162F5F3F4F0B
:103850008091D9169091DA16282339238091D716B2
:103860009091D8162817390779F08091D516909144
:10387000D616E091DB16F091DC16E80FF91F4083B5
:103880003093D6162093D516FF91EF919F918F918B
:103890004F913F912F910F900BBE0F900FBE0F9045
:1038A0001F9018951F920F920FB60F920BB60F92A2
:1038B00011242F933F938F939F93EF93FF93209126
:1038C000F7163091F8168091F5169091F616281794
:1038D0003907E9F08091F7169091F816E091FB1600
:1038E000F091FC16E80FF91F8081809336018091DA
:1038F000F7169091F81601962091F9163091FA1664
:10390000822393239093F8168093F71610C020918A
:10391000F5163091F6168091F7169091F816281743
:10392000390729F4809131018F7D80933101FF9116
:10393000EF919F918F913F912F910F900BBE0F9020
:103940000FBE0F901F9018956091D1097091D20908
:103950008091D3099091D4090F94D0289B016031B4
:10396000710534F0CB0164E670E00F94272C9C01C4
:1039700080E0275F3F4F2331310508F081E0089553
:103980006091D1097091D2098091D3099091D409A5
:103990000F94D0289B016739710534F0CB0168EE94
:1039A00073E00F94272C9C0180E02D593F4F273C5A
:1039B000310508F081E008954F925F926F927F92F7
:1039C0008F929F92AF92BF92CF92DF92EF92FF922F
:1039D0000F931F93DF93CF93CDB7DEB72F970FB61B
:1039E000F894DEBF0FBECDBF9A2DA982EB2DBA820F
:1039F000FC2DCB82DC82ED82FE820F831887298723
:103A00003A874B875C876D877E878F874C815D8186
:103A10006E817F81A884B984CA84DB844C845D84F0
:103A20006E847F8497FE03C020E030E00BC080915D
:103A3000F909A82FBB27A7FDB0959401A815B905D2
:103A40000CF49D01890184E0000F111F8A95E1F7B4
:103A5000021B130B00501C4FE0FD02C0E0E006C04B
:103A6000E0E0232B09F4E1E081E0E827F999FECFBB
:103A70001FBA12BD01BD90BD0FB6F894FA9AF99A1B
:103A80000FBEC801AA2797FDA095BA2F0196A11DC8
:103A9000B11DF999FECF1FBA92BD81BDE0BD0FB631
:103AA000F894FA9AF99A0FBE7C018D010894E11CF2
:103AB000F11C011D111DF999FECF1FBAF2BCE1BC2A
:103AC000F0BD0FB6F894FA9AF99A0FBE0894E11C6B
:103AD000F11C011D111DC701EFDC84E090E0A0E0A6
:103AE000B0E0E80EF91E0A1F1B1FC701B601A501B1
:103AF000E3DC84E090E0A0E0B0E0E80EF91E0A1FED
:103B00001B1FC701B301A201D7DC2F960FB6F89493
:103B1000DEBF0FBECDBFCF91DF911F910F91FF9000
:103B2000EF90DF90CF90BF90AF909F908F907F905D
:103B30006F905F904F900895AF92BF92CF92DF92B7
:103B4000EF92FF920F931F93DF93CF93CDB7DEB722
:103B500028970FB6F894DEBF0FBECDBF9C018091B1
:103B6000350A992787FD90958217930740F4AA2478
:103B7000BB24650180E090E0A0E0B0E01EC02451CD
:103B80003E4F93E0220F331F9A95E1F7790100E051
:103B900010E0C9016DDCAC01CB01DA015C016D0103
:103BA00084E090E0A0E0B0E0E80EF91E0A1F1B1FC1
:103BB000C7015EDCAC01CB01DA01A982BA82CB82FB
:103BC000DC828D839E83AF83B8872A2D3A814B8117
:103BD0005C81682F7E818F81988528960FB6F89436
:103BE000DEBF0FBECDBFCF91DF911F910F91FF9030
:103BF000EF90DF90CF90BF90AF90089580918403B5
:103C0000882321F480913F0C8130B1F5209100157B
:103C10003091011540910215509103158091F206E3
:103C20009091F306A091F406B091F506281B390B8C
:103C30004A0B5B0B213586E4380780E0480780E0BB
:103C400058072CF0205A3C48404050400CC0203BC4
:103C500089EB38078FEF48078FEF580724F4205679
:103C600033474F4F5F4F20939015309391154093FA
:103C70009215509393150895E0911414F091151432
:103C800020910015309101154091021550910315B6
:103C9000848D958DA68DB78DC9CF2091F20C309172
:103CA000F30C8091180D9091190D281B390B2536B6
:103CB00031051CF08AE08093A1152C593F4F1CF46C
:103CC00086EF8093A1158091A11518161CF48150E0
:103CD0008093A1158091A11587FF03C08F5F80930A
:103CE000A1158091A115813019F08F3F09F080E076
:103CF0000895CF93DF93FC01EB014430510540F070
:103D000083859485A585B68588839983AA83BB839B
:103D100084E090E0DF91CF910895CF93DF93EC01A1
:103D2000FB014430510540F080819181A281B38133
:103D30008B879C87AD87BE8784E090E0DF91CF9131
:103D40000895FC0163857485858596850D94032906
:103D5000FC01DB01452B11F083858C9381E090E021
:103D60000895DC01FB01452B19F080811B968C9393
:103D700081E090E00895FC016385772767FD7095E9
:103D8000872F972F0D940329FC01DB014230510549
:103D900020F0838594858D939C9382E090E0089534
:103DA000DC01FB014230510530F0808191811C968D
:103DB0009C938E931B9782E090E00895FC016385AD
:103DC0007485882777FD8095982F0D940329FC0131
:103DD0002385348545855685B901CA010895CF9359
:103DE000DF93FC01EB014430510540F0838594855D
:103DF000A585B68588839983AA83BB8384E090E0F8
:103E0000DF91CF910895CF93DF93EC01FB01443014
:103E1000510540F080819181A281B3818B879C877D
:103E2000AD87BE8784E090E0DF91CF910895EF9257
:103E3000FF920F931F937A018B018632D9F087325C
:103E40002CF4893081F0833181F507C08F36F1F091
:103E5000833721F1893349F513C0E12C7BE4F72E38
:103E6000012D112D28C060E8E62E65E2F62E012D09
:103E7000112D21C0E12C56E9F52E012D112D1BC06D
:103E8000E12C41EEF42E012D112D15C03CEFE32E57
:103E900031EBF32E31E0032F112D0DC0E12C22EC7C
:103EA000F22E21E0022F112D06C088ED95E06FE67D
:103EB00070E20E949AB7B701C8011F910F91FF905D
:103EC000EF90089500D00F9288ED95E0EDB7FEB722
:103ED0009283818389EB95E0948383830E947AB7F0
:103EE0000F900F900F900F90089528ED35E08823E4
:103EF00049F000D00F92EDB7FEB7328321838CE7F3
:103F000096E008C000D00F92EDB7FEB73283218350
:103F100088E796E0948383830E947AB788ED95E0E2
:103F2000EDB7FEB79283818381E796E09483838324
:103F30000E947AB70F900F900F900F90089500D0C5
:103F40000F9288ED95E0EDB7FEB7928381838AE109
:103F50009BE0948383830E947AB70F900F900F9019
:103F60000F9080E0089500D00F9288ED95E0EDB7B6
:103F7000FEB79283818381EE9CE0948383830E94C9
:103F80007AB780E090E00F900F900F900F90F99922
:103F9000FECF1FBA92BD81BD10BC0FB6F894FA9A3D
:103FA000F99A0FBE0196F0E180309F0781F700D0AB
:103FB0000F9288ED95E0EDB7FEB7928381838BED8C
:103FC0009CE0948383830E947AB70F900F900F90A8
:103FD0000F9008950F931F938DB79EB70A970FB652
:103FE000F8949EBF0FBE8DBFEDB7FEB7319608EDBA
:103FF00015E0ADB7BEB712961C930E9311978AE8E1
:104000009DE09383828380910B0D90910C0D95839D
:1040100084838091180D9091190D978386838091E8
:10402000250D9091260D918780870E947AB7EDB774
:10403000FEB73196ADB7BEB712961C930E9311978B
:1040400087E79DE09383828380916E0D90916F0D41
:104050009583848380917B0D90917C0D97838683DB
:104060008091880D9091890D918780870E947AB701
:10407000EDB7FEB73196ADB7BEB712961C930E934F
:10408000119784E69DE0938382838091D10D909176
:10409000D20D958384838091DE0D9091DF0D9783FF
:1040A00086838091EB0D9091EC0D918780870E9423
:1040B0007AB7EDB7FEB73196ADB7BEB712961C937F
:1040C0000E93119781E59DE0938382838091340E56
:1040D0009091350E958384838091410E9091420E8C
:1040E0009783868380914E0E90914F0E91878087A3
:1040F0000E947AB7EDB7FEB73196ADB7BEB712964C
:104100001C930E9311978EE39DE09383828380919D
:10411000970E9091980E958384838091A40E909130
:10412000A50E978386838091B10E9091B20E9187F0
:1041300080870E947AB7EDB7FEB73196ADB7BEB7AC
:1041400012961C930E9311978BE29DE093838283CA
:104150008091200F9091210F9583848380912D0F62
:1041600090912E0F9783868380913A0F90913B0F09
:10417000918780870E947AB7EDB7FEB73196ADB7C9
:10418000BEB712961C930E93119788E19DE093831E
:1041900082838091A90F9091AA0F95838483809147
:1041A000B60F9091B70F978386838091C30F90913C
:1041B000C40F918780870E947AB7EDB7FEB731961A
:1041C000ADB7BEB712961C930E93119785E09DE094
:1041D00093838283809132109091331095838483EE
:1041E00080913F10909140109783868380914C106E
:1041F00090914D10918780870E947AB78DB79EB7B6
:104200000A960FB6F8949EBF0FBE8DBF1F910F91F7
:104210000895CF93DF93FC018DB79EB744970FB6F7
:10422000F8949EBF0FBE8DBF2DB73EB72F5F3F4F97
:1042300088ED95E0ADB7BEB712969C938E9311971B
:104240008FE89EE0E9019B838A8386899789A08D08
:10425000B18D8C839D83AE83BF8385A196A1A7A1D9
:10426000B0A588879987AA87BB8784A995A9A6A99D
:10427000B7A98C879D87AE87BF87ED5BFF4F808195
:104280009181AA2797FDA095BA2FF901808B918B78
:10429000A28BB38B0E947AB78DB79EB744960FB6A8
:1042A000F8949EBF0FBE8DBFDF91CF9108958DB75B
:1042B0009EB740970FB6F8949EBF0FBE8DBFEDB767
:1042C000FEB7319688ED95E0ADB7BEB712969C93D8
:1042D0008E9311978BE49FE0938382838091D20623
:1042E0009091D306A091D406B091D506848395838E
:1042F000A683B7838091D6069091D706A091D80661
:10430000B091D90680879187A287B3878091DA061A
:104310009091DB06A091DC06B091DD06848795873D
:10432000A687B7870E947AB78DB79EB740960FB61B
:10433000F8949EBF0FBE8DBF08958DB79EB740976E
:104340000FB6F8949EBF0FBE8DBFEDB7FEB7319686
:1043500088ED95E0ADB7BEB712969C938E931197FA
:104360008EE69FE0938382838091DE069091DF0644
:10437000A091E006B091E10684839583A683B7837C
:104380008091E2069091E306A091E406B091E506E3
:1043900080879187A287B3878091E6069091E70690
:1043A000A091E806B091E90684879587A687B7872C
:1043B0000E947AB78DB79EB740960FB6F8949EBF0D
:1043C0000FBE8DBF089500D00F9288ED95E0EDB738
:1043D000FEB7928381838EE290E1948383830E946F
:1043E0007AB70F900F900F900F900895CF93DF93AF
:1043F000C8EDD5E0CE0162E775E00E949AB781E290
:1044000096E00E94B5DE882331F4CE0167E575E0C1
:104410000E949AB783C081E296E00E945BE02DB7CC
:104420003EB7285030400FB6F8943EBF0FBE2DBFA8
:10443000EDB7FEB73196ADB7BEB71296DC93CE930B
:10444000119780E395E09383828380913206848381
:1044500015828091330690913406978386830E945B
:104460007AB7EDB7FEB73196ADB7BEB71296DC930B
:10447000CE93119784E195E09383828380913706F0
:1044800090913806019695838483809135069091AA
:104490003606978386830E947AB72DB73EB7285F8A
:1044A0003F4F0FB6F8943EBF0FBE2DBF6091370649
:1044B000709138066F5F7F4F81E296E00E94A0DA2C
:1044C00081E296E00E94B0DBADB7BEB71C970FB695
:1044D000F894BEBF0FBEADBFEDB7FEB731961296D2
:1044E000DC93CE93119721EE34E0338322836483EF
:1044F00075838683978381E190E2A2E1B8E28087A9
:104500009187A287B3870E947AB72DB73EB7245F01
:104510003F4F0FB6F8943EBF0FBE2DBF80E0DF9136
:10452000CF9108958091290A882361F06091410A12
:10453000662341F061508FE096E00E945ACB885E7E
:10454000934058F4E0915015F0915115309711F4C3
:1045500080E00895128280E00895E0911414F091B3
:10456000151480A58823C1F381E008956091F90AAC
:1045700061508FE096E00E945ACB9C018F58934087
:104580008B59944010F08FEF0895C9018F5C9440CF
:104590008238910510F481E00895C9018155954054
:1045A0008238910510F482E00895C901835D954039
:1045B0008238910510F483E00895C901855596402D
:1045C0008138910510F484E00895265D364010F49A
:1045D00080E0089585E00895DF93CF9300D00F9297
:1045E0000F92CDB7DEB73091F9092091C803298326
:1045F00023E02A8322E02B8325E52C833D8360E0A2
:10460000AE014F5F5F4F25E00F94EA1D0F900F90B2
:104610000F900F900F90CF91DF9108956F927F923E
:104620008F929F92AF92BF92CF92DF920F931F9380
:10463000DF93CF93CDB7DEB76B970FB6F894DEBF9D
:104640000FBECDBF3C014B0180916603863011F156
:10465000873048F4813079F1813098F08230A9F0C8
:10466000853089F414C08C3001F18D3028F48A3003
:10467000B1F08B3041F416C08F3079F0803119F4ED
:1046800017C012E019C010E017C015E015C016E001
:1046900001E013C016E002E010C013E00DC014E00A
:1046A00003E00BC014E005E008C014E008E005C01A
:1046B00010E000E002C017E004E06091910C7091FE
:1046C000920C882777FD8095982F0F9403296C8B87
:1046D0007D8B8E8B9F8B20913E1430913F144091A7
:1046E0004014509141140F94522720E030E04AE7E3
:1046F00054E40F94FF2A2C893D894E895F890F94D9
:1047000037280F94D5285B016C0160916703709185
:1047100068038091690390916A0320E030E04AE7E2
:1047200054E40F94FF2A0F94D528688F798F8A8FCD
:104730009B8F6091E5147091E6148091E71490913D
:10474000E81420E030E04AE754E40F94FF2A0F9485
:10475000D5287A836983888D998D9C838B83BE82CB
:10476000AD8298868F8219870A8784E08B878A8139
:104770008C8789818D878C818E878B818F878E81B5
:10478000888B8D81898B88858A8B8F818B8BC301E8
:1047900062E2AE01475F5F4F2BE00F94EA1D6B961C
:1047A0000FB6F894DEBF0FBECDBFCF91DF911F9142
:1047B0000F91DF90CF90BF90AF909F908F907F90A0
:1047C0006F9008952F923F924F925F926F927F92D7
:1047D0008F929F92AF92BF92CF92DF92EF92FF9211
:1047E0000F931F93DF93CF93CDB7DEB7CE54D04056
:1047F0000FB6F894DEBF0FBECDBF2F969FAF8EAF22
:104800002F97DE019596ECE1F7E084E201900D929E
:104810008150E1F72091F4143091F5144091F61491
:104820005091F7142D962CAF3DAF4EAF5FAF2D9743
:104830000091141410911514D80154966D917D9126
:104840008D919C9157972AE030E040E050E00F9422
:10485000F42B1B012C01F801608D718D828D938DDD
:104860000F9403297B018C012DA13EA14FA158A5D6
:104870000F94FF2A0F94D0283B014C01C801B701C7
:1048800029A93AA94BA95CA90F94FF2A0F94D02813
:104890005B016C01C801B701FE01FD9620813181E9
:1048A000428153810F94FF2A0F94D0282091F01455
:1048B0003091F1144091F2145091F3142F83388702
:1048C00049875A872D962CAD3DAD4EAD5FAD2D97E6
:1048D0002B873C874D875E872F86388A498A5A8A7C
:1048E0007A826982BC82AB827E836D83FE013796B9
:1048F00083818B8B82818C8B81818D8B8F818E8B41
:10490000FE013B9683818F8B8281888F8181898F85
:104910008B858A8FFE013F9683818B8F82818C8F5E
:1049200081818D8F8F858E8F8A818F8F898188A3DA
:104930008C8189A38B818AA38E818BA38D818CA38B
:104940002F968EAD9FAD2F9769E4AE014D5E5F4F00
:1049500022E10F94EA1DC25BDF4F0FB6F894DEBF71
:104960000FBECDBFCF91DF911F910F91FF90EF90C0
:10497000DF90CF90BF90AF909F908F907F906F907F
:104980005F904F903F902F9008952F923F924F92BB
:104990005F926F927F928F929F92AF92BF92CF92CF
:1049A000DF92EF92FF920F931F93DF93CF93CDB7D8
:1049B000DEB7EE970FB6F894DEBF0FBECDBF9AAF4D
:1049C00089AF6091FC147091FD148091FE14909158
:1049D000FF140F94032920E030E048EC52E40F94D8
:1049E00037283B014C0160910015709101158091B1
:1049F0000215909103150F94032920E030E048EC54
:104A000052E40F9437280F94D0286BAF7CAF8DAF52
:104A10009EAF6091041570910515809106159091D7
:104A200007150F94032920E030E048EC52E40F947E
:104A300037280F94D0281B012C0140900815509066
:104A4000091560910C1570910D1580910E159091BE
:104A50000F150F94032920E030E048EC52E40F9446
:104A600037287B018C016091101570911115809190
:104A70001215909113150F94032920E030E048ECB3
:104A800052E40F9437285B016C01809114159091CA
:104A90001515A0911615B09117158DAB9EABAFAB48
:104AA000B8AF6091F8147091F9148091FA14909154
:104AB000FB140F94032920E030E048EC52E40F94FB
:104AC00037286F83788789879A87C301D4018B87BA
:104AD0009C87AD87BE87ABADBCADBA83A9833C8252
:104AE0002B825E824D82C701D8018F87988BA98B5C
:104AF000BA8BC501D6018B8B9C8BAD8BBE8B8DA9E0
:104B00009EA9AFA9B8AD8F8B988FA98FBA8FFE01E0
:104B1000379683818B8F82818C8F81818D8F8F815E
:104B20008E8FFE013B9683818F8F828188A3818146
:104B300089A38B858AA38A818BA389818CA38C818D
:104B40008DA38B818EA38E818FA38D8188A7FE017B
:104B50003F96838189A782818AA781818BA78F85D0
:104B60008CA7FE01739683818DA782818EA7818198
:104B70008FA78B8988ABFE017796838189AB828171
:104B80008AAB81818BAB8F898CAB89AD9AAD6EE39B
:104B9000AE01455E5F4F2AE10F94EA1DEE960FB617
:104BA000F894DEBF0FBECDBFCF91DF911F910F9163
:104BB000FF90EF90DF90CF90BF90AF909F908F903D
:104BC0007F906F905F904F903F902F900895CF927D
:104BD000DF92EF92FF920F931F93DF93CF93CDB7A6
:104BE000DEB7A1970FB6F894DEBF0FBECDBF4091E0
:104BF000550D5091560D6091B80D7091B90DE09121
:104C00001B0EF0911C0EA0917E0EB0917F0E0091B4
:104C1000070F1091080FE090900FF090910FC09047
:104C20001910D0901A102091F20C3091F30C3A83A5
:104C300029835C834B837E836D83F887EF83BA87F8
:104C4000A9871C870B87FE86ED86D88ACF862A81A6
:104C5000298B29812A8B2C812B8B2B812C8B2E81CC
:104C60002D8B2D812E8B28852F8B2F81288F2A85A8
:104C7000298F29852A8F2C852B8F2B852C8F2E858C
:104C80002D8F2D852E8F28892F8F2F8528A321E00A
:104C900029A363E2AE014F5E5F4F21E10F94EA1D4D
:104CA000A1960FB6F894DEBF0FBECDBFCF91DF91B6
:104CB0001F910F91FF90EF90DF90CF900895DF93B9
:104CC000CF93CDB7DEB764970FB6F894DEBF0FBEB3
:104CD000CDBFE0914415F0914515A0914615B091D6
:104CE0004715409110155091111560910C15709158
:104CF0000D1520910015309101153A8329835C83AD
:104D00004B837E836D8318861F82E987FA87AB8782
:104D1000BC872A812D8729812E872C812F872B8183
:104D2000288B2E81298B2D812A8B28852B8B2F81F7
:104D30002C8B61E7AE01475F5F4F2CE00F94EA1DBB
:104D400064960FB6F894DEBF0FBECDBFCF91DF9152
:104D50000895CF92DF92EF92FF920F931F93DF930C
:104D6000CF93CDB7DEB7A0970FB6F894DEBF0FBED6
:104D7000CDBF4091610D5091620D6091C40D709155
:104D8000C50DE091270EF091280EA0918A0EB091EA
:104D90008B0E0091130F1091140FE0909C0FF09068
:104DA0009D0FC0902510D09026102091FE0C3091C0
:104DB000FF0C3A8329835C834B837E836D83F88762
:104DC000EF83BA87A9871C870B87FE86ED86D88A72
:104DD000CF862A81298B29812A8B2C812B8B2B81B1
:104DE0002C8B2E812D8B2D812E8B28852F8B2F8127
:104DF000288F2A85298F29852A8F2C852B8F2B8513
:104E00002C8F2E852D8F2D852E8F28892F8F2F85E6
:104E100028A365E2AE014F5E5F4F20E10F94EA1DCB
:104E2000A0960FB6F894DEBF0FBECDBFCF91DF9135
:104E30001F910F91FF90EF90DF90CF900895DF9337
:104E4000CF9300D00F92CDB7DEB72091050A33275C
:104E500027FD30953A8329832A812B8329812C834E
:104E60006AE2AE014D5F5F4F22E00F94EA1D0F90A2
:104E70000F900F900F90CF91DF9108950F931F9394
:104E8000DF93CF93CDB7DEB72E970FB6F894DEBF82
:104E90000FBECDBF8C0146DB882361F1E091501538
:104EA000F0915115309731F16281758126813781FA
:104EB00040855185838194819A8389832B833C83A8
:104EC0004D835E836F838A818887898189877A870A
:104ED000FE01339683818B8782818C8781818D87C8
:104EE0008B818E87C80162EAAE01495F5F4F28E07F
:104EF0000F94EA1D2E960FB6F894DEBF0FBECDBFFD
:104F0000CF91DF911F910F910895DF93CF9300D040
:104F100000D0CDB7DEB7FC0187898823E9F040894E
:104F200051898091F909992787FD909584179507F4
:104F300098F083859485228934895A8349832B8309
:104F40003C832A812D8329812E8368E2AE014D5F47
:104F50005F4F24E00F94EA1D26960FB6F894DEBF4B
:104F60000FBECDBFCF91DF910895EF92FF920F93C7
:104F70001F93DF93CF93CDB7DEB728970FB6F89482
:104F8000DEBF0FBECDBF7C010091311910913219E7
:104F90000F9409211A8309839C838B838A818D83D3
:104FA00089818E838C818F838B818887C70168E993
:104FB000AE014B5F5F4F24E00F94EA1D28960FB6B9
:104FC000F894DEBF0FBECDBFCF91DF911F910F913F
:104FD000FF90EF9008952F923F924F925F926F92C1
:104FE0007F928F929F92AF92BF92CF92DF92EF9279
:104FF000FF920F931F93DF93CF93CDB7DEB7CA54C1
:10500000D0400FB6F894DEBF0FBECDBF2B969FAF3A
:105010008EAF2B978091780790917907A0917A07AE
:10502000B0917B0729968CAF9DAFAEAFBFAF2997EC
:105030008091740790917507A0917607B0917707DA
:1050400025968CAF9DAFAEAFBFAF25972090700770
:105050003090710740907207509073070F94282387
:105060009B01AC01E090F606F090F7060091F8067F
:105070001091F906A090FA06B090FB06C090FC06CD
:10508000D090FD066090FE067090FF0680900007AD
:1050900090900107698F3A8F4B8F5C8F1D8E1E8E0B
:1050A0001F8E18A2E982FA820B831C83AD82BE8216
:1050B000CF82D88669867A868B869C862D863E86A8
:1050C0004F86588A25968CAD9DADAEADBFAD259768
:1050D000898B9A8BAB8BBC8B29968CAD9DADAEAD7D
:1050E000BFAD29978D8B9E8BAF8BB88F8E010F5DD7
:1050F0001F4FC801BE01675E7F4F0E94CE1AFE019E
:105100003196838189A782818AA781818BA7898132
:105110008CA7FE01359683818DA782818EA7818120
:105120008FA78D8188ABFE013996838189AB8281FF
:105130008AAB81818BAB89858CABFE013D968381E7
:105140008DAB82818EAB81818FAB8D8588AFFE0167
:105150007196838189AF82818AAF81818BAF898982
:105160008CAFFE01759683818DAF82818EAF818178
:105170008FAF8D89FE01E05CFF4F80832B968EAD53
:105180009FAD2B976EE1A80120E20F94EA1DC65B4C
:10519000DF4F0FB6F894DEBF0FBECDBFCF91DF91CA
:1051A0001F910F91FF90EF90DF90CF90BF90AF9045
:1051B0009F908F907F906F905F904F903F902F9037
:1051C00008952F923F924F925F926F927F928F92AB
:1051D0009F92AF92BF92CF92DF92EF92FF920F9386
:1051E0001F93DF93CF93CDB7DEB7C655D0400FB630
:1051F000F894DEBF0FBECDBF1C010F9428235B01C6
:105200006C018090141490901514F401F7A92B965A
:10521000FFAF2B97F40164857585868597850F947C
:10522000032920E836E948E15BE40F9437282B0195
:105230003C01F40160897189828993890F94032963
:1052400020E836E948E15BE40F9437282F966CAFED
:105250007DAF8EAF9FAF2F97F401648975898689E2
:1052600097890F94032920E030E048EC52E40F9432
:10527000372863966CAF7DAF8EAF9FAF6397F40115
:1052800064A175A1882777FD8095982F0F94032935
:105290006D877E878F87988BF401608D718D828DED
:1052A000938D0F94032920E030E048EC52E40F94F2
:1052B000372867966CAF7DAF8EAF9FAF6797F401CD
:1052C000648D758D868D978D0F94032920E030E0D5
:1052D00048EC52E40F943728AD8EBE8ECF8ED8A204
:1052E00019A21AA21BA21CA29201A30129833A832C
:1052F0004B835C832C96EFAD2C972D96FFAD2D97AD
:105300002E96AFAD2E972F96BFAD2F979F01AD0173
:105310002D833E834F8358876096EFAD60976196EB
:10532000FFAD61976296AFAD62976396BFAD63972D
:105330009F01AD0129873A874B875C8720E030E0E9
:1053400040E050E0298B3A8B4B8B5C8B6496EFAD41
:1053500064976596FFAD65976696AFAD669767965D
:10536000BFAD67979F01AD012D8B3E8B4F8B588F43
:10537000AC01CB01DA01898F9A8FAB8FBC8F8E0184
:105380000B5D1F4FC801BE01635E7F4F0E94CE1AA6
:105390002B96FFAD2B97FDA7FE01319683818EA73B
:1053A00082818FA7818188AB898189ABFE01359687
:1053B00083818AAB82818BAB81818CAB8D818DABFC
:1053C000FE01399683818EAB82818FAB818188AF5C
:1053D000898589AFFE013D9683818AAF82818BAF3B
:1053E00081818CAF8D858DAFFE01719683818EAFEB
:1053F00082818FAF8181FE01E05CFF4F80838989CC
:10540000FE01EF5BFF4F8083DE01559613968C9172
:105410001397FE01EE5BFF4F808312968C911297DB
:10542000FE01ED5BFF4F808311968C91FE01EC5BDA
:10543000FF4F80838D89FE01EB5BFF4F8083DE0190
:10544000599613968C911397FE01EA5BFF4F808368
:1054500012968C911297FE01E95BFF4F80831196A3
:105460008C91FE01E85BFF4F8083898DFE01E75B35
:10547000FF4F8083C10160E2A80125E20F94EA1D7D
:10548000CA5ADF4F0FB6F894DEBF0FBECDBFCF9123
:10549000DF911F910F91FF90EF90DF90CF90BF9021
:1054A000AF909F908F907F906F905F904F903F90C4
:1054B0002F9008952F923F924F925F926F927F921A
:1054C0008F929F92AF92BF92CF92DF92EF92FF9214
:1054D0000F931F93DF93CF93CDB7DEB7C256D04063
:1054E0000FB6F894DEBF0FBECDBFA3969FAF8EAFB1
:1054F000A3970091181510911915E0901A15F090C6
:105500001B15C0901C15D0901D15A0901E15B090B5
:105510001F15809020159090211560902215709095
:105520002315409024155090251520902615309075
:1055300027158091281590912915A1969FAF8EAFC0
:10554000A19780912A1590912B156F969FAF8EAFE2
:105550006F9780912C1590912D156D969FAF8EAF02
:105560006D9780912E1590912F156B969FAF8EAFF2
:105570006B97809130159091311569969FAF8EAFE2
:105580006997809132159091331567969FAF8EAFD2
:105590006797809134159091351565969FAF8EAFC2
:1055A0006597809136159091371563969FAF8EAFB2
:1055B00063970F9428239B01AC011A830983FC8213
:1055C000EB82DE82CD82B886AF829A8689867C861F
:1055D0006B865E864D86388A2F86A1968EAD9FADEE
:1055E000A1979A8B898B6F968EAD9FAD6F979C8B91
:1055F0008B8B6D968EAD9FAD6D979E8B8D8B6B96C5
:105600008EAD9FAD6B97988F8F8B69968EAD9FAD4A
:1056100069979A8F898F67968EAD9FAD67979C8F9C
:105620008B8F65968EAD9FAD65979E8F8D8F6396A0
:105630008EAD9FAD639798A38F8F29A33AA34BA3F9
:105640005CA31DA21EA21FA218A68A8189A7898118
:105650008AA78C818BA78B818CA78E818DA78D814A
:105660008EA788858FA78F8188AB8A8589AB89852E
:105670008AAB8C858BAB8B858CAB8E858DAB8D850A
:105680008EAB88898FAB8F8588AF8A8989AF8989EE
:105690008AAF8C898BAF8B898CAF8E898DAF8D89CA
:1056A0008EAF888D8FAF8F89FE01E05CFF4F8083C6
:1056B0008A8DFE01EF5BFF4F8083898DFE01EE5BDB
:1056C000FF4F80838C8DFE01ED5BFF4F80838B8DC0
:1056D000FE01EC5BFF4F80838E8DFE01EB5BFF4F85
:1056E00080838D8DFE01EA5BFF4F808388A1FE01E0
:1056F000E95BFF4F80838F8DFE01E85BFF4F808366
:105700008E01075D1F4FC8018096BE016F5D7F4F00
:105710000E94CE1AA3968EAD9FADA3976FE6A80107
:1057200028E20F94EA1DCE59DF4F0FB6F894DEBF82
:105730000FBECDBFCF91DF911F910F91FF90EF90E2
:10574000DF90CF90BF90AF909F908F907F906F90A1
:105750005F904F903F902F9008952F923F924F92DD
:105760005F926F927F928F929F92AF92BF92CF92F1
:10577000DF92EF92FF920F931F93DF93CF93CDB7FA
:10578000DEB7C65CD0400FB6F894DEBF0FBECDBF0B
:10579000CB53DF4F99838883C55CD0406091181547
:1057A00070911915882777FD8095982F0F940329FC
:1057B000CF53DF4F688379838A839B83C15CD0405A
:1057C0006091421470E080E090E00F940129C3548E
:1057D000DF4F688379838A839B83CD5BD040609160
:1057E00038157091391580913A1590913B1520E04C
:1057F00030E048EC52E40F9437286B017C01609153
:105800003C1570913D1580913E1590913F1520E01B
:1058100030E048EC52E40F9437284B015C01609172
:1058200040157091411580914215909143150F9448
:105830000329C754DF4F688379838A839B83C95BBD
:10584000D0406091221570912315882777FD8095AF
:10585000982F0F940329CB54DF4F688379838A8371
:105860009B83C55BD04060912415709125158827D6
:1058700077FD8095982F0F940329CF54DF4F6883CD
:1058800079838A839B83C15BD04060912615709198
:105890002715882777FD8095982F0F940329C355E6
:1058A000DF4F688379838A839B83CD5AD040609190
:1058B000281570912915882777FD8095982F0F94CA
:1058C0000329C755DF4F688379838A839B83C95A2D
:1058D000D04060912A1570912B15882777FD80950F
:1058E000982F0F940329CB55DF4F688379838A83E0
:1058F0009B83C55AD04060912C1570912D15882737
:1059000077FD8095982F0F940329CF55DF4F68833B
:1059100079838A839B83C15AD04060912E15709100
:105920002F15882777FD8095982F0F940329C3564C
:10593000DF4F688379838A839B83CD59D040609100
:10594000301570913115882777FD8095982F0F9429
:105950000329C756DF4F688379838A839B83C9599C
:10596000D0406091321570913315882777FD80956E
:10597000982F0F940329CB56DF4F688379838A834E
:105980009B83C559D0406091341570913515882797
:1059900077FD8095982F0F940329CF56DF4F6883AA
:1059A00079838A839B83C159D04060913615709169
:1059B0003715882777FD8095982F0F9403291B01B1
:1059C0002C010F9428238B019C01CF53DF4F88813A
:1059D0009981AA81BB81C15CD04089839A83AB83C2
:1059E000BC83C354DF4F88819981AA81BB81CD5B81
:1059F000D0408D839E83AF83B887C601AE2DBF2D67
:105A000089879A87AB87BC87C401AA2DBB2D8D8758
:105A10009E87AF87B88BC754DF4F88819981AA8151
:105A2000BB81C95BD040898B9A8BAB8BBC8BCB5431
:105A3000DF4F88819981AA81BB81C55BD0408D8B66
:105A40009E8BAF8BB88FCF54DF4F88819981AA810D
:105A5000BB81C15BD040898F9A8FAB8FBC8FC35500
:105A6000DF4F88819981AA81BB81CD5AD0408D8F2B
:105A70009E8FAF8FB8A3C755DF4F88819981AA81C8
:105A8000BB81C95AD04089A39AA3ABA3BCA3CB5571
:105A9000DF4F88819981AA81BB81C55AD0408DA3EF
:105AA0009EA3AFA3B8A7CF55DF4F88819981AA8164
:105AB000BB81C15AD04089A79AA7ABA7BCA7C35640
:105AC000DF4F88819981AA81BB81CD59D0408DA7B4
:105AD0009EA7AFA7B8ABC756DF4F88819981AA812F
