:100000000C945C100D9430040D9461040D949204D2
:100010000D94C3040D94F4040D9425050D94560518
:100020000D9487050C9489100C9489100C948910F8
:100030000C9489100C9489100C9489100C94B4B011
:100040000C9489100C9489100C9489100C948910CC
:100050000C9489100C9489100C9489100D94B80597
:100060000C9489100C9404190C9444190C94891064
:100070000C9489100C9489100C9489100C9489109C
:100080000C9489100C9489100C9489100C9489108C
:100090000C9496190C94D6190C9489100C949FBD4D
:1000A0000C9489100C94E1B00C9489100C94891074
:1000B0000C9489100C9489100C940EB10C94891036
:1000C0000C9489100C9489100C9489100C9489104C
:1000D0000C9489100C9489100C94281A0C94681AAA
:1000E0000C948910E85BFE5B055CEF5BF75B0C5CD6
:1000F0006F5C4C5C455C215C535C5A5C615C685C89
:10010000135C1A5C845C755C945C9A5C285C2F5C64
:10011000375C3E5C036EDB363D9A9999993DABAAFC
:10012000AA2A3E000000803F084AD73B3BCE016E22
:1001300084BCBFFDC12F3D6C74319ABD56833DDA3E
:100140003D00C77F11BED9E4BB4C3E916BAAAABE4D
:10015000000000803F072C7AA5BA6CC590DA3B936B
:1001600065FC8BBC53F810FD3C5692834DBD879DBA
:100170003AB63DCBC9BF5BBE73DA0FC93F05A84C89
:10018000CDB2D44EB93836A9020C50B99186880840
:100190003CA6AAAA2ABE000000803F08000000BEBC
:1001A000922449123EABAAAA2ABECDCCCC4C3E002A
:1001B000000080BEABAAAAAA3E00000000BF00005B
:1001C00000803F0000000000084178D3BB4387D186
:1001D000133D190E3CC3BD4282AD2B3E68EC8276C6
:1001E000BED98FE1A93E4C80EFFFBE01C4FF7F3F27
:1001F0000000000000706C616E6E657200676373D2
:1002000000000000000000000000006F8C736574A7
:1002100075700072657365740000000000000000D6
:10022000006F4C726164696F000000000000000004
:1002300000A2626D6F6465730000000000000000A2
:10024000000D62636F6D7061737300000000000049
:1002500000E14B6465636C696E6174696F6E0000E8
:1002600000CC4B626174746572790000000000007C
:1002700000074273686F7700000000000000000074
:1002800000964B657261736500000000000000007D
:1002900000D34641726475506C616E652056322EF3
:1002A000323720417567757374203230746820329C
:1002B00030313320466C69676874204D6F64650087
:1002C0006C6F677300000000000000000000D61A89
:1002D00073657475700000000000000000007E4B24
:1002E0007465737400000000000000000000664B9D
:1002F00068656C7000000000000000000000731DC5
:10030000706C616E6E6572000000000000004E4B64
:10031000746573740070776D0000000000000000C9
:100320000000009C61726164696F000000000000C1
:1003300000000017617061737374687275000000CB
:100340000000003D4A6661696C73616665000000EB
:10035000000000176062617474657279000000002B
:10036000000000033872656C617900000000000035
:100370000000006620776179706F696E7473000009
:10038000000000DD337862656500000000000000B9
:100390000000003847656564756D7000000000005E
:1003A0000000007F486D6F6465737769746368004F
:1003B000000000D849646970737769746368657375
:1003C0000000003B49616463000000000000000081
:1003D000000000FF4767707300000000000000008D
:1003E0000000006A477261776770730000000000C8
:1003F000000000F946696D75000000000000000073
:10040000000000643B616972737065656400000000
:100410000000009145616972707265737375726551
:100420000000009E79636F6D7061737300000000BF
:10043000000000933D63757272656E7400000000E9
:10044000000000955F6C6F6767696E6700000000D1
:10045000000000CA1F466F726D617420766572736A
:10046000696F6E3A20256C7820204578706563743A
:10047000656420666F726D61742076657273696F52
:100480006E3A20256C780A004E756D506167657371
:100490003A20257520205061676553697A653A20B6
:1004A00025750A004D616E756661637475726572BB
:1004B0003A203078253032782020204465766963F0
:1004C000653A203078253034780A004552523A2077
:1004D0004E6F2064617461666C61736820696E732D
:1004E00065727465640054657374696E6720646135
:1004F0007461666C617368206C6F6767696E670012
:100500004E6F7420656E61626C65640A00563A2015
:1005100025342E34662C20413A2025342E34662C86
:10052000206D41683A2025342E34660A00486974EB
:1005300020456E74657220746F20657869742E0A88
:100540000A004D5347204653204F4646202575004C
:100550004D5347204653204F4E202575007361763A
:10056000696E67206F66667365747300636F6D7084
:10057000617373206E6F74206865616C74687900B4
:1005800048656164696E673A20256C642C2058596F
:100590005A3A2025642C2025642C2025642C0958E7
:1005A000595A6F66663A2025362E32662C2025363B
:1005B0002E32662C2025362E32660A00436F6D706F
:1005C00061737320696E697469616C6973617469C0
:1005D0006F6E206661696C65642100436F6D7061A8
:1005E00073733A200061626C65640A006469730089
:1005F000656E004D6167206F6666736574733A209F
:1006000025342E34662C2025342E34662C202534B7
:100610002E34660A004D6167204465636C696E6123
:1006200074696F6E3A2025342E34660A003F3F000D
:1006300048494C00484D433538343300484D433524
:100640003838334C00436F6D706173733A20002D5E
:1006500000416C743A2025302E32666D2C20526198
:10066000773A20256C642054656D706572617475ED
:1006700072653A20252E31660A006E6F7420686517
:10068000616C74687900556E63616C696272617443
:1006900065642072656C6174697665206169727049
:1006A000726573737572650A006261726F6D65744D
:1006B00065722063616C6962726174696F6E206338
:1006C0006F6D706C6574652E006162735F7072652A
:1006D000737375726520256C640A00252E316620BF
:1006E0006D2F730A0061697273706565643A20004A
:1006F00061697273706565643A2000616972737034
:100700006565645F63683A20252E31660A00723A97
:100710002534642020703A2534642020793A25332A
:10072000642020673D2825352E31662025352E3161
:10073000662025352E3166292020613D2825352E5D
:1007400031662025352E31662025352E3166290A61
:10075000002E004C61743A20256C642C204C6F6E86
:1007600020256C642C20416C743A20256C646D2C1F
:100770002023736174733A2025640A00252E3166A4
:1007800009004144430A004D69783A656C65766F0B
:100790006E73200972657620656C65763A25642C47
:1007A00020726576206368313A25642C2072657664
:1007B000206368323A25640A004D69783A7374619F
:1007C0006E64617264200972657620726F6C6C3A97
:1007D00025642C207265762070697463683A2564FC
:1007E0002C20726576207275646465723A25640AFD
:1007F0000064697020737769746368657320646945
:100800007361626C65642C207573696E6720454561
:1008100050524F4D00506F736974696F6E2025649C
:100820000A00436F6E74726F6C20434820002025CD
:1008300030327800253034783A00426567696E209E
:100840005842656520582D4354552052616E6765A6
:1008500020616E64205253534920546573743A0AE0
:10086000004C6F69746572207261646975733A2017
:1008700025640A0A00486974207261646975733AD4
:100880002025640A00256420776179706F696E7491
:10089000730A00486F6C6420616C746974756465D8
:1008A000206F662025646D0A00486F6C64206375B4
:1008B0007272656E7420616C7469747564650A0087
:1008C000636F6D6D616E6420233A20256420696436
:1008D0003A2564206F7074696F6E733A25642070D6
:1008E000313A25642070323A256C642070333A2501
:1008F0006C642070343A256C64200A0052656C6187
:1009000079206F66660A0052656C6179206F6E0A05
:10091000004E6F7420656E61626C65640A00566FEC
:100920006C74733A20313A25322E32662C20323ADA
:1009300025322E32662C20333A25322E32662C2078
:10094000343A25322E32660A004C4F5320636175CB
:10095000736564206E6F206368616E676520696EE1
:100960002041504D2E0A005448524F54544C4520BB
:100970004641494C53414645204143544956415410
:1009800045443A2025642C2000434F4E54524F4C8E
:10099000204D4F4445204348414E4745443A2000AE
:1009A0005448524F54544C45204348414E474544C7
:1009B000202564200A00556E706C75672062617492
:1009C000746572792C207468726F74746C65206918
:1009D0006E206E65757472616C2C207475726E2059
:1009E0006F666620726164696F2E0A00494E20317D
:1009F0003A20256409323A20256409333A202564D7
:100A000009343A20256409353A20256409363A200C
:100A1000256409373A20256409383A2025640A00FC
:100A2000494E3A09313A20256409323A20256409B1
:100A3000333A20256409343A20256409353A2025C3
:100A40006409363A20256409373A20256409383A82
:100A50002025640A00506C616E6E6572204D6F64D3
:100A6000650A0A54686973206D6F64652069732094
:100A70006E6F7420696E74656E64656420666F7253
:100A8000206D616E75616C207573650A0A00436F95
:100A90006D6D616E64733A0A20206C6F677320205D
:100AA0002020202020206C6F6720726561646261C5
:100AB000636B2F7365747570206D6F64650A2020F9
:100AC0007365747570202020202020207365747554
:100AD00070206D6F64650A20207465737420202077
:100AE000202020202074657374206D6F64650A0ACD
:100AF0004D6F76652074686520736C69646520733A
:100B0000776974636820616E642072657365742010
:100B1000746F20464C592E0A0A0054657374204D98
:100B20006F64650A0A005365747570204D6F6465C3
:100B30000A0A494D504F5254414E543A206966209A
:100B4000796F752068617665206E6F7420707265AC
:100B500076696F75736C7920736574207468697336
:100B60002073797374656D2075702C207573652002
:100B70007468650A2772657365742720636F6D6DED
:100B8000616E6420746F20696E697469616C697A42
:100B9000652074686520454550524F4D20746F2084
:100BA00073656E7369626C652064656661756C74EB
:100BB0002076616C7565730A616E64207468656E79
:100BC000207468652027726164696F2720636F6DE8
:100BD0006D616E6420746F20636F6E6669677572F5
:100BE0006520666F7220796F757220726164696F1B
:100BF0002E0A0A000A547970652027592720616E51
:100C0000642068697420456E74657220746F206575
:100C10007261736520616C6C20776179706F696EA9
:100C20007420616E6420706172616D6574657220FC
:100C3000646174612C20616E79206F746865722024
:100C40006B657920746F2061626F72743A20006462
:100C50006F6E650A000A45726173696E67204545CB
:100C600050524F4D0A005261772056616C75657382
:100C70000A00526164696F0A004348383A202564CB
:100C8000207C202564207C2025640A004348373AD4
:100C9000202564207C202564207C2025640A0043D4
:100CA00048363A202564207C202564207C20256459
:100CB0000A004348353A202564207C202564207CA6
:100CC0002025640A004348343A202564207C2025EE
:100CD00064207C2025640A004348333A20256420A0
:100CE0007C202564207C2025640A004348323A2079
:100CF0002564207C202564207C2025640A0043484C
:100D0000313A202564207C202564207C2025640A3B
:100D1000004D6F6E69746F72696E6720766F6C74C8
:100D20007320616E642063757272656E74004D6F1E
:100D30006E69746F72696E67206261747420766F79
:100D40006C7473004D6F6E69746F72696E672034D6
:100D50002063656C6C004D6F6E69746F72696E67AD
:100D600020332063656C6C0042617474206D6F6E7B
:100D700069746F72696E672064697361626C65641F
:100D80000042617474204D6F696E746F720A006E58
:100D9000617620706974636820616C743A0A00653A
:100DA0006E6572677279207468726F74746C653ADC
:100DB0000A006E61762070697463682061697273DD
:100DC000706565643A0A006E617620726F6C6C3AE9
:100DD0000A00736572766F207275646465723A0AF0
:100DE00000736572766F2070697463683A0A0073E5
:100DF0006572766F20726F6C6C3A0A004761696E9B
:100E0000730A00503A2025342E33662C20493A25A7
:100E1000342E33662C20443A25342E33662C204958
:100E20004D41583A256C640A0058545241434B3A9C
:100E30002025342E32660A58545241434B20616EAD
:100E4000676C653A2025640A0043726F737374728D
:100E500061636B0A006D696E3A2025640A6D6178E2
:100E60003A2025640A6372756973653A2025640A1D
:100E70006661696C736166655F656E61626C65640D
:100E80003A2025640A6661696C736166655F766104
:100E90006C75653A2025640A005468726F74746C2E
:100EA000650A00466C69676874206D6F6465730A33
:100EB00000506F732025643A2000494D550A0047C1
:100EC00079726F206F6666736574733A2025342ECD
:100ED00032662C2025342E32662C2025342E3266A4
:100EE0000A00416363656C206F6666736574733ACC
:100EF0002025342E32662C2025342E32662C2025D7
:100F0000342E32660A000A4F7074696F6E733A208D
:100F1000302D34000A4F7074696F6E733A5B6F6ED8
:100F20002C6F66665D0A006F666600436F6D7061C8
:100F3000737320696E697469616C69736174696F38
:100F40006E206661696C656421006F6E000A4D6FEA
:100F5000766520524320746F67676C6520737769EC
:100F600074636820746F206561636820706F7369B3
:100F700074696F6E20746F20656469742C206D6FC6
:100F800076652061696C65726F6E20737469636B3E
:100F900020746F2073656C656374206D6F64657376
:100FA0002E000A53617665642053657474696E6718
:100FB000730A0A000A4D6F766520616C6C20636FBE
:100FC0006E74726F6C7320746F2065616368206546
:100FD000787472656D652E2048697420456E74655D
:100FE0007220746F20736176653A200A000A4E6F92
:100FF00020726164696F3B20436865636B20636F97
:101000006E6E6563746F72732E000A0A52616469B2
:101010006F2053657475703A0A000A464143544F75
:10102000525920524553455420636F6D706C65745E
:1010300065202D20706C6561736520726573657421
:101040002041504D20746F20636F6E74696E75651A
:10105000000A547970652027592720616E64206842
:10106000697420456E74657220746F2070657266B5
:101070006F726D20666163746F727920726573653B
:10108000742C20616E79206F74686572206B6579AD
:1010900020746F2061626F72743A2000414C5432A8
:1010A000505443485F00454E524759325448525FAE
:1010B000005957325352565F0041525350325054E8
:1010C00043485F0050544348325352565F00524CDD
:1010D0004C325352565F0048444E4732524C4C5F9C
:1010E000005243385F005243375F005243365F007F
:1010F0005243355F005243345F005243335F005226
:1011000043325F005243315F00464C41505F325FD3
:10111000535045454400464C41505F325F50455264
:10112000434E5400464C41505F315F535045454457
:1011300000464C41505F315F504552434E54004190
:10114000525350445F454E41424C4500534F4E412F
:10115000525F454E41424C4500494E56455254451A
:1011600044464C545F434800424154545F4341500D
:10117000414349545900494E5055545F564F4C54C1
:101180005300414D505F5045525F564F4C540056EE
:101190004F4C545F444956494445520042415454CF
:1011A0005F4D4F4E49544F52004D41475F454E41B0
:1011B000424C4500474E445F4142535F50524553B5
:1011C0005300474E445F54454D5000414C545F48D6
:1011D0004F4C445F52544C005452494D5F50495457
:1011E00043485F4344004D494E5F474E445350448B
:1011F0005F434D005452494D5F41525350445F4349
:101200004D005253545F5357495443485F4348007D
:101210004C4F475F4C41535446494C45004C4F4757
:101220005F4249544D41534B005359535F4E554D06
:101230005F52455345545300454C45564F4E5F430E
:1012400048325F52455600454C45564F4E5F434825
:10125000315F52455600454C45564F4E5F524556FC
:101260004552534500454C45564F4E5F4D495849F0
:101270004E47005357495443485F454E41424C4501
:10128000005452494D5F4155544F004C494D5F50F9
:10129000495443485F4D494E004C494D5F504954B5
:1012A00043485F4D4158004C494D5F524F4C4C5F95
:1012B000434400464C544D4F44453600464C544D33
:1012C0004F44453500464C544D4F44453400464C40
:1012D000544D4F44453300464C544D4F4445320025
:1012E000464C544D4F44453100464C544D4F4445B7
:1012F0005F43480046535F4743535F454E41424C6E
:101300000046535F4C4F4E475F4143544E00465397
:101310005F53484F52545F4143544E005452494D1D
:101320005F5448524F54544C45005448525F465302
:101330005F56414C5545005448525F4641494C5315
:10134000414645005448525F534C4557524154451D
:10135000005448525F4D4158005448525F4D494E29
:1013600000414C545F484F4C445F464257434D0048
:1013700041525350445F4642575F4D4158004152DD
:101380005350445F4642575F4D494E0046454E43D9
:10139000455F4D4158414C540046454E43455F4DD5
:1013A000494E414C540046454E43455F4348414EEB
:1013B0004E454C0046454E43455F544F54414C000A
:1013C00046454E43455F414354494F4E0057505F99
:1013D0004C4F495445525F5241440057505F52416F
:1013E0004449555300434D445F494E4445580043DA
:1013F0004D445F544F54414C0041525350445F4F51
:1014000046465345540041525350445F524154495B
:101410004F00414C545F4D4958005854524B5F4166
:101420004E474C455F4344005854524B5F47414937
:101430004E5F5343004B46465F544852325054432C
:1014400048004B46465F5054434832544852004B84
:1014500046465F524444524D4958004B46465F5001
:10146000544348434F4D500053455249414C335F1C
:10147000424155440053595349445F4D59474353E2
:101480000053595349445F544849534D4156005302
:10149000595349445F53575F54595045005359536A
:1014A00049445F53575F4D52455600445A005245D8
:1014B00056004D4158005452494D004D494E00418F
:1014C0004E474C455F4D415800414E474C455F4D9E
:1014D000494E0046554E4354494F4E00494D4158E0
:1014E00000440049005000494D555F53454E534F4D
:1014F000525F43414C0047656F46656E636520440B
:10150000697361626C65640047656F46656E63650B
:101510002044697361626C65640047656F46656E5F
:101520006365206973204E554C4C0047656F4665D6
:101530006E6365206973204E554C4C0067707320B4
:10154000616C743A20256C7500696E697420686F4F
:101550006D65006261642066656E636520706F6909
:101560006E74006261642066656E636520706F69E9
:101570006E740066656E63696E67206D75737420A6
:1015800062652064697361626C656400666C69679A
:10159000687420706C616E2072656365697665643D
:1015A00000666C6967687420706C616E2072656398
:1015B00065697665640043757272656E7420576163
:1015C00079506F696E74204E4F54204D4F444946F8
:1015D0004945440043757272656E742057617950B5
:1015E0006F696E74204D4F44494649454400576128
:1015F00079706F696E7420496E76616C69642053EE
:10160000657175656E636500576179506F696E74B9
:1016100020526563656976696E672046414C534583
:101620000054696D65202566202034443F20202524
:10163000640A004D41564C494E4B5F4D53475F493C
:10164000445F504152414D5F524551554553545F9F
:101650004C495354207379733D25642020636F6D8A
:10166000703D2564204641494C45440A004D415691
:101670004C494E4B5F4D53475F49445F5041524187
:101680004D5F524551554553545F4C495354207357
:1016900079733D25642020636F6D703D256420467D
:1016A00041494C45440A00616374696F6E2072655C
:1016B0006365697665643A200052454A4543543A69
:1016C0002041505B25642C25645D204D73675B25AC
:1016D000642C25645D206D736769643D2564206317
:1016E0006E743D25640A0052454A4543543A2041F0
:1016F000505B25642C25645D204D73675B25642C4D
:1017000025645D206D736769643D256420636E7494
:101710003D25640A006F7574206F6620636F6D6DE0
:10172000616E6473210052657475726E696E672014
:10173000746F20486F6D6500496E20646F5F636849
:10174000616E67655F79617728292E202054617268
:101750006765742068656164696E673A2025690071
:10176000436F6D6D616E6420494420232569204ECE
:101770004F54205245434F474E495A45440050610B
:1017800072616D6574657220494420232569204E7D
:101790004F54205245434F474E495A4544003C73ED
:1017A0007461727475705F67726F756E643E204EFF
:1017B0004F206169727370656564003C7374617277
:1017C0007475705F67726F756E643E207A65726FB4
:1017D0002061697273706565642063616C6962720F
:1017E0006174656400426567696E6E696E67204961
:1017F0004D552063616C6962726174696F6E3B2044
:10180000646F206E6F74206D6F766520706C616EF2
:1018100065005761726D696E6720757020414443A1
:101820002E2E2E0044656D6F20536572766F7321E6
:10183000004261642052657175657374202D2063C8
:10184000616E6E6F74206368616E676520746F20CF
:101850006E6F6E2D4E617620636D64004C61746511
:1018600020746F20576179706F696E74202569202C
:1018700062792025642073656300476F696E672075
:10188000746F20576179706F696E742025692069C3
:101890006E20256420736563005B2531643A253131
:1018A000643A25645D200045585452413300455840
:1018B000545241320045585452413100504F53491F
:1018C00054494F4E005241575F4354524C005243CB
:1018D0005F4348414E004558545F535441540052B1
:1018E00041575F53454E53005352335F00535230BC
:1018F0005F0067656F2D66656E636520747269674A
:1019000067657265640067656F2D66656E63652047
:101910004F4B0067656F2D66656E63652073657458
:101920007570206572726F720067656F2D66656EE7
:101930006365206C6F6164656400666C69676874D8
:10194000206D6F6465203D202575004661696C73CC
:10195000616665202D204C6F6E67206576656E741C
:10196000206F6E2C2000466F7277617264202535DF
:101970002E306670776D3A25352E31665628253023
:101980003464293A25352E316656282530346429A9
:101990003A25362E3166412825303464293A2535DA
:1019A0002E306652504D2825303464290A202020DC
:1019B000204166742025352E306670776D3A2535C6
:1019C0002E3166562825303464293A25352E316665
:1019D000562825303464293A25362E31664128258B
:1019E000303464293A25352E306652504D28253042
:1019F0003464290A00466F72776172642025352E9F
:101A0000306670776D3A25352E316656282530348C
:101A100064293A25352E3166562825303464293A12
:101A200025362E3166412825303464293A25352E55
:101A3000306652504D2825303464290A2020202059
:101A40004166742025352E306670776D3A25352E27
:101A50003166562825303464293A25352E316656AC
:101A60002825303464293A25362E31664128253020
:101A70003464293A25352E306652504D28253034AD
:101A800064290A00696E20666C69676874206D6F4E
:101A90006465004152452031204544474500466C6D
:101AA00079696E6720000A4D6F766520746865203D
:101AB000736C6964652073776974636820616E6410
:101AC00020726573657420746F20464C592E0A008D
:101AD0000A456E746572696E6720696E746572611D
:101AE0006374697665207365747570206D6F6465C5
:101AF0002E2E2E0A0A4966207573696E6720746857
:101B0000652041726475696E6F2053657269616CFE
:101B1000204D6F6E69746F722C20656E73757265DF
:101B2000204C696E6520456E64696E67206973207C
:101B300073657420746F20436172726961676520F8
:101B400052657475726E2E0A547970652027686527
:101B50006C702720746F206C69737420636F6D6DD7
:101B6000616E64732C2027657869742720746F2058
:101B70006C656176652061207375626D656E752E8A
:101B80000A566973697420746865202773657475D3
:101B90007027206D656E7520666F7220666972739E
:101BA000742D74696D6520636F6E66696775726107
:101BB00074696F6E2E0A00436F6D706173732069D4
:101BC0006E697469616C69736174696F6E206661B6
:101BD000696C6564210045524153494E47204C4F82
:101BE0004753004E6F2064617461666C61736820B6
:101BF0006361726420696E736572746564007573E5
:101C0000696E67202575206279746573206F662080
:101C10006D656D6F72792028257520726573657406
:101C200073290A006C6F61645F616C6C20746F6F64
:101C30006B20256C7575730A00646F6E652E004607
:101C400069726D77617265206368616E67653A20BD
:101C500065726173696E6720454550524F4D2E2E57
:101C60002E0A000A0A496E69742041726475506C2C
:101C7000616E652056322E32372041756775737458
:101C80002032307468203230313320466C69676806
:101C900074204D6F64650A0A467265652052414D95
:101CA0003A2025750A00496E76616C6964205345B7
:101CB0005249414C335F4241554400313135323055
:101CC00030204241554400313131313030204241E1
:101CD00055440020353736303020424155440020ED
:101CE00033383430302042415544002031393230CD
:101CF00030204241554400202039363030204241C6
:101D00005544000A0A20526561647920746F2046A8
:101D10004C592E0047524F554E4420535441525473
:101D20000000407A10F35A00A0724E18090010A566
:101D3000D4E80000E87648170000E40B54020000E5
:101D4000CA9A3B000000E1F505000080969800006B
:101D50000040420F000000A0860100000010270094
:101D6000000000E803000000006400000000000A1A
:101D700000000000000100000000002C76D888DC84
:101D8000674F0823DFC1DFAE59E1B1B796E5E3E461
:101D900053C63AE651997696E8E6C28426EB898CDA
:101DA0009B62ED407C6FFCEFBC9C9F40F2BAA56F3C
:101DB000A5F490055A2AF75C936B6CF9676DC11B0B
:101DC000FCE0E40D47FEF520E6B500D0ED902E03D3
:101DD00000943577050080841E080000204E0A001C
:101DE0000000C80C333333330F986E12831141EF68
:101DF0008D2114893BE65516CFFEE6DB18D1844BC6
:101E0000381BF77C1D901DA4BBE424203284725E35
:101E1000228100C9F124ECA1E53D276E616E0069C5
:101E20006E6600253033753A25733A20006E6F7464
:101E300020666F756E6400253033753A252D333278
:101E40002E3332733A2000756E6B6E6F776E20748E
:101E5000797065006E6F7420666F756E640025730F
:101E60003A20006D697373696E67206E616D65203D
:101E70006F722076616C7565003F3F002564002518
:101E80006400256C64002566002566006578697429
:101E90000068656C7000245047434D442C31362C4B
:101EA000302C302C302C302C302A36410D0A0024B6
:101EB000505542582C34312C312C303030332C30AA
:101EC0003030312C33383430302C302A3236002444
:101ED000505352463130302C302C33383430302C83
:101EE000382C312C302A33430020536952462000CD
:101EF000204D544B312E3620002075626C6F7820B7
:101F000000204D544B312E3420006661696C6564AD
:101F10002C207265747279696E67004F4B004445DE
:101F20004300434F4D504153535F0020002A004966
:101F30006E697420416363656C002A00496E6974A0
:101F4000204779726F0000002100240027002A003A
:101F50002D003000330001010000040107010A01D7
:101F600000002200250028002B002E003100340044
:101F700002010000050108010B0100002000230000
:101F8000260029002C002F00320000010000030170
:101F900006010901050505050705080808080202EC
:101FA00002020A0A080804040404010101010101F3
:101FB00001010303030303030303040707070C0CD6
:101FC0000C0C0C0C0C0C020202020606060606069D
:101FD00006060B0B0B0B0B0B0B0B01021020200842
:101FE0000810204010204080020102010804020174
:101FF00001020408102040808040201008040201E3
:10200000800402018040201008040201080402013B
:1020100001020408102040800102040810204080C2
:102020000000090A02080B0C0D070603040100005A
:1020300000000000000000000000000000000000A0
:10204000000000000000000000000000100F0E0063
:102050000000000000000000000000000000000080
:10206000000000000000494E46494E4954594E4177
:102070004ECDCCCC3D0AD7233C17B7D13877CC2BEB
:10208000329595E6241FB14F0A000020410000C898
:102090004200401C4620BCBE4CCA1B0E5AAEC59D19
:1020A00074000D9425080D943D080D943406645A6F
:1020B00027ADD2BD5F5A22AD11241FBECFEFD1E2B2
:1020C000DEBFCDBF00E00CBF15E0A0E0B2E0E8EB62
:1020D000FDE102E00BBF02C007900D92AC3FB107DB
:1020E000D9F71BBE19E1ACEFB5E001C01D92AE35CA
:1020F000B107E1F710E2C4EBD0E204C02297FE0181
:102100000F94B90ECE3AD107C9F70F941F080D945A
:10211000D00E0C940000283008F027E03327DA01B5
:10212000990F311D87FD916000966105710539F4A5
:1021300032602E5F3D9330E32A95E1F708959F3F8B
:1021400030F080387105610509F03C5F3C5F3D93DC
:10215000913008F08068911DDF93CF931F930F9308
:10216000FF92EF92192F987F9695E92F9695969565
:10217000E90FFF27E558F24E99273327EE24FF2475
:10218000A701E70105900894079428F4360FE71E8D
:10219000F81E491F511D660F771F881F991F06944F
:1021A000A1F70590079428F4E70EF81E491F561F63
:1021B000C11D770F881F991F661F0694A1F7059010
:1021C000079428F4F80E491F561FC71FD11D880F0A
:1021D000991F661F771F0694A1F70590079420F4B6
:1021E000490F561FC71FD81F990F661F771F881FDB
:1021F0000694A9F784911095177041F0D695C7956C
:1022000057954795F794E7941A95C1F7E1E2FDE1F8
:1022100068941590159135916591959105907FE29F
:102220007395E118F10A430B560BC90BD009C0F79F
:10223000E10CF11E431F561FC91FD01D7EF47033E1
:1022400011F48A95E6CFE894015030F0080F0AF4B3
:102250000027021708F4202F2395022F7A3328F045
:1022600079E37D932A95E9F710C07D932A9589F645
:10227000069497956795379517951794E118F10A85
:10228000430B560BC90BD00998F023957E9173959B
:102290007A3308F070E37C932013B8F77E91706175
:1022A0007D9330F0839571E37D9370E32A95E1F798
:1022B0001124EF90FF900F911F91CF91DF919927FB
:1022C00087FD90950895FA01AA27283051F1203111
:1022D00081F1E8946F936E7F6E5F7F4F8F4F9F4FBA
:1022E000AF4FB1E03ED0B4E03CD0670F781F891FFC
:1022F0009A1FA11D680F791F8A1F911DA11D6A0FCA
:10230000711D811D911DA11D20D009F468943F917C
:102310002AE0269F11243019305D3193DEF6CF017B
:102320000895462F4770405D4193B3E00FD0C9F741
:10233000F6CF462F4F70405D4A3318F0495D31FDAE
:102340004052419302D0A9F7EACFB4E0A695979501
:10235000879577956795BA95C9F7009761057105D7
:1023600008959B01AC010A2E069457954795379521
:102370002795BA95C9F7620F731F841F951FA01D7B
:102380000895A0E3B0E0E7ECF1E10D94800EA8E041
:102390004E010894811C911CF401BA2F1192BA9538
:1023A000E9F729833A834B835C836D837E838F8334
:1023B0009887CE010996FC011192AA95E9F7A986A2
:1023C000BA86CB86DC86ED86FE860F87188B298140
:1023D0003A814B815C812DA73EA74FA758AB79016D
:1023E0008A018FEF9FEFA0E0B0E0E822F9220A23F4
:1023F0001B231A014424552429853A854B855C8585
:1024000029A73AA74BA75CA759016A01A822B922BC
:10241000CA22DB223A0188249924C601B501A80109
:1024200097010F94FD0D6DA37EA38FA398A7C40100
:10243000B3010F94FD0D69A37AA38BA39CA3C601DE
:10244000B501A20191010F94FD0D7B018C01C40126
:10245000B3010F94FD0D5B016C0189A19AA1ABA1A1
:10246000BCA18E0D9F1DA01FB11F89A39AA3ABA372
:10247000BCA32DA13EA14FA158A5CA01AA27BB27E5
:1024800029A13AA14BA15CA1280F391F4A1F5B1F4C
:1024900029A33AA34BA35CA32E153F054007510780
:1024A00040F480E090E0A1E0B0E0A80EB91ECA1EA2
:1024B000DB1E89A19AA1ABA1BCA19D014427552790
:1024C0002A0D3B1D4C1D5D1D2D8F3E8F4F8F58A338
:1024D0006C01BB24AA248DA19EA1AFA1B8A5A070B8
:1024E000B070A80EB91ECA1EDB1EA98EBA8ECB8E86
:1024F000DC8E9A8C8B8C7C8C9E8D6F8D78A1FE01EE
:10250000719688E0DF011D928A95E9F72D8B9E8BED
:102510006F8B788F2D853E854F8558896DA57EA55B
:102520008FA598A90F94FD0D7B018C012D813E8113
:102530004F81588569A57AA58BA59CA50F94FD0DA3
:10254000E60EF71E081F191F6D897E898F89988DE9
:102550006E0D7F1D801F911F6D8B7E8B8F8B988FD3
:10256000EE892A2D392D482D572D7E2F8F89988D54
:10257000E096E2E10D949C0E0F931F93CF93DF93AF
:10258000689F8001699F100D789F100D1124C8016C
:102590000DD0EC01009721F060E070E0A80173D14C
:1025A000CE01DF91CF911F910F910895CF93DF93CB
:1025B000BC018230910510F462E070E0A0915A19DC
:1025C000B0915B19ED01E0E0F0E040E050E021C0A7
:1025D000888199818617970769F48A819B81309752
:1025E00019F09383828304C090935B1980935A19E6
:1025F000FE0134C06817790738F44115510519F008
:102600008417950708F4AC01FE018A819B819C0127
:10261000E9012097E9F641155105A9F1CA01861B88
:10262000970B049708F4BA01E0E0F0E02AC08D911E
:102630009C91119784179507F9F46417750781F435
:1026400012968D919C911397309719F09383828302
:1026500004C090935B1980935A19FD0132964CC0C7
:10266000CA01861B970BFD01E80FF91F6193719357
:1026700002978D939C9340C0FD01828193819C01C0
:10268000D9011097A1F68091581990915919892B69
:1026900041F48091960390919703909359198093F8
:1026A000581940919803509199034115510541F4EF
:1026B0004DB75EB78091940390919503481B590BD9
:1026C0002091581930915919CA01821B930B861712
:1026D000970780F0AB014E5F5F4F8417950750F06E
:1026E000420F531F5093591940935819F9016193A0
:1026F000719302C0E0E0F0E0CF01DF91CF91089547
:10270000CF93DF93009709F450C0EC0122971B820E
:102710001A82A0915A19B0915B19109709F140E003
:1027200050E0AC17BD0708F1BB83AA83FE012191DD
:102730003191E20FF31FAE17BF0779F48D919C9191
:102740001197280F391F2E5F3F4F39832883129628
:102750008D919C9113979B838A834115510571F448
:10276000D0935B19C0935A1920C012968D919C91F9
:102770001397AD01009711F0DC01D3CFFA01D38399
:10278000C28321913191E20FF31FCE17DF0769F465
:1027900088819981280F391F2E5F3F4FFA013183BD
:1027A00020838A819B8193838283DF91CF910895D7
:1027B00066277727D2C21F93FC0199278827BC017F
:1027C000E89411911032E9F3193010F01E30C8F37B
:1027D0001B3249F01D3241F4689405C0B0D0610F3E
:1027E000711D811D911D119110531A30B8F33EF4E3
:1027F00090958095709561957F4F8F4F9F4F1F915A
:102800000895FB01DC0102C005900D92415050403B
:10281000D8F70895FB01DC018D9181341CF08B35D4
:102820000CF4805E659161341CF06B350CF4605ED5
:10283000861B611189F3990B0895FB01DC018D91D1
:10284000059080190110D9F3990B0895FC010590AA
:102850000020E9F7809590958E0F9F1F0895FC0149
:102860000590615070400110D8F7809590958E0FBB
:102870009F1F0895FB01DC0102C001900D924150A1
:102880005040D8F70895DC0101C06D93415050408D
:10289000E0F70895FB01DC018D9101908019011092
:1028A000D9F3990B0895FB01DC014150504048F0E9
:1028B00001900D920020C9F701C01D924150504077
:1028C000E0F70895FC016150704001900110D8F7C5
:1028D000809590958E0F9F1F0895009731F4DA012F
:1028E0008D919C91009709F40EC0DC01FB013D9194
:1028F0002191222319F03217C9F3FACF332331F48F
:10290000DA011D921C928827992708951197AF9399
:10291000BF93FB013D912191321771F4332321F4D0
:1029200088279927119702C01E921196FA01A19348
:10293000B0839F918F910895222369F7EACF592F91
:10294000482F372F262F660F771F881F991F660F76
:10295000771F881F991F620F731F841F951F660FB3
:10296000771F881F991F0895AEE0B0E0EAEBF4E10D
:102970000D948E0E8C0177FF02C060E070E861500C
:1029800070407E836D831A83098386E08C83CE0139
:102990000196BA01A90111D02D813E8137FD09C0F0
:1029A000EF81F8852E173F070CF4F901E00FF11FB6
:1029B00010822E96E4E00D94AA0EABE0B0E0E3EEB8
:1029C000F4E10D94800E3C012B015A01FC011782A9
:1029D0001682838181FD03C06FEF7FEFB9C19AE05A
:1029E000892E1E010894211C311CF3012381F20160
:1029F00023FD859123FF81912F01882309F4A5C12F
:102A0000853239F423FD859123FF81912F01853291
:102A100021F490E0B30116D3E8CF982FFF24EE24E1
:102A20009924FFE1FF15D0F09B3269F09C3228F425
:102A3000903259F0933291F40EC09D3249F09033A8
:102A400069F441E024C052E0F52A84E0F82A28C065
:102A500098E0F92A25C0E0E1FE2A22C0F7FC29C04F
:102A6000892F80538A3070F4F6FE05C0989C902C14
:102A70001124980E15C0E89CE02C1124E80EF0E219
:102A8000FF2A0EC09E3229F4F6FC5FC140E4F42A0E
:102A900007C09C3619F450E8F52A02C0983649F46C
:102AA000F20123FD959123FF91912F01992309F0C4
:102AB000B8CF892F8554833018F08052833038F492
:102AC00044E050E0A40EB51E5FE359830FC0933677
:102AD00031F0933779F0933509F052C01FC0F501FA
:102AE0008081898342E050E0A40EB51E610101E0BF
:102AF00010E011C0F501C080D180F6FC03C06FEF7B
:102B00007FEF02C0692D70E042E050E0A40EB51ED8
:102B1000C601D8DE8C015FE7F52213C0F501C08045
:102B2000D180F6FC03C06FEF7FEF02C0692D70E02B
:102B300042E050E0A40EB51EC60191DE8C0150E8C3
:102B4000F52AF3FE06C018C080E290E0B3017AD205
:102B5000EA948E2D90E008171907B0F30DC0F60126
:102B6000F7FC8591F7FE81916F0190E0B3016AD285
:102B7000E110EA94015010400115110581F7E2C0FF
:102B8000943611F0993661F5F7FE08C0F501208101
:102B900031814281538184E090E00AC0F501808157
:102BA00091819C01442737FD4095542F82E090E0AD
:102BB000A80EB91E9FE6F92257FF09C0509540950F
:102BC000309521953F4F4F4F5F4FE0E8FE2ACA01F5
:102BD000B901A1012AE030E076DBD82ED2183FC03F
:102BE000953729F41F2D1F7E2AE030E01DC01F2DD0
:102BF000197F9F3661F0903720F4983509F0A5C011
:102C00000FC0903739F0983709F09FC004C028E012
:102C100030E00AC0106114FD146020E130E004C00F
:102C200014FD166020E132E017FF08C0F501608155
:102C300071818281938144E050E008C0F501808178
:102C40009181BC0180E090E042E050E0A40EB51E0E
:102C5000A10139DBD82ED2188FE7F82EF122F6FE2B
:102C60000BC05EEFF522D91438F4F4FE07C0F2FC75
:102C700005C08FEEF82202C01D2D01C0192DF4FEF3
:102C80000DC0FE01ED0DF11D8081803319F499EE28
:102C9000F92208C01F5FF2FE05C003C08F2D8678A1
:102CA00009F01F5F0F2DF3FC13C0F0FE0EC01E15C0
:102CB00010F09D2C0AC09D2C9E0C911A1E2D05C053
:102CC00080E290E0B301BED11F5F1E15C8F304C0BF
:102CD0001E1510F4E11A01C0EE2404FF0EC080E3BB
:102CE00090E0B301AFD102FF1BC001FD03C088E734
:102CF00090E00EC088E590E00BC0802F867881F0D0
:102D000001FF02C08BE201C080E2F7FC8DE290E09F
:102D1000B30198D105C080E390E0B30193D19A94B8
:102D2000D914C8F3DA94F101ED0DF11D808190E022
:102D3000B30188D1DD20B1F705C080E290E0B30196
:102D400081D1EA94EE20C9F750CEF30166817781F4
:102D5000CB012B96E2E10D949C0EA0E0B0E0E3EBFA
:102D6000F6E10D94860EEC015B016115710519F019
:102D7000FB0191838083F9908F2D90E00F94C50E15
:102D8000892BC9F7FDE2FF1621F4F990EE24E394B4
:102D900005C02BE2F21609F4F990EE248E010150E1
:102DA0001040C80166E670E243E050E033D1892B61
:102DB000F9F48E010E5F1F4FC80169E670E245E02D
:102DC00050E028D1892B19F48E01095F1F4FA114FF
:102DD000B10419F0F50111830083E0FC04C070E038
:102DE00090E080E813C070E090E080E86FEF07C1EA
:102DF000C8016EE670E243E050E00CD1892B69F423
:102E0000A114B10429F470E090E080EC6FE7F7C002
:102E10002296F501D183C083F6CF8824992440E01F
:102E200050E060E070E0EF2DE053EA30A0F5F2E012
:102E3000EF2A8E2D90E09C0128703070E2FE06C0D3
:102E4000232B79F50894811C911C2BC0232B19F09E
:102E5000089481089108DB01CA0112E0880F991FCC
:102E6000AA1FBB1F1A95D1F7480F591F6A1F7B1F56
:102E7000440F551F661F771F4E0F511D611D711D99
:102E8000483929E9520729E9620729E1720748F020
:102E900084E0E82A06C0EE3F31F4E3FC39C098E054
:102EA000E92AF990C0CFE53311F0E53189F5299190
:102EB0002D3219F4E0E1EE2A05C02B3219F081E041
:102EC00090E003C0299182E090E0E22FE053EA30E5
:102ED00018F0C81BD90B1CC020E030E0FCE0203803
:102EE0003F075CF4C901880F991F880F991F280FAD
:102EF000391F220F331F2E0F311DE991E053EA30A5
:102F000068F3E4FE03C0309521953F4F820E931E77
:102F1000CE2CDD24E1FE07C0A114B10421F02197DD
:102F2000F501D183C083CB01BA010F94930B7B01D0
:102F30008C01F3E0CF22DD2423E0C216D10421F47A
:102F400017FB109517F9109557016801C801B701D3
:102F500020E030E040E050E00F94F30A882309F4C9
:102F60004AC097FE0DC025E8E22E20E2F22E909492
:102F7000819491089394C0E2D0E000E010E012C088
:102F80009DE9E92E90E2F92EF6CFF70125913591D2
:102F900045915491C601B5010F94280D5B016C0158
:102FA0008C1A9D0A8C169D0684F7D595C7950F5FE0
:102FB0001F4F0630110529F08CEF9FEFE80EF91E28
:102FC000F1CFC501D6017C018D018C2D880F8D2D8F
:102FD000881F8F3F51F0C601B50120E030E040E08E
:102FE00050E00F94F30A882331F482E290E090934A
:102FF0005D1980935C197E2D9F2D802F612F272FC7
:10300000392F482F562FB901CA01CDB7DEB7ECE0F2
:103010000D94A20EFB01DC014150504088F08D91CF
:1030200081341CF08B350CF4805E659161341CF0AA
:103030006B350CF4605E861B611171F3990B08957A
:10304000881BFCCF0F931F93CF93DF938C01EB0171
:103050008B8181FF1BC082FF0DC02E813F818C813F
:103060009D812817390764F4E881F9810193F98378
:10307000E88306C0E885F985802F1995892B31F4FE
:103080008E819F8101969F838E8302C00FEF1FEF79
:10309000C801DF91CF911F910F9108959C01F9997B
:1030A000FECF32BD21BDF89A60B5F999FECF2F5FF2
:1030B0003F4F32BD21BD21503040F89A70B5F9998B
:1030C000FECF2E5F3F4F32BD21BD22503040F89AD7
:1030D00080B5F999FECF2D5F3F4F32BD21BDF89AE3
:1030E00090B508959C01F999FECF1FBA32BD21BD5C
:1030F00040BD0FB6F894FA9AF99A0FBEF999FECF2F
:103100001FBA2F5F3F4F32BD21BD2150304050BD0F
:103110000FB6F894FA9AF99A0FBEF999FECF1FBA32
:103120002E5F3F4F32BD21BD2250304060BD0FB6F3
:10313000F894FA9AF99A0FBEF999FECF1FBA2D5F4B
:103140003F4F32BD21BD70BD0FB6F894FA9AF99A7F
:103150000FBE0895CF93DF93FC01EB014230510580
:1031600070F0638574858585968520E030E040E8C1
:1031700054E40F94280D0F94670B7983688382E0E1
:1031800090E0DF91CF910895CF93DF93EC01FB01A5
:103190004230510518F420E030E012C060817181A6
:1031A00080E090E00F94930B20E030E040E85AE399
:1031B0000F94280D6B877C878D879E8722E030E0F7
:1031C000C901DF91CF910895DC01FB0187818C93C8
:1031D000868111968C931197858112968C93129704
:1031E000848113968C931397838114968C931497F0
:1031F000828115968C931597818116968C931697DC
:10320000808117968C9308951F920F920FB60F929C
:103210000BB60F9211242F933F934F938F939F934D
:10322000EF93FF934091C6002091E4163091E5168C
:103230002F5F3F4F8091E8169091E916282339239C
:103240008091E6169091E7162817390779F080915A
:10325000E4169091E516E091EA16F091EB16E80F6E
:10326000F91F40833093E5162093E416FF91EF9108
:103270009F918F914F913F912F910F900BBE0F9087
:103280000FBE0F901F9018951F920F920FB60F92BE
:103290000BB60F9211242F933F938F939F93EF932D
:1032A000FF93209106173091071780910417909192
:1032B000051728173907E9F080910617909107172D
:1032C000E0910A17F0910B17E80FF91F80818093A6
:1032D000C600809106179091071701962091081754
:1032E0003091091782239323909307178093061731
:1032F00010C0209104173091051780910617909106
:1033000007172817390729F48091C1008F7D809312
:10331000C100FF91EF919F918F913F912F910F905D
:103320000BBE0F900FBE0F901F9018951F920F921B
:103330000FB60F920BB60F9211242F933F934F931A
:103340008F939F93EF93FF934091CE002091EC16C3
:103350003091ED162F5F3F4F8091F0169091F1164E
:10336000282339238091EE169091EF1628173907FC
:1033700079F08091EC169091ED16E091F216F091B3
:10338000F316E80FF91F40833093ED162093EC16E7
:10339000FF91EF919F918F914F913F912F910F90BE
:1033A0000BBE0F900FBE0F901F9018951F920F929B
:1033B0000FB60F920BB60F9211242F933F938F935A
:1033C0009F93EF93FF9320910E1730910F178091E9
:1033D0000C1790910D1728173907E9F080910E17F7
:1033E00090910F17E0911217F0911317E80FF91F42
:1033F00080818093CE0080910E1790910F170196D7
:1034000020911017309111178223932390930F1757
:1034100080930E1710C020910C1730910D178091DA
:103420000E1790910F172817390729F48091C900BA
:103430008F7D8093C900FF91EF919F918F913F9174
:103440002F910F900BBE0F900FBE0F901F901895ED
:103450001F920F920FB60F920BB60F9211242F935B
:103460003F934F938F939F93EF93FF934091360138
:103470002091FC163091FD162F5F3F4F8091001771
:1034800090910117282339238091FE169091FF1601
:103490002817390779F08091FC169091FD16E0917C
:1034A0000217F0910317E80FF91F40833093FD16C0
:1034B0002093FC16FF91EF919F918F914F913F9137
:1034C0002F910F900BBE0F900FBE0F901F9018956D
:1034D0001F920F920FB60F920BB60F9211242F93DB
:1034E0003F938F939F93EF93FF9320911E173091FB
:1034F0001F1780911C1790911D1728173907E9F0A5
:1035000080911E1790911F17E0912217F0912317B9
:10351000E80FF91F80818093360180911E179091EA
:103520001F17019620912017309121178223932392
:1035300090931F1780931E1710C020911C17309175
:103540001D1780911E1790911F172817390729F40E
:10355000809131018F7D80933101FF91EF919F9197
:103560008F913F912F910F900BBE0F900FBE0F9038
:103570001F9018956091DC097091DD098091DE093A
:103580009091DF090F94620B9B016031710534F05B
:10359000CB0164E670E00F94300E9C0180E0275F61
:1035A0003F4F2331310508F081E0089580E0089510
:1035B0004F925F926F927F928F929F92AF92BF9243
:1035C000CF92DF92EF92FF920F931F93DF93CF93EF
:1035D000CDB7DEB72F970FB6F894DEBF0FBECDBFC5
:1035E0009A2DA982EB2DBA82FC2DCB82DC82ED8252
:1035F000FE820F83188729873A874B875C876D8700
:103600007E878F874C815D816E817F81A884B9849C
:10361000CA84DB844C845D846E847F8497FE03C0FF
:1036200020E030E00BC08091040AA82FBB27A7FD43
:10363000B0959401A815B9050CF49D01890184E0A9
:10364000000F111F8A95E1F7021B130B00501C4F4E
:10365000E0FD02C0E0E006C0E0E0232B09F4E1E079
:1036600081E0E827F999FECF1FBA12BD01BD90BDD8
:103670000FB6F894FA9AF99A0FBEC801AA2797FDD7
:10368000A095BA2F0196A11DB11DF999FECF1FBAC1
:1036900092BD81BDE0BD0FB6F894FA9AF99A0FBEBB
:1036A0007C018D010894E11CF11C011D111DF9998B
:1036B000FECF1FBAF2BCE1BCF0BD0FB6F894FA9A87
:1036C000F99A0FBE0894E11CF11C011D111DC701E0
:1036D00009DD84E090E0A0E0B0E0E80EF91E0A1FEA
:1036E0001B1FC701B601A501FDDC84E090E0A0E04E
:1036F000B0E0E80EF91E0A1F1B1FC701B301A201AB
:10370000F1DC2F960FB6F894DEBF0FBECDBFCF9180
:10371000DF911F910F91FF90EF90DF90CF90BF90BE
:10372000AF909F908F907F906F905F904F90089593
:10373000AF92BF92CF92DF92EF92FF920F931F93BF
:10374000DF93CF93CDB7DEB728970FB6F894DEBFDF
:103750000FBECDBF9C018091400A992787FD9095AF
:103760008217930740F4AA24BB24650180E090E00F
:10377000A0E0B0E01EC024513E4F93E0220F331F63
:103780009A95E1F7790100E010E0C90187DCAC010E
:10379000CB01DA015C016D0184E090E0A0E0B0E0D3
:1037A000E80EF91E0A1F1B1FC70178DCAC01CB0114
:1037B000DA01A982BA82CB82DC828D839E83AF83B9
:1037C000B8872A2D3A814B815C81682F7E818F8159
:1037D000988528960FB6F894DEBF0FBECDBFCF9167
:1037E000DF911F910F91FF90EF90DF90CF90BF90EE
:1037F000AF9008952091FD0C3091FE0C8091230D27
:103800009091240D281B390B253631051CF08AE0D8
:103810008093A7152C593F4F1CF486EF8093A71572
:103820008091A71518161CF481508093A7158091DC
:10383000A71587FF03C08F5F8093A7158091A715F9
:10384000813019F08F3F09F080E00895CF93DF9326
:10385000FC01EB014430510540F083859485A5853A
:10386000B68588839983AA83BB8384E090E0DF9147
:10387000CF910895CF93DF93EC01FB0144305105C4
:1038800040F080819181A281B3818B879C87AD8735
:10389000BE8784E090E0DF91CF910895FC016385BD
:1038A0007485858596850D94950BFC01DB01452B70
:1038B00011F083858C9381E090E00895DC01FB0199
:1038C000452B19F080811B968C9381E090E0089540
:1038D000FC016385772767FD7095872F972F0D94DF
:1038E000950BFC01DB014230510520F08385948566
:1038F0008D939C9382E090E00895DC01FB014230BF
:10390000510530F0808191811C969C938E931B977A
:1039100082E090E00895FC0163857485882777FD37
:103920008095982F0D94950BFC0123853485458552
:103930005685B901CA010895CF93DF93FC01EB01CD
:103940004430510540F083859485A585B6858883EC
:103950009983AA83BB8384E090E0DF91CF9108959F
:10396000CF93DF93EC01FB014430510540F080819F
:103970009181A281B3818B879C87AD87BE8784E0CC
:1039800090E0DF91CF910895EF92FF920F931F93F4
:103990007A018B01863251F1873234F4893069F033
:1039A000833109F056C016C08F36C1F1833709F450
:1039B00043C0893309F04DC025C08CEF95E067EF17
:1039C0007CE10E941F9E70E8E72E75E2F72E012D24
:1039D000112D45C08CEF95E06BEE7CE10E941F9E9F
:1039E000E12C6BE4F62E012D112D39C08CEF95E002
:1039F0006FED7CE10E941F9EE12C56E9F52E012D12
:103A0000112D2DC08CEF95E063ED7CE10E941F9E8F
:103A1000E12C41EEF42E012D112D21C08CEF95E00B
:103A200067EC7CE10E941F9E3CEFE32E31EBF32E0E
:103A300031E0032F112D13C08CEF95E06BEB7CE18F
:103A40000E941F9EE12C22ECF22E21E0022F112D6C
:103A500006C08CEF95E066EA7CE10E941F9EB701EC
:103A6000C8011F910F91FF90EF90089500D00F9221
:103A70008CEF95E0EDB7FEB7928381838DE295E000
:103A8000948383830E94FF9D0F900F900F900F905F
:103A900008952CEF35E0882349F000D00F92EDB760
:103AA000FEB73283218380EF95E008C000D00F92EB
:103AB000EDB7FEB7328321838CEE95E09483838348
:103AC0000E94FF9D8CEF95E0EDB7FEB79283818356
:103AD00085EE95E0948383830E94FF9D0F900F9065
:103AE0000F900F90089500D00F928CEF95E0EDB7F6
:103AF000FEB7928381838EE89AE0948383830E9449
:103B0000FF9D0F900F900F900F9080E0089500D0D0
:103B10000F928CEF95E0EDB7FEB79283818385E538
:103B20009CE0948383830E94FF9D80E090E00F904F
:103B30000F900F900F90F999FECF1FBA92BD81BDE3
:103B400010BC0FB6F894FA9AF99A0FBE0196F0E1FC
:103B500080309F0781F700D00F928CEF95E0EDB792
:103B6000FEB7928381838FE49CE0948383830E94D9
:103B7000FF9D0F900F900F900F9008950F931F933C
:103B80008DB79EB70A970FB6F8949EBF0FBE8DBF34
:103B9000EDB7FEB731960CEF15E0ADB7BEB7129694
:103BA0001C930E9311978EEF9CE0938382838091F8
:103BB000160D9091170D958384838091230D90911C
:103BC000240D978386838091300D9091310D9187DC
:103BD00080870E94FF9DEDB7FEB73196ADB7BEB7A7
:103BE00012961C930E9311978BEE9CE09383828325
:103BF0008091790D90917A0D958384838091860DC3
:103C00009091870D978386838091930D9091940D69
:103C1000918780870E94FF9DEDB7FEB73196ADB7C3
:103C2000BEB712961C930E93119788ED9CE0938378
:103C300082838091DC0D9091DD0D9583848380914A
:103C4000E90D9091EA0D978386838091F60D90910E
:103C5000F70D918780870E94FF9DEDB7FEB73196E3
:103C6000ADB7BEB712961C930E93119785EC9CE0EE
:103C70009383828380913F0E9091400E958384833D
:103C800080914C0E90914D0E978386838091590EB2
:103C900090915A0E918780870E94FF9DEDB7FEB7E5
:103CA0003196ADB7BEB712961C930E93119782EB67
:103CB0009CE0938382838091A20E9091A30E9583C2
:103CC00084838091AF0E9091B00E9783868380910C
:103CD000BC0E9091BD0E918780870E94FF9DEDB72D
:103CE000FEB73196ADB7BEB712961C930E931197DF
:103CF0008FE99CE09383828380912B0F90912C0F0E
:103D0000958384838091380F9091390F97838683B0
:103D10008091450F9091460F918780870E94FF9D6B
:103D2000EDB7FEB73196ADB7BEB712961C930E93A2
:103D300011978CE89CE0938382838091B40F9091DB
:103D4000B50F958384838091C10F9091C20F9783A3
:103D500086838091CE0F9091CF0F918780870E94AC
:103D6000FF9DEDB7FEB73196ADB7BEB712961C9367
:103D70000E93119789E79CE09383828380913D1095
:103D800090913E109583848380914A1090914B10BE
:103D900097838683809157109091581091878087E0
:103DA0000E94FF9D8DB79EB70A960FB6F8949EBFEE
:103DB0000FBE8DBF1F910F910895CF93DF93FC012C
:103DC0008DB79EB744970FB6F8949EBF0FBE8DBFB8
:103DD0002DB73EB72F5F3F4F8CEF95E0ADB7BEB725
:103DE00012969C938E93119783E09EE0E9019B834A
:103DF0008A8386899789A08DB18D8C839D83AE83BC
:103E0000BF8385A196A1A7A1B0A588879987AA8716
:103E1000BB8784A995A9A6A9B7A98C879D87AE87DA
:103E2000BF87ED5BFF4F80819181AA2797FDA09509
:103E3000BA2FF901808B918BA28BB38B0E94FF9DCF
:103E40008DB79EB744960FB6F8949EBF0FBE8DBF38
:103E5000DF91CF9108958DB79EB740970FB6F89434
:103E60009EBF0FBE8DBFEDB7FEB731968CEF95E0CC
:103E7000ADB7BEB712969C938E9311978FEB9EE0D1
:103E8000938382838091F6069091F706A091F806BD
:103E9000B091F90684839583A683B7838091FA064F
:103EA0009091FB06A091FC06B091FD06808791875A
:103EB000A287B3878091FE069091FF06A09100072C
:103EC000B091010784879587A687B7870E94FF9DD9
:103ED0008DB79EB740960FB6F8949EBF0FBE8DBFAC
:103EE00008958DB79EB740970FB6F8949EBF0FBE4A
:103EF0008DBFEDB7FEB731968CEF95E0ADB7BEB78D
:103F000012969C938E93119782EE9EE09383828308
:103F10008091020790910307A0910407B0910507D3
:103F200084839583A683B7838091060790910707C2
:103F3000A0910807B091090780879187A287B3876E
:103F400080910A0790910B07A0910C07B0910D0783
:103F500084879587A687B7870E94FF9D8DB79EB7F8
:103F600040960FB6F8949EBF0FBE8DBF089500D047
:103F70000F928CEF95E0EDB7FEB79283818382EAD2
:103F80009FE0948383830E94FF9D0F900F900F907A
:103F90000F900895CF93DF93CCEFD5E0CE0166EE7E
:103FA00074E00E941F9E85E496E00E947EC28823F2
:103FB00031F4CE016BEC74E00E941F9E83C085E457
:103FC00096E00E9424C42DB73EB7285030400FB66B
:103FD000F8943EBF0FBE2DBFEDB7FEB73196ADB71B
:103FE000BEB71296DC93CE93119784EA94E0938344
:103FF0008283809156068483158280915706909122
:104000005806978386830E94FF9DEDB7FEB73196D1
:10401000ADB7BEB71296DC93CE93119788E894E0C3
:104020009383828380915B0690915C0601969583D1
:1040300084838091590690915A06978386830E94C3
:10404000FF9D2DB73EB7285F3F4F0FB6F8943EBF98
:104050000FBE2DBF60915B0670915C066F5F7F4F56
:1040600085E496E00E943EC085E496E00E943AC155
:10407000ADB7BEB71C970FB6F894BEBF0FBEADBFAD
:10408000EDB7FEB731961296DC93CE93119725E5E6
:1040900034E033832283648375838683978381E14D
:1040A00090E2A2E1B8E280879187A287B3870E945D
:1040B000FF9D2DB73EB7245F3F4F0FB6F8943EBF2C
:1040C0000FBE2DBF80E0DF91CF910895EF92FF9258
:1040D0000F931F93CF93DF93C9DC68EE73E080E00A
:1040E00090E00F943406E7E0EE2EE9E0FE2E0CEFB0
:1040F00018E0CCEFD5E000D00F92EDB7FEB7D28339
:10410000C183F482E3820E94FF9D0F900F900F9075
:104110000F9068EB7BE080E090E00F943406CE01D6
:104120000E94809E18161906D4F000D00F92EDB7A9
:10413000FEB7D283C183148303830E94FF9D0F9037
:104140000F900F900F9068EB7BE080E090E00F9471
:104150003406CE010E94809E1816190664F680E08F
:10416000DF91CF911F910F91FF90EF900895809173
:10417000340A882361F060914C0A662341F0615053
:1041800083E396E00E94DFB1885E934058F4E091AB
:104190004B15F0914C15309711F480E00895128280
:1041A00080E00895E0911F14F091201480A58823E9
:1041B000C1F381E008956091040B615083E396E0C0
:1041C0000E94DFB19C018F5893408B59944010F0AE
:1041D0008FEF0895C9018F5C94408238910510F4E7
:1041E00081E00895C901815595408238910510F408
:1041F00082E00895C901835D95408238910510F4ED
:1042000083E00895C901855596408138910510F4E1
:1042100084E00895265D364010F480E0089585E03E
:104220000895DF93CF9300D00F920F92CDB7DEB7F2
:104230003091040A2091F803298323E02A8322E0A5
:104240002B8321E02C833D8360E0AE014F5F5F4F05
:1042500025E00F94D0000F900F900F900F900F90CB
:10426000CF91DF9108956F927F928F929F92AF923C
:10427000BF92CF92DF920F931F93DF93CF93CDB76F
:10428000DEB76B970FB6F894DEBF0FBECDBF3C0113
:104290004B0180919A03863011F1873048F48130C8
:1042A00079F1813098F08230A9F0853089F414C01A
:1042B0008C3001F18D3028F48A30B1F08B3041F42C
:1042C00016C08F3079F0803119F417C012E019C090
:1042D00010E017C015E015C016E001E013C016E0AD
:1042E00002E010C013E00DC014E003E00BC014E0C6
:1042F00005E008C014E008E005C010E000E002C0DE
:1043000017E004E060919C0C70919D0C882777FD6C
:104310008095982F0F94950B6C8B7D8B8E8B9F8B3C
:10432000209142143091431440914414509145140B
:104330000F94150A20E030E04AE754E40F94280D6A
:104340002C893D894E895F890F94FA0A0F94670B77
:104350005B016C0160919B0370919C0380919D03B4
:1043600090919E0320E030E04AE754E40F94280D3A
:104370000F94670B688F798F8A8F9B8F6091E814F9
:104380007091E9148091EA149091EB1420E030E0F0
:104390004AE754E40F94280D0F94670B7A836983DE
:1043A000888D998D9C838B83BE82AD8298868F8207
:1043B00019870A8784E08B878A818C8789818D871A
:1043C0008C818E878B818F878E81888B8D81898B65
:1043D00088858A8B8F818B8BC30162E2AE01475F38
:1043E0005F4F2BE00F94D0006B960FB6F894DEBFB2
:1043F0000FBECDBFCF91DF911F910F91DF90CF9076
:10440000BF90AF909F908F907F906F9008952F9264
:104410003F924F925F926F927F928F929F92AF9254
:10442000BF92CF92DF92EF92FF920F931F93DF9391
:10443000CF93CDB7DEB7CE54D0400FB6F894DEBFE1
:104440000FBECDBF2F969FAF8EAF2F97DE019596F3
:10445000E0E4F7E084E201900D928150E1F72091D1
:10446000F7143091F8144091F9145091FA142D96E4
:104470002CAF3DAF4EAF5FAF2D9700911F14109141
:104480002014D80154966D917D918D919C915797F0
:104490002AE030E040E050E00F94FD0D1B012C01BC
:1044A000F801608D718D828D938D0F94950B7B013A
:1044B0008C012DA13EA14FA158A50F94280D0F945A
:1044C000620B3B014C01C801B70129A93AA94BA9CC
:1044D0005CA90F94280D0F94620B5B016C01C8015D
:1044E000B701FE01FD9620813181428153810F94F5
:1044F000280D0F94620B2091F3143091F414409125
:10450000F5145091F6142F83388749875A872D96D2
:104510002CAD3DAD4EAD5FAD2D972B873C874D87C4
:104520005E872F86388A498A5A8A7A826982BC8253
:10453000AB827E836D83FE01379683818B8B828174
:104540008C8B81818D8B8F818E8BFE013B9683813D
:104550008F8B8281888F8181898F8B858A8FFE01E5
:104560003F9683818B8F82818C8F81818D8F8F8508
:104570008E8F8A818F8F898188A38C8189A38B817B
:104580008AA38E818BA38D818CA32F968EAD9FAD38
:104590002F9769E4AE014D5E5F4F22E10F94D0008A
:1045A000C25BDF4F0FB6F894DEBF0FBECDBFCF9119
:1045B000DF911F910F91FF90EF90DF90CF90BF9010
:1045C000AF909F908F907F906F905F904F903F90B3
:1045D0002F9008952F923F924F925F926F927F9209
:1045E0008F929F92AF92BF92CF92DF92EF92FF9203
:1045F0000F931F93DF93CF93CDB7DEB7EE970FB630
:10460000F894DEBF0FBECDBF9AAF89AF6091FF14A3
:104610007091001580910115909102150F94950BE2
:1046200020E030E048EC52E40F94FA0A3B014C01E0
:1046300060910315709104158091051590910615F0
:104640000F94950B20E030E048EC52E40F94FA0A06
:104650000F94620B6BAF7CAF8DAF9EAF609107156F
:10466000709108158091091590910A150F94950B7A
:1046700020E030E048EC52E40F94FA0A0F94620B09
:104680001B012C0140900B1550900C1560910F15DB
:104690007091101580911115909112150F94950B32
:1046A00020E030E048EC52E40F94FA0A7B018C01E0
:1046B0006091131570911415809115159091161530
:1046C0000F94950B20E030E048EC52E40F94FA0A86
:1046D0005B016C018091171590911815A091191527
:1046E000B0911A158DAB9EABAFABB8AF6091FB1418
:1046F0007091FC148091FD149091FE140F94950B11
:1047000020E030E048EC52E40F94FA0A6F83788797
:1047100089879A87C301D4018B879C87AD87BE8721
:10472000ABADBCADBA83A9833C822B825E824D8245
:10473000C701D8018F87988BA98BBA8BC501D60189
:104740008B8B9C8BAD8BBE8B8DA99EA9AFA9B8AD71
:104750008F8B988FA98FBA8FFE01379683818B8FAD
:1047600082818C8F81818D8F8F818E8FFE013B9610
:1047700083818F8F828188A3818189A38B858AA37E
:104780008A818BA389818CA38C818DA38B818EA33D
:104790008E818FA38D8188A7FE013F96838189A793
:1047A00082818AA781818BA78F858CA7FE01739652
:1047B00083818DA782818EA781818FA78B8988AB0A
:1047C000FE017796838189AB82818AAB81818BAB35
:1047D0008F898CAB89AD9AAD6EE3AE01455E5F4FBC
:1047E0002AE10F94D000EE960FB6F894DEBF0FBE0C
:1047F000CDBFCF91DF911F910F91FF90EF90DF9090
:10480000CF90BF90AF909F908F907F906F905F9070
:104810004F903F902F900895CF92DF92EF92FF92AA
:104820000F931F93DF93CF93CDB7DEB7A1970FB64A
:10483000F894DEBF0FBECDBF4091600D5091610D69
:104840006091C30D7091C40DE091260EF091270E7A
:10485000A091890EB0918A0E0091120F1091130F42
:10486000E0909B0FF0909C0FC0902410D0902510EA
:104870002091FD0C3091FE0C3A8329835C834B839D
:104880007E836D83F887EF83BA87A9871C870B87A0
:10489000FE86ED86D88ACF862A81298B29812A8BAC
:1048A0002C812B8B2B812C8B2E812D8B2D812E8B74
:1048B00028852F8B2F81288F2A85298F29852A8F5C
:1048C0002C852B8F2B852C8F2E852D8F2D852E8F34
:1048D00028892F8F2F8528A321E029A363E2AE0129
:1048E0004F5E5F4F21E10F94D000A1960FB6F89470
:1048F000DEBF0FBECDBFCF91DF911F910F91FF9013
:10490000EF90DF90CF900895DF93CF93CDB7DEB7D0
:1049100064970FB6F894DEBF0FBECDBFE0913F1590
:10492000F0914015A0914115B09142154091131599
:104930005091141560910F15709110152091031569
:10494000309104153A8329835C834B837E836D8386
:1049500018861F82E987FA87AB87BC872A812D8753
:1049600029812E872C812F872B81288B2E81298BC3
:104970002D812A8B28852B8B2F812C8B61E7AE0113
:10498000475F5F4F2CE00F94D00064960FB6F89409
:10499000DEBF0FBECDBFCF91DF910895CF92DF92E2
:1049A000EF92FF920F931F93DF93CF93CDB7DEB7B4
:1049B000A0970FB6F894DEBF0FBECDBF40916C0D2F
:1049C00050916D0D6091CF0D7091D00DE091320E30
:1049D000F091330EA091950EB091960E00911E0F9E
:1049E00010911F0FE090A70FF090A80FC09030100B
:1049F000D09031102091090D30910A0D3A8329830E
:104A00005C834B837E836D83F887EF83BA87A987A6
:104A10001C870B87FE86ED86D88ACF862A81298B54
:104A200029812A8B2C812B8B2B812C8B2E812D8BFA
:104A30002D812E8B28852F8B2F81288F2A85298FDA
:104A400029852A8F2C852B8F2B852C8F2E852D8FBA
:104A50002D852E8F28892F8F2F8528A365E2AE0103
:104A60004F5E5F4F20E10F94D000A0960FB6F894F0
:104A7000DEBF0FBECDBFCF91DF911F910F91FF9091
:104A8000EF90DF90CF900895DF93CF9300D00F92F7
:104A9000CDB7DEB72091100A332727FD30953A8332
:104AA00029832A812B8329812C836AE2AE014D5F01
:104AB0005F4F22E00F94D0000F900F900F900F9057
:104AC000CF91DF9108950F931F93DF93CF93CDB7CD
:104AD000DEB72E970FB6F894DEBF0FBECDBF8C01A8
:104AE00046DB882361F1E0914B15F0914C1530972E
:104AF00031F16281758126813781408551858381BD
:104B000094819A8389832B833C834D835E836F8357
:104B10008A818887898189877A87FE013396838194
:104B20008B8782818C8781818D878B818E87C8015D
:104B300062EAAE01495F5F4F28E00F94D0002E96E5
:104B40000FB6F894DEBF0FBECDBFCF91DF911F919E
:104B50000F910895DF93CF9300D000D0CDB7DEB78B
:104B6000FC0187898823E9F0408951898091040AF2
:104B7000992787FD90958417950798F083859485EC
:104B8000228934895A8349832B833C832A812D834C
:104B900029812E8368E2AE014D5F5F4F24E00F94C0
:104BA000D00026960FB6F894DEBF0FBECDBFCF91D2
:104BB000DF910895EF92FF920F931F93DF93CF93AE
:104BC000CDB7DEB728970FB6F894DEBF0FBECDBFC6
:104BD0007C0100915819109159190F94EF031A8311
:104BE00009839C838B838A818D8389818E838C81C9
:104BF0008F838B818887C70168E9AE014B5F5F4F68
:104C000024E00F94D00028960FB6F894DEBF0FBEB4
:104C1000CDBFCF91DF911F910F91FF90EF9008953D
:104C20002F923F924F925F926F927F928F929F92BC
:104C3000AF92BF92CF92DF92EF92FF920F931F93AA
:104C4000DF93CF93CDB7DEB7CA54D0400FB6F894F8
:104C5000DEBF0FBECDBF2B969FAF8EAF2B9780913F
:104C60009C0790919D07A0919E07B0919F07299660
:104C70008CAF9DAFAEAFBFAF299780919807909151
:104C80009907A0919A07B0919B0725968CAF9DAF8D
:104C9000AEAFBFAF25972090940730909507409016
:104CA0009607509097070F940E069B01AC01E09079
:104CB0001A07F0901B0700911C0710911D07A09088
:104CC0001E07B0901F07C0902007D090210760906A
:104CD0002207709023078090240790902507698F02
:104CE0003A8F4B8F5C8F1D8E1E8E1F8E18A2E9820D
:104CF000FA820B831C83AD82BE82CF82D8866986FE
:104D00007A868B869C862D863E864F86588A259687
:104D10008CAD9DADAEADBFAD2597898B9A8BAB8B1E
:104D2000BC8B29968CAD9DADAEADBFAD29978D8B5B
:104D30009E8BAF8BB88F8E010F5D1F4FC801BE01D8
:104D4000675E7F4F0E94E418FE013196838189A738
:104D500082818AA781818BA789818CA7FE013596E4
:104D600083818DA782818EA781818FA78D8188AB5A
:104D7000FE013996838189AB82818AAB81818BABBD
:104D800089858CABFE013D9683818DAB82818EAB94
:104D900081818FAB8D8588AFFE017196838189AF4C
:104DA00082818AAF81818BAF89898CAFFE01759634
:104DB00083818DAF82818EAF81818FAF8D89FE011E
:104DC000E05CFF4F80832B968EAD9FAD2B976EE1FD
:104DD000A80120E20F94D000C65BDF4F0FB6F89415
:104DE000DEBF0FBECDBFCF91DF911F910F91FF901E
:104DF000EF90DF90CF90BF90AF909F908F907F907B
:104E00006F905F904F903F902F9008952F923F9218
:104E10004F925F926F927F928F929F92AF92BF92CA
:104E2000CF92DF92EF92FF920F931F93DF93CF9376
:104E3000CDB7DEB7C655D0400FB6F894DEBF0FBE73
:104E4000CDBF1C010F940E065B016C0180901F14F6
:104E500090902014F401F7A92B96FFAF2B97F40143
:104E600064857585868597850F94950B20E836E9CE
:104E700048E15BE40F94FA0A2B013C01F4016089DC
:104E80007189828993890F94950B20E836E948E16E
:104E90005BE40F94FA0A2F966CAF7DAF8EAF9FAF95
:104EA0002F97F40164897589868997890F94950BEA
:104EB00020E030E048EC52E40F94FA0A63966CAFBD
:104EC0007DAF8EAF9FAF6397F40164A175A1882772
:104ED00077FD8095982F0F94950B6D877E878F8730
:104EE000988BF401608D718D828D938D0F94950B4D
:104EF00020E030E048EC52E40F94FA0A67966CAF79
:104F00007DAF8EAF9FAF6797F401648D758D868DF1
:104F1000978D0F94950B20E030E048EC52E40F940D
:104F2000FA0AAD8EBE8ECF8ED8A219A21AA21BA2EB
:104F30001CA29201A30129833A834B835C832C96A4
:104F4000EFAD2C972D96FFAD2D972E96AFAD2E97EA
:104F50002F96BFAD2F979F01AD012D833E834F83C9
:104F600058876096EFAD60976196FFAD6197629646
:104F7000AFAD62976396BFAD63979F01AD0129877F
:104F80003A874B875C8720E030E040E050E0298B97
:104F90003A8B4B8B5C8B6496EFAD64976596FFAD57
:104FA00065976696AFAD66976796BFAD67979F01A9
:104FB000AD012D8B3E8B4F8B588FAC01CB01DA01AD
:104FC000898F9A8FAB8FBC8F8E010B5D1F4FC801ED
:104FD000BE01635E7F4F0E94E4182B96FFAD2B97B6
:104FE000FDA7FE01319683818EA782818FA78181E3
:104FF00088AB898189ABFE01359683818AAB82813A
:105000008BAB81818CAB8D818DABFE013996838119
:105010008EAB82818FAB818188AF898589AFFE019C
:105020003D9683818AAF82818BAF81818CAF8D85E4
:105030008DAFFE01719683818EAF82818FAF8181AA
:10504000FE01E05CFF4F80838989FE01EF5BFF4F2B
:105050008083DE01559613968C911397FE01EE5BCB
:10506000FF4F808312968C911297FE01ED5BFF4FEC
:10507000808311968C91FE01EC5BFF4F80838D89BC
:10508000FE01EB5BFF4F8083DE01599613968C91F6
:105090001397FE01EA5BFF4F808312968C91129763
:1050A000FE01E95BFF4F808311968C91FE01E85B66
:1050B000FF4F8083898DFE01E75BFF4F8083C10135
:1050C00060E2A80125E20F94D000CA5ADF4F0FB664
:1050D000F894DEBF0FBECDBFCF91DF911F910F912E
:1050E000FF90EF90DF90CF90BF90AF909F908F9008
:1050F0007F906F905F904F903F902F9008952F92E8
:105100003F924F925F926F927F928F929F92AF9257
:10511000BF92CF92DF92EF92FF920F931F93DF9394
:10512000CF93CDB7DEB7C256D0400FB6F894DEBFEE
:105130000FBECDBFA3969FAF8EAFA39700911B1557
:1051400010911C15E0901D15F0901E15C0901F15B4
:10515000D0902015A0902115B09022158090231595
:105160009090241560902515709026154090271575
:10517000509028152090291530902A1580912B15D4
:1051800090912C15A1969FAF8EAFA19780912D1570
:1051900090912E156F969FAF8EAF6F9780912F15C0
:1051A000909130156D969FAF8EAF6D9780913115B0
:1051B000909132156B969FAF8EAF6B9780913315A0
:1051C0009091341569969FAF8EAF69978091351590
:1051D0009091361567969FAF8EAF67978091371580
:1051E0009091381565969FAF8EAF65978091391570
:1051F00090913A1563969FAF8EAF63970F940E060A
:105200009B01AC011A830983FC82EB82DE82CD8292
:10521000B886AF829A8689867C866B865E864D8646
:10522000388A2F86A1968EAD9FADA1979A8B898BD8
:105230006F968EAD9FAD6F979C8B8B8B6D968EAD61
:105240009FAD6D979E8B8D8B6B968EAD9FAD6B9743
:10525000988F8F8B69968EAD9FAD69979A8F898F46
:1052600067968EAD9FAD67979C8F8B8F65968EAD41
:105270009FAD65979E8F8D8F63968EAD9FAD639723
:1052800098A38F8F29A33AA34BA35CA31DA21EA2B0
:105290001FA218A68A8189A789818AA78C818BA7DA
:1052A0008B818CA78E818DA78D818EA788858FA7F6
:1052B0008F8188AB8A8589AB89858AAB8C858BABDE
:1052C0008B858CAB8E858DAB8D858EAB88898FABB6
:1052D0008F8588AF8A8989AF89898AAF8C898BAF9E
:1052E0008B898CAF8E898DAF8D898EAF888D8FAF76
:1052F0008F89FE01E05CFF4F80838A8DFE01EF5BAA
:10530000FF4F8083898DFE01EE5BFF4F80838C8D84
:10531000FE01ED5BFF4F80838B8DFE01EC5BFF4F49
:1053200080838E8DFE01EB5BFF4F80838D8DFE01B0
:10533000EA5BFF4F808388A1FE01E95BFF4F80831A
:105340008F8DFE01E85BFF4F80838E01075D1F4F4D
:10535000C8018096BE016F5D7F4F0E94E418A3963E
:105360008EAD9FADA3976FE6A80128E20F94D00001
:10537000CE59DF4F0FB6F894DEBF0FBECDBFCF9131
:10538000DF911F910F91FF90EF90DF90CF90BF9032
:10539000AF909F908F907F906F905F904F903F90D5
:1053A0002F9008952F923F924F925F926F927F922B
:1053B0008F929F92AF92BF92CF92DF92EF92FF9225
:1053C0000F931F93DF93CF93CDB7DEB7C65BD0406B
:1053D0000FB6F894DEBF0FBECDBFCB55DF4F99831C
:1053E0008883C55AD0406091FD0C7091FE0C8827CF
:1053F00077FD8095982F0F94950BCF55DF4F6883DD
:1054000079838A839B83C15AD04060911B15709128
:105410001C15882777FD8095982F0F94950B21E117
:1054200037EC4AEB5BE30F94280D23EC35EF42E7B2
:1054300051E40F94160AC955DF4F688379838A8334
:105440009B83C75AD04060911F1570912015882703
:1054500077FD8095982F0F94950B21E137EC4AE367
:105460005CE30F94280D2AEB39E443EF51E40F94E9
:10547000160AC955DF4F288139814A815B81C75A95
:10548000D0400F94150AC555DF4F688379838A830E
:105490009B83CB5AD0406091291570912A1588279B
:1054A00077FD8095982F0F94950BC356DF4F688337
:1054B00079838A839B83CD59D04060911D1570916B
:1054C0001E15882777FD8095982F0F94950B21E165
:1054D00037EC4AEB5BE30F94280D2CE53FE844E7FB
:1054E00051E40F94160AC155DF4F688379838A838C
:1054F0009B83CF5AD0406091211570912215882747
:1055000077FD8095982F0F94950B21E137EC4AE3B6
:105510005CE30F94280D2BE83CE643EF51E40F9435
:10552000160AC155DF4F288139814A815B81CF5AE4
:10553000D0400F94150ACD54DF4F688379838A8356
:105540009B83C35BD04060913B1570913C1580916B
:105550003D1590913E150F94950BCB56DF4F688308
:1055600079838A839B83C559D040609127157091B8
:105570002815882777FD8095982F0F94950B7B0130
:105580008C0122E539E44DE95AEB0F94280D27E20E
:1055900030EA45EF50E40F94160A9B01AC01C801B4
:1055A000B7010F94280D21EA38E84FE653E40F9431
:1055B000150A3B014C01609123157091241564512B
:1055C0007040882777FD8095982F0F94950B21E0E8
:1055D00038E14FEE5DE30F94280D2CE73AE24FEAF5
:1055E0005EE30F94150A1B012C0160912515709143
:1055F000261564517040882777FD8095982F0F9469
:10560000950B2CE835EF4DEE5DE30F94280D2BEF55
:1056100032E94DEA5EE30F94150A7B018C0160913B
:10562000600D7091610D882777FD8095982F0F94FC
:10563000950BC756DF4F688379838A839B83C9594B
:10564000D0406091391570913A15882777FD809583
:10565000982F0F94950BCF56DF4F688379838A83F9
:105660009B83C159D0400F940E065B016C01CF554E
:10567000DF4F88819981AA81BB81C15AD04089833B
:105680009A83AB83BC83C955DF4F88819981AA81F6
:10569000BB81C75AD0408D839E83AF83B887C555E1
:1056A000DF4F2881CB5AD040C455DF4F3881CC5AC8
:1056B000D040C355DF4F4881CD5AD040C255DF4F4F
:1056C0005881CE5AD040C901DA0189879A87AB87C1
:1056D000BC87C101D2018D879E87AF87B88BC35627
:1056E000DF4F688179818A819B81CD59D04026EA3C
:1056F0003BE944EC5AEB0F94280D2AE535EF43E0E3
:1057000051E40F94160A9B01AC01C356DF4F688128
:1057100079818A819B81CD59D0400F94280D24EF47
:105720003CE242E653E40F94150A698B7A8B8B8B2B
:105730009C8BC756DF4F88819981AA81BB81C9594B
:10574000D0408D8B9E8BAF8BB88FC155DF4F88813A
:105750009981AA81BB81CF5AD040898F9A8FAB8F14
:10576000BC8FCD54DF4F2881C35BD040CC54DF4F7A
:105770003881C45BD040CB54DF4F4881C55BD040FB
:10578000CA54DF4F5881C65BD040C901DA018D8F02
:105790009E8FAF8FB8A3C701D80189A39AA3ABA3EB
:1057A000BCA3C301D4018DA39EA3AFA3B8A7CB56BE
:1057B000DF4F88819981AA81BB81C559D04089A7D3
:1057C0009AA7ABA7BCA7C301D4018DA79EA7AFA77B
:1057D000B8ABC101D20189AB9AABABABBCABC701D3
:1057E000D8018DAB9EABAFABB8AFC756DF4F88814A
:1057F0009981AA81BB81C959D04089AF9AAFABAF1B
:10580000BCAF9E01235C3F4FCF56DF4F888199810B
:10581000AA81BB81C159D040F90180839183A283C1
:10582000B383DE01AF5BBF4FAC921196BC92119770
:105830001296CC9212971396DC92139714961C92A0
:10584000149715961C92159716961C9216971796F4
:105850001C921797AE014F5F5F4F8E01075B1F4F82
:10586000FA018381F8018083FA018281F801818342
:10587000FA018181F801828389818383AE014B5FC4
:105880005F4FFA018381F8018483FA018281F80174
:105890008583FA018181F80186838D818783AE013A
:1058A000475F5F4FFA018381F8018087FA018281A7
:1058B000F8018187FA018181F801828789858387D0
:1058C000AE01435F5F4FFA018381F8018487FA01DB
:1058D0008281F8018587FA018181F80186878D85AB
:1058E0008787AE014F5E5F4FFA018381F801808B9D
:1058F000FA018281F801818BFA018181F801828BA2
:105900008989838BAE014B5E5F4FFA018381F80179
:10591000848BFA018281F801858BFA018181F8017B
:10592000868B8D89878BAE01475E5F4FFA0183813D
:10593000F801808FFA018281F801818FFA0181815B
:10594000F801828F898D838FAE01435E5F4FFA012C
:105950008381F801848FFA018281F801858FFA0131
:105960008181F801868F8D8D878FAE014F5D5F4FEE
:10597000FA018381F80180A3FA018281F80181A3F1
:10598000FA018181F80182A389A183A3AE014B5D55
:105990005F4FFA018381F80184A3FA018281F80143
:1059A00085A3FA018181F80186A38DA187A3AE01A9
:1059B000475D5F4FFA018381F80180A7FA01828178
:1059C000F80181A7FA018181F80182A789A583A73F
:1059D000AE01435D5F4FFA018381F80184A7FA01AC
:1059E0008281F80185A7FA018181F80186A78DA53A
:1059F00087A7AE014F5C5F4FFA018381F80180AB4E
:105A0000FA018281F80181ABFA018181F80182AB50
:105A100089A983ABAE014B5C5F4FFA018381F8012A
:105A200084ABFA018281F80185ABFA018181F8012A
:105A300086AB8DA987ABAE01475C5F4FFA018381CE
:105A4000F80180AFFA018281F80181AFFA0181810A
:105A5000F80182AF89AD83AFF9018381F80184AF8A
:105A6000F9018281F80185AFF9018181F80186AFE2
:105A7000F9018081F80187AFCE0187579F4FBD01A3
:105A80000E94E418CB55DF4F88819981C55AD040D8
:105A900060E7A80128E40F94D000CA54DF4F0FB686
:105AA000F894DEBF0FBECDBFCF91DF911F910F9154
:105AB000FF90EF90DF90CF90BF90AF909F908F902E
:105AC0007F906F905F904F903F902F900895DF925E
:105AD000EF92FF920F931F93DF93CF93CDB7DEB773
