:100000000C94AC070C9422D60C9453D60C9484D642
:100010000C94B5D60C94E6D60C9417D70C9448D70C
:100020000C9479D70C94D7070C94D7070C94D70766
:100030000C94D7070C94D7070C94D7070C94F98429
:100040000C94D7070C94D7070C94D7070C94D707B8
:100050000C94D7070C94D7070C94D7070C94AAD705
:100060000C94D7070C949E0E0C94DE0E0C94D707BC
:100070000C94D7070C94D7070C94D7070C94D70788
:100080000C94D7070C94D7070C94D7070C94D70778
:100090000C94300F0C94700F0C94D7070C94F691BD
:1000A0000C94D7070C9426850C94D7070C94D7078B
:1000B0000C94D7070C94D7070C9453850C94D7074E
:1000C0000C94D7070C94D7070C94D7070C94D70738
:1000D0000C94D7070C94D7070C94C20F0C94021001
:1000E0000C94D707113527352E3518352035353581
:1000F00091356E3567354A3575357C3583358A35AA
:100100003C354335A7359735B735BD35513558356D
:100110006035036EDB363D9A9999993DABAAAA2AC0
:100120003E000000803F084AD73B3BCE016E84BCB6
:10013000BFFDC12F3D6C74319ABD56833DDA3D0041
:10014000C77F11BED9E4BB4C3E916BAAAABE00008A
:1001500000803F072C7AA5BA6CC590DA3B9365FC0A
:100160008BBC53F810FD3C5692834DBD879D3AB62B
:100170003DCBC9BF5BBE73DA0FC93F05A84CCDB2FA
:10018000D44EB93836A9020C50B9918688083CA6DD
:10019000AAAA2ABE000000803F08000000BE9224E8
:1001A00049123EABAAAA2ABECDCCCC4C3E000000E0
:1001B00080BEABAAAAAA3E00000000BF00000080DB
:1001C0003F0000000000084178D3BB4387D1133DB6
:1001D000190E3CC3BD4282AD2B3E68EC8276BED97F
:1001E0008FE1A93E4C80EFFFBE01C4FF7F3F0000BE
:1001F000000000706C616E6E6572006763730000D2
:10020000000000000000000000384A4D534720461F
:1002100053204F4646202575004D53472046532016
:100220004F4E20257500414C5432505443485F00D6
:10023000454E524759325448525F00595732535233
:10024000565F004152535032505443485F0050545F
:100250004348325352565F00524C4C325352565F11
:100260000048444E4732524C4C5F005243385F00C6
:100270005243375F005243365F005243355F0052AE
:1002800043345F005243335F005243325F005243B6
:10029000315F00464C41505F325F5350454544004A
:1002A000464C41505F325F504552434E5400464CDD
:1002B00041505F315F535045454400464C41505FCB
:1002C000315F504552434E540041525350445F45B4
:1002D0004E41424C4500534F4E41525F454E4142C4
:1002E0004C4500494E564552544544464C545F4394
:1002F0004800424154545F434150414349545900DE
:10030000494E5055545F564F4C545300414D505F29
:100310005045525F564F4C5400564F4C545F444921
:10032000564944455200424154545F4D4F4E495442
:100330004F52004D41475F454E41424C4500474EAC
:10034000445F4142535F505245535300474E445F10
:1003500054454D5000414C545F484F4C445F5254FB
:100360004C005452494D5F50495443485F43440048
:100370004D494E5F474E445350445F434D005452E5
:10038000494D5F41525350445F434D005253545FB7
:100390005357495443485F4348004C4F475F4C41D3
:1003A000535446494C45004C4F475F4249544D41D8
:1003B000534B005359535F4E554D5F52455345546F
:1003C0005300454C45564F4E5F4348325F524556A9
:1003D00000454C45564F4E5F4348315F52455600ED
:1003E000454C45564F4E5F52455645525345004584
:1003F0004C45564F4E5F4D4958494E47005357495B
:100400005443485F454E41424C45005452494D5F6C
:100410004155544F004C494D5F50495443485F4D3E
:10042000494E004C494D5F50495443485F4D415837
:10043000004C494D5F524F4C4C5F434400464C5476
:100440004D4F44453600464C544D4F4445350046CB
:100450004C544D4F44453400464C544D4F44453365
:1004600000464C544D4F44453200464C544D4F4489
:10047000453100464C544D4F44455F434800465378
:100480005F4743535F454E41424C0046535F4C4FDC
:100490004E475F4143544E0046535F53484F5254BA
:1004A0005F4143544E005452494D5F5448524F549B
:1004B000544C45005448525F46535F56414C554595
:1004C000005448525F4641494C5341464500544808
:1004D000525F534C455752415445005448525F4D6A
:1004E0004158005448525F4D494E00414C545F48BA
:1004F0004F4C445F464257434D0041525350445F76
:100500004642575F4D41580041525350445F464266
:10051000575F4D494E0046454E43455F4D4158415A
:100520004C540046454E43455F4D494E414C5400A6
:1005300046454E43455F4348414E4E454C00464577
:100540004E43455F544F54414C0046454E43455F32
:10055000414354494F4E0057505F4C4F4954455208
:100560005F5241440057505F524144495553004344
:100570004D445F494E44455800434D445F544F54E9
:10058000414C0041525350445F4F4646534554003E
:1005900041525350445F524154494F00414C545FC3
:1005A0004D4958005854524B5F414E474C455F43AC
:1005B00044005854524B5F4741494E5F5343004BF0
:1005C00046465F5448523250544348004B46465FBB
:1005D0005054434832544852004B46465F524444BC
:1005E000524D4958004B46465F50544348434F4D87
:1005F000500053455249414C335F424155440053EA
:10060000595349445F4D5947435300535953494443
:100610005F544849534D41560053595349445F5321
:10062000575F545950450053595349445F53575FDE
:100630004D52455600445A00524556004D4158000F
:100640005452494D004D494E00414E474C455F4D77
:10065000415800414E474C455F4D494E0046554E6E
:100660004354494F4E00494D415800440049005001
:1006700000494D555F53454E534F525F43414C0027
:1006800067707320616C743A20256C7500696E691F
:100690007420686F6D650043446E5220485B25648A
:1006A0005D3D256420535B25645D3D256420415BF1
:1006B00025645D3D256420545B25645D3D25640A09
:1006C0000043446E5220485B25645D3D2564205301
:1006D0005B25645D3D256420415B25645D3D2564AB
:1006E00020545B25645D3D25640A006261642066D8
:1006F000656E636520706F696E7400626164206668
:10070000656E636520706F696E740066656E6369FF
:100710006E67206D75737420626520646973616211
:100720006C656400666C6967687420706C616E202B
:10073000726563656976656400666C6967687420D4
:10074000706C616E207265636569766564004375DF
:100750007272656E7420576179506F696E74204EA5
:100760004F54204D4F4449464945440043757272E9
:10077000656E7420576179506F696E74204D4F44D7
:10078000494649454400576179706F696E74204944
:100790006E76616C69642053657175656E63650082
:1007A000576179506F696E74205265636569766927
:1007B0006E672046414C534500616374696F6E203B
:1007C00072656365697665643A20006F7574206FA1
:1007D0006620636F6D6D616E647321005265747580
:1007E000726E696E6720746F20486F6D6500496E88
:1007F00020646F5F6368616E67655F796177282940
:100800002E20205461726765742068656164696E8A
:10081000673A202569003C737461727475705F6774
:10082000726F756E643E204E4F2061697273706501
:100830006564003C737461727475705F67726F7584
:100840006E643E207A65726F2061697273706565AF
:10085000642063616C6962726174656400426567FB
:10086000696E6E696E6720494D552063616C6962DF
:10087000726174696F6E3B20646F206E6F74206DBF
:100880006F766520706C616E65005761726D696E80
:1008900067207570204144432E2E2E0044656D6FF5
:1008A00020536572766F7321006261726F6D65749B
:1008B00065722063616C6962726174696F6E206336
:1008C0006F6D706C6574652E006162735F70726528
:1008D000737375726520256C640A0042616420524E
:1008E000657175657374202D2063616E6E6F742061
:1008F0006368616E676520746F206E6F6E2D4E6148
:100900007620636D6400252E3266207365636F6EFA
:10091000647320746F2072656163682077617970F9
:100920006F696E740A005B2531643A2531643A259B
:10093000645D20004558545241330045585452419B
:10094000320045585452413100504F534954494F99
:100950004E005241575F4354524C0052435F43484C
:10096000414E004558545F53544154005241575F23
:1009700053454E53005352335F005352305F00676C
:10098000656F2D66656E6365207472696767657251
:1009900065640067656F2D66656E6365204F4B006B
:1009A00067656F2D66656E6365207365747570206D
:1009B0006572726F720067656F2D66656E63652084
:1009C0006C6F6164656400666C69676874206D6F44
:1009D0006465203D202575004661696C736166651C
:1009E000202D204C6F6E67206576656E74206F6ECB
:1009F0002C2000466F72776172642025352E306698
:100A000070776D3A25352E316656282530346429A5
:100A10003A25352E3166562825303464293A253654
:100A20002E3166412825303464293A25352E30662A
:100A300052504D2825303464290A20202020416658
:100A4000742025352E306670776D3A25352E316647
:100A5000562825303464293A25352E316656282506
:100A6000303464293A25362E3166412825303464E5
:100A7000293A25352E306652504D282530346429C8
:100A80000A00466F72776172642025352E306670D9
:100A9000776D3A25352E3166562825303464293A4B
:100AA00025352E3166562825303464293A25362ED0
:100AB0003166412825303464293A25352E30665276
:100AC000504D2825303464290A20202020416674A6
:100AD0002025352E306670776D3A25352E316656D5
:100AE0002825303464293A25352E3166562825309C
:100AF0003464293A25362E3166412825303464295C
:100B00003A25352E306652504D2825303464290A56
:100B1000005475726E20416E746963697061746906
:100B20006F6E20456E61626C6564200A0A00466F34
:100B30007572204420576179706F696E7473006913
:100B40006E20666C69676874206D6F646500466C22
:100B500079696E672052312056656869636C65005B
:100B60000A507265737320454E54455220332074E9
:100B7000696D657320746F20737461727420696E7F
:100B80007465726163746976652073657475700A43
:100B90000A00436F6D7061737320696E69746961D7
:100BA0006C69736174696F6E206661696C6564213C
:100BB000007573696E6720257520627974657320EE
:100BC0006F66206D656D6F727920282575207265BE
:100BD00073657473290A006C6F61645F616C6C20CB
:100BE000746F6F6B20256C7575730A00646F6E658A
:100BF0002E004669726D77617265206368616E6769
:100C0000653A2065726173696E6720454550524FA1
:100C10004D2E2E2E0A000A0A496E69742041726414
:100C200075506C616E652056322E323720466C69E5
:100C3000676874204D6F64650A0A467265652052C4
:100C4000414D3A2025750A00496E76616C69642031
:100C500053455249414C335F42415544000A0A20F2
:100C6000526561647920746F20464C592E004752BA
:100C70004F554E442053544152540000407A10F3D3
:100C80005A00A0724E18090010A5D4E80000E876BA
:100C900048170000E40B54020000CA9A3B00000011
:100CA000E1F505000080969800000040420F00002A
:100CB00000A08601000000102700000000E80300EB
:100CC0000000006400000000000A000000000001B5
:100CD00000000000002C76D888DC674F0823DFC1B5
:100CE000DFAE59E1B1B796E5E3E453C63AE6519970
:100CF0007696E8E6C28426EB898C9B62ED407C6F99
:100D0000FCEFBC9C9F40F2BAA56FA5F490055A2A4F
:100D1000F75C936B6CF9676DC11BFCE0E40D47FE5B
:100D2000F520E6B500D0ED902E0300943577050050
:100D300080841E080000204E0A000000C80C3333D7
:100D400033330F986E12831141EF8D2114893BE6E6
:100D50005516CFFEE6DB18D1844B381BF77C1D906F
:100D60001DA4BBE424203284725E228100C9F124D8
:100D7000ECA1E53D276E616E00696E660024504768
:100D8000434D442C31362C302C302C302C302C3030
:100D90002A36410D0A0024505542582C34312C314A
:100DA0002C303030332C303030312C33383430303C
:100DB0002C302A32360024505352463130302C30F9
:100DC0002C33383430302C382C312C302A3343003B
:100DD00020536952462000204D544B312E362000BE
:100DE0002075626C6F782000204D544B312E3420DA
:100DF000006661696C65642C207265747279696E35
:100E000067004F4B0044454300434F4D50415353FF
:100E10005F0020002A00496E697420416363656C9D
:100E2000002A00496E6974204779726F0000002122
:100E300000240027002A002D0030003300010100AB
:100E400000040107010A0100002200250028002BF0
:100E5000002E003100340002010000050108010BE2
:100E600001000020002300260029002C002F003262
:100E70000000010000030106010901050505050741
:100E80000508080808020202020A0A080804040405
:100E90000401010101010101010303030303030331
:100EA00003040707070C0C0C0C0C0C0C0C020202C0
:100EB0000206060606060606060B0B0B0B0B0B0BB3
:100EC0000B01021020200808102040102040800252
:100ED0000102010804020101020408102040808080
:100EE0004020100804020180040201804020100804
:100EF00004020108040201010204081020408001DC
:100F0000020408102040800000090A02080B0C0DA2
:100F100007060304010000000000000000000000BC
:100F200000000000000000000000000000000000C1
:100F3000000000100F0E0000000000000000000084
:100F400000000000000000000000000000005E3211
:100F5000B08429925732A98411241FBECFEFD1E269
:100F6000DEBFCDBF15E0A0E0B2E0E4E6F1EC01E0C9
:100F70000BBF02C007900D92A830B107D9F71BBE76
:100F800017E1A8E0B5E001C01D92AA3CB107E1F766
:100F90001FE0C4E5DFE004C02297FE010E94A1E04B
:100FA000CE34D107C9F70E9413DA0C94A5E00C9453
:100FB0000000283008F027E03327DA01990F311DAF
:100FC00087FD916000966105710539F432602E5FEE
:100FD0003D9330E32A95E1F708959F3F30F0803844
:100FE0007105610509F03C5F3C5F3D93913008F06D
:100FF0008068911DDF93CF931F930F93FF92EF9221
:10100000192F987F9695E92F96959695E90FFF27CA
:10101000EB52F34F99273327EE24FF24A701E70172
:1010200005900894079428F4360FE71EF81E491F10
:10103000511D660F771F881F991F0694A1F7059011
:10104000079428F4E70EF81E491F561FC11D770F9D
:10105000881F991F661F0694A1F70590079428F42E
:10106000F80E491F561FC71FD11D880F991F661FF5
:10107000771F0694A1F70590079420F4490F561F97
:10108000C71FD81F990F661F771F881F0694A9F7DF
:1010900084911095177041F0D695C795579547954F
:1010A000F794E7941A95C1F7EBE7FCE06894159084
:1010B000159135916591959105907FE27395E118B1
:1010C000F10A430B560BC90BD009C0F7E10CF11E16
:1010D000431F561FC91FD01D7EF4703311F48A952B
:1010E000E6CFE894015030F0080F0AF40027021709
:1010F00008F4202F2395022F7A3328F079E37D938B
:101100002A95E9F710C07D932A9589F6069497955C
:101110006795379517951794E118F10A430B560B0D
:10112000C90BD00998F023957E9173957A3308F016
:1011300070E37C932013B8F77E9170617D9330F05B
:10114000839571E37D9370E32A95E1F71124EF9085
:10115000FF900F911F91CF91DF91992787FD909577
:101160000895FA01AA27283051F1203181F1E8943D
:101170006F936E7F6E5F7F4F8F4F9F4FAF4FB1E08A
:101180003ED0B4E03CD0670F781F891F9A1FA11D85
:10119000680F791F8A1F911DA11D6A0F711D811D86
:1011A000911DA11D20D009F468943F912AE0269F4B
:1011B00011243019305D3193DEF6CF010895462FAA
:1011C0004770405D4193B3E00FD0C9F7F6CF462F8B
:1011D0004F70405D4A3318F0495D31FD40524193F4
:1011E00002D0A9F7EACFB4E0A695979587957795B1
:1011F0006795BA95C9F700976105710508959B0138
:10120000AC010A2E06945795479537952795BA95C0
:10121000C9F7620F731F841F951FA01D0895A0E3D7
:10122000B0E0E5E1F9E00C9468E0A8E04E01089434
:10123000811C911CF401BA2F1192BA95E9F7298308
:101240003A834B835C836D837E838F839887CE0143
:101250000996FC011192AA95E9F7A986BA86CB8670
:10126000DC86ED86FE860F87188B29813A814B81BB
:101270005C812DA73EA74FA758AB79018A018FEF5C
:101280009FEFA0E0B0E0E822F9220A231B231A0115
:101290004424552429853A854B855C8529A73AA79E
:1012A0004BA75CA759016A01A822B922CA22DB22F6
:1012B0003A0188249924C601B501A80197010E942A
:1012C000E5DF6DA37EA38FA398A7C401B3010E949D
:1012D000E5DF69A37AA38BA39CA3C601B501A20194
:1012E00091010E94E5DF7B018C01C401B3010E94E2
:1012F000E5DF5B016C0189A19AA1ABA1BCA18E0DB8
:101300009F1DA01FB11F89A39AA3ABA3BCA32DA1AE
:101310003EA14FA158A5CA01AA27BB2729A13AA1DE
:101320004BA15CA1280F391F4A1F5B1F29A33AA3B9
:101330004BA35CA32E153F054007510740F480E006
:1013400090E0A1E0B0E0A80EB91ECA1EDB1E89A184
:101350009AA1ABA1BCA19D01442755272A0D3B1D95
:101360004C1D5D1D2D8F3E8F4F8F58A36C01BB24EC
:10137000AA248DA19EA1AFA1B8A5A070B070A80E9F
:10138000B91ECA1EDB1EA98EBA8ECB8EDC8E9A8C3D
:101390008B8C7C8C9E8D6F8D78A1FE01719688E080
:1013A000DF011D928A95E9F72D8B9E8B6F8B788FCD
:1013B0002D853E854F8558896DA57EA58FA598A959
:1013C0000E94E5DF7B018C012D813E814F81588594
:1013D00069A57AA58BA59CA50E94E5DFE60EF71E00
:1013E000081F191F6D897E898F89988D6E0D7F1D4D
:1013F000801F911F6D8B7E8B8F8B988FEE892A2D8E
:10140000392D482D572D7E2F8F89988DE096E2E15A
:101410000C9484E00F931F93CF93DF93689F800118
:10142000699F100D789F100D1124C8010E94260A93
:10143000EC01009729F060E070E0A8010E944E0BDB
:10144000CE01DF91CF911F910F910895CF93DF933C
:10145000BC018230910510F462E070E0A091C817E1
:10146000B091C917ED01E0E0F0E040E050E021C0AC
:10147000888199818617970769F48A819B813097C3
:1014800019F09383828304C09093C9178093C8177F
:10149000FE0134C06817790738F44115510519F079
:1014A0008417950708F4AC01FE018A819B819C0199
:1014B000E9012097E9F641155105A9F1CA01861BFA
:1014C000970B049708F4BA01E0E0F0E02AC08D9190
:1014D0009C91119784179507F9F46417750781F4A7
:1014E00012968D919C911397309719F09383828374
:1014F00004C09093C9178093C817FD0132964CC061
:10150000CA01861B970BFD01E80FF91F61937193C8
:1015100002978D939C9340C0FD01828193819C0131
:10152000D9011097A1F68091C6179091C717892B02
:1015300041F48091BB029091BC029093C7178093B5
:10154000C6174091BD025091BE024115510541F4AC
:101550004DB75EB78091B9029091BA02481B590B02
:101560002091C6173091C717CA01821B930B8617AB
:10157000970780F0AB014E5F5F4F8417950750F0DF
:10158000420F531F5093C7174093C617F901619339
:10159000719302C0E0E0F0E0CF01DF91CF910895B8
:1015A000CF93DF93009709F450C0EC0122971B8280
:1015B0001A82A091C817B091C917109709F140E09D
:1015C00050E0AC17BD0708F1BB83AA83FE0121914F
:1015D0003191E20FF31FAE17BF0779F48D919C9103
:1015E0001197280F391F2E5F3F4F3983288312969A
:1015F0008D919C9113979B838A834115510571F4BA
:10160000D093C917C093C81720C012968D919C9192
:101610001397AD01009711F0DC01D3CFFA01D3830A
:10162000C28321913191E20FF31FCE17DF0769F4D6
:1016300088819981280F391F2E5F3F4FFA0131832E
:1016400020838A819B8193838283DF91CF91089548
:10165000FB01DC0102C005900D9241505040D8F7CB
:101660000895FC0105900020E9F7809590958E0F74
:101670009F1F0895FC010590615070400110D8F73C
:10168000809590958E0F9F1F0895FB01DC0102C08D
:1016900001900D9241505040D8F70895DC0101C0EF
:1016A0006D9341505040E0F70895FB01DC018D91AE
:1016B000019080190110D9F3990B0895FB01DC0109
:1016C0004150504048F001900D920020C9F701C0F0
:1016D0001D9241505040E0F70895FC016150704068
:1016E00001900110D8F7809590958E0F9F1F089557
:1016F000A0E0B0E0EEE7FBE00C9472E07C01EB01CF
:101700008A01690109C0CE012196F6010995F70108
:1017100081937F010150104001151105A1F7CDB74C
:10172000DEB7E8E00C948EE0BF92CF92DF92EF92AA
:10173000FF920F931F937B018C01FB010995B82E3B
:10174000C8010196F7010995C82EC8010296F70154
:101750000995D82EC8010396F7010995982F6B2D8E
:101760007C2D8D2D1F910F91FF90EF90DF90CF90EA
:10177000BF900895A0E0B0E0E0ECFBE00C9472E0D4
:10178000EC017B018A01690109C0CE012196F701B4
:1017900061917F01F6010995015010400115110575
:1017A000A1F7CDB7DEB7E8E00C948EE0BF92CF9200
:1017B000DF92EF92FF920F931F93D52EC62EB72E76
:1017C00079018C01642FF9010995C80101966D2DED
:1017D000F7010995C80102966C2DF7010995C8011A
:1017E00003966B2DF70109951F910F91FF90EF90D4
:1017F000DF90CF90BF900895AEE0B0E0E2E0FCE073
:101800000C9476E08C0177FF02C060E070E86150D4
:1018100070407E836D831A83098386E08C83CE01BA
:101820000196BA01A9010E94260C2D813E8137FD47
:1018300009C0EF81F8852E173F070CF4F901E00F7E
:10184000F11F10822E96E4E00C9492E0ABE0B0E041
:10185000ECE2FCE00C9468E03C012B015A01FC0135
:1018600017821682838181FD03C06FEF7FEFC6C1AF
:101870009AE0892E1E010894211C311CF30123815A
:10188000F20123FD859123FF81912F01882309F423
:10189000B2C1853239F423FD859123FF81912F0157
:1018A000853229F490E0B3010E94030EE7CF982F10
:1018B000FF24EE249924FFE1FF15D0F09B3269F05C
:1018C0009C3228F4903259F0933291F40EC09D323C
:1018D00049F0903369F441E024C052E0F52A84E0F5
:1018E000F82A28C098E0F92A25C0E0E1FE2A22C0A3
:1018F000F7FC29C0892F80538A3070F4F6FE05C0AA
:10190000989C902C1124980E15C0E89CE02C112472
:10191000E80EF0E2FF2A0EC09E3229F4F6FC6BC1FD
:1019200040E4F42A07C09C3619F450E8F52A02C0B6
:10193000983649F4F20123FD959123FF91912F01EF
:10194000992309F0B8CF892F8554833018F080523D
:10195000833038F444E050E0A40EB51E5FE35983B1
:101960000FC0933631F0933779F0933509F056C0B4
:1019700020C0F5018081898342E050E0A40EB51EAD
:10198000610101E010E012C0F501C080D180F6FCD9
:1019900003C06FEF7FEF02C0692D70E042E050E0BE
:1019A000A40EB51EC6010E946D0B8C015FE7F522E7
:1019B00014C0F501C080D180F6FC03C06FEF7FEF4B
:1019C00002C0692D70E042E050E0A40EB51EC601D1
:1019D0000E943A0B8C0150E8F52AF3FE07C01AC0AA
:1019E00080E290E0B3010E94030EEA948E2D90E015
:1019F00008171907A8F30EC0F601F7FC8591F7FE4A
:101A000081916F0190E0B3010E94030EE110EA940E
:101A1000015010400115110579F7EAC0943611F014
:101A2000993669F5F7FE08C0F501208131814281C0
:101A3000538184E090E00AC0F501808191819C018E
:101A4000442737FD4095542F82E090E0A80EB91E40
:101A50009FE6F92257FF09C0509540953095219592
:101A60003F4F4F4F5F4FE0E8FE2ACA01B901A10185
:101A70002AE030E00E94B108D82ED21840C0953735
:101A800029F41F2D1F7E2AE030E01DC01F2D197F75
:101A90009F3661F0903720F4983509F0ACC00FC044
:101AA000903739F0983709F0A6C004C028E030E03C
:101AB0000AC0106114FD146020E130E004C014FD80
:101AC000166020E132E017FF08C0F50160817181E6
:101AD0008281938144E050E008C0F50180819181CA
:101AE000BC0180E090E042E050E0A40EB51EA101F0
:101AF0000E94B108D82ED2188FE7F82EF122F6FEF8
:101B00000BC05EEFF522D91438F4F4FE07C0F2FCE6
:101B100005C08FEEF82202C01D2D01C0192DF4FE64
:101B20000DC0FE01ED0DF11D8081803319F499EE99
:101B3000F92208C01F5FF2FE05C003C08F2D867812
:101B400009F01F5F0F2DF3FC14C0F0FE0FC01E152F
:101B500010F09D2C0BC09D2C9E0C911A1E2D06C0C2
:101B600080E290E0B3010E94030E1F5F1E15C0F3D8
:101B700004C01E1510F4E11A01C0EE2404FF0FC0CA
:101B800080E390E0B3010E94030E02FF1DC001FD3F
:101B900003C088E790E00EC088E590E00BC0802F7E
:101BA000867891F001FF02C08BE201C080E2F7FC71
:101BB0008DE290E0B3010E94030E06C080E390E046
:101BC000B3010E94030E9A94D914C0F3DA94F10180
:101BD000ED0DF11D808190E0B3010E94030EDD2028
:101BE000A9F706C080E290E0B3010E94030EEA94D8
:101BF000EE20C1F743CEF30166817781CB012B96AE
:101C0000E2E10C9484E00F931F93CF93DF938C0158
:101C1000EB018B8181FF1BC082FF0DC02E813F81B4
:101C20008C819D812817390764F4E881F98101933B
:101C3000F983E88306C0E885F985802F0995892B0B
:101C400031F48E819F8101969F838E8302C00FEFB6
:101C50001FEFC801DF91CF911F910F9108959C0153
:101C6000F999FECF32BD21BDF89A80B508959C0147
:101C7000F999FECF1FBA32BD21BD60BD0FB6F894F1
:101C8000FA9AF99A0FBE0895CF93DF93FC01EB0106
:101C90004230510570F0638574858585968520E016
:101CA00030E040E854E40E9410DF0E944FDD798369
:101CB000688382E090E0DF91CF910895CF93DF9326
:101CC000EC01FB014230510518F420E030E012C075
:101CD0006081718180E090E00E947BDD20E030E057
:101CE00040E85AE30E9410DF6B877C878D879E87D0
:101CF00022E030E0C901DF91CF910895DC01FB01C2
:101D000087818C93868111968C9311978581129689
:101D10008C931297848113968C93139783811496D6
:101D20008C931497828115968C93159781811696C2
:101D30008C931697808117968C9308951F920F921B
:101D40000FB60F920BB60F9211242F933F934F9320
:101D50008F939F93EF93FF934091C6002091A4151A
:101D60003091A5152F5F3F4F8091A8159091A9152F
:101D7000282339238091A6159091A7152817390794
:101D800079F08091A4159091A515E091AA15F09194
:101D9000AB15E80FF91F40833093A5152093A415C8
:101DA000FF91EF919F918F914F913F912F910F90C4
:101DB0000BBE0F900FBE0F901F9018951F920F92A1
:101DC0000FB60F920BB60F9211242F933F938F9360
:101DD0009F93EF93FF932091C6153091C715809183
:101DE000C4159091C51528173907E9F08091C615DB
:101DF0009091C715E091CA15F091CB15E80FF91F26
:101E000080818093C6008091C6159091C715019678
:101E10002091C8153091C915822393239093C7153B
:101E20008093C61510C02091C4153091C5158091BE
:101E3000C6159091C7152817390729F48091C1005C
:101E40008F7D8093C100FF91EF919F918F913F9182
:101E50002F910F900BBE0F900FBE0F901F901895F3
:101E60001F920F920FB60F920BB60F9211242F9361
:101E70003F934F938F939F93EF93FF934091CE00A7
:101E80002091AC153091AD152F5F3F4F8091B0156B
:101E90009091B115282339238091AE159091AF15FB
:101EA0002817390779F08091AC159091AD15E09124
:101EB000B215F091B315E80FF91F40833093AD15BB
:101EC0002093AC15FF91EF919F918F914F913F918E
:101ED0002F910F900BBE0F900FBE0F901F90189573
:101EE0001F920F920FB60F920BB60F9211242F93E1
:101EF0003F938F939F93EF93FF932091CE15309153
:101F0000CF158091CC159091CD1528173907E9F0A0
:101F10008091CE159091CF15E091D215F091D31507
:101F2000E80FF91F80818093CE008091CE159091AB
:101F3000CF1501962091D0153091D115822393238E
:101F40009093CF158093CE1510C02091CC15309171
:101F5000CD158091CE159091CF152817390729F40A
:101F60008091C9008F7D8093C900FF91EF919F916F
:101F70008F913F912F910F900BBE0F900FBE0F903E
:101F80001F9018951F920F920FB60F920BB60F92DB
:101F900011242F933F934F938F939F93EF93FF932E
:101FA000409136012091BC153091BD152F5F3F4FF8
:101FB0008091C0159091C115282339238091BE15B9
:101FC0009091BF152817390779F08091BC15909131
:101FD000BD15E091C215F091C315E80FF91F4083BC
:101FE0003093BD152093BC15FF91EF919F918F9178
:101FF0004F913F912F910F900BBE0F900FBE0F90FE
:102000001F9018951F920F920FB60F920BB60F925A
:1020100011242F933F938F939F93EF93FF932091DE
:10202000DE153091DF158091DC159091DD152817B4
:102030003907E9F08091DE159091DF15E091E21506
:10204000F091E315E80FF91F8081809336018091AC
:10205000DE159091DF1501962091E0153091E11584
:10206000822393239093DF158093DE1510C0209177
:10207000DC153091DD158091DE159091DF15281764
:10208000390729F4809131018F7D80933101FF91CF
:10209000EF919F918F913F912F910F900BBE0F90D9
:1020A0000FBE0F901F901895BF92CF92DF92EF92C4
:1020B000FF920F931F93C090E608D090E708E0903E
:1020C000E808F090E908BB24C701B60120E030E041
:1020D00048EC52E40E94E2DC0E944ADD2CE93FEF2A
:1020E000629F8001639F100D729F100D1124C70124
:1020F000B60120E030E040E251E40E94E2DC0E94C0
:102100004ADD060F171F012B11F0BB24B3948B2D52
:102110001F910F91FF90EF90DF90CF90BF900895A7
:10212000BF92CF92DF92EF92FF920F931F93C090D6
:10213000E608D090E708E090E808F090E908BB24B2
:10214000C701B60120E030E04AE754E40E94E2DC37
:102150000E944ADD28E13CEF629F8001639F100DE1
:10216000729F100D1124C701B60120E030E048EC49
:1021700052E40E94E2DC0E944ADD060F171F012B89
:1021800011F0BB24B3948B2D1F910F91FF90EF9012
:10219000DF90CF90BF900895CF93DF93FC01EB01C8
:1021A0004430510540F083859485A585B6858883A4
:1021B0009983AA83BB8384E090E0DF91CF91089557
:1021C000CF93DF93EC01FB014430510540F0808157
:1021D0009181A281B3818B879C87AD87BE8784E084
:1021E00090E0DF91CF910895FC016385748585852A
:1021F00096850E947DDD0895FC01DB01452B11F0E1
:1022000083858C9381E090E00895DC01FB01452BF0
:1022100019F080811B968C9381E090E00895FC0179
:102220006385772767FD7095872F972F0E947DDD47
:102230000895FC01DB014230510520F0838594852F
:102240008D939C9382E090E00895DC01FB01423085
:10225000510530F0808191811C969C938E931B9741
:1022600082E090E00895FC0163857485882777FDFE
:102270008095982F0E947DDD0895FC01238534858B
:1022800045855685B901CA010895CF93DF93FC01B6
:10229000EB014430510540F083859485A585B685D2
:1022A00088839983AA83BB8384E090E0DF91CF91F8
:1022B0000895CF93DF93EC01FB014430510540F0CA
:1022C00080819181A281B3818B879C87AD87BE87F6
:1022D00084E090E0DF91CF91089580913E098823BA
:1022E00061F060915609662341F061508FE395E0FB
:1022F0000E942486885E934058F4E0916114F09126
:102300006214309711F480E00895128280E00895FD
:10231000E0912913F0912A1380A58823C1F381E06D
:102320000895DF93CF9300D00F92CDB7DEB721E0B1
:10233000298323E02A8322E02B8360E0AE014F5FF4
:102340005F4F23E00E94B9D20F900F900F90CF9172
:10235000DF9108956F927F928F929F92AF92BF927A
:10236000CF92DF920F931F93DF93CF93CDB7DEB75A
:102370006B970FB6F894DEBF0FBECDBF3C014B018B
:102380008091BF02863011F1873048F4813079F1B5
:10239000813098F08230A9F0853089F414C08C30F7
:1023A00001F18D3028F48A30B1F08B3041F416C041
:1023B0008F3079F0803119F417C012E019C010E0A5
:1023C00017C015E015C016E001E013C016E002E0EA
:1023D00010C013E00DC014E003E00BC014E005E0F2
:1023E00008C014E008E005C010E000E002C017E0FB
:1023F00004E06091A60B7091A70B882777FD80956C
:10240000982F0E947DDD6C8B7D8B8E8B9F8B209116
:10241000D4133091D5134091D6135091D7130E9405
:10242000FDDB20E030E04AE754E40E9410DF2C8915
:102430003D894E895F890E94E2DC0E944FDD5B018D
:102440006C016091C4027091C5028091C6029091A6
:10245000C70220E030E04AE754E40E9410DF0E9407
:102460004FDD688F798F8A8F9B8F6091D813709121
:10247000D9138091DA139091DB1320E030E04AE722
:1024800054E40E9410DF0E944FDD7A836983888DB7
:10249000998D9C838B83BE82AD8298868F821987AB
:1024A0000A8784E08B878A818C8789818D878C81DC
:1024B0008E878B818F878E81888B8D81898B888594
:1024C0008A8B8F818B8BC30162E2AE01475F5F4FC6
:1024D0002BE00E94B9D26B960FB6F894DEBF0FBE08
:1024E000CDBFCF91DF911F910F91DF90CF90BF9023
:1024F000AF909F908F907F906F9008952F923F9212
:102500004F925F926F927F928F929F92AF92BF9203
:10251000CF92DF92EF92FF920F931F93DF93CF93AF
:10252000CDB7DEB7CE54D0400FB6F894DEBF0FBEA5
:10253000CDBF2F969FAF8EAF2F97DE019596ECE41F
:10254000F6E084E201900D928150E1F72091E713CB
:102550003091E8134091E9135091EA132D962CAF76
:102560003DAF4EAF5FAF2D970091291310912A1305
:10257000D80154966D917D918D919C9157972AE049
:1025800030E040E050E00E94E5DF1B012C01F80143
:10259000608D718D828D938D0E947DDD7B018C011C
:1025A0002DA13EA14FA158A50E9410DF0E944ADD37
:1025B0003B014C01C801B70129A93AA94BA95CA963
:1025C0000E9410DF0E944ADD5B016C01C801B70167
:1025D000FE01FD9620813181428153810E9410DFEE
:1025E0000E944ADD2091E3133091E4134091E513FA
:1025F0005091E6132F83388749875A872D962CAD43
:102600003DAD4EAD5FAD2D972B873C874D875E87E7
:102610002F86388A498A5A8A7A826982BC82AB823A
:102620007E836D83FE01379683818B8B82818C8BB9
:1026300081818D8B8F818E8BFE013B9683818F8B69
:102640008281888F8181898F8B858A8FFE013F9659
:1026500083818B8F82818C8F81818D8F8F858E8FEF
:102660008A818F8F898188A38C8189A38B818AA39A
:102670008E818BA38D818CA32F968EAD9FAD2F97CE
:1026800069E4AE014D5E5F4F22E10E94B9D2C25BA8
:10269000DF4F0FB6F894DEBF0FBECDBFCF91DF91F5
:1026A0001F910F91FF90EF90DF90CF90BF90AF9070
:1026B0009F908F907F906F905F904F903F902F9062
:1026C00008952F923F924F925F926F927F928F92D6
:1026D0009F92AF92BF92CF92DF92EF92FF920F93B1
:1026E0001F93DF93CF93CDB7DEB7EE970FB6F89475
:1026F000DEBF0FBECDBF9AAF89AF6091EF1370916F
:10270000F0138091F1139091F2130E947DDD20E08F
:1027100030E048EC52E40E94E2DC3B014C01609165
:10272000F3137091F4138091F5139091F6130E94B6
:102730007DDD20E030E048EC52E40E94E2DC0E94C3
:102740004ADD6BAF7CAF8DAF9EAF6091F713709198
:10275000F8138091F9139091FA130E947DDD20E027
:1027600030E048EC52E40E94E2DC0E944ADD1B01AA
:102770002C014090FB135090FC136091FF1370915B
:10278000001480910114909102140E947DDD20E0DC
:1027900030E048EC52E40E94E2DC7B018C01609165
:1027A00003147091041480910514909106140E94F2
:1027B0007DDD20E030E048EC52E40E94E2DC5B0189
:1027C0006C018091071490910814A0910914B091A4
:1027D0000A148DAB9EABAFABB8AF6091EB137091A9
:1027E000EC138091ED139091EE130E947DDD20E0BB
:1027F00030E048EC52E40E94E2DC6F8378878987FE
:102800009A87C301D4018B879C87AD87BE87ABAD08
:10281000BCADBA83A9833C822B825E824D82C70104
:10282000D8018F87988BA98BBA8BC501D6018B8B6A
:102830009C8BAD8BBE8B8DA99EA9AFA9B8AD8F8B9C
:10284000988FA98FBA8FFE01379683818B8F8281F3
:102850008C8F81818D8F8F818E8FFE013B9683813E
:102860008F8F828188A3818189A38B858AA38A81A6
:102870008BA389818CA38C818DA38B818EA38E8168
:102880008FA38D8188A7FE013F96838189A78281CE
:102890008AA781818BA78F858CA7FE017396838180
:1028A0008DA782818EA781818FA78B8988ABFE013E
:1028B0007796838189AB82818AAB81818BAB8F894B
:1028C0008CAB89AD9AAD6EE3AE01455E5F4F2AE1F8
:1028D0000E94B9D2EE960FB6F894DEBF0FBECDBF00
:1028E000CF91DF911F910F91FF90EF90DF90CF90EC
:1028F000BF90AF909F908F907F906F905F904F9020
:102900003F902F900895CF92DF92EF92FF920F9316
:102910001F93DF93CF93CDB7DEB7A1970FB6F8948F
:10292000DEBF0FBECDBF40916A0C50916B0C609121
:10293000CD0C7091CE0CE091300DF091310DA09145
:10294000930DB091940D00911C0E10911D0EE0900E
:10295000A50EF090A60EC0902E0FD0902F0F2091B4
:10296000070C3091080C3A8329835C834B837E8368
:102970006D83F887EF83BA87A9871C870B87FE864C
:10298000ED86D88ACF862A81298B29812A8B2C81B2
:102990002B8B2B812C8B2E812D8B2D812E8B2885A3
:1029A0002F8B2F81288F2A85298F29852A8F2C8587
:1029B0002B8F2B852C8F2E852D8F2D852E8F288963
:1029C0002F8F2F8528A321E029A363E2AE014F5E5C
:1029D0005F4F21E10E94B9D2A1960FB6F894DEBFF5
:1029E0000FBECDBFCF91DF911F910F91FF90EF9060
:1029F000DF90CF900895DF93CF93CDB7DEB7649784
:102A00000FB6F894DEBF0FBECDBFE0915714F09122
:102A10005814A0915914B0915A1440910314509134
:102A200004146091FF13709100142091F3133091FE
:102A3000F4133A8329835C834B837E836D831886EA
:102A40001F82E987FA87AB87BC872A812D87298176
:102A50002E872C812F872B81288B2E81298B2D81EE
:102A60002A8B28852B8B2F812C8B61E7AE01475F4A
:102A70005F4F2CE00E94B9D264960FB6F894DEBF87
:102A80000FBECDBFCF91DF910895CF92DF92EF922D
:102A9000FF920F931F93DF93CF93CDB7DEB7A0972D
:102AA0000FB6F894DEBF0FBECDBF4091760C5091AB
:102AB000770C6091D90C7091DA0CE0913C0DF0919B
:102AC0003D0DA0919F0DB091A00D0091280E109189
:102AD000290EE090B10EF090B20EC0903A0FD09057
:102AE0003B0F2091130C3091140C3A8329835C83A3
:102AF0004B837E836D83F887EF83BA87A9871C8712
:102B00000B87FE86ED86D88ACF862A81298B29817C
:102B10002A8B2C812B8B2B812C8B2E812D8B2D8125
:102B20002E8B28852F8B2F81288F2A85298F298509
:102B30002A8F2C852B8F2B852C8F2E852D8F2D85E5
:102B40002E8F28892F8F2F8528A365E2AE014F5E37
:102B50005F4F20E10E94B9D2A0960FB6F894DEBF75
:102B60000FBECDBFCF91DF911F910F91FF90EF90DE
:102B7000DF90CF900895DF93CF9300D000D0CDB7F2
:102B8000DEB720911A09332727FD30953A83298330
:102B90002A812B8329812C836AE2AE014D5F5F4F2E
:102BA00022E00E94B9D20F900F900F900F90CF911A
:102BB000DF9108950F931F93DF93CF93CDB7DEB7C7
:102BC0002E970FB6F894DEBF0FBECDBF8C010E94CA
:102BD0006D11882361F1E0916114F09162143097D6
:102BE00031F16281758126813781408551858381EC
:102BF00094819A8389832B833C834D835E836F8387
:102C00008A818887898189877A87FE0133968381C3
:102C10008B8782818C8781818D878B818E87C8018C
:102C200062EAAE01495F5F4F28E00E94B9D22E965A
:102C30000FB6F894DEBF0FBECDBFCF91DF911F91CD
:102C40000F910895DF93CF9300D000D000D0CDB77F
:102C5000DEB7FC0186898823E9F047855089809199
:102C60000E09992787FD90958417950798F083851D
:102C70009485218933895A8349832B833C832A8114
:102C80002D8329812E8368E2AE014D5F5F4F24E0E2
:102C90000E94B9D226960FB6F894DEBF0FBECDBF04
:102CA000CF91DF910895EF92FF920F931F93DF93DF
:102CB000CF93CDB7DEB728970FB6F894DEBF0FBE1F
:102CC000CDBF7C010091C6171091C7170E94DDD5BA
:102CD0001A8309839C838B838A818D8389818E8368
:102CE0008C818F838B818887C70168E9AE014B5F38
:102CF0005F4F24E00E94B9D228960FB6F894DEBF49
:102D00000FBECDBFCF91DF911F910F91FF90EF903C
:102D100008952F923F924F925F926F927F928F927F
:102D20009F92AF92BF92CF92DF92EF92FF920F935A
:102D30001F93DF93CF93CDB7DEB7CA54D0400FB601
:102D4000F894DEBF0FBECDBF2B969FAF8EAF2B97F3
:102D50008091A8069091A906A091AA06B091AB0611
:102D600029968CAF9DAFAEAFBFAF29978091A406D7
:102D70009091A506A091A606B091A70625968CAFC6
:102D80009DAFAEAFBFAF25972090A0063090A106B3
:102D90004090A2065090A3060E9400D89B01AC016F
:102DA000E0902606F090270600912806109129064B
:102DB000A0902A06B0902B06C0902C06D0902D062D
:102DC00060902E0670902F0680903006909031060D
:102DD000698F3A8F4B8F5C8F1D8E1E8E1F8E18A2AF
:102DE000E982FA820B831C83AD82BE82CF82D886B1
:102DF00069867A868B869C862D863E864F86588A83
:102E000025968CAD9DADAEADBFAD2597898B9A8BC8
:102E1000AB8BBC8B29968CAD9DADAEADBFAD29976C
:102E20008D8B9E8BAF8BB88F8E010F5D1F4FC801AE
:102E3000BE01675E7F4F0E947E0EFE013196838148
:102E400089A782818AA781818BA789818CA7FE01AE
:102E5000359683818DA782818EA781818FA78D81F1
:102E600088ABFE013996838189AB82818AAB8181EF
:102E70008BAB89858CABFE013D9683818DAB8281C6
:102E80008EAB81818FAB8D8588AFFE01719683817A
:102E900089AF82818AAF81818BAF89898CAFFE0136
:102EA000759683818DAF82818EAF81818FAF8D8941
:102EB000FE01E05CFF4F80832B968EAD9FAD2B977C
:102EC0006EE1A80120E20E94B9D2C65BDF4F0FB6C7
:102ED000F894DEBF0FBECDBFCF91DF911F910F9150
:102EE000FF90EF90DF90CF90BF90AF909F908F902A
:102EF0007F906F905F904F903F902F9008952F920A
:102F00003F924F925F926F927F928F929F92AF9279
:102F1000BF92CF92DF92EF92FF920F931F93DF93B6
:102F2000CF93CDB7DEB7C655D0400FB6F894DEBF0D
:102F30000FBECDBF1C010E9400D85B016C018090C8
:102F4000291390902A13F401F7A92B96FFAF2B9722
:102F5000F40164857585868597850E947DDD20E86E
:102F600036E948E15BE40E94E2DC2B013C01F4011C
:102F700060897189828993890E947DDD20E836E924
:102F800048E15BE40E94E2DC2F966CAF7DAF8EAF30
:102F90009FAF2F97F40164897589868997890E946C
:102FA0007DDD20E030E048EC52E40E94E2DC6396F4
:102FB0006CAF7DAF8EAF9FAF6397F40164A175A135
:102FC000882777FD8095982F0E947DDD6D877E870D
:102FD0008F87988BF401608D718D828D938D0E9407
:102FE0007DDD20E030E048EC52E40E94E2DC6796B0
:102FF0006CAF7DAF8EAF9FAF6797F401648D758D19
:10300000868D978D0E947DDD20E030E048EC52E413
:103010000E94E2DCAD8EBE8ECF8ED8A219A21AA27B
:103020001BA21CA29201A30129833A834B835C83D8
:103030002C96EFAD2C972D96FFAD2D972E96AFAD1C
:103040002E972F96BFAD2F979F01AD012D833E8305
:103050004F8358876096EFAD60976196FFAD61979B
:103060006296AFAD62976396BFAD63979F01AD0166
:1030700029873A874B875C8720E030E040E050E0CA
:10308000298B3A8B4B8B5C8B6496EFAD649765967E
:10309000FFAD65976696AFAD66976796BFAD6797CC
:1030A0009F01AD012D8B3E8B4F8B588FAC01CB0117
:1030B000DA01898F9A8FAB8FBC8F8E010B5D1F4F0A
:1030C000C801BE01635E7F4F0E947E0E2B96FFAD4E
:1030D0002B97FDA7FE01319683818EA782818FA752
:1030E000818188AB898189ABFE01359683818AAB6A
:1030F00082818BAB81818CAB8D818DABFE0139964A
:1031000083818EAB82818FAB818188AF898589AFC6
:10311000FE013D9683818AAF82818BAF81818CAF26
:103120008D858DAFFE01719683818EAF82818FAFC9
:103130008181FE01E05CFF4F80838989FE01EF5BA6
:10314000FF4F8083DE01559613968C911397FE01F5
:10315000EE5BFF4F808312968C911297FE01ED5B20
:10316000FF4F808311968C91FE01EC5BFF4F8083B3
:103170008D89FE01EB5BFF4F8083DE01599613962C
:103180008C911397FE01EA5BFF4F808312968C911E
:103190001297FE01E95BFF4F808311968C91FE012F
:1031A000E85BFF4F8083898DFE01E75BFF4F8083E3
:1031B000C10160E2A80125E20E94B9D2CA5ADF4FDC
:1031C0000FB6F894DEBF0FBECDBFCF91DF911F9138
:1031D0000F91FF90EF90DF90CF90BF90AF909F90B6
:1031E0008F907F906F905F904F903F902F900895B9
:1031F0002F923F924F925F926F927F928F929F9207
:10320000AF92BF92CF92DF92EF92FF920F931F93F4
:10321000DF93CF93CDB7DEB7C256D0400FB6F89448
:10322000DEBF0FBECDBFA3969FAF8EAFA397009119
:103230000B1410910C14E0900D14F0900E14C0902B
:103240000F14D0901014A0901114B090121480900C
:1032500013149090141460901514709016144090EC
:103260001714509018142090191430901A1480914B
:103270001B1490911C14A1969FAF8EAFA1978091C3
:103280001D1490911E146F969FAF8EAF6F97809113
:103290001F14909120146D969FAF8EAF6D97809103
:1032A0002114909122146B969FAF8EAF6B978091F3
:1032B00023149091241469969FAF8EAF69978091E3
:1032C00025149091261467969FAF8EAF67978091D3
:1032D00027149091281465969FAF8EAF65978091C3
:1032E000291490912A1463969FAF8EAF63970E9422
:1032F00000D89B01AC011A830983FC82EB82DE8239
:10330000CD82B886AF829A8689867C866B865E86F9
:103310004D86388A2F86A1968EAD9FADA1979A8B48
:10332000898B6F968EAD9FAD6F979C8B8B8B6D96B7
:103330008EAD9FAD6D979E8B8D8B6B968EAD9FAD39
:103340006B97988F8F8B69968EAD9FAD69979A8F8B
:10335000898F67968EAD9FAD67979C8F8B8F659693
:103360008EAD9FAD65979E8F8D8F63968EAD9FAD11
:10337000639798A38F8F29A33AA34BA35CA31DA2A5
:103380001EA21FA218A68A8189A789818AA78C817B
:103390008BA78B818CA78E818DA78D818EA7888529
:1033A0008FA78F8188AB8A8589AB89858AAB8C850D
:1033B0008BAB8B858CAB8E858DAB8D858EAB8889E9
:1033C0008FAB8F8588AF8A8989AF89898AAF8C89CD
:1033D0008BAF8B898CAF8E898DAF8D898EAF888DA9
:1033E0008FAF8F89FE01E05CFF4F80838A8DFE01E5
:1033F000EF5BFF4F8083898DFE01EE5BFF4F808383
:103400008C8DFE01ED5BFF4F80838B8DFE01EC5BAD
:10341000FF4F80838E8DFE01EB5BFF4F80838D8D90
:10342000FE01EA5BFF4F808388A1FE01E95BFF4F4D
:1034300080838F8DFE01E85BFF4F80838E01075DE7
:103440001F4FC8018096BE016F5D7F4F0E947E0EA8
:10345000A3968EAD9FADA3976FE6A80128E20E94C8
:10346000B9D2CE59DF4F0FB6F894DEBF0FBECDBF35
:10347000CF91DF911F910F91FF90EF90DF90CF9050
:10348000BF90AF909F908F907F906F905F904F9084
:103490003F902F9008952F923F924F925F926F929C
:1034A0007F928F929F92AF92BF92CF92DF92EF92D4
:1034B000FF920F931F93DF93CF93CDB7DEB7C45B1B
:1034C000D0400FB6F894DEBF0FBECDBF1C01809177
:1034D0002B1490912C14A0912D14B0912E14CF5434
:1034E000DF4F88839983AA83BB83C15BD0408091DF
:1034F0002F1490913014A0913114B0913214C3550F
:10350000DF4F88839983AA83BB83CD5AD0408091B3
:10351000331490913414A0913514B0913614C755DA
:10352000DF4F88839983AA83BB83C95AD040809197
:103530003B1490913C14A0913D14B0913E14CB5596
:10354000DF4F88839983AA83BB83C55AD04080917B
:10355000431490914414A0914514B0914614C3565D
:10356000DF4F88839983AA83BB83CD59D040809154
:10357000471490914814A0914914B0914A14C75629
:10358000DF4F88839983AA83BB83C959D040609158
:1035900053147091541480915514909156140E94B4
:1035A0007DDDCF56DF4F688379838A839B83C15942
:1035B000D04080904F1490905014A0905114B0902F
:1035C0005214409037145090381460903914709011
:1035D0003A1480914B1490914C14A0914D14B091D9
:1035E0004E14CB56DF4F88839983AA83BB83C5597A
:1035F000D04080913F1490914014A0914114B0911B
:103600004214CF55DF4F88839983AA83BB83C15A65
:10361000D0406091291470912A14882777FD8095F5
:10362000982F0E947DDD20E030E040E050E00E94D5
:10363000FEDB6B017C010E9400D88B019C01CF5402
:10364000DF4F88819981AA81BB81C15BD04089838A
:103650009A83AB83BC83C355DF4F88819981AA814C
:10366000BB81CD5AD0408D839E83AF83B887C75529
:10367000DF4F88819981AA81BB81C95AD04089874F
:103680009A87AB87BC874D865E866F86788ACB55D6
:10369000DF4F88819981AA81BB81C55AD040898B2F
:1036A0009A8BAB8BBC8BCF55DF4F88819981AA81D8
:1036B000BB81C15AD0408D8B9E8BAF8BB88FC356C8
:1036C000DF4F88819981AA81BB81CD59D040898FF4
:1036D0009A8FAB8FBC8FC756DF4F88819981AA81A3
:1036E000BB81C959D0408D8F9E8FAF8FB8A3CB5669
:1036F000DF4F88819981AA81BB81C559D04089A3B8
:103700009AA3ABA3BCA38DA29EA2AFA2B8A6CF568C
:10371000DF4F88819981AA81BB81C159D04089A797
:103720009AA7ABA7BCA78DA69EA6AFA6B8AA49AA82
:103730005AAA6BAA7CAACB56DF4F88819981AA81AD
:10374000BB81C559D0408DAB9EABAFABB8AFCF55A9
:10375000DF4F88819981AA81BB81C15AD04089AF4E
:103760009AAFABAFBCAF8DE3882E912C8C0E9D1E13
:10377000C601AE2DBF2DF40180839183A283B38354
:10378000DE01AF5BBF4F0C9311961C9311971296FD
:103790002C93129713963C93139714961C9214979C
:1037A00015961C92159716961C92169717961C92B2
:1037B00017979E012F5F3F4F8E01075B1F4FF90147
:1037C0008381F8018083F9018281F8018183F90105
:1037D0008181F8018283898183839E012B5F3F4F22
:1037E000F9018381F8018483F9018281F8018583DD
:1037F000F9018181F80186838D8187839E01275F8E
:103800003F4FF9018381F8018087F9018281F80136
:103810008187F9018181F8018287898583879E01EB
:10382000235F3F4FF9018381F8018487F901828189
:10383000F8018587F9018181F80186878D85878761
:103840009E012F5E3F4FF9018381F801808BF901C2
:103850008281F801818BF9018181F801828B89894C
:10386000838B9E012B5E3F4FF9018381F801848B8E
:10387000F9018281F801858BF9018181F801868B3C
:103880008D89878B9E01275E3F4FF9018381F80167
:10389000808FF9018281F801818FF9018181F8011E
:1038A000828F898D838F9E01235E3F4FF901838133
:1038B000F801848FF9018281F801858FF9018181F6
:1038C000F801868F8D8D878F9E012F5D3F4FF90107
:1038D0008381F80180A3F9018281F80181A3F901B4
:1038E0008181F80182A389A183A39E012B5D3F4FB3
:1038F000F9018381F80184A3F9018281F80185A38C
:10390000F9018181F80186A38DA187A39E01275D1E
:103910003F4FF9018381F80180A7F9018281F80105
:1039200081A7F9018181F80182A789A583A79E015A
:10393000235D3F4FF9018381F80184A7F90182815A
:10394000F80185A7F9018181F80186A78DA587A7D0
:103950009E012F5C3F4FF9018381F80180ABF90193
:103960008281F80181ABF9018181F80182AB89A9DB
:1039700083AB9E012B5C3F4FF9018381F80184AB3F
:10398000F9018281F80185ABF9018181F80186ABEB
:103990008DA987AB9E01275C3F4FF9018381F80118
:1039A00080AFF9018281F80181AFF9018181F801CD
:1039B00082AF89AD83AFF4018381F80184AFF40154
:1039C0008281F80185AFF4018181F80186AFF401AD
:1039D0008081F80187AFCE0187579F4FBD010E94BC
:1039E0007E0EC10160E7A80128E40E94B9D2CC5440
:1039F000DF4F0FB6F894DEBF0FBECDBFCF91DF9182
:103A00001F910F91FF90EF90DF90CF90BF90AF90FC
:103A10009F908F907F906F905F904F903F902F90EE
:103A200008952F923F924F925F926F927F928F9262
:103A30009F92AF92BF92CF92DF92EF92FF920F933D
:103A40001F93DF93CF93CDB7DEB7C454D0400FB6EA
:103A5000F894DEBF0FBECDBF25969FAF8EAF2597E2
:103A60006090D5057090D6058090D7059090D805C8
:103A7000A090D105B090D205C090D305D090D405C8
:103A8000E090CD05F090CE050091CF051091D005C6
:103A90008091ED059091EE05A091EF05B091F005B4
:103AA00089AF9AAFABAFBCAF8091E9059091EA05C1
:103AB000A091EB05B091EC058DAB9EABAFABB8AF71
:103AC0002090E5053090E6054090E7055090E80528
:103AD0000E9400D89B01AC01A0917412B0917512A4
:103AE0002396BFAFAEAF2397809176129091771255
:103AF00021969FAF8EAF2197A0917812B091791245
:103B0000BEAFADAF2B8B3C8B4D8B5E8B1F8A188E5F
:103B1000198E1A8EC801B70120E030E04AE754E45C
:103B20000E9410DF23EC35EF4CE151E40E94E2DC0F
:103B30000E944ADD7A836983C601B50120E030E046
:103B40004AE754E40E9410DF23EC35EF4CE151E4E6
:103B50000E94E2DC0E944ADD7C836B83C401B301D6
:103B600020E030E04AE754E40E9410DF23EC35EF18
:103B70004CE151E40E94E2DC0E944ADD7E836D83C9
:103B8000C201B10120E030E04AE754E40E9410DFB6
:103B90000E944ADD78876F836DA97EA98FA998ADB1
:103BA00020E030E04AE754E40E9410DF0E944ADD42
:103BB0007A87698769AD7AAD8BAD9CAD20E030E046
:103BC0004AE754E40E9410DF0E944ADD7C876B873D
:103BD00023968EAD9FAD23979E878D872196AEADA0
:103BE000BFAD2197B88BAF878DAD9EAD9A8B898B7A
:103BF0008E01055E1F4FC801BE016D5E7F4F0E94A2
:103C00007E0E8A818BA389818CA38C818DA38B816D
:103C10008EA38E818FA38D8188A7888589A78F81A8
:103C20008AA78A858BA789858CA78C858DA78B858C
:103C30008EA78E858FA78D8588AB888989AB8F8568
:103C40008AAB8A898BAB89898CAB25968EAD9FAD6B
:103C500025976CE1A8012AE10E94B9D2CC5BDF4F25
:103C60000FB6F894DEBF0FBECDBFCF91DF911F918D
:103C70000F91FF90EF90DF90CF90BF90AF909F900B
:103C80008F907F906F905F904F903F902F9008950E
:103C90002F923F924F925F926F927F928F929F925C
:103CA000AF92BF92CF92DF92EF92FF920F931F934A
:103CB000DF93CF93CDB7DEB7E3970FB6F894DEBFAF
:103CC0000FBECDBF9BAB8AAB8CEF9BE00E9402D1B5
:103CD0007B018C018FE59CE00E9402D15B016C01AD
:103CE00082EC9CE00E9402D13B014C0185E29DE008
:103CF0000E9402D11B012C0188E89DE00E9402D1A4
:103D00006EA77FA788AB99AB81E19EE00E9402D1AC
:103D10006AA77BA78CA79DA78AE99EE00E9402D193
:103D20006EA37FA388A799A783E29FE00E9402D198
:103D30006AA37BA38CA39DA3C801B70120E030E454
:103D40004CE156E40E9410DF0E944ADD7A836983C9
:103D5000C601B50120E030E44CE156E40E9410DFDA
:103D60000E944ADD7C836B83C401B30120E030E410
:103D70004CE156E40E9410DF0E944ADD7E836D8391
:103D8000C201B10120E030E44CE156E40E9410DFB2
:103D90000E944ADD78876F836EA57FA588A999A9BF
:103DA00020E030E44CE156E40E9410DF0E944ADD3E
:103DB0007A8769876AA57BA58CA59DA520E030E45C
:103DC0004CE156EC0E9410DF0E944ADD7C876B8735
:103DD0006EA17FA188A599A520E030E44CE156E4CE
:103DE0000E9410DF0E944ADD7E876D876AA17BA159
:103DF0008CA19DA120E030E44CE156E40E9410DF4C
:103E00000E944ADD788B6F878A81898B89818A8BB2
:103E10008C818B8B8B818C8B8E818D8B8D818E8B0E
:103E200088858F8B8F81888F8A85898F89858A8FF6
:103E30008C858B8F8B858C8F8E858D8F8D858E8FCE
:103E400088898F8F8F8588A381E089A38AA99BA900
:103E500064E2AE014F5E5F4F21E10E94B9D2E3966A
:103E60000FB6F894DEBF0FBECDBFCF91DF911F918B
:103E70000F91FF90EF90DF90CF90BF90AF909F9009
:103E80008F907F906F905F904F903F902F9008950C
:103E90002F923F924F925F926F927F928F929F925A
:103EA000AF92BF92CF92DF92EF92FF920F931F9348
:103EB000DF93CF93CDB7DEB7E2970FB6F894DEBFAE
:103EC0000FBECDBF9EA78DA760915B1470915C144F
:103ED000882777FD8095982F0E947DDD20E030E0D7
:103EE00048EC52E40E94E2DC7B018C01E091291352
:103EF000F0912A13608D718D828D938D0E947DDDEE
:103F000020E030E048EC52E40E94E2DC5B016C010E
:103F100060912206709123068091240690912506D7
:103F200024E630E040E050E00E9439E0CA01B901E7
:103F300028E631E040E050E00E9439E06FA778AB1E
:103F400089AB9AAB82EC9CE00E9402D11B012C0150
:103F50006091DF137091E0138091E1139091E2136F
:103F60000E947DDD20E030E048EC52E40E94E2DC7B
:103F70003B014C0180915D1490915E14A0915F14FF
:103F8000B091601489A79AA7ABA7BCA7C701D801B5
:103F90008D839E83AF83B887C501D60189879A87B1
:103FA000AB87BC87AFA5B8A9BA83A983C201B10109
:103FB00020E030E048EC52E40E9410DF0E944FDD28
:103FC0007C836B83C301D4018D879E87AF87B88BB9
:103FD00089A59AA5ABA5BCA5898B9A8BAB8BBC8B0D
:103FE000FE01359683818D8B82818E8B81818F8BB3
:103FF0008D81888FFE0139968381898F82818A8F96
:1040000081818B8F89858C8F8A818D8F89818E8F1D
:104010008C818F8F8B8188A3FE013D96838189A33C
:1040200082818AA381818BA38D858CA3FE017196E9
:1040300083818DA382818EA381818FA3898988A7A3
:104040008DA59EA56AE4AE014B5E5F4F24E10E9400
:10405000B9D2E2960FB6F894DEBF0FBECDBFCF91B6
:10406000DF911F910F91FF90EF90DF90CF90BF9065
:10407000AF909F908F907F906F905F904F903F9008
:104080002F9008952F923F924F925F926F927F925E
:104090008F929F92AF92BF92CF92DF92EF92FF9258
:1040A0000F931F93DF93CF93CDB7DEB7A6970FB6CD
:1040B000F894DEBF0FBECDBF9EA38DA304E212E134
:1040C000C8010E94F9991B012C010E9400D85B01D4
:1040D0006C018091450B9091460BA091470BB091DC
:1040E000480BA2019101281B390B4A0B5B0BCA013B
:1040F000B9010E947DDD20E030E048EC52E40E94EE
:10410000E2DC3B014C01C8010E94FF999A8389833C
:10411000AB86BC86CD86DE861F86188A198A1A8AE7
:10412000C201B1010E947DDD20E030E048EC52E4A4
:104130000E94E2DC6B837C838D839E83C301D40168
:104140008F839887A987BA878E010D5E1F4FC8019C
:10415000BE01655F7F4F0E947E0EFE013396838114
:104160008B8F82818C8F81818D8F8B818E8FFE01D1
:10417000379683818F8F828188A3818189A38F81E4
:104180008AA38A818BA389818CA38DA19EA166E2DB
:10419000A80122E10E94B9D2A6960FB6F894DEBF1C
:1041A0000FBECDBFCF91DF911F910F91FF90EF9088
:1041B000DF90CF90BF90AF909F908F907F906F9047
:1041C0005F904F903F902F9008952F923F924F9283
:1041D0005F926F927F928F929F92AF92BF92CF9297
:1041E000DF92EF92FF920F931F93DF93CF93CDB7A0
:1041F000DEB7CE56D0400FB6F894DEBF0FBECDBFAF
:10420000A3969FAF8EAFA39790E7E92E92E1F92E88
:10421000C7010E9499A58C01DC016D917D918D9162
:104220009C910E944ADDA7966CAF7DAF8EAF9FAF89
:10423000A797F80164817581868197810E944ADD84
:10424000AB966CAF7DAF8EAF9FAFAB97D801189692
:104250006D917D918D919C911B970E944ADDAF9647
:104260006CAF7DAF8EAF9FAFAF97C7010E949EA589
:10427000A1966CAF7DAF8EAF9FAFA19704E212E124
:10428000C8010E94089A6D966CAF7DAF8EAF9FAF4C
:104290006D97C8010E940E9A6F87788B898B9A8BD5
:1042A00020910206309103064091040650910506C4
:1042B000E0900606F09007060091080610910906A6
:1042C000A0900A06B0900B06C0900C06D0900D0688
:1042D00060900E0670900F06809010069090110668
:1042E0002090120630901306409014065090150648
:1042F0008091160690911706A0911806B0911906A4
:1043000069968CAF9DAFAEAFBFAF6997A596AEADC6
:10431000BFADA597BA83A983A996EEADFFADA997C6
:10432000FC83EB83AD968EAD9FADAD979E838D8361
:10433000A1968CAD9DADAEADBFADA1978F83988793
:10434000A987BA876D968CAD9DADAEADBFAD6D97AB
:104350008B879C87AD87BE872B8B3C8B4D8B5E8B71
:10436000EF8AF88E098F1A8FAB8EBC8ECD8EDE8EC3
:104370006F8E78A289A29AA22BA23CA24DA25EA225
:1043800069968CAD9DADAEADBFAD69978FA398A773
:10439000A9A7BAA78A818BA789818CA78C818DA7B1
:1043A0008B818EA78E818FA78D8188ABFE0137967A
:1043B000838189AB82818AAB81818BAB8F818CAB0E
:1043C000FE013B9683818DAB82818EAB81818FAB69
:1043D0008B8588AFFE013F96838189AF82818AAF4A
:1043E00081818BAF8F858CAFFE01739683818DAFFA
:1043F00082818EAF81818FAF8B89FE01E05CFF4FA0
:104400008083DE01579613968C911397FE01EF5B24
:10441000FF4F808312968C911297FE01EE5BFF4F47
:10442000808311968C91FE01ED5BFF4F80838F8915
:10443000FE01EC5BFF4F8083DE015B9613968C914F
:104440001397FE01EB5BFF4F808312968C911297BE
:10445000FE01EA5BFF4F808311968C91FE01E95BC0
:10446000FF4F80838B8DFE01E85BFF4F8083DE0171
:104470005F9613968C911397FE01E75BFF4F808345
:1044800012968C911297FE01E65BFF4F8083119686
:104490008C91FE01E55BFF4F80838F8DFE01E45B15
:1044A000FF4F8083DE01939613968C911397FE0144
:1044B000E35BFF4F808312968C911297FE01E25BC3
:1044C000FF4F808311968C91FE01E15BFF4F80834B
:1044D0008BA1FE01E05BFF4F8083DE019796139670
:1044E0008C911397FE01EF5AFF4F808312968C91A7
:1044F0001297FE01EE5AFF4F808311968C91FE01B8
:10450000ED5AFF4F80838FA1FE01EC5AFF4F80834D
:10451000A3968EAD9FADA39766E9AE01455D5F4F53
:104520002AE20E94B9D2C259DF4F0FB6F894DEBF1B
:104530000FBECDBFCF91DF911F910F91FF90EF90F4
:10454000DF90CF90BF90AF909F908F907F906F90B3
:104550005F904F903F902F900895FC01E60FF11D62
:104560004115510541F4CF0160E070E0422F50E069
:104570000E944E0B0895CF01BA01422F50E00E94D5
:10458000450B0895EF92FF920F931F93DF93CF9304
:10459000CDB7DEB7C556D0400FB6F894DEBF0FBE1C
:1045A000CDBF7C01E0912913F0912A1386A1898364
:1045B0008E010F5F1F4FC80161E040E050E024E131
:1045C0000E94AD22C80165E140E050E024E10E9474
:1045D000AD22C80169E240E050E024E10E94AD2232
:1045E000C8016DE340E050E024E10E94AD22C80123
:1045F00061E540E050E024E10E94AD22C7016BE19B
:10460000A80125E60E94B9D2CB59DF4F0FB6F89426
:10461000DEBF0FBECDBFCF91DF911F910F91FF90F5
:10462000EF900895EF92FF920F931F93DF93CF9334
:10463000CDB7DEB7E3970FB6F894DEBF0FBECDBFA0
:104640007C0169838E010F5F1F4FC80161E022E387
:104650000E94AD22C7016EEFA80123E30E94B9D2E8
:10466000E3960FB6F894DEBF0FBECDBFCF91DF91BA
:104670001F910F91FF90EF9008956091411342E4D4
:1046800053E10E9412230895AF92BF92CF92DF921E
:10469000EF92FF920F931F93DF93CF93CDB7DEB7C7
:1046A0006F970FB6F894DEBF0FBECDBF5C01DB0184
:1046B0002D833E834F835887FA82E982DC82CB8246
:1046C000FE0135968381888F8281898F81818A8FCF
:1046D0008D818B8F8A818C8F89818D8F8C818E8F3C
:1046E0008B818F8F8E01075F1F4FC80160E0AD0186
:1046F0002FE00E94AD22C50166E1A80127E10E94DA
:10470000B9D26F960FB6F894DEBF0FBECDBFCF9172
:10471000DF911F910F91FF90EF90DF90CF90BF90AE
:10472000AF9008954831510540F0DC011B96FB0124
:1047300088E101900D928150E1F788E190E00895C1
:10474000FC014831510538F0DB013B9688E10190CE
:104750000D928150E1F788E190E008954C305105C9
:1047600040F0DC011B96FB018CE001900D92815022
:10477000E1F78CE090E00895FC014C30510538F0F1
:10478000DB013B968CE001900D928150E1F78CE0CB
:1047900090E008954432510540F0DC011B96FB0186
:1047A00084E201900D928150E1F784E290E0089557
:1047B000FC014432510538F0DB013B9684E2019064
:1047C0000D928150E1F784E290E008958F929F92DC
:1047D000AF92BF92CF92DF92EF920F931F936C0133
:1047E0004A015B01A801B9012E2D0E944D8288E388
:1047F00093E0F6019183808383869486A586B686AE
:1048000080911816909119160F969093191680930F
:1048100018161F910F91EF90DF90CF90BF90AF903F
:104820009F908F900895CF92DF92EF92FF920F9317
:104830007C016B01BA01A901202F0E944D8286E400
:1048400093E0F70191838083D486C3868091181604
:10485000909119160D9690931916809318160F9132
:10486000FF90EF90DF90CF900895EF92FF920F931B
:104870001F937C01162FBA01A901202F0E944D829F
:1048800084E593E0F7019183808313878091181664
:10489000909119160C9690931916809318161F91E3
:1048A0000F91FF90EF900895FC018AE293E09183CD
:1048B0008083CF010E949C810895FC0188E393E0EE
:1048C00091838083CF010E949C810895FC0186E43E
:1048D00093E091838083CF010E949C810895FC0125
:1048E00084E593E091838083CF010E949C810895A9
:1048F000FC0188E393E091838083CF010E949C8137
:104900000895FC0180E793E091838083CF010E94AA
:104910009C8108950F931F938C0181579F4F0E9494
:104920006624C8018E579F4F0E946624C8018B5889
:104930009F4F0E946624C80188599F4F0E94662499
:10494000C801855A9F4F0E946624C801825B9F4F11
:104950000E946624C8018F5B9F4F0E946624C80195
:10496000C4960E94662480EC93E0F80192A781A788
:10497000C80189960E949C811F910F9108950F9301
:104980001F938C01C8960E946624C80189960E94D4
:104990007824C8014A960E947824C8010B960E9488
:1049A000782480EC93E0F80191838083C8010E9411
:1049B0009C811F910F9108950F931F938C01845830
:1049C0009F4F0E946624C80181599F4F0E94662410
:1049D000C8018D599F4F0E946F24C8018F5A9F4F65
:1049E0000E946624C8018B5B9F4F0E946F24C80100
:1049F000C3960E946624C80186960E946624C80158
:104A000049960E94662480EC93E0F80191838083AC
:104A1000C8010E949C811F910F9108950F931F93CD
:104A20008C018F5A9F4F0E946624C8018B5B9F4F59
:104A30000E946F24C801C3960E946624C80186960E
:104A40000E946624C80149960E94662480EC93E087
:104A5000F80191838083C8010E949C811F910F916E
:104A600008950F931F938C01835A964F0E94BF2481
:104A7000C801845F964F0E94BF24C8018554974F98
:104A80000E94BF24C8018659974F0E94BF24C801C5
:104A9000875E974F0E94BF24C8018853984F0E9499
:104AA000BF24C8018958984F0E94BF24C801825171
:104AB000994F0E94DC24C8018B59994F0E94DC2435
:104AC000C80184529A4F0E94DC24C8018D5A9A4F23
:104AD0000E94DC24C80180519B4F0E940E25C80112
:104AE00083579B4F0E940E25C801865D9B4F0E94F5
:104AF0000E25C80189539C4F0E940E25C80185547C
:104B00009C4F0E946F24C80181559C4F0E946F24C6
:104B1000C8018D559C4F0E946F24C80189569C4F37
:104B20000E946F24C80185579C4F0E946F24C801C2
:104B300081589C4F0E946F24C8018D589C4F0E9441
:104B40006F24C8018A599C4F0E946624C801895A63
:104B50009C4F0E945D24C801885B9C4F0E945D248D
:104B6000C801875C9C4F0E945D24C801835D9C4FF7
:104B70000E946F24C801805E9C4F0E946624C80179
:104B80008C5E9C4F0E946F24C8018B5F9C4F0E94DB
:104B90005424C80188509D4F0E946624C801855145
:104BA0009D4F0E946624C80182529D4F0E94662438
:104BB000C8018F529D4F0E946624C8018C539D4F9F
:104BC0000E946624C80188549D4F0E946F24C8012A
:104BD00085559D4F0E946624C80182569D4F0E94B4
:104BE0006624C8018F569D4F0E946624C8018B57CA
:104BF0009D4F0E946F24C80187589D4F0E946F24CB
:104C0000C80183599D4F0E946F24C8018F599D4F41
:104C10000E946F24C8018B5A9D4F0E946F24C801C7
:104C2000875B9D4F0E946F24C801845C9D4F0E944A
:104C30006624C801815D9D4F0E946624C8018E5D77
:104C40009D4F0E946624C8018A5E9D4F0E946F247A
:104C5000C801865F9D4F0E946F24C80182509E4FFD
:104C60000E946F24C8018E509E4F0E946F24C8017D
:104C70008A519E4F0E946F24C80186529E4F0E9407
:104C80006F24C80182539E4F0E946F24C8018E5327
:104C90009E4F0E946F24C8018A549E4F0E946F2429
:104CA000C80186559E4F0E946F24C80182569E4FB0
:104CB0000E946F24C8018F569E4F0E946624C8012F
:104CC0008B579E4F0E946F24C80187589E4F0E94A9
:104CD0006F24C80183599E4F0E946F24C8018F59C9
:104CE0009E4F0E946F24C8018C5A9E4F0E946624DA
:104CF000C801885B9E4F0E946F24C801845C9E4F50
:104D00000E946F24C801815D9E4F0E946624C801E5
:104D10008E5D9E4F0E946624C8018A5E9E4F0E944F
:104D20006F24C801865F9E4F0E946F24C801825085
:104D30009F4F0E946F24C8018E509F4F0E946F2486
:104D4000C8018A519F4F0E946F24C80186529F4F0D
:104D50000E946F24C80182539F4F0E946F24C80194
:104D60008E539F4F0E946F24C8018B549F4F0E9407
:104D70006624C8018A559F4F0E945D24C801895648
:104D80009F4F0E945D24C80186579F4F0E94662452
:104D9000C80185589F4F0E945D24C80184599F4FC8
:104DA0000E945D24C801835A9F4F0E945D24C80160
:104DB000825B9F4F0E945D24C801CF960E945D24B4
:104DC000C801C3960E946F24C80186960E9466247B
:104DD000C80149960E946624C8010D960E946F245E
:104DE000C8010E9466241F910F910895FC018EE76F
:104DF00093E091838083CF010E949C810895FC0100
:104E00008CE893E091838083CF010E949C81089578
:104E10000F931F938C018AE293E0F80191838083C2
:104E2000C8010E949C81C8010E94B7841F910F9104
:104E300008950F931F938C0188E393E0F801918309
:104E40008083C8010E949C81C8010E94B7841F9181
:104E50000F9108950F931F938C0186E493E0F8015E
:104E600091838083C8010E949C81C8010E94B784FD
:104E70001F910F9108950F931F938C0184E593E088
:104E8000F80191838083C8010E949C81C8010E941F
:104E9000B7841F910F9108950F931F938C0188E39E
:104EA00093E0F80191838083C8010E949C81C8012E
:104EB0000E94B7841F910F9108950F931F938C0147
:104EC00080E793E0F80191838083C8010E949C8170
:104ED000C8010E94B7841F910F9108950F931F93EB
:104EE0008C018EE793E0F80191838083C8010E94D2
:104EF0009C81C8010E94B7841F910F9108950F9360
:104F00001F938C018CE893E0F80191838083C801A2
:104F10000E949C81C8010E94B7841F910F9108953F
:104F2000AF92BF92CF92DF92EF920F931F936C01DB
:104F3000590198010E2D0E94088286E493E0F60143
:104F400091838083B486A386809118169091191658
:104F50000D9690931916809318161F910F91EF904C
:104F6000DF90CF90BF90AF900895CF92DF92EF92F5
:104F70000F931F93CF93DF93EC011E861D8688EE5F
:104F800093E09EA38DA398A78FA36E36710519F4A5
:104F90004AE759E002C045E759E029E2C22ED12C88
:104FA000CC0EDD1EC60124E00E944D8280EC93E011
:104FB0009AA789A780911816909119160B9690932D
:104FC000191680931816CE01C496B60140E050E041
:104FD00020E030E00CE619E0EE240E949027CE019C
:104FE0008F5B9F4FB60141E050E020E030E003E6E8
:104FF00019E00E949027CE01825B9F4FB60142E0EC
:1050000050E020E030E00BE519E00E949027CE014F
:10501000855A9F4FB60143E050E020E030E002E5C2
:1050200019E00E949027CE0188599F4FB60144E0B5
:1050300050E020E030E009E419E00E949027CE0122
:105040008B589F4FB60145E050E020E030E002E48D
:1050500019E00E949027CE018E579F4FB60146E07F
:1050600050E020E030E00BE319E00E949027CE01F1
:1050700081579F4FB60147E050E020E030E004E365
:1050800019E00E949027DF91CF911F910F91EF902F
:10509000DF90CF900895AF92BF92CF92DF92EF92C0
:1050A000FF920F931F93CF93DF93EC016A0124E0EB
:1050B0000E944D8280EC93E099838883809118163A
:1050C000909119160B969093191680931816BC2E72
:1050D000AD2EC114D10419F400E010E002C005E4C3
:1050E00016E0CE0149966B2D7A2D40E050E02CE47D
:1050F00034E0EE240E949027C114D10419F400E09A
:1051000010E002C000E416E0CE0186966B2D7A2DE9
:1051100041E050E02CED35E0EE240E949027C114D0
:10512000D10419F400E010E002C00CE316E0CE0157
:10513000C3966B2D7A2D42E050E02CE637E0EE244A
:105140000E949027C05CDF4F80E090E0A0E8BFE3C2
:1051500089939993A993B9931882C454D040C114E8
:10516000D10419F420E030E002C028E336E045E441
:10517000E42EF12CEC0EFD1EC7016B2D7A2D43E0C1
:1051800050E000E00E94088284E593E0F7019183FB
:105190008083C05BDF4F81E08883C055D040809121
:1051A0001816909119160C9690931916809318164C
:1051B000CD2819F400E010E002C005E316E0CE01AE
:1051C0008F5A9F4F6B2D7A2D44E050E020E030E065
:1051D000EE240E949027C15ADF4F81E090E099832E
:1051E0008883CF55D04080E090E8A9E8B4E48D876B
:1051F0009E87AF87B88BDF91CF911F910F91FF9062
:10520000EF90DF90CF90BF90AF900895AF92BF9294
:10521000CF92DF92EF92FF920F931F93CF93DF9382
:10522000EC016A0124E00E944D8280EC93E09983B6
:10523000888380911816909119160B9690931916E1
:1052400080931816BC2EAD2EC114D10419F400E0C1
:1052500010E002C005E416E0CE0149966B2D7A2DD0
:1052600040E050E02CE434E0EE240E949027C1148A
:10527000D10419F400E010E002C000E416E0CE0111
:1052800086966B2D7A2D41E050E02CED35E0EE2432
:105290000E949027C114D10419F400E010E002C06C
:1052A0000CE316E0CE01C3966B2D7A2D42E050E060
:1052B0002CE637E0EE240E949027C05CDF4F80E0B0
:1052C00090E0A0E8BFE389939993A993B9931882DA
:1052D000C454D040C114D10419F420E030E002C01D
:1052E00028E336E065E4E62EF12CEC0EFD1EC70146
:1052F0006B2D7A2D43E050E000E00E94088284E5A7
:1053000093E0F70191838083C05BDF4F81E0888366
:10531000C055D04080911816909119160C96909314
:10532000191680931816C114D10419F400E010E086
:1053300002C005E316E0CE018F5A9F4F6B2D7A2DE8
:1053400044E050E020E030E0EE240E949027C15A73
:10535000DF4F81E090E099838883CF55D04080E093
:1053600090E8A9E8B4E48D879E87AF87B88BC11415
:10537000D10419F420E030E002C02DE536E053E618
:10538000E52EF12CEC0EFD1EC7016B2D7A2D44E0AD
:1053900050E000E00E94088284E593E0F7019183E9
:1053A0008083C259DF4F1882CE56D04080911816A4
:1053B000909119160C969093191680931816C11493
:1053C000D10419F400E010E002C003E516E0CE01BC
:1053D00081599F4F6B2D7A2D45E050E02CE63EEE33
:1053E000EE240E949027CD2819F400E010E002C0BE
:1053F00009E416E0CE0184589F4F6B2D7A2D46E0CC
:1054000050E024E931E1EE240E949027DF91CF9112
:105410001F910F91FF90EF90DF90CF90BF90AF90D2
:1054200008952F923F924F925F926F927F928F9248
:105430009F92AF92BF92CF92DF92EF92FF920F9323
:105440001F935C01490138012701160124E00E94E5
:105450004D8280EC93E0F501918380838091181652
:10546000909119160B969093191680931816F401C3
:10547000C080D180E280F380C5010B96B50140E089
:1054800050E02FE636E000E00E940882F501C68A6F
:10549000D78AE08EF18E809118169091191672E6D7
:1054A000872E73E0972E948683864E9690931916D6
:1054B00080931816F301C080D180E280F380C5018B
:1054C0004A96B50141E050E02DE636E00E940882A0
:1054D000F501C5A2D6A2E7A2F0A680911816909178
:1054E0001916938E828E4E969093191680931816E5
:1054F000F201C080D180E280F380C5018996B501B8
:1055000042E050E02BE636E00E940882F501C4AA92
:10551000D5AAE6AAF7AA809118169091191692A614
:1055200081A64E969093191680931816F10120814A
:105530003181C501C896B50143E050E006E616E0AA
:10554000EE240E9490271F910F91FF90EF90DF9023
:10555000CF90BF90AF909F908F907F906F905F9013
:105560004F903F902F9008952F923F924F925F92CD
:105570006F927F928F929F92AF92BF92CF92DF9263
:10558000EF92FF920F931F93DF93CF93CDB7DEB7C8
:10559000C256D0400FB6F894DEBF0FBECDBF3C015F
:1055A0006CE070E040E050E027E236E000E00E946E
:1055B0001324C3010D9660E041E050E029E136E09C
:1055C0000E943524C301499661E070E040E750E055
:1055D0002BE036E00E941324C30186966FEF70E043
:1055E00041E750E02FEF35E00E941324C301C3963A
:1055F00063E742E750E022EF35E00E943524C30123
:10560000CF9640E050E060E070E028EC30E005EE3E
:1056100015E0EE240E94E623C301825B9F4F40E029
:1056200050E060E070E029EC30E009ED15E00E9408
:10563000E623C301835A9F4F4DEC5CEC6CEC7DE399
:105640002AEC30E00CEC15E00E94E623C3018459FB
:105650009F4F40E050E060E070E02BEC30E00FEB5B
:1056600015E00E94E623C30185589F4F40E050E0BB
:1056700060E070E026E930E002EB15E00E94E623EE
:10568000C30186579F4F60E070E047E950E024EA8D
:1056900035E000E00E941324C30189569F4F40E08B
:1056A00050E060E87FE323E830E00CE915E00E9479
:1056B000E623C3018A559F4F40E050E060E87FE356
:1056C00024E830E000E915E00E94E623C3018B5492
:1056D0009F4F60E070E04EE850E023E835E000E0E6
:1056E0000E941324C3018E539F4F60E04FEF5FEF82
:1056F00020E030E00E943524C30182539F4F60E0D8
:105700004DED50E029E735E00E943524C301865273
:105710009F4F60E04EED50E02FE635E00E943524CB
:10572000C3018A519F4F62E34FED50E025E635E01B
:105730000E943524C3018E509F4F64E640EE50E036
:1057400027E535E00E943524C30182509F4F60E079
:1057500041EE50E02AE435E00E943524C301865F23
:105760009E4F60E042EE50E02EE335E00E9435248B
:10577000C3018A5E9E4F60E043EE50E020E335E0D7
:105780000E943524C3018E5D9E4F60E070E044EEC0
:1057900050E023E235E00E941324C301815D9E4F57
:1057A00060E070E045EE50E026E135E00E94132411
:1057B000C301845C9E4F6DE048E750E028E035E08F
:1057C0000E943524C301885B9E4F68E249E750E0A0
:1057D0002AEF34E00E943524C3018C5A9E4F60E0CA
:1057E00070E04AE750E02BEE34E00E941324C3013E
:1057F0008F599E4F60E042EB50E023EE34E00E9470
:105800003524C30183599E4F60E543EB50E02BEDF7
:1058100034E00E943524C30187589E4F60E04AEB74
:1058200050E02EEC34E00E943524C3018B579E4F8C
:1058300061E044EB50E021EC34E00E943524C301E8
:105840008F569E4F66EB73E045EB50E024EB34E05F
:105850000E941324C30182569E4F62E346EB50E040
:1058600026EA34E00E943524C30186559E4F61E04C
:1058700047EB50E028E934E00E943524C3018A5404
:105880009E4F61E048EB50E02BE834E00E94352465
:10589000C3018E539E4F61E049EB50E02EE734E0A8
:1058A0000E943524C30182539E4F68E042ED50E0D0
:1058B00023E734E00E943524C30186529E4F60E006
:1058C00043ED50E02AE634E00E943524C3018A51BA
:1058D0009E4F60E044ED50E021E634E00E94352424
:1058E000C3018E509E4F60E045ED50E028E534E066
:1058F0000E943524C30182509E4F60E046ED50E087
:105900002FE434E00E943524C301865F9D4F60E0A0
:1059100047ED50E026E434E00E943524C3018A5E5E
:105920009D4F60E048ED50E02DE334E00E943524C7
:10593000C3018E5D9D4F60EA7FE048E950E021E3BE
:1059400034E00E941324C301815D9D4F6CED75E02E
:1059500049E950E023E234E00E941324C301845C4F
:105960009D4F68E17CEF4AE950E025E134E00E9478
:105970001324C301875B9D4F60E042E050E02BE0C1
:1059800034E00E943524C3018B5A9D4F61E043E00F
:1059900050E02DEF33E00E943524C3018F599D4F15
:1059A00060E046E050E02FEE33E00E943524C30172
:1059B00083599D4F60E047E050E020EE33E00E94C5
:1059C0003524C30187589D4F60E048E050E021ED49
:1059D00033E00E943524C3018B579D4F60E049E0BE
:1059E00050E022EC33E00E943524C3018F569D4FD6
:1059F00060E070E04EE050E023EB33E00E941324BF
:105A0000C30182569D4F6EE471E044E050E027EA06
:105A100033E00E941324C30185559D4F60E070E080
:105A20004FE050E02AE933E00E941324C301885478
:105A30009D4F60E040E150E02CE833E00E943524C7
:105A4000C3018C539D4F60ED77E04BE950E02EE7AA
:105A500033E00E941324C3018F529D4F60E070E039
:105A60004EE950E020E733E00E941324C301825244
:105A70009D4F60E070E045E050E022E633E00E9498
:105A80001324C30185519D4F60E27EE44CE950E050
:105A900025E533E00E941324C30188509D4F60E048
:105AA00070E045E850E02CE433E00E9413248301C9
:105AB0000B5F1C4FC80166E870E04EE353E020E046
:105AC0000E944D828AE293E0D8018D939C93E0E19D
:105AD000F3E06E0E7F1ED3011D921D921D921C924B
