:100000000C9410120D943A1F0D946B1F0D949C1FAD
:100010000D94CD1F0D94FE1F0D942F200D94602084
:100020000D9491200C943D120C943D120C943D12B1
:100030000C943D120C943D120C943D120C9445C846
:100040000C943D120C943D120C943D120C943D12F4
:100050000C943D120C943D120C943D120D94C22050
:100060000C943D120C94B81A0C94F81A0C943D128E
:100070000C943D120C943D120C943D120C943D12C4
:100080000C943D120C943D120C943D120C943D12B4
:100090000C944A1B0C948A1B0C943D120C9430D582
:1000A0000C943D120C9472C80C943D120C943D12A9
:1000B0000C943D120C943D120C949FC80C943D126C
:1000C0000C943D120C943D120C943D120C943D1274
:1000D0000C943D120C943D120C94DC1B0C941C1CD3
:1000E0000C943D1256686C6873685D6865687A6840
:1000F000D668B368AC688F68BA68C168C868CF68EA
:1001000081688868EB68DC68FB68016996689D68AF
:10011000A568036EDB363D9A9999993DABAAAA2A48
:100120003E000000803F084AD73B3BCE016E84BCB6
:10013000BFFDC12F3D6C74319ABD56833DDA3D0041
:10014000C77F11BED9E4BB4C3E916BAAAABE00008A
:1001500000803F07634236B79BD8A71A3968561804
:10016000AEBAAB558C1D3CB7CC5763BD6DEDFD757C
:100170003EF6177231BF000000803F072C7AA5BA07
:100180006CC590DA3B9365FC8BBC53F810FD3C5674
:1001900092834DBD879D3AB63DCBC9BF5BBE73DA36
:1001A0000FC93F05A84CCDB2D44EB93836A9020CC0
:1001B00050B9918688083CA6AAAA2ABE00000080F1
:1001C0003F08000000BE922449123EABAAAA2ABEF4
:1001D000CDCCCC4C3E00000080BEABAAAAAA3E000B
:1001E000000000BF000000803F0000000000084148
:1001F00078D3BB4387D1133D190E3CC3BD4282ADBA
:100200002B3E68EC8276BED98FE1A93E4C80EFFF91
:10021000BE01C4FF7F3F00000000000664EC1B3CF1
:1002200004BC163E3BE5B93CC93C37C29E5A3D660C
:100230000498083EEA69AAAA3E000000803F4C6F7D
:10024000670064756D700000000000000000000091
:10025000C757657261736500000000000000000070
:10026000F64F656E61626C650000000000000000E2
:10027000244F64697361626C650000000000000037
:10028000244F706C616E6E657200676373000000CE
:100290000000000000000000409473657475700059
:1002A0007265736574000000000000000000ED4EF0
:1002B000726164696F000000000000000000246F9C
:1002C0006D6F6465730000000000000000008F6E19
:1002D000636F6D70617373000000000000005F4E7B
:1002E0006465636C696E6174696F6E0000004A4EEC
:1002F00062617474657279000000000000005D4462
:1003000073686F7700000000000000000000144ECA
:100310006572617365000000000000000000F14894
:1003200041726475506C616E652056322E323720F2
:10033000466C69676874204D6F6465006C6F677305
:10034000000000000000000000000E4E7365747590
:1003500070000000000000000000F64D746573742A
:1003600000000000000000000000DE4D68656C70B9
:1003700000000000000000000000BA1F706C616EF9
:100380006E657200000000000000C64D7465737455
:100390000070776D00000000000000000000001EEB
:1003A0006E726164696F0000000000000000009937
:1003B0006D7061737374687275000000000000B5A1
:1003C0004C6661696C73616665000000000000990D
:1003D0006C6261747465727900000000000000BBFB
:1003E0003A72656C61790000000000000000005B5B
:1003F0004C776179706F696E74730000000000873C
:1004000036786265650000000000000000000056BC
:1004100049656564756D7000000000000000009D76
:100420004A6D6F646573776974636800000000F655
:100430004B64697073776974636865730000005971
:100440004B61646300000000000000000000001D1C
:100450004A67707300000000000000000000008880
:100460004972617767707300000000000000001798
:1004700049696D750000000000000000000000BA2E
:100480003D616972737065656400000000000038AA
:1004900048616972707265737375726500000081DE
:1004A00082636F6D7061737300000000000000E9EB
:1004B0003F63757272656E740000000000000017E3
:1004C0006C6C6F6767696E670000000000000011C8
:1004D00022466F726D61742076657273696F6E3A31
:1004E00020256C78202045787065637465642066EB
:1004F0006F726D61742076657273696F6E3A202534
:100500006C780A004E756D50616765733A202575E9
:1005100020205061676553697A653A2025750A0085
:100520004D616E7566616374757265723A203078DC
:10053000253032782020204465766963653A203082
:1005400078253034780A004552523A204E6F2064A4
:10055000617461666C61736820696E73657274653D
:10056000640054657374696E672064617461666CBD
:10057000617368206C6F6767696E67004E6F7420E7
:10058000656E61626C65640A00563A2025342E342B
:10059000662C20413A2025342E34662C206D41688B
:1005A0003A2025342E34660A0048697420456E745A
:1005B000657220746F20657869742E0A0A004D53A5
:1005C00047204653204F4646202575004D5347206F
:1005D0004653204F4E20257500736176696E672063
:1005E0006F66667365747300636F6D7061737320FB
:1005F0006E6F74206865616C746879004865616429
:10060000696E673A20256C642C2058595A3A202587
:10061000642C2025642C2025642C0958595A6F66B7
:10062000663A2025362E32662C2025362E32662C50
:100630002025362E32660A00436F6D706173732079
:10064000696E697469616C69736174696F6E206643
:1006500061696C65642100436F6D706173733A204A
:100660000061626C65640A0064697300656E004D28
:100670006167206F6666736574733A2025342E3483
:10068000662C2025342E34662C2025342E34660A20
:10069000004D6167204465636C696E6174696F6EBB
:1006A0003A2025342E34660A003F3F0048494C006A
:1006B000484D433538343300484D43353838334C92
:1006C00000436F6D706173733A20002D00416C74AC
:1006D0003A2025302E32666D2C205261773A202543
:1006E0006C642054656D70657261747572653A2032
:1006F000252E31660A006E6F74206865616C74681F
:100700007900556E63616C69627261746564207210
:10071000656C617469766520616972707265737366
:100720007572650A006261726F6D6574657220632F
:10073000616C6962726174696F6E20636F6D706C59
:100740006574652E006162735F7072657373757294
:100750006520256C640A00252E3166206D2F730AF2
:100760000061697273706565643A20006169727333
:10077000706565643A200061697273706565645FD5
:1007800063683A20252E31660A00723A25346420C7
:1007900020703A2534642020793A2533642020677C
:1007A0003D2825352E31662025352E31662025350C
:1007B0002E3166292020613D2825352E31662025E1
:1007C000352E31662025352E3166290A002E004C43
:1007D00061743A20256C642C204C6F6E20256C646B
:1007E0002C20416C743A20256C646D2C202373619D
:1007F00074733A2025640A00252E316609004144AD
:10080000430A004D69783A656C65766F6E7320090E
:1008100072657620656C65763A25642C2072657663
:10082000206368313A25642C207265762063683233
:100830003A25640A004D69783A7374616E64617296
:1008400064200972657620726F6C6C3A25642C20E6
:100850007265762070697463683A25642C2072652D
:1008600076207275646465723A25640A0064697062
:100870002073776974636865732064697361626C5F
:1008800065642C207573696E6720454550524F4D45
:1008900000506F736974696F6E2025640A00436F9E
:1008A0006E74726F6C20434820002025303278002F
:1008B000253034783A00426567696E205842656594
:1008C00020582D4354552052616E676520616E6437
:1008D000205253534920546573743A0A004C6F698F
:1008E000746572207261646975733A2025640A0A1E
:1008F00000486974207261646975733A2025640A3E
:1009000000256420776179706F696E74730A0048FE
:100910006F6C6420616C746974756465206F662007
:1009200025646D0A00486F6C642063757272656E91
:100930007420616C7469747564650A00636F6D6D11
:10094000616E6420233A2025642069643A2564207E
:100950006F7074696F6E733A25642070313A256444
:100960002070323A256C642070333A256C64207014
:10097000343A256C64200A0052656C6179206F66F8
:10098000660A0052656C6179206F6E0A004E6F74C2
:1009900020656E61626C65640A00566F6C74733A10
:1009A00020313A25322E32662C20323A25322E3230
:1009B000662C20333A25322E32662C20343A2532EA
:1009C0002E32660A004C4F532063617573656420B4
:1009D0006E6F206368616E676520696E2041504DBF
:1009E0002E0A005448524F54544C45204641494C1D
:1009F00053414645204143544956415445443A20C9
:100A000025642C2000434F4E54524F4C204D4F44F0
:100A100045204348414E4745443A20005448524FF0
:100A200054544C45204348414E47454420256420BA
:100A30000A00556E706C7567206261747465727916
:100A40002C207468726F74746C6520696E206E65FA
:100A5000757472616C2C207475726E206F666620DE
:100A6000726164696F2E0A00494E20313A20256474
:100A700009323A20256409333A20256409343A20A2
:100A8000256409353A20256409363A20256409375A
:100A90003A20256409383A2025640A00494E3A096B
:100AA000313A20256409323A20256409333A202559
:100AB0006409343A20256409353A20256409363A18
:100AC00020256409373A20256409383A2025640A2C
:100AD00000506C616E6E6572204D6F64650A0A5439
:100AE000686973206D6F6465206973206E6F742070
:100AF000696E74656E64656420666F72206D616EE8
:100B000075616C207573650A0A00436F6D6D616EC7
:100B100064733A0A20206C6F677320202020202005
:100B200020206C6F6720726561646261636B2F7354
:100B300065747570206D6F64650A20207365747527
:100B400070202020202020207365747570206D6F28
:100B500064650A20207465737420202020202020E2
:100B60002074657374206D6F64650A0A4D6F766535
:100B70002074686520736C69646520737769746399
:100B80006820616E6420726573657420746F2046FE
:100B90004C592E0A0A0054657374204D6F64650A1F
:100BA0000A005365747570204D6F64650A0A494DDB
:100BB000504F5254414E543A20696620796F752047
:100BC00068617665206E6F742070726576696F75E6
:100BD000736C7920736574207468697320737973FA
:100BE00074656D2075702C20757365207468650AB6
:100BF0002772657365742720636F6D6D616E642065
:100C0000746F20696E697469616C697A65207468B3
:100C10006520454550524F4D20746F2073656E73AB
:100C200069626C652064656661756C742076616CC0
:100C30007565730A616E64207468656E20746865FA
:100C40002027726164696F2720636F6D6D616E6428
:100C500020746F20636F6E66696775726520666FBA
:100C60007220796F757220726164696F2E0A0A00B2
:100C70000A547970652027592720616E64206869BD
:100C80007420456E74657220746F2065726173659F
:100C900020616C6C20776179706F696E7420616E71
:100CA0006420706172616D65746572206461746145
:100CB0002C20616E79206F74686572206B657920D5
:100CC000746F2061626F72743A2000646F6E650AFF
:100CD000000A45726173696E6720454550524F4D59
:100CE0000A005261772056616C7565730A00526183
:100CF00064696F0A004348383A202564207C202527
:100D000064207C2025640A004348373A202564206B
:100D10007C202564207C2025640A004348363A2044
:100D20002564207C202564207C2025640A0043481B
:100D3000353A202564207C202564207C2025640A07
:100D4000004348343A202564207C202564207C2000
:100D500025640A004348333A202564207C2025641A
:100D6000207C2025640A004348323A202564207CF8
:100D7000202564207C2025640A004348313A202540
:100D800064207C202564207C2025640A004D6F6E41
:100D900069746F72696E6720766F6C747320616E10
:100DA000642063757272656E74004D6F6E69746F46
:100DB00072696E67206261747420766F6C74730060
:100DC0004D6F6E69746F72696E6720342063656C55
:100DD0006C004D6F6E69746F72696E6720332063AB
:100DE000656C6C0042617474206D6F6E69746F7213
:100DF000696E672064697361626C65640042617446
:100E000074204D6F696E746F720A006E6176207087
:100E10006974636820616C743A0A00656E65726774
:100E20007279207468726F74746C653A0A006E612E
:100E30007620706974636820616972737065656497
:100E40003A0A006E617620726F6C6C3A0A00736524
:100E500072766F207275646465723A0A0073657207
:100E6000766F2070697463683A0A00736572766FF2
:100E700020726F6C6C3A0A004761696E730A005009
:100E80003A2025342E33662C20493A25342E3366F9
:100E90002C20443A25342E33662C20494D41583AB3
:100EA000256C640A0058545241434B3A2025342E95
:100EB00032660A58545241434B20616E676C653A62
:100EC0002025640A0043726F7373747261636B0A46
:100ED000006D696E3A2025640A6D61783A202564B8
:100EE0000A6372756973653A2025640A6661696CE4
:100EF000736166655F656E61626C65643A20256446
:100F00000A6661696C736166655F76616C75653AE6
:100F10002025640A005468726F74746C650A004678
:100F20006C69676874206D6F6465730A00506F7335
:100F30002025643A2000494D550A004779726F20F8
:100F40006F6666736574733A2025342E32662C20E2
:100F500025342E32662C2025342E32660A00416359
:100F600063656C206F6666736574733A2025342E52
:100F700032662C2025342E32662C2025342E326603
:100F80000A000A4F7074696F6E733A20302D340076
:100F90000A4F7074696F6E733A5B6F6E2C6F666682
:100FA0005D0A006F666600436F6D70617373206940
:100FB0006E697469616C69736174696F6E206661D2
:100FC000696C656421006F6E000A4D6F7665205272
:100FD0004320746F67676C6520737769746368205A
:100FE000746F206561636820706F736974696F6ED8
:100FF00020746F20656469742C206D6F76652061A4
:10100000696C65726F6E20737469636B20746F20F6
:1010100073656C656374206D6F6465732E000A538D
:10102000617665642053657474696E67730A0A009B
:101030000A4D6F766520616C6C20636F6E74726F01
:101040006C7320746F2065616368206578747265C5
:101050006D652E2048697420456E74657220746F2A
:1010600020736176653A200A000A4E6F207261642F
:10107000696F3B20436865636B20636F6E6E6563C9
:10108000746F72732E000A0A526164696F2053658F
:101090007475703A0A000A464143544F525920521F
:1010A0004553455420636F6D706C657465202D2029
:1010B000706C656173652072657365742041504D75
:1010C00020746F20636F6E74696E7565000A5479C1
:1010D00070652027592720616E6420686974204557
:1010E0006E74657220746F20706572666F726D2009
:1010F000666163746F72792072657365742C206108
:101100006E79206F74686572206B657920746F202A
:1011100061626F72743A2000656E61626C650043B3
:10112000555200434D4400524157004D4F44450035
:101130004E54554E004354554E00504D00475053A9
:101140000041545449545544455F4D454400415471
:101150005449545544455F4641535400616C6C00FA
:101160006D697373696E67206C6F67207479706541
:101170000A000A4C6F67206572617365642E0A006D
:101180000A45726173696E67206C6F672E2E2E0A96
:1011900000446F6E650A0044756D70696E67204C7F
:1011A0006F672025642C20202020737461727420C6
:1011B00070672025642C202020656E6420706720D5
:1011C00025640A00626164206C6F67206E756D6231
:1011D00065720A0064756D70696E6720616C6C0AD7
:1011E0000025640A0025642C0900444620706167CC
:1011F000652C206C6F672066696C6520232C206C41
:101200006F6720706167653A2025642C09004E7570
:101210006D626572206F66207061636B6574732008
:10122000726561643A2025640A000A41726475504F
:101230006C616E652056322E323720466C696768C5
:1012400074204D6F64650A467265652052414D3ABF
:101250002025750A00454447453534302D54205229
:1012600032004572726F722052656164696E672048
:10127000454E445F425954453A2025640A00457260
:10128000726F722052656164696E67205061636B92
:1012900065743A2025640A004154543A2025642C90
:1012A0002025642C2025750A004D4F443A004354F4
:1012B000554E3A004E54554E3A2025342E34662C65
:1012C0002025642C2025342E34662C2025342E3401
:1012D000662C2025342E34662C2025342E34662CA2
:1012E0002025342E34662C0A00504D3A00524157C6
:1012F0003A00434D443A00435552523A2025642C5B
:101300002025342E34662C2025342E34662C2025BE
:10131000640A0020256420636F6D6D616E64732024
:10132000696E206D656D6F72790A00554E4B4E4F98
:10133000574E2053544152545550202D20004752AF
:101340004F554E44205354415254202D20004149C2
:1013500052205354415254202D20004750533A20DC
:10136000256C642C2025642C2025642C2025342E0B
:1013700037662C2025342E37662C2025642C20251A
:10138000342E34662C2025342E34662C2025342E21
:1013900034662C2025342E34660A00414C543250D9
:1013A0005443485F00454E524759325448525F00FB
:1013B0005957325352565F004152535032505443A2
:1013C000485F0050544348325352565F00524C4CD1
:1013D000325352565F0048444E4732524C4C5F00E5
:1013E0005243385F005243375F005243365F00522A
:1013F00043355F005243345F005243335F00524332
:10140000325F005243315F00464C41505F325F53C0
:101410005045454400464C41505F325F5045524371
:101420004E5400464C41505F315F53504545440097
:10143000464C41505F315F504552434E540041523B
:101440005350445F454E41424C4500534F4E41522C
:101450005F454E41424C4500494E56455254454425
:10146000464C545F434800424154545F434150410D
:101470004349545900494E5055545F564F4C5453AC
:1014800000414D505F5045525F564F4C5400564FEF
:101490004C545F4449564944455200424154545FBC
:1014A0004D4F4E49544F52004D41475F454E4142CA
:1014B0004C4500474E445F4142535F5052455353A1
:1014C00000474E445F54454D5000414C545F484FD7
:1014D0004C445F52544C005452494D5F5049544360
:1014E000485F4344004D494E5F474E445350445F6C
:1014F000434D005452494D5F41525350445F434D58
:10150000005253545F5357495443485F4348004C7B
:101510004F475F4C41535446494C45004C4F475F41
:101520004249544D41534B005359535F4E554D5F03
:1015300052455345545300454C45564F4E5F434822
:10154000325F52455600454C45564F4E5F43483139
:101550005F52455600454C45564F4E5F52455645E5
:1015600052534500454C45564F4E5F4D4958494EE4
:1015700047005357495443485F454E41424C45004C
:101580005452494D5F4155544F004C494D5F5049AD
:101590005443485F4D494E004C494D5F50495443B8
:1015A000485F4D4158004C494D5F524F4C4C5F4392
:1015B0004400464C544D4F44453600464C544D4F24
:1015C00044453500464C544D4F44453400464C5438
:1015D0004D4F44453300464C544D4F444532004630
:1015E0004C544D4F44453100464C544D4F44455F9B
:1015F00043480046535F4743535F454E41424C00CA
:1016000046535F4C4F4E475F4143544E0046535F35
:1016100053484F52545F4143544E005452494D5F1A
:101620005448524F54544C45005448525F46535FFF
:1016300056414C5545005448525F4641494C534130
:101640004645005448525F534C455752415445005B
:101650005448525F4D4158005448525F4D494E0026
:10166000414C545F484F4C445F464257434D004104
:10167000525350445F4642575F4D415800415253C8
:1016800050445F4642575F4D494E0046454E4345E4
:101690005F4D4158414C540046454E43455F4D49CE
:1016A0004E414C540046454E43455F4348414E4EE3
:1016B000454C0046454E43455F544F54414C00460F
:1016C000454E43455F414354494F4E0057505F4C90
:1016D0004F495445525F5241440057505F52414474
:1016E00049555300434D445F494E44455800434DCE
:1016F000445F544F54414C0041525350445F4F4655
:10170000465345540041525350445F524154494F4F
:1017100000414C545F4D4958005854524B5F414E64
:10172000474C455F4344005854524B5F4741494E34
:101730005F5343004B46465F54485232505443482F
:10174000004B46465F5054434832544852004B4683
:10175000465F524444524D4958004B46465F5054F0
:101760004348434F4D500053455249414C335F422B
:101770004155440053595349445F4D594743530021
:1017800053595349445F544849534D4156005359A6
:101790005349445F53575F54595045005359534977
:1017A000445F53575F4D52455600445A00524556C8
:1017B000004D4158005452494D004D494E00414E94
:1017C000474C455F4D415800414E474C455F4D49A0
:1017D0004E0046554E4354494F4E00494D41580026
:1017E000440049005000494D555F53454E534F52F8
:1017F0005F43414C004C6F672025642C2020202043
:1018000073746172742025642C202020656E64201E
:1018100025640A000A2564206C6F67730A000A4E6B
:101820006F206C6F67730A0A0043555200202553DE
:1018300000434D44002025530052415700202553BA
:10184000004D4F444500202553004E54554E002076
:101850002553004354554E0020255300504D002081
:1018600025530047505300202553004154544954F8
:101870005544455F4D45440020255300415454498B
:10188000545544455F4641535400202553006E6F24
:101890006E65006C6F677320656E61626C65643A9B
:1018A000200067707320616C743A20256C750069A4
:1018B0006E697420686F6D65002B0043446E522082
:1018C000485B25645D3D256420535B25645D3D25B3
:1018D0006420415B25645D3D256420545B25645D87
:1018E0003D25640A0043446E5220485B25645D3DFB
:1018F000256420535B25645D3D256420415B2564A0
:101900005D3D256420545B25645D3D25640A0062CD
:1019100061642066656E636520706F696E74006235
:1019200061642066656E636520706F696E74006621
:10193000656E63696E67206D7573742062652064DF
:10194000697361626C656400666C696768742070B5
:101950006C616E20726563656976656400666C69AA
:1019600067687420706C616E207265636569766566
:10197000640043757272656E7420576179506F69A7
:101980006E74204E4F54204D4F4449464945440003
:1019900043757272656E7420576179506F696E7409
:1019A000204D4F44494649454400576179706F695D
:1019B0006E7420496E76616C69642053657175653B
:1019C0006E636500576179506F696E74205265636C
:1019D000656976696E672046414C534500616374C2
:1019E000696F6E2072656365697665643A20006F81
:1019F0007574206F6620636F6D6D616E6473210076
:101A000052657475726E696E6720746F20486F6DD1
:101A10006500496E20646F5F6368616E67655F791A
:101A2000617728292E2020546172676574206865CB
:101A30006164696E673A202569003C737461727451
:101A400075705F67726F756E643E204E4F206169DE
:101A5000727370656564003C737461727475705F55
:101A600067726F756E643E207A65726F206169726D
:101A700073706565642063616C696272617465642A
:101A800000426567696E6E696E6720494D55206337
:101A9000616C6962726174696F6E3B20646F206E65
:101AA0006F74206D6F766520706C616E6500576194
:101AB000726D696E67207570204144432E2E2E0092
:101AC00044656D6F20536572766F732100426164C7
:101AD0002052657175657374202D2063616E6E6F81
:101AE00074206368616E676520746F206E6F6E2D61
:101AF0004E617620636D6400252E32662073656327
:101B00006F6E647320746F20726561636820776103
:101B100079706F696E740A005B2531643A2531640F
:101B20003A25645D200045585452413300455854CD
:101B30005241320045585452413100504F5349549C
:101B4000494F4E005241575F4354524C0052435F3D
:101B50004348414E004558545F535441540052414C
:101B6000575F53454E53005352335F005352305F1B
:101B700000666C69676874206D6F6465203D202580
:101B800075004661696C73616665202D2053686F2E
:101B90007274206576656E74206F6E2C200046612D
:101BA000696C73616665202D2053686F72742065BF
:101BB00076656E74206F66660067656F2D66656E6C
:101BC0006365207472696767657265640067656F35
:101BD0002D66656E6365204F4B0067656F2D6665EA
:101BE0006E6365207365747570206572726F720024
:101BF00067656F2D66656E6365206C6F61646564F3
:101C0000003C6E617669676174653E2057502065BF
:101C100072726F72202D2064697374616E63652027
:101C20003C2030007665726966795F6E61763A2095
:101C3000496E76616C6964206F72206E6F206375E7
:101C40007272656E74204E617620636D64004D691A
:101C50007373656420575000526561636865642042
:101C6000576179706F696E742023256900766572FB
:101C70006966795F6E61763A204C4F49544552202F
:101C80006F726269747320636F6D706C6574650048
:101C90007665726966795F6E61763A204C4F495479
:101CA00045522074696D6520636F6D706C65746555
:101CB000005265616368656420686F6D65007665D4
:101CC000726966795F636F6E6469746F6E3A2049FA
:101CD0006E76616C6964206F72206E6F206375721E
:101CE00072656E7420436F6E646974696F6E2063F1
:101CF0006D6400496E207665726966795F6368611C
:101D00006E67655F79617728292E20204E617620E5
:101D100042656172696E673A20256900496E2076D6
:101D200065726966795F6368616E67655F7961771F
:101D300028292E20204E61762042656172696E67E7
:101D40003A20256900666C69676874206D6F646568
:101D5000203D202575004661696C73616665202D04
:101D6000204C6F6E67206576656E74206F6E2C2038
:101D70000053706565644572726F7220252E31665E
:101D80002050494420252E3166205468726F7474A7
:101D90006C6520252E31660A0053706565644572B6
:101DA000726F7220252E31662050494420252E3135
:101DB00066205468726F74746C6520252E31660A33
:101DC000000A0A000A0A005475726E20416E746996
:101DD0006369706174696F6E20456E61626C6564E1
:101DE00000466F7572204420576179706F696E7478
:101DF0007300696E20666C69676874206D6F646536
:101E000000466C79696E67205232205665686963B6
:101E10006C65000A4D6F76652074686520736C6987
:101E200064652073776974636820616E64207265ED
:101E300073657420746F20464C592E0A000A456E53
:101E4000746572696E6720696E7465726163746926
:101E50007665207365747570206D6F64652E2E2E07
:101E60000A0A4966207573696E67207468652041A7
:101E7000726475696E6F2053657269616C204D6F75
:101E80006E69746F722C20656E73757265204C6973
:101E90006E6520456E64696E672069732073657492
:101EA00020746F20436172726961676520526574A6
:101EB00075726E2E0A54797065202768656C7027DC
:101EC00020746F206C69737420636F6D6D616E6434
:101ED000732C2027657869742720746F206C6561E6
:101EE00076652061207375626D656E752E0A566980
:101EF0007369742074686520277365747570272072
:101F00006D656E7520666F722066697273742D74CC
:101F1000696D6520636F6E66696775726174696F5C
:101F20006E2E0A00436F6D7061737320696E697461
:101F300069616C69736174696F6E206661696C6553
:101F400064210045524153494E47204C4F475300AE
:101F50004E6F2064617461666C61736820636172A6
:101F60006420696E736572746564007573696E6769
:101F7000202575206279746573206F66206D656D0C
:101F80006F72792028257520726573657473290A2C
:101F9000006C6F61645F616C6C20746F6F6B2025E7
:101FA0006C7575730A00646F6E652E004669726DFC
:101FB00077617265206368616E67653A206572615A
:101FC00073696E6720454550524F4D2E2E2E0A00E4
:101FD0000A0A496E69742041726475506C616E65BD
:101FE0002056322E323720466C69676874204D6F58
:101FF00064650A0A467265652052414D3A2025758E
:102000000A00496E76616C69642053455249414C1F
:10201000335F42415544000A0A20526561647920C9
:10202000746F20464C592E0047524F554E44205352
:10203000544152540000407A10F35A00A0724E18D6
:10204000090010A5D4E80000E87648170000E40B6A
:1020500054020000CA9A3B000000E1F50500008030
:10206000969800000040420F000000A0860100008A
:1020700000102700000000E80300000000640000DA
:102080000000000A00000000000100000000002C19
:1020900076D888DC674F0823DFC1DFAE59E1B1B7DE
:1020A00096E5E3E453C63AE651997696E8E6C284AB
:1020B00026EB898C9B62ED407C6FFCEFBC9C9F40C3
:1020C000F2BAA56FA5F490055A2AF75C936B6CF9E8
:1020D000676DC11BFCE0E40D47FEF520E6B500D0BE
:1020E000ED902E0300943577050080841E080000D3
:1020F000204E0A000000C80C333333330F986E12A1
:10210000831141EF8D2114893BE65516CFFEE6DBA6
:1021100018D1844B381BF77C1D901DA4BBE42420F0
:102120003284725E228100C9F124ECA1E53D276E64
:10213000616E00696E6600253033753A25733A206A
:10214000006E6F7420666F756E6400253033753ACB
:10215000252D33322E3332733A2000756E6B6E6F3D
:10216000776E2074797065006E6F7420666F756E7F
:10217000640025733A20006D697373696E67206E81
:10218000616D65206F722076616C7565003F3F0060
:10219000256400256400256C640025660025660022
:1021A000657869740068656C7000245047434D443D
:1021B0002C31362C302C302C302C302C302A36411F
:1021C0000D0A0024505542582C34312C312C30301B
:1021D00030332C303030312C33383430302C302AFE
:1021E00032360024505352463130302C302C3338A4
:1021F0003430302C382C312C302A334300205369B2
:1022000052462000204D544B312E3620002075625E
:102210006C6F782000204D544B312E3420006661C5
:10222000696C65642C207265747279696E67004F01
:102230004B0044454300434F4D504153535F0020F2
:10224000002A00496E697420416363656C002A00AE
:10225000496E6974204779726F00000021002400E4
:1022600027002A002D003000330001010000040186
:1022700007010A0100002200250028002B002E0083
:102280003100340002010000050108010B010000CB
:1022900020002300260029002C002F00320000011E
:1022A00000000301060109010505050507050808E9
:1022B0000808020202020A0A0808040404040101D0
:1022C00001010101010103030303030303030407E5
:1022D00007070C0C0C0C0C0C0C0C0202020206067C
:1022E0000606060606060B0B0B0B0B0B0B0B01026F
:1022F0001020200808102040102040800201020118
:1023000008040201010204081020408080402010CF
:102310000804020180040201804020100804020128
:102320000804020101020408102040800102040890
:10233000102040800000090A02080B0C0D0706035C
:102340000401000000000000000000000000000088
:10235000000000000000000000000000000000007D
:10236000100F0E0000000000000000000000000040
:1023700000000000000000000000494E46494E49A0
:1023800054594E414ECDCCCC3D0AD7233C17B7D142
:102390003877CC2B329595E6241FB14F0A000020E8
:1023A000410000C84200401C4620BCBE4CCA1B0E67
:1023B0005AAEC59D74000D942F230D9429030D94DE
:1023C0002A030D9408030D9447230D94141B0D94B8
:1023D0001F030D9407030D941C1B0D942B030D94E8
:1023E0000B030D9406030D948C020D943E210D9465
:1023F00009030D9410030D9489020D9415030D9497
:10240000E41A0D9438000D949D020D9424030D944C
:1024100078020D941A03D266B8C463D5CD66B3C4EE
:1024200011241FBECFEFD1E2DEBFCDBF00E00CBF55
:1024300015E0A0E0B2E0E6E8F5E502E00BBF02C07F
:1024400007900D92A23CB107D9F71BBE19E1A2EC8F
:10245000B5E001C01D92A230B107E1F714E2CCE172
:10246000D4E204C02297FE010F94A02AC631D107FE
:10247000C9F70F9429230D94B72A0C940000283033
:1024800008F027E03327DA01990F311D87FD9160AD
:1024900000966105710539F432602E5F3D9330E39B
:1024A0002A95E1F708959F3F30F080387105610566
:1024B00009F03C5F3C5F3D93913008F08068911DCE
:1024C000DF93CF931F930F93FF92EF92192F987F73
:1024D0009695E92F96959695E90FFF27E157FF4DC1
:1024E00099273327EE24FF24A701E70105900894DC
:1024F000079428F4360FE71EF81E491F511D660F7A
:10250000771F881F991F0694A1F70590079428F458
:10251000E70EF81E491F561FC11D770F881F991F10
:10252000661F0694A1F70590079428F4F80E491F3A
:10253000561FC71FD11D880F991F661F771F06944E
:10254000A1F70590079420F4490F561FC71FD81F05
:10255000990F661F771F881F0694A9F7849110951D
:10256000177041F0D695C79557954795F794E7941E
:102570001A95C1F7E5E3F0E268941590159135914D
:102580006591959105907FE27395E118F10A430BEF
:10259000560BC90BD009C0F7E10CF11E431F561FA3
:1025A000C91FD01D7EF4703311F48A95E6CFE894EC
:1025B000015030F0080F0AF40027021708F4202F0A
:1025C0002395022F7A3328F079E37D932A95E9F752
:1025D00010C07D932A9589F606949795679537954F
:1025E00017951794E118F10A430B560BC90BD00944
:1025F00098F023957E9173957A3308F070E37C937D
:102600002013B8F77E9170617D9330F0839571E36C
:102610007D9370E32A95E1F71124EF90FF900F91DD
:102620001F91CF91DF91992787FD90950895FA0129
:10263000AA27283051F1203181F1E8946F936E7F01
:102640006E5F7F4F8F4F9F4FAF4FB1E03ED0B4E0F2
:102650003CD0670F781F891F9A1FA11D680F791F33
:102660008A1F911DA11D6A0F711D811D911DA11D44
:1026700020D009F468943F912AE0269F1124301954
:10268000305D3193DEF6CF010895462F4770405DEF
:102690004193B3E00FD0C9F7F6CF462F4F70405D9E
:1026A0004A3318F0495D31FD4052419302D0A9F7F9
:1026B000EACFB4E0A6959795879577956795BA95F3
:1026C000C9F700976105710508959B01AC010A2EB9
:1026D00006945795479537952795BA95C9F7620F90
:1026E000731F841F951FA01D0895A0E3B0E0EBE7C2
:1026F000F3E10D94672AA8E04E010894811C911C17
:10270000F401BA2F1192BA95E9F729833A834B83E2
:102710005C836D837E838F839887CE010996FC014D
:102720001192AA95E9F7A986BA86CB86DC86ED8652
:10273000FE860F87188B29813A814B815C812DA7FA
:102740003EA74FA758AB79018A018FEF9FEFA0E01A
:10275000B0E0E822F9220A231B231A01442455245D
:1027600029853A854B855C8529A73AA74BA75CA7A5
:1027700059016A01A822B922CA22DB223A0188241F
:102780009924C601B501A80197010F94E4296DA30E
:102790007EA38FA398A7C401B3010F94E42969A372
:1027A0007AA38BA39CA3C601B501A20191010F944A
:1027B000E4297B018C01C401B3010F94E4295B017E
:1027C0006C0189A19AA1ABA1BCA18E0D9F1DA01F78
:1027D000B11F89A39AA3ABA3BCA32DA13EA14FA176
:1027E00058A5CA01AA27BB2729A13AA14BA15CA1E0
:1027F000280F391F4A1F5B1F29A33AA34BA35CA3D1
:102800002E153F054007510740F480E090E0A1E01D
:10281000B0E0A80EB91ECA1EDB1E89A19AA1ABA109
:10282000BCA19D01442755272A0D3B1D4C1D5D1D54
:102830002D8F3E8F4F8F58A36C01BB24AA248DA1EE
:102840009EA1AFA1B8A5A070B070A80EB91ECA1EF7
:10285000DB1EA98EBA8ECB8EDC8E9A8C8B8C7C8CF8
:102860009E8D6F8D78A1FE01719688E0DF011D922B
:102870008A95E9F72D8B9E8B6F8B788F2D853E8502
:102880004F8558896DA57EA58FA598A90F94E42939
:102890007B018C012D813E814F81588569A57AA5E8
:1028A0008BA59CA50F94E429E60EF71E081F191F9F
:1028B0006D897E898F89988D6E0D7F1D801F911F78
:1028C0006D8B7E8B8F8B988FEE892A2D392D482D1D
:1028D000572D7E2F8F89988DE096E2E10D94832A03
:1028E0000F931F93CF93DF93689F8001699F100D13
:1028F000789F100D1124C8010DD0EC01009721F034
:1029000060E070E0A80173D1CE01DF91CF911F91FB
:102910000F910895CF93DF93BC018230910510F49D
:1029200062E070E0A091FE18B091FF18ED01E0E0C8
:10293000F0E040E050E021C0888199818617970738
:1029400069F48A819B81309719F09383828304C054
:102950009093FF188093FE18FE0134C06817790722
:1029600038F44115510519F08417950708F4AC01A6
:10297000FE018A819B819C01E9012097E9F64115BE
:102980005105A9F1CA01861B970B049708F4BA01F7
:10299000E0E0F0E02AC08D919C9111978417950793
:1029A000F9F46417750781F412968D919C91139731
:1029B000309719F09383828304C09093FF1880931B
:1029C000FE18FD0132964CC0CA01861B970BFD0113
:1029D000E80FF91F6193719302978D939C9340C008
:1029E000FD01828193819C01D9011097A1F680910C
:1029F000FC189091FD18892B41F480914C03909123
:102A00004D039093FD188093FC1840914E03509114
:102A10004F034115510541F44DB75EB780914A030C
:102A200090914B03481B590B2091FC183091FD18D5
:102A3000CA01821B930B8617970780F0AB014E5F8C
:102A40005F4F8417950750F0420F531F5093FD18A6
:102A50004093FC18F9016193719302C0E0E0F0E04B
:102A6000CF01DF91CF910895CF93DF93009709F4C1
:102A700050C0EC0122971B821A82A091FE18B091DF
:102A8000FF18109709F140E050E0AC17BD0708F1BE
:102A9000BB83AA83FE0121913191E20FF31FAE1790
:102AA000BF0779F48D919C911197280F391F2E5FE4
:102AB0003F4F3983288312968D919C9113979B8366
:102AC0008A834115510571F4D093FF18C093FE1805
:102AD00020C012968D919C911397AD01009711F033
:102AE000DC01D3CFFA01D383C28321913191E20F6C
:102AF000F31FCE17DF0769F488819981280F391FEA
:102B00002E5F3F4FFA01318320838A819B8193831B
:102B10008283DF91CF91089566277727D2C21F93D2
:102B2000FC0199278827BC01E89411911032E9F340
:102B3000193010F01E30C8F31B3249F01D3241F439
:102B4000689405C0B0D0610F711D811D911D119158
:102B500010531A30B8F33EF49095809570956195B6
:102B60007F4F8F4F9F4F1F910895FB01DC0102C0E3
:102B700005900D9241505040D8F70895FB01DC01BB
:102B80008D9181341CF08B350CF4805E659161343D
:102B90001CF06B350CF4605E861B611189F3990B98
:102BA0000895FB01DC018D91059080190110D9F386
:102BB000990B0895FC0105900020E9F78095909508
:102BC0008E0F9F1F0895FC01059061507040011009
:102BD000D8F7809590958E0F9F1F0895FB01DC011B
:102BE00002C001900D9241505040D8F70895DC0189
:102BF00001C06D9341505040E0F70895FB01DC01A6
:102C00008D91019080190110D9F3990B0895FB0162
:102C1000DC014150504048F001900D920020C9F76E
:102C200001C01D9241505040E0F70895FC016150F1
:102C3000704001900110D8F7809590958E0F9F1FDE
:102C40000895009731F4DA018D919C91009709F471
:102C50000EC0DC01FB013D912191222319F03217B6
:102C6000C9F3FACF332331F4DA011D921C9288277D
:102C7000992708951197AF93BF93FB013D9121913F
:102C8000321771F4332321F488279927119702C052
:102C90001E921196FA01A193B0839F918F9108958E
:102CA000222369F7EACF592F482F372F262F660F97
:102CB000771F881F991F660F771F881F991F620F44
:102CC000731F841F951F660F771F881F991F089514
:102CD000AEE0B0E0EEE6F6E10D94752A8C0177FFE8
:102CE00002C060E070E8615070407E836D831A839B
:102CF000098386E08C83CE010196BA01A90111D027
:102D00002D813E8137FD09C0EF81F8852E173F07E1
:102D10000CF4F901E00FF11F10822E96E4E00D94FF
:102D2000912AABE0B0E0E7E9F6E10D94672A3C01B7
:102D30002B015A01FC0117821682838181FD03C099
:102D40006FEF7FEFB9C19AE0892E1E010894211C14
:102D5000311CF3012381F20123FD859123FF819131
:102D60002F01882309F4A5C1853239F423FD85910B
:102D700023FF81912F01853221F490E0B30116D316
:102D8000E8CF982FFF24EE249924FFE1FF15D0F01F
:102D90009B3269F09C3228F4903259F0933291F4CE
:102DA0000EC09D3249F0903369F441E024C052E0F6
:102DB000F52A84E0F82A28C098E0F92A25C0E0E145
:102DC000FE2A22C0F7FC29C0892F80538A3070F474
:102DD000F6FE05C0989C902C1124980E15C0E89C16
:102DE000E02C1124E80EF0E2FF2A0EC09E3229F4F6
:102DF000F6FC5FC140E4F42A07C09C3619F450E8A1
:102E0000F52A02C0983649F4F20123FD959123FF7B
:102E100091912F01992309F0B8CF892F85548330E0
:102E200018F08052833038F444E050E0A40EB51E10
:102E30005FE359830FC0933631F0933779F09335C0
:102E400009F052C01FC0F5018081898342E050E043
:102E5000A40EB51E610101E010E011C0F501C080B3
:102E6000D180F6FC03C06FEF7FEF02C0692D70E0E8
:102E700042E050E0A40EB51EC601D8DE8C015FE72B
:102E8000F52213C0F501C080D180F6FC03C06FEFBE
:102E90007FEF02C0692D70E042E050E0A40EB51E45
:102EA000C60191DE8C0150E8F52AF3FE06C018C079
:102EB00080E290E0B3017AD2EA948E2D90E0081778
:102EC0001907B0F30DC0F601F7FC8591F7FE81916B
:102ED0006F0190E0B3016AD2E110EA940150104012
:102EE0000115110581F7E2C0943611F0993661F5AC
:102EF000F7FE08C0F501208131814281538184E0D1
:102F000090E00AC0F501808191819C01442737FD42
:102F10004095542F82E090E0A80EB91E9FE6F9225A
:102F200057FF09C050954095309521953F4F4F4F21
:102F30005F4FE0E8FE2ACA01B901A1012AE030E0B2
:102F400076DBD82ED2183FC0953729F41F2D1F7E6F
:102F50002AE030E01DC01F2D197F9F3661F09037A9
:102F600020F4983509F0A5C00FC0903739F0983794
:102F700009F09FC004C028E030E00AC0106114FDD1
:102F8000146020E130E004C014FD166020E132E05E
:102F900017FF08C0F501608171818281938144E04F
:102FA00050E008C0F50180819181BC0180E090E093
:102FB00042E050E0A40EB51EA10139DBD82ED21894
:102FC0008FE7F82EF122F6FE0BC05EEFF522D91442
:102FD00038F4F4FE07C0F2FC05C08FEEF82202C000
:102FE0001D2D01C0192DF4FE0DC0FE01ED0DF11DCA
:102FF0008081803319F499EEF92208C01F5FF2FE38
:1030000005C003C08F2D867809F01F5F0F2DF3FCDC
:1030100013C0F0FE0EC01E1510F09D2C0AC09D2C92
:103020009E0C911A1E2D05C080E290E0B301BED126
:103030001F5F1E15C8F304C01E1510F4E11A01C06D
:10304000EE2404FF0EC080E390E0B301AFD102FF95
:103050001BC001FD03C088E790E00EC088E590E04A
:103060000BC0802F867881F001FF02C08BE201C087
:1030700080E2F7FC8DE290E0B30198D105C080E3D7
:1030800090E0B30193D19A94D914C8F3DA94F10182
:10309000ED0DF11D808190E0B30188D1DD20B1F705
:1030A00005C080E290E0B30181D1EA94EE20C9F737
:1030B00050CEF30166817781CB012B96E2E10D942E
:1030C000832AA0E0B0E0E7E6F8E10D946D2AEC0178
:1030D0005B016115710519F0FB0191838083F99003
:1030E0008F2D90E00F94AC2A892BC9F7FDE2FF16D3
:1030F00021F4F990EE24E39405C02BE2F21609F4D2
:10310000F990EE248E0101501040C8016AE773E285
:1031100043E050E033D1892BF9F48E010E5F1F4F4D
:10312000C8016DE773E245E050E028D1892B19F41E
:103130008E01095F1F4FA114B10419F0F50111832D
:103140000083E0FC04C070E090E080E813C070E011
:1031500090E080E86FEF07C1C80162E873E243E0E6
:1031600050E00CD1892B69F4A114B10429F470E06A
:1031700090E080EC6FE7F7C02296F501D183C08321
:10318000F6CF8824992440E050E060E070E0EF2D15
:10319000E053EA30A0F5F2E0EF2A8E2D90E09C019A
:1031A00028703070E2FE06C0232B79F50894811C4C
:1031B000911C2BC0232B19F0089481089108DB0186
:1031C000CA0112E0880F991FAA1FBB1F1A95D1F7D9
:1031D000480F591F6A1F7B1F440F551F661F771F1B
:1031E0004E0F511D611D711D483929E9520729E90A
:1031F000620729E1720748F084E0E82A06C0EE3F42
:1032000031F4E3FC39C098E0E92AF990C0CFE53306
:1032100011F0E53189F529912D3219F4E0E1EE2A1A
:1032200005C02B3219F081E090E003C0299182E0C3
:1032300090E0E22FE053EA3018F0C81BD90B1CC015
:1032400020E030E0FCE020383F075CF4C901880F43
:10325000991F880F991F280F391F220F331F2E0F18
:10326000311DE991E053EA3068F3E4FE03C0309584
:1032700021953F4F820E931ECE2CDD24E1FE07C028
:10328000A114B10421F02197F501D183C083CB01B2
:10329000BA010F94F1267B018C01F3E0CF22DD24EB
:1032A00023E0C216D10421F417FB109517F91095ED
:1032B00057016801C801B70120E030E040E050E06C
:1032C0000F942026882309F44AC097FE0DC029E9EF
:1032D000E22E23E2F22E9094819491089394C0E21E
:1032E000D0E000E010E012C091EBE92E93E2F92E5D
:1032F000F6CFF7012591359145915491C601B5015D
:103300000F94EF285B016C018C1A9D0A8C169D06A8
:1033100084F7D595C7950F5F1F4F0630110529F02B
:103320008CEF9FEFE80EF91EF1CFC501D6017C01AD
:103330008D018C2D880F8D2D881F8F3F51F0C60178
:10334000B50120E030E040E050E00F9420268823D3
:1033500031F482E290E090930119809300197E2D60
:103360009F2D802F612F272F392F482F562FB901DE
:10337000CA01CDB7DEB7ECE00D94892AFB01DC0170
:103380004150504088F08D9181341CF08B350CF405
:10339000805E659161341CF06B350CF4605E861BB9
:1033A000611171F3990B0895881BFCCF0F931F9344
:1033B000CF93DF938C01EB018B8181FF1BC082FFD8
:1033C0000DC02E813F818C819D812817390764F4BF
:1033D000E881F9810193F983E88306C0E885F985DE
:1033E000802F1995892B31F48E819F8101969F83BF
:1033F0008E8302C00FEF1FEFC801DF91CF911F91A5
:103400000F9108959C01F999FECF32BD21BDF89A24
:1034100060B5F999FECF2F5F3F4F32BD21BD2150DE
:103420003040F89A70B5F999FECF2E5F3F4F32BD0C
:1034300021BD22503040F89A80B5F999FECF2D5F1A
:103440003F4F32BD21BDF89A90B508959C01F9997E
:10345000FECF1FBA32BD21BD40BD0FB6F894FA9A17
:10346000F99A0FBEF999FECF1FBA2F5F3F4F32BDB9
:1034700021BD2150304050BD0FB6F894FA9AF99A08
:103480000FBEF999FECF1FBA2E5F3F4F32BD21BD4F
:103490002250304060BD0FB6F894FA9AF99A0FBEE8
:1034A000F999FECF1FBA2D5F3F4F32BD21BD70BDD0
:1034B0000FB6F894FA9AF99A0FBE0895CF93DF9356
:1034C000FC01EB014230510570F063857485858500
:1034D000968520E030E040E854E40F94EF280F9404
:1034E000C5267983688382E090E0DF91CF910895CB
:1034F000CF93DF93EC01FB014230510518F420E03B
:1035000030E012C06081718180E090E00F94F1267C
:1035100020E030E040E85AE30F94EF286B877C8787
:103520008D879E8722E030E0C901DF91CF91089519
:10353000DC01FB0187818C93868111968C93119716
:10354000858112968C931297848113968C9313978E
:10355000838114968C931497828115968C9315977A
:10356000818116968C931697808117968C93089577
:103570001F920F920FB60F920BB60F9211242F933A
:103580003F934F938F939F93EF93FF934091C60088
:1035900020918816309189162F5F3F4F80918C16AD
:1035A00090918D162823392380918A1690918B163D
:1035B0002817390779F08091881690918916E09143
:1035C0008E16F0918F16E80FF91F408330938916FD
:1035D00020938816FF91EF919F918F914F913F918A
:1035E0002F910F900BBE0F900FBE0F901F9018954C
:1035F0001F920F920FB60F920BB60F9211242F93BA
:103600003F938F939F93EF93FF932091AA1630914E
:10361000AB168091A8169091A91628173907E9F0E2
:103620008091AA169091AB16E091AE16F091AF166C
:10363000E80FF91F80818093C6008091AA169091AF
:10364000AB1601962091AC163091AD1682239323D0
:103650009093AB168093AA1610C02091A8163091B3
:10366000A9168091AA169091AB162817390729F44C
:103670008091C1008F7D8093C100FF91EF919F9158
:103680008F913F912F910F900BBE0F900FBE0F9017
:103690001F9018951F920F920FB60F920BB60F92B4
:1036A00011242F933F934F938F939F93EF93FF9307
:1036B0004091CE0020919016309191162F5F3F4F90
:1036C0008091941690919516282339238091921613
:1036D000909193162817390779F080919016909160
:1036E0009116E0919616F0919716E80FF91F408316
:1036F0003093911620939016FF91EF919F918F91A7
:103700004F913F912F910F900BBE0F900FBE0F90D6
:103710001F9018951F920F920FB60F920BB60F9233
:1037200011242F933F938F939F93EF93FF932091B7
:10373000B2163091B3168091B0169091B116281739
:103740003907E9F08091B2169091B316E091B61660
:10375000F091B716E80FF91F80818093CE00809119
:10376000B2169091B31601962091B4163091B51609
:10377000822393239093B3168093B21610C02091A6
:10378000B0163091B1168091B2169091B3162817E9
:10379000390729F48091C9008F7D8093C900FF917A
:1037A000EF919F918F913F912F910F900BBE0F90B2
:1037B0000FBE0F901F9018951F920F920FB60F9289
:1037C0000BB60F9211242F933F934F938F939F9398
:1037D000EF93FF93409136012091A0163091A116EE
:1037E0002F5F3F4F8091A4169091A516282339236F
:1037F0008091A2169091A3162817390779F080912D
:10380000A0169091A116E091A616F091A716E80FC8
:10381000F91F40833093A1162093A016FF91EF91DA
:103820009F918F914F913F912F910F900BBE0F90D1
:103830000FBE0F901F9018951F920F920FB60F9208
:103840000BB60F9211242F933F938F939F93EF9377
:10385000FF932091C2163091C3168091C0169091AB
:10386000C11628173907E9F08091C2169091C31646
:10387000E091C616F091C716E80FF91F808180937A
:1038800036018091C2169091C31601962091C416FC
:103890003091C516822393239093C3168093C2164A
:1038A00010C02091C0163091C1168091C21690911F
:1038B000C3162817390729F4809131018F7D809331
:1038C0003101FF91EF919F918F913F912F910F9037
:1038D0000BBE0F900FBE0F901F901895BF92CF9206
:1038E000DF92EF92FF920F931F93C090BB09D0908D
:1038F000BC09E090BD09F090BE09BB24C701B60128
:1039000020E030E048EC52E40F9427260F94C026C4
:103910002CE93FEF629F8001639F100D729F100D95
:103920001124C701B60120E030E040E251E40F94D9
:1039300027260F94C026060F171F012B11F0BB245A
:10394000B3948B2D1F910F91FF90EF90DF90CF904C
:10395000BF900895BF92CF92DF92EF92FF920F93A4
:103960001F93C090BB09D090BC09E090BD09F090B6
:10397000BE09BB24C701B60120E030E04AE754E4A9
:103980000F9427260F94C02628E13CEF629F800108
:10399000639F100D729F100D1124C701B60120E026
:1039A00030E048EC52E40F9427260F94C026060F0F
:1039B000171F012B11F0BB24B3948B2D1F910F9176
:1039C000FF90EF90DF90CF90BF9008954F925F925D
:1039D0006F927F928F929F92AF92BF92CF92DF921F
:1039E000EF92FF920F931F93DF93CF93CDB7DEB784
:1039F0002F970FB6F894DEBF0FBECDBF9A2DA982C8
:103A0000EB2DBA82FC2DCB82DC82ED82FE820F830D
:103A1000188729873A874B875C876D877E878F87D2
:103A20004C815D816E817F81A884B984CA84DB84E6
:103A30004C845D846E847F8497FE03C020E030E078
:103A40000BC08091E309A82FBB27A7FDB095940177
:103A5000A815B9050CF49D01890184E0000F111F20
:103A60008A95E1F7021B130B00501C4FE0FD02C0CA
:103A7000E0E006C0E0E0232B09F4E1E081E0E82784
:103A8000F999FECF1FBA12BD01BD90BD0FB6F894D3
:103A9000FA9AF99A0FBEC801AA2797FDA095BA2FE6
:103AA0000196A11DB11DF999FECF1FBA92BD81BD2E
:103AB000E0BD0FB6F894FA9AF99A0FBE7C018D0119
:103AC0000894E11CF11C011D111DF999FECF1FBACC
:103AD000F2BCE1BCF0BD0FB6F894FA9AF99A0FBEA9
:103AE0000894E11CF11C011D111DC701AFDC84E02D
:103AF00090E0A0E0B0E0E80EF91E0A1F1B1FC7010E
:103B0000B601A501A3DC84E090E0A0E0B0E0E80EFF
:103B1000F91E0A1F1B1FC701B301A20197DC2F96D4
:103B20000FB6F894DEBF0FBECDBFCF91DF911F91CE
:103B30000F91FF90EF90DF90CF90BF90AF909F904C
:103B40008F907F906F905F904F900895AF92BF924B
:103B5000CF92DF92EF92FF920F931F93DF93CF9359
:103B6000CDB7DEB728970FB6F894DEBF0FBECDBF36
:103B70009C0180911F0A992787FD909582179307D2
:103B800040F4AA24BB24650180E090E0A0E0B0E00E
:103B90001EC024513E4F93E0220F331F9A95E1F748
:103BA000790100E010E0C9012DDCAC01CB01DA01A4
:103BB0005C016D0184E090E0A0E0B0E0E80EF91E49
:103BC0000A1F1B1FC7011EDCAC01CB01DA01A98251
:103BD000BA82CB82DC828D839E83AF83B8872A2D05
:103BE0003A814B815C81682F7E818F8198852896F0
:103BF0000FB6F894DEBF0FBECDBFCF91DF911F91FE
:103C00000F91FF90EF90DF90CF90BF90AF9008950D
:103C100080916903882329F48091290C813009F06F
:103C200046C08091E5149091E614A091E714B091FC
:103C3000E8142091DC063091DD064091DE065091BB
:103C4000DF06821B930BA40BB50B80933D1690935C
:103C50003E16A0933F16B093401680913D1690916A
:103C60003E16A0913F16B0914016813526E492078A
:103C700020E0A20720E0B2072CF0805A9C48A04028
:103C8000B0400CC0803B29EB92072FEFA2072FEF2B
:103C9000B20724F480569347AF4FBF4F80933D1631
:103CA00090933E16A0933F16B09340160895E0916E
:103CB000FE13F091FF138091E5149091E614A0910A
:103CC000E714B091E814248D358D468D578DB9CF0A
:103CD0002091DC0C3091DD0C8091020D9091030D50
:103CE000281B390B253631051CF08AE0809380159E
:103CF0002C593F4F1CF486EF8093801580918015DE
:103D000018161CF48150809380158091801587FFD0
:103D100003C08F5F8093801580918015813019F0EA
:103D20008F3F09F080E00895CF93DF93FC01EB0112
:103D30004430510540F083859485A585B6858883F8
:103D40009983AA83BB8384E090E0DF91CF910895AB
:103D5000CF93DF93EC01FB014430510540F08081AB
:103D60009181A281B3818B879C87AD87BE8784E0D8
:103D700090E0DF91CF910895FC016385748585857E
:103D800096850D94F326FC01DB01452B11F083850C
:103D90008C9381E090E00895DC01FB01452B19F044
:103DA00080811B968C9381E090E00895FC016385EF
:103DB000772767FD7095872F972F0D94F326FC01C9
:103DC000DB014230510520F0838594858D939C93CF
:103DD00082E090E00895DC01FB014230510530F0B3
:103DE000808191811C969C938E931B9782E090E03A
:103DF0000895FC0163857485882777FD8095982F49
:103E00000D94F326FC012385348545855685B9013B
:103E1000CA010895CF93DF93FC01EB0144305105B3
:103E200040F083859485A585B68588839983AA8388
:103E3000BB8384E090E0DF91CF910895CF93DF932F
:103E4000EC01FB014430510540F080819181A28159
:103E5000B3818B879C87AD87BE8784E090E0DF913C
:103E6000CF910895EF92FF920F931F937A018B01E8
:103E70008632D9F087322CF4893081F0833181F594
:103E800007C08F36F1F0833721F1893349F513C02C
:103E9000E12C7BE4F72E012D112D28C060E8E62EE1
:103EA00065E2F62E012D112D21C0E12C56E9F52EEB
:103EB000012D112D1BC0E12C41EEF42E012D112DF1
:103EC00015C03CEFE32E31EBF32E31E0032F112D23
:103ED0000DC0E12C22ECF22E21E0022F112D06C0A4
:103EE00082EC95E062E070E20E94B0B5B701C801D3
:103EF0001F910F91FF90EF90089500D00F9282ECE8
:103F000095E0EDB7FEB79283818389EA95E09483CB
:103F100083830E9490B50F900F900F900F9008959B
:103F200022EC35E0882349F000D00F92EDB7FEB7C0
:103F3000328321838CE696E008C000D00F92EDB763
:103F4000FEB73283218388E696E0948383830E94C0
:103F500090B582EC95E0EDB7FEB79283818381E660
:103F600096E0948383830E9490B50F900F900F90FA
:103F70000F90089500D00F9282EC95E0EDB7FEB758
:103F8000928381838AE09BE0948383830E9490B52F
:103F90000F900F900F900F9080E0089500D00F9237
:103FA00082EC95E0EDB7FEB79283818381ED9CE0D2
:103FB000948383830E9490B580E090E00F900F90EF
:103FC0000F900F90F999FECF1FBA92BD81BD10BC22
:103FD0000FB6F894FA9AF99A0FBE0196F0E1803084
:103FE0009F0781F700D00F9282EC95E0EDB7FEB706
:103FF000928381838BEC9CE0948383830E9490B5B1
:104000000F900F900F900F9008950F931F938DB7FF
:104010009EB70A970FB6F8949EBF0FBE8DBFEDB73F
:10402000FEB7319602EC15E0ADB7BEB712961C9301
:104030000E9311978AE79DE0938382838091F50C1C
:104040009091F60C958384838091020D9091030DDD
:104050009783868380910F0D9091100D91878087B3
:104060000E9490B5EDB7FEB73196ADB7BEB71296C8
:104070001C930E93119787E69DE093838283809132
:10408000580D9091590D958384838091650D909181
:10409000660D978386838091720D9091730D918741
:1040A00080870E9490B5EDB7FEB73196ADB7BEB729
:1040B00012961C930E93119784E59DE0938382835F
:1040C0008091BB0D9091BC0D958384838091C80D28
:1040D0009091C90D978386838091D50D9091D60DCF
:1040E000918780870E9490B5EDB7FEB73196ADB746
:1040F000BEB712961C930E93119781E49DE09383B3
:10410000828380911E0E90911F0E958384838091EF
:104110002B0E90912C0E978386838091380E909170
:10412000390E918780870E9490B5EDB7FEB7319622
:10413000ADB7BEB712961C930E9311978EE29DE019
:10414000938382838091810E9091820E95838483E4
:1041500080918E0E90918F0E9783868380919B0E17
:1041600090919C0E918780870E9490B5EDB7FEB725
:104170003196ADB7BEB712961C930E9311978BE193
:104180009DE09383828380910A0F90910B0F95831A
:1041900084838091170F9091180F97838683809165
:1041A000240F9091250F918780870E9490B5EDB7DD
:1041B000FEB73196ADB7BEB712961C930E9311970A
:1041C00088E09DE0938382838091930F9091940F78
:1041D000958384838091A00F9091A10F978386830C
:1041E0008091AD0F9091AE0F918780870E9490B51E
:1041F000EDB7FEB73196ADB7BEB712961C930E93CE
:10420000119785EF9CE09383828380911C1090919D
:104210001D10958384838091291090912A10978393
:1042200086838091361090913710918780870E9405
:1042300090B58DB79EB70A960FB6F8949EBF0FBE85
:104240008DBF1F910F910895CF93DF93FC018DB720
:104250009EB744970FB6F8949EBF0FBE8DBF2DB783
:104260003EB72F5F3F4F82EC95E0ADB7BEB71296D9
:104270009C938E9311978FE79EE0E9019B838A833D
:1042800086899789A08DB18D8C839D83AE83BF83F2
:1042900085A196A1A7A1B0A588879987AA87BB8782
:1042A00084A995A9A6A9B7A98C879D87AE87BF8742
:1042B000ED5BFF4F80819181AA2797FDA095BA2FD2
:1042C000F901808B918BA28BB38B0E9490B58DB737
:1042D0009EB744960FB6F8949EBF0FBE8DBFDF9178
:1042E000CF9108958DB79EB740970FB6F8949EBFB3
:1042F0000FBE8DBFEDB7FEB7319682EC95E0ADB73E
:10430000BEB712969C938E9311978BE39FE0938395
:1043100082838091BC069091BD06A091BE06B091AB
:10432000BF0684839583A683B7838091C00690914E
:10433000C106A091C206B091C30680879187A2876B
:10434000B3878091C4069091C506A091C606B0912E
:10435000C70684879587A687B7870E9490B58DB7D3
:104360009EB740960FB6F8949EBF0FBE8DBF0895BE
:104370008DB79EB740970FB6F8949EBF0FBE8DBF06
:10438000EDB7FEB7319682EC95E0ADB7BEB71296A9
:104390009C938E9311978EE59FE093838283809107
:1043A000C8069091C906A091CA06B091CB06848335
:1043B0009583A683B7838091CC069091CD06A0917A
:1043C000CE06B091CF0680879187A287B387809170
:1043D000D0069091D106A091D206B091D3068487E1
:1043E0009587A687B7870E9490B58DB79EB74096F0
:1043F0000FB6F8949EBF0FBE8DBF089500D00F92E8
:1044000082EC95E0EDB7FEB7928381838EE190E177
:10441000948383830E9490B50F900F900F900F901C
:104420000895CF93DF93C2ECD5E0CE0162E675E04C
:104430000E94B0B58BE096E00E94CBDC882331F47B
:10444000CE0167E475E00E94B0B583C08BE096E0D2
:104450000E9471DE2DB73EB7285030400FB6F89459
:104460003EBF0FBE2DBFEDB7FEB73196ADB7BEB79D
:104470001296DC93CE93119780E295E0938382832A
:1044800080911C068483158280911D0690911E06E2
:10449000978386830E9490B5EDB7FEB73196ADB78E
:1044A000BEB71296DC93CE93119784E095E0938388
:1044B00082838091210690912206019695838483C0
:1044C00080911F0690912006978386830E9490B565
:1044D0002DB73EB7285F3F4F0FB6F8943EBF0FBED3
:1044E0002DBF60912106709122066F5F7F4F8BE098
:1044F00096E00E94B6D88BE096E00E94C6D9ADB790
:10450000BEB71C970FB6F894BEBF0FBEADBFEDB7D8
:10451000FEB731961296DC93CE93119721ED34E0DD
:1045200033832283648375838683978381E190E25A
:10453000A2E1B8E280879187A287B3870E9490B5F5
:104540002DB73EB7245F3F4F0FB6F8943EBF0FBE66
:104550002DBF80E0DF91CF9108958091130A8823C9
:1045600061F060912B0A662341F0615089EF95E07C
:104570000E9470C9885E934058F4E0912B15F09129
:104580002C15309711F480E00895128280E0089590
:10459000E091FE13F091FF1380A58823C1F381E021
:1045A00008956091E30A615089EF95E00E9470C917
:1045B0009C018F5893408B59944010F08FEF0895D1
:1045C000C9018F5C94408238910510F481E0089510
:1045D000C901815595408238910510F482E0089513
:1045E000C901835D95408238910510F483E00895F8
:1045F000C901855596408138910510F484E00895ED
:10460000265D364010F480E0089585E00895DF933C
:10461000CF9300D0CDB7DEB732E0398323E02A83D1
:104620003B8360E0AE014F5F5F4F0F94DA1B0F904A
:104630000F900F90CF91DF9108956F927F928F929C
:104640009F92AF92BF92CF92DF920F931F93DF930F
:10465000CF93CDB7DEB76B970FB6F894DEBF0FBE22
:10466000CDBF3C014B0180915003863011F1873062
:1046700048F4813079F1813098F08230A9F08530AA
:1046800089F414C08C3001F18D3028F48A30B1F0F7
:104690008B3041F416C08F3079F0803119F417C097
:1046A00012E019C010E017C015E015C016E001E0D7
:1046B00013C016E002E010C013E00DC014E003E0E8
:1046C0000BC014E005E008C014E008E005C010E0ED
:1046D00000E002C017E004E060917B0C70917C0C5C
:1046E000882777FD8095982F0F94F3266C8B7D8B10
:1046F0008E8B9F8B209128143091291440912A147D
:1047000050912B140F94422520E030E04AE754E406
:104710000F94EF282C893D894E895F890F942726B5
:104720000F94C5265B016C01609151037091520397
:10473000809153039091540320E030E04AE754E421
:104740000F94EF280F94C526688F798F8A8F9B8FDF
:104750006091CA147091CB148091CC149091CD14B7
:1047600020E030E04AE754E40F94EF280F94C52688
:104770007A836983888D998D9C838B83BE82AD8279
:1047800098868F8219870A8784E08B878A818C8735
:1047900089818D878C818E878B818F878E81888B95
:1047A0008D81898B88858A8B8F818B8BC30162E297
:1047B000AE01475F5F4F2BE00F94DA1B6B960FB68D
:1047C000F894DEBF0FBECDBFCF91DF911F910F9147
:1047D000DF90CF90BF90AF909F908F907F906F9021
:1047E00008952F923F924F925F926F927F928F9295
:1047F0009F92AF92BF92CF92DF92EF92FF920F9370
:104800001F93DF93CF93CDB7DEB7CE54D0400FB612
:10481000F894DEBF0FBECDBF2F969FAF8EAF2F9700
:10482000DE019596E6E0F7E084E201900D9281507A
:10483000E1F72091D9143091DA144091DB145091B2
:10484000DC142D962CAF3DAF4EAF5FAF2D9700918E
:10485000FE131091FF13D80154966D917D918D91A7
:104860009C9157972AE030E040E050E00F94E42913
:104870001B012C01F801608D718D828D938D0F9439
:10488000F3267B018C012DA13EA14FA158A50F94C9
:10489000EF280F94C0263B014C01C801B70129A99C
:1048A0003AA94BA95CA90F94EF280F94C0265B018D
:1048B0006C01C801B701FE01FD9620813181428162
:1048C00053810F94EF280F94C0262091D514309176
:1048D000D6144091D7145091D8142F833887498724
:1048E0005A872D962CAD3DAD4EAD5FAD2D972B87E4
:1048F0003C874D875E872F86388A498A5A8A7A8212
:104900006982BC82AB827E836D83FE013796838190
:104910008B8B82818C8B81818D8B8F818E8BFE0125
:104920003B9683818F8B8281888F8181898F8B8554
:104930008A8FFE013F9683818B8F82818C8F81814C
:104940008D8F8F858E8F8A818F8F898188A38C81AF
:1049500089A38B818AA38E818BA38D818CA32F96B3
:104960008EAD9FAD2F9769E4AE014D5E5F4F22E1A2
:104970000F94DA1BC25BDF4F0FB6F894DEBF0FBE99
:10498000CDBFCF91DF911F910F91FF90EF90DF90FE
:10499000CF90BF90AF909F908F907F906F905F90DF
:1049A0004F903F902F9008952F923F924F925F9299
:1049B0006F927F928F929F92AF92BF92CF92DF922F
:1049C000EF92FF920F931F93DF93CF93CDB7DEB794
:1049D000EE970FB6F894DEBF0FBECDBF9AAF89AF8A
:1049E0006091E1147091E2148091E3149091E414C9
:1049F0000F94F32620E030E048EC52E40F94272691
:104A00003B014C016091E5147091E6148091E7142C
:104A10009091E8140F94F32620E030E048EC52E443
:104A20000F9427260F94C0266BAF7CAF8DAF9EAF3F
:104A30006091E9147091EA148091EB149091EC1458
:104A40000F94F32620E030E048EC52E40F94272640
:104A50000F94C0261B012C014090ED145090EE14D1
:104A60006091F1147091F2148091F3149091F41408
:104A70000F94F32620E030E048EC52E40F94272610
:104A80007B018C016091F5147091F6148091F714FC
:104A90009091F8140F94F32620E030E048EC52E4B3
:104AA0000F9427265B016C018091F9149091FA1400
:104AB000A091FB14B091FC148DAB9EABAFABB8AF23
:104AC0006091DD147091DE148091DF149091E014F8
:104AD0000F94F32620E030E048EC52E40F942726B0
:104AE0006F83788789879A87C301D4018B879C87D6
:104AF000AD87BE87ABADBCADBA83A9833C822B82A8
:104B00005E824D82C701D8018F87988BA98BBA8BA3
:104B1000C501D6018B8B9C8BAD8BBE8B8DA99EA9BD
:104B2000AFA9B8AD8F8B988FA98FBA8FFE0137963A
:104B300083818B8F82818C8F81818D8F8F818E8FEE
:104B4000FE013B9683818F8F828188A3818189A317
:104B50008B858AA38A818BA389818CA38C818DA369
:104B60008B818EA38E818FA38D8188A7FE013F96B6
:104B7000838189A782818AA781818BA78F858CA752
:104B8000FE01739683818DA782818EA781818FA775
:104B90008B8988ABFE017796838189AB82818AAB52
:104BA00081818BAB8F898CAB89AD9AAD6EE3AE0101
:104BB000455E5F4F2AE10F94DA1BEE960FB6F8942C
:104BC000DEBF0FBECDBFCF91DF911F910F91FF9040
:104BD000EF90DF90CF90BF90AF909F908F907F909D
:104BE0006F905F904F903F902F900895CF92DF92FB
:104BF000EF92FF920F931F93DF93CF93CDB7DEB762
:104C0000A1970FB6F894DEBF0FBECDBF40913F0D08
:104C10005091400D6091A20D7091A30DE091050E91
:104C2000F091060EA091680EB091690E0091F10E00
:104C30001091F20EE0907A0FF0907B0FC09003106D
:104C4000D09004102091DC0C3091DD0C3A83298344
:104C50005C834B837E836D83F887EF83BA87A98754
:104C60001C870B87FE86ED86D88ACF862A81298B02
:104C700029812A8B2C812B8B2B812C8B2E812D8BA8
:104C80002D812E8B28852F8B2F81288F2A85298F88
:104C900029852A8F2C852B8F2B852C8F2E852D8F68
:104CA0002D852E8F28892F8F2F8528A321E029A3DA
:104CB00063E2AE014F5E5F4F21E10F94DA1BA196D4
:104CC0000FB6F894DEBF0FBECDBFCF91DF911F911D
:104CD0000F91FF90EF90DF90CF900895DF93CF93E7
:104CE000CDB7DEB764970FB6F894DEBF0FBECDBF69
:104CF000E0912115F0912215A0912315B091241572
:104D00004091F5145091F6146091F1147091F214E1
:104D10002091E5143091E6143A8329835C834B8318
:104D20007E836D8318861F82E987FA87AB87BC87ED
:104D30002A812D8729812E872C812F872B81288BF3
:104D40002E81298B2D812A8B28852B8B2F812C8BD3
:104D500061E7AE01475F5F4F2CE00F94DA1B64966A
:104D60000FB6F894DEBF0FBECDBFCF91DF9108958F
:104D7000CF92DF92EF92FF920F931F93DF93CF9327
:104D8000CDB7DEB7A0970FB6F894DEBF0FBECDBF8C
:104D900040914B0D50914C0D6091AE0D7091AF0D47
:104DA000E091110EF091120EA091740EB091750E5B
:104DB0000091FD0E1091FE0EE090860FF090870F8F
:104DC000C0900F10D09010102091E80C3091E90C99
:104DD0003A8329835C834B837E836D83F887EF83DB
:104DE000BA87A9871C870B87FE86ED86D88ACF866F
:104DF0002A81298B29812A8B2C812B8B2B812C8B2F
:104E00002E812D8B2D812E8B28852F8B2F81288F06
:104E10002A85298F29852A8F2C852B8F2B852C8FEE
:104E20002E852D8F2D852E8F28892F8F2F8528A3B6
:104E300065E2AE014F5E5F4F20E10F94DA1BA09652
:104E40000FB6F894DEBF0FBECDBFCF91DF911F919B
:104E50000F91FF90EF90DF90CF900895DF93CF9365
:104E600000D00F92CDB7DEB72091EF09332727FD91
:104E700030953A8329832A812B8329812C836AE206
:104E8000AE014D5F5F4F22E00F94DA1B0F900F9041
:104E90000F900F90CF91DF9108950F931F93DF93A1
:104EA000CF93CDB7DEB72E970FB6F894DEBF0FBE07
:104EB000CDBF8C0152DB882361F1E0912B15F0917D
:104EC0002C15309731F162817581268137814085BB
:104ED0005185838194819A8389832B833C834D837D
:104EE0005E836F838A818887898189877A87FE01BB
:104EF000339683818B8782818C8781818D878B819B
:104F00008E87C80162EAAE01495F5F4F28E00F94C7
:104F1000DA1B2E960FB6F894DEBF0FBECDBFCF9131
:104F2000DF911F910F910895DF93CF9300D000D0B0
:104F3000CDB7DEB7FC0187898823E9F04089518924
:104F40008091E309992787FD90958417950798F03C
:104F500083859485228934895A8349832B833C83B2
:104F60002A812D8329812E8368E2AE014D5F5F4F38
:104F700024E00F94DA1B26960FB6F894DEBF0FBE1E
:104F8000CDBFCF91DF910895EF92FF920F931F93C2
:104F9000DF93CF93CDB7DEB728970FB6F894DEBF77
:104FA0000FBECDBF7C010091FC181091FD180F942D
:104FB000F91E1A8309839C838B838A818D8389815F
:104FC0008E838C818F838B818887C70168E9AE01CE
:104FD0004B5F5F4F24E00F94DA1B28960FB6F894CE
:104FE000DEBF0FBECDBFCF91DF911F910F91FF901C
:104FF000EF9008952F923F924F925F926F927F921F
:105000008F929F92AF92BF92CF92DF92EF92FF92D8
:105010000F931F93DF93CF93CDB7DEB7CA54D04021
:105020000FB6F894DEBF0FBECDBF2B969FAF8EAFED
:105030002B978091620790916307A0916407B091CC
:10504000650729968CAF9DAFAEAFBFAF2997809112
:105050005E0790915F07A0916007B0916107259668
:105060008CAF9DAFAEAFBFAF259720905A07309061
:105070005B0740905C0750905D070F9418219B01DF
:10508000AC01E090E006F090E1060091E20610919C
:10509000E306A090E406B090E506C090E606D09046
:1050A000E7066090E8067090E9068090EA06909026
:1050B000EB06698F3A8F4B8F5C8F1D8E1E8E1F8E75
:1050C00018A2E982FA820B831C83AD82BE82CF8252
:1050D000D88669867A868B869C862D863E864F8604
:1050E000588A25968CAD9DADAEADBFAD2597898B09
:1050F0009A8BAB8BBC8B29968CAD9DADAEADBFAD05
:1051000029978D8B9E8BAF8BB88F8E010F5D1F4FB4
:10511000C801BE01675E7F4F0E94981AFE0131965A
:10512000838189A782818AA781818BA789818CA7A6
:10513000FE01359683818DA782818EA781818FA7FD
:105140008D8188ABFE013996838189AB82818AABE0
:1051500081818BAB89858CABFE013D9683818DABC4
:1051600082818EAB81818FAB8D8588AFFE01719678
:10517000838189AF82818AAF81818BAF89898CAF2E
:10518000FE01759683818DAF82818EAF81818FAF55
:105190008D89FE01E05CFF4F80832B968EAD9FAD25
:1051A0002B976EE1A80120E20F94DA1BC65BDF4F5C
:1051B0000FB6F894DEBF0FBECDBFCF91DF911F9128
:1051C0000F91FF90EF90DF90CF90BF90AF909F90A6
:1051D0008F907F906F905F904F903F902F900895A9
:1051E0002F923F924F925F926F927F928F929F92F7
:1051F000AF92BF92CF92DF92EF92FF920F931F93E5
:10520000DF93CF93CDB7DEB7C655D0400FB6F89435
:10521000DEBF0FBECDBF1C010F9418215B016C01D6
:105220008090FE139090FF13F401F7A92B96FFAF27
:105230002B97F40164857585868597850F94F326F1
:1052400020E836E948E15BE40F9427262B013C0176
:10525000F40160897189828993890F94F32620E88B
:1052600036E948E15BE40F9427262F966CAF7DAFBB
:105270008EAF9FAF2F97F4016489758986899789CE
:105280000F94F32620E030E048EC52E40F942726F8
:1052900063966CAF7DAF8EAF9FAF6397F40164A14F
:1052A00075A1882777FD8095982F0F94F3266D8739
:1052B0007E878F87988BF401608D718D828D938DA1
:1052C0000F94F32620E030E048EC52E40F942726B8
:1052D00067966CAF7DAF8EAF9FAF6797F401648D1B
:1052E000758D868D978D0F94F32620E030E048EC85
:1052F00052E40F942726AD8EBE8ECF8ED8A219A26F
:105300001AA21BA21CA29201A30129833A834B83F8
:105310005C832C96EFAD2C972D96FFAD2D972E9696
:10532000AFAD2E972F96BFAD2F979F01AD012D8367
:105330003E834F8358876096EFAD60976196FFADCF
:1053400061976296AFAD62976396BFAD63979F0119
:10535000AD0129873A874B875C8720E030E040E049
:1053600050E0298B3A8B4B8B5C8B6496EFAD649746
:105370006596FFAD65976696AFAD66976796BFADCC
:1053800067979F01AD012D8B3E8B4F8B588FAC01E2
:10539000CB01DA01898F9A8FAB8FBC8F8E010B5DA9
:1053A0001F4FC801BE01635E7F4F0E94981A2B9663
:1053B000FFAD2B97FDA7FE01319683818EA78281D9
:1053C0008FA7818188AB898189ABFE013596838166
:1053D0008AAB82818BAB81818CAB8D818DABFE01E1
:1053E000399683818EAB82818FAB818188AF89852D
:1053F00089AFFE013D9683818AAF82818BAF818127
:105400008CAF8D858DAFFE01719683818EAF8281C9
:105410008FAF8181FE01E05CFF4F80838989FE01AF
:10542000EF5BFF4F8083DE01559613968C911397A7
:10543000FE01EE5BFF4F808312968C911297FE0166
:10544000ED5BFF4F808311968C91FE01EC5BFF4F6B
:1054500080838D89FE01EB5BFF4F8083DE015996CF
:1054600013968C911397FE01EA5BFF4F808312968F
:105470008C911297FE01E95BFF4F808311968C910E
:10548000FE01E85BFF4F8083898DFE01E75BFF4FE4
:105490008083C10160E2A80125E20F94DA1BCA5A99
:1054A000DF4F0FB6F894DEBF0FBECDBFCF91DF91B7
:1054B0001F910F91FF90EF90DF90CF90BF90AF9032
:1054C0009F908F907F906F905F904F903F902F9024
:1054D00008952F923F924F925F926F927F928F9298
:1054E0009F92AF92BF92CF92DF92EF92FF920F9373
:1054F0001F93DF93CF93CDB7DEB7C256D0400FB620
:10550000F894DEBF0FBECDBFA3969FAF8EAFA3971B
:105510000091FD141091FE14E090FF14F09000151E
:10552000C0900115D0900215A0900315B0900415FD
:1055300080900515909006156090071570900815DD
:105540004090091550900A1520900B1530900C15BD
:1055500080910D1590910E15A1969FAF8EAFA197DA
:1055600080910F15909110156F969FAF8EAF6F972A
:1055700080911115909112156D969FAF8EAF6D971A
:1055800080911315909114156B969FAF8EAF6B970A
:10559000809115159091161569969FAF8EAF6997FA
:1055A000809117159091181567969FAF8EAF6797EA
:1055B0008091191590911A1565969FAF8EAF6597DA
:1055C00080911B1590911C1563969FAF8EAF6397CA
:1055D0000F9418219B01AC011A830983FC82EB8292
:1055E000DE82CD82B886AF829A8689867C866B867B
:1055F0005E864D86388A2F86A1968EAD9FADA19787
:105600009A8B898B6F968EAD9FAD6F979C8B8B8B92
:105610006D968EAD9FAD6D979E8B8D8B6B968EAD7F
:105620009FAD6B97988F8F8B69968EAD9FAD699765
:105630009A8F898F67968EAD9FAD67979C8F8B8F62
:1056400065968EAD9FAD65979E8F8D8F63968EAD5F
:105650009FAD639798A38F8F29A33AA34BA35CA315
:105660001DA21EA21FA218A68A8189A789818AA7C6
:105670008C818BA78B818CA78E818DA78D818EA726
:1056800088858FA78F8188AB8A8589AB89858AAB0E
:105690008C858BAB8B858CAB8E858DAB8D858EABE6
:1056A00088898FAB8F8588AF8A8989AF89898AAFCE
:1056B0008C898BAF8B898CAF8E898DAF8D898EAFA6
:1056C000888D8FAF8F89FE01E05CFF4F80838A8DCC
:1056D000FE01EF5BFF4F8083898DFE01EE5BFF4F84
:1056E00080838C8DFE01ED5BFF4F80838B8DFE01EF
:1056F000EC5BFF4F80838E8DFE01EB5BFF4F808361
:105700008D8DFE01EA5BFF4F808388A1FE01E95B7E
:10571000FF4F80838F8DFE01E85BFF4F80838E01FA
:10572000075D1F4FC8018096BE016F5D7F4F0E94CD
:10573000981AA3968EAD9FADA3976FE6A80128E2B5
:105740000F94DA1BCE59DF4F0FB6F894DEBF0FBEB1
:10575000CDBFCF91DF911F910F91FF90EF90DF9020
:10576000CF90BF90AF909F908F907F906F905F9001
:105770004F903F902F9008952F923F924F925F92BB
:105780006F927F928F929F92AF92BF92CF92DF9251
:10579000EF92FF920F931F93DF93CF93CDB7DEB7B6
:1057A000C65CD0400FB6F894DEBF0FBECDBFCB565F
:1057B000DF4F99838883C559D0406091FD14709163
:1057C000FE14882777FD8095982F0F94F3262CEAF6
:1057D0003BEA42EC5DE30F94EF2827E635E543E62C
:1057E00052E40F9442255B016C016091FF147091AB
:1057F0000015882777FD8095982F0F94F32626E6CD
:1058000035E842EA5DE30F94EF2827E935E642E305
:1058100052E40F9442253B014C01609101157091B7
:105820000215882777FD8095982F0F94F3262FE097
:105830003DEE43EE5DE30F94EF2829E336E04FE7BA
:1058400052E40F9442251B012C01609103157091C5
:105850000415882777FD8095982F0F94F3262FE065
:1058600038E442EE5DEB0F94EF282DE433E14FE78F
:1058700052E40F944325C956DF4F688379838A83A6
:105880009B83C759D04060910515709106158827F4
:1058900077FD8095982F0F94F32627E934EE40EAA0
:1058A0005DEB0F94EF2825EB33E444E352E40F94CF
:1058B0004325C556DF4F688379838A839B83CB5901
:1058C000D0406091071570910815882777FD809565
:1058D000982F0F94F3262CE537EE4FE95DE30F94F4
:1058E000EF2828EE3AEB4EE252E40F944225C156DF
:1058F000DF4F688379838A839B83CF59D04060913F
:10590000091570910A15882777FD8095982F0F94B7
:10591000F32623EC32E644E25EE30F94EF282EE018
:105920003BEE4EEA52E40F944225CD55DF4F68839B
:1059300079838A839B83C35AD04060910B15709101
:105940000C15882777FD8095982F0F94F32629E56D
:1059500033E546ED5EE30F94EF2823E333E345E6BA
:1059600053E40F944225C955DF4F688379838A83B6
:105970009B83C75AD04060910D1570910E158827F2
:1059800077FD8095982F0F94F32629E533E546EDB2
:105990005EE30F94EF282DEC3CE442E653E40F94D1
:1059A0004225C555DF4F688379838A839B83CB5A11
:1059B000D04060910F1570911015882777FD809564
:1059C000982F0F94F32623EC35EF48E25EE30F9413
:1059D000EF2820E138ED4CE652E40F944325C15501
:1059E000DF4F688379838A839B83CF5AD04060914D
:1059F0001D1570911E1580911F15909120150F9403
:105A0000F326CF56DF4F688379838A839B83C159FE
:105A1000D0406091131570911415882777FD8095FB
:105A2000982F0F94F32628EC3FE34FED50E40F94AA
:105A3000EF2824EB37E949E252E40F944225CD5494
:105A4000DF4F688379838A839B83C35BD0406091F7
:105A5000151570911615882777FD8095982F0F944E
:105A6000F3262DE637EE4BEF5DE30F94EF2822EFA0
:105A700032ED4DE050E40F944225C954DF4F688366
:105A800079838A839B83C75BD0406091171570919F
:105A90001815882777FD8095982F0F94F32628E412
:105AA0003FEB4DEF5DE30F94EF2824E734E24FEE38
:105AB0005FE30F944225C554DF4F688379838A835F
:105AC0009B83CB5BD0406091191570911A15882784
:105AD00077FD8095982F0F94F32620E030E040E08A
