:100000000C94F30E0C9435D20C9466D20C9497D2C7
:100010000C94C8D20C94F9D20C942AD30C945BD3D0
:100020000C948CD30C94200F0C94200F0C94200F64
:100030000C94200F0C94200F0C94200F0C94C8B03B
:100040000C94200F0C94200F0C94200F0C94200F74
:100050000C94200F0C94200F0C94200F0C94BDD303
:100060000C94200F0C94BC170C94FC170C94200FCC
:100070000C94200F0C94200F0C94200F0C94200F44
:100080000C94200F0C94200F0C94200F0C94200F34
:100090000C944E180C948E180C94200F0C94E5B30D
:1000A0000C94200F0C94F5B00C94200F0C94200F9E
:1000B0000C94200F0C94200F0C9422B10C94200F60
:1000C0000C94200F0C94200F0C94200F0C94200FF4
:1000D0000C94200F0C94200F0C94E0180C94201911
:1000E0000C94200F6D5583558A5574557C55915548
:1000F000C955BB55B455A655FC55FC55FC55C255C4
:1001000098559F55DE55CF55EE55F455AD55084AD7
:10011000D73B3BCE016E84BCBFFDC12F3D6C74311B
:100120009ABD56833DDA3D00C77F11BED9E4BB4C72
:100130003E916BAAAABE000000803F07634236B71B
:100140009BD8A71A39685618AEBAAB558C1D3CB768
:10015000CC5763BD6DEDFD753EF6177231BF0000E3
:1001600000803F05A84CCDB2D44EB93836A9020C58
:1001700050B9918688083CA6AAAA2ABE0000008031
:100180003F0664EC1B3C04BC163E3BE5B93CC93C55
:1001900037C29E5A3D660498083EEA69AAAA3E0004
:1001A0000000803F4C6F670064756D7000000000B8
:1001B000000000000000EB456572617365000000FF
:1001C0000000000000001A3E656E61626C65000070
:1001D000000000000000483D64697361626C6500C6
:1001E000000000000000483D706C616E6E6572009A
:1001F0006763730000000000000000000000207E24
:10020000736574757000726573657400000000009A
:1002100000000000113D726164696F000000000081
:10022000000000008B5B6D6F6465730000000000D0
:1002300000000000F65A636F6D7061737300000078
:1002400000000000883C6465636C696E6174696FCE
:100250006E000000743C6261747465727900000085
:10026000000000004D3C73686F7700000000000044
:1002700000000000183C657261736500000000001A
:1002800000000000712141726475506C616E652040
:1002900056322E32372053696D756C6174696F6EFA
:1002A000204D6F6465006C6F6773000000000000F4
:1002B00000000000563B736574757000000000007C
:1002C000000000003E3B74657374000000000000F5
:1002D00000000000263B68656C7000000000000014
:1002E00000000000501D706C616E6E6572000000B1
:1002F000000000000E3B746573740070776D0000A1
:10030000000000000000000000855A726164696FFF
:10031000000000000000000000025A706173737456
:10032000687275000000000000BD376661696C737B
:100330006166650000000000000259626174746526
:10034000727900000000000000B92572656C6179C7
:100350000000000000000000006D23776179706FDD
:10036000696E747300000000005A227862656500AF
:100370000000000000000000009621656564756DB6
:1003800070000000000000000002216D6F646573C2
:100390007769746368000000007B206C6F67676991
:1003A0006E6700000000000000A91F466F726D61BB
:1003B000742076657273696F6E3A20256C78202000
:1003C000457870656374656420666F726D61742032
:1003D00076657273696F6E3A20256C780A004E75E7
:1003E0006D50616765733A202575202050616765FF
:1003F00053697A653A2025750A004D616E7566610C
:100400006374757265723A20307825303278202016
:10041000204465766963653A203078253034780A5F
:10042000004552523A204E6F2064617461666C61DF
:10043000736820696E7365727465640054657374C3
:10044000696E672064617461666C617368206C6FAB
:100450006767696E6700506F736974696F6E2025F6
:10046000640A00436F6E74726F6C2043482000482A
:10047000697420456E74657220746F2065786974A4
:100480002E0A0A00202530327800253034783A00D0
:10049000426567696E205842656520582D43545562
:1004A0002052616E676520616E642052535349206B
:1004B000546573743A0A004C6F69746572207261F6
:1004C000646975733A2025640A0A004869742072C9
:1004D00061646975733A2025640A00256420776198
:1004E00079706F696E74730A00486F6C6420616C78
:1004F000746974756465206F662025646D0A004810
:100500006F6C642063757272656E7420616C7469BF
:10051000747564650A00636F6D6D616E6420233AC3
:100520002025642069643A2564206F7074696F6EB9
:10053000733A25642070313A25642070323A256C74
:10054000642070333A256C642070343A256C642042
:100550000A0052656C6179206F66660A0052656C0C
:100560006179206F6E0A004E6F7420656E61626C57
:1005700065640A00566F6C74733A20313A25322E46
:1005800032662C20323A25322E32662C20333A2520
:10059000322E32662C20343A25322E32660A004C36
:1005A0004F5320636175736564206E6F20636861CB
:1005B0006E676520696E2041504D2E0A00544852E6
:1005C0004F54544C45204641494C534146452041E7
:1005D00043544956415445443A2025642C20004355
:1005E0004F4E54524F4C204D4F4445204348414EAE
:1005F0004745443A20005448524F54544C452043F8
:1006000048414E474544202564200A00556E706CD1
:10061000756720626174746572792C207468726FDA
:1006200074746C6520696E206E65757472616C2CD3
:10063000207475726E206F666620726164696F2E19
:100640000A004D5347204653204F4646202575004B
:100650004D5347204653204F4E20257500494E20CC
:10066000313A20256409323A20256409333A20259D
:100670006409343A20256409353A20256409363A5C
:1006800020256409373A20256409383A2025640A70
:1006900000494E3A09313A20256409323A2025644E
:1006A00009333A20256409343A20256409353A2073
:1006B000256409363A20256409373A20256409382B
:1006C0003A2025640A00506C616E6E6572204D6F91
:1006D00064650A0A54686973206D6F6465206973E4
:1006E000206E6F7420696E74656E64656420666F39
:1006F00072206D616E75616C207573650A0A004326
:100700006F6D6D616E64733A0A20206C6F677320A1
:10071000202020202020206C6F6720726561646299
:1007200061636B2F7365747570206D6F64650A204B
:10073000207365747570202020202020207365743C
:100740007570206D6F64650A2020746573742020B5
:1007500020202020202074657374206D6F64650A4A
:100760000A4D6F76652074686520736C6964652036
:1007700073776974636820616E6420726573657451
:1007800020746F20464C592E0A0A00546573742059
:100790004D6F64650A0A005365747570204D6F646F
:1007A000650A0A494D504F5254414E543A206966E9
:1007B00020796F752068617665206E6F7420707285
:1007C0006576696F75736C792073657420746869D8
:1007D000732073797374656D2075702C2075736543
:1007E000207468650A2772657365742720636F6DCE
:1007F0006D616E6420746F20696E697469616C69E3
:100800007A652074686520454550524F4D20746FBD
:100810002073656E7369626C652064656661756CD2
:10082000742076616C7565730A616E642074686506
:100830006E207468652027726164696F2720636F7A
:100840006D6D616E6420746F20636F6E666967758D
:10085000726520666F7220796F75722072616469AB
:100860006F2E0A0A000A54797065202759272061E3
:100870006E642068697420456E74657220746F2000
:10088000657261736520616C6C20776179706F6946
:100890006E7420616E6420706172616D6574657242
:1008A00020646174612C20616E79206F74686572B8
:1008B000206B657920746F2061626F72743A20003A
:1008C000646F6E650A000A45726173696E67204540
:1008D0004550524F4D0A005261772056616C756544
:1008E000730A00526164696F0A004348383A202550
:1008F00064207C202564207C2025640A004348373E
:100900003A202564207C202564207C2025640A0070
:100910004348363A202564207C202564207C20250D
:10092000640A004348353A202564207C2025642051
:100930007C2025640A004348343A202564207C202A
:100940002564207C2025640A004348333A2025642E
:10095000207C202564207C2025640A004348323A0C
:10096000202564207C202564207C2025640A004307
:1009700048313A202564207C202564207C20256491
:100980000A004D6F6E69746F72696E6720766F6CC6
:10099000747320616E642063757272656E74004DAD
:1009A0006F6E69746F72696E67206261747420760D
:1009B0006F6C7473004D6F6E69746F72696E67202F
:1009C000342063656C6C004D6F6E69746F72696E74
:1009D0006720332063656C6C0042617474206D6F16
:1009E0006E69746F72696E672064697361626C65A9
:1009F000640042617474204D6F696E746F720A00F6
:100A00006E617620706974636820616C743A0A00C4
:100A1000656E6572677279207468726F74746C6544
:100A20003A0A006E617620706974636820616972A9
:100A300073706565643A0A006E617620726F6C6C43
:100A40003A0A00736572766F207275646465723A53
:100A50000A00736572766F2070697463683A0A00E1
:100A6000736572766F20726F6C6C3A0A0047616929
:100A70006E730A00503A2025342E33662C20493AF2
:100A800025342E33662C20443A25342E33662C2010
:100A9000494D41583A256C640A0058545241434B21
:100AA0003A2025342E32660A58545241434B206175
:100AB0006E676C653A2025640A0043726F73737425
:100AC0007261636B0A006D696E3A2025640A6D617C
:100AD000783A2025640A6372756973653A20256443
:100AE0000A6661696C736166655F656E61626C65FB
:100AF000643A2025640A6661696C736166655F7695
:100B0000616C75653A2025640A005468726F7474CC
:100B10006C650A00466C69676874206D6F64657364
:100B20000A00506F732025643A2000494D550A0091
:100B30004779726F206F6666736574733A20253447
:100B40002E32662C2025342E32662C2025342E326F
:100B5000660A00416363656C206F66667365747333
:100B60003A2025342E32662C2025342E32662C2055
:100B700025342E32660A004D6167206F6666736504
:100B800074733A2025342E34662C2025342E346696
:100B90002C2025342E34660A004D6167204465639D
:100BA0006C696E6174696F6E3A2025342E34660A62
:100BB000003F3F0048494C00484D4335383433002E
:100BC000484D43353838334C00436F6D7061737353
:100BD0003A200061626C65640A0064697300656EA6
:100BE000002D000A4F7074696F6E733A20302D34F7
:100BF000000A4F7074696F6E733A5B6F6E2C6F668C
:100C0000665D0A006F666600436F6D7061737320E6
:100C1000696E697469616C69736174696F6E20666D
:100C200061696C656421006F6E000A4D6F76652006
:100C3000524320746F67676C6520737769746368CB
:100C400020746F206561636820706F736974696FC9
:100C50006E20746F20656469742C206D6F7665203A
:100C600061696C65726F6E20737469636B20746F59
:100C70002073656C656374206D6F6465732E000A64
:100C800053617665642053657474696E67730A0AEC
:100C9000000A4D6F766520616C6C20636F6E747214
:100CA0006F6C7320746F206561636820657874725F
:100CB000656D652E2048697420456E7465722074D8
:100CC0006F20736176653A200A000A4E6F207261C8
:100CD00064696F3B20436865636B20636F6E6E656C
:100CE00063746F72732E000A0A526164696F205335
:100CF000657475703A0A000A464143544F525920B0
:100D0000524553455420636F6D706C657465202D9A
:100D100020706C6561736520726573657420415045
:100D20004D20746F20636F6E74696E7565000A5490
:100D30007970652027592720616E642068697420C6
:100D4000456E74657220746F20706572666F726D87
:100D500020666163746F72792072657365742C20EC
:100D6000616E79206F74686572206B657920746F8D
:100D70002061626F72743A2000656E61626C65007A
:100D800043555200434D4400524157004D4F444596
:100D9000004E54554E004354554E00504D004750A0
:100DA000530041545449545544455F4D4544004116
:100DB000545449545544455F4641535400616C6C4A
:100DC000006D697373696E67206C6F67207479704A
:100DD000650A000A4C6F67206572617365642E0AAC
:100DE000000A45726173696E67206C6F672E2E2E44
:100DF0000A00446F6E650A0044756D70696E672065
:100E00004C6F672025642C2020202073746172743D
:100E10002070672025642C202020656E6420706778
:100E20002025640A00626164206C6F67206E756D16
:100E30006265720A0064756D70696E6720616C6C22
:100E40000A0025640A0025642C09004446207061CC
:100E500067652C206C6F672066696C6520232C20E9
:100E60006C6F6720706167653A2025642C09004E1D
:100E7000756D626572206F66207061636B65747357
:100E800020726561643A2025640A000A4172647523
:100E9000506C616E652056322E32372053696D7565
:100EA0006C6174696F6E204D6F64650A467265658A
:100EB0002052414D3A2025750A00454447453534B6
:100EC000302D54205232004572726F72205265618B
:100ED00064696E6720454E445F425954453A202567
:100EE000640A004572726F722052656164696E67B0
:100EF000205061636B65743A2025640A00415454A4
:100F00003A2025642C2025642C2025750A004D4F9D
:100F1000443A004354554E3A004E54554E3A20251B
:100F2000342E34662C2025642C2025342E34662C57
:100F30002025342E34662C2025342E34662C202592
:100F4000342E34662C2025342E34662C0A00504D65
:100F50003A005241573A00434D443A0043555252E9
:100F60003A2025642C2025342E34662C2025342E5E
:100F700034662C2025640A0020256420636F6D6D83
:100F8000616E647320696E206D656D6F72790A0001
:100F9000554E4B4E4F574E205354415254555020AE
:100FA0002D200047524F554E442053544152542057
:100FB0002D2000414952205354415254202D2000ED
:100FC0004750533A20256C642C2025642C2025643E
:100FD0002C2025342E37662C2025342E37662C20E5
:100FE00025642C2025342E34662C2025342E34669E
:100FF0002C2025342E34662C2025342E34660A000D
:10100000414C5432505443485F00454E5247593288
:101010005448525F005957325352565F0041525361
:101020005032505443485F00505443483253525654
:101030005F00524C4C325352565F0048444E473288
:10104000524C4C5F005243385F005243375F0052AE
:1010500043365F005243355F005243345F005243D2
:10106000335F005243325F005243315F00464C41D0
:10107000505F325F535045454400464C41505F320B
:101080005F504552434E5400464C41505F315F53D0
:101090005045454400464C41505F315F50455243F6
:1010A0004E540041525350445F454E41424C45001E
:1010B000534F4E41525F454E41424C4500494E56BA
:1010C0004552544544464C545F43480042415454B1
:1010D0005F434150414349545900494E5055545F74
:1010E000564F4C545300414D505F5045525F564F40
:1010F0004C5400564F4C545F4449564944455200A5
:10110000424154545F4D4F4E49544F52004D414758
:101110005F454E41424C4500474E445F4142535F5C
:10112000505245535300474E445F54454D50004183
:101130004C545F484F4C445F52544C005452494DFC
:101140005F50495443485F4344004D494E5F474E0A
:10115000445350445F434D005452494D5F415253F4
:1011600050445F434D005253545F535749544348D2
:101170005F4348004C4F475F4C41535446494C45F0
:10118000004C4F475F4249544D41534B0053595314
:101190005F4E554D5F52455345545300454C45569F
:1011A0004F4E5F4348325F52455600454C45564FBF
:1011B0004E5F4348315F52455600454C45564F4EB1
:1011C0005F5245564552534500454C45564F4E5F7C
:1011D0004D4958494E47005357495443485F454E7F
:1011E00041424C45005452494D5F4155544F004CCB
:1011F000494D5F50495443485F4D494E004C494D5D
:101200005F50495443485F4D4158004C494D5F522F
:101210004F4C4C5F434400464C544D4F44453600C0
:10122000464C544D4F44453500464C544D4F444573
:101230003400464C544D4F44453300464C544D4FBA
:1012400044453200464C544D4F44453100464C54C1
:101250004D4F44455F43480046535F4743535F4506
:101260004E41424C0046535F4C4F4E475F41435402
:101270004E0046535F53484F52545F4143544E0013
:101280005452494D5F5448524F54544C45005448B1
:10129000525F46535F56414C5545005448525F4695
:1012A00041494C53414645005448525F534C4557C1
:1012B00052415445005448525F4D415800544852E1
:1012C0005F4D494E00414C545F484F4C445F46428D
:1012D00057434D0041525350445F4642575F4D4182
:1012E000580041525350445F4642575F4D494E00AB
:1012F00046454E43455F4D4158414C540046454E8E
:1013000043455F4D494E414C540046454E43455F71
:101310004348414E4E454C0046454E43455F544F71
:1013200054414C0046454E43455F414354494F4E5E
:101330000057505F4C4F495445525F52414400574B
:10134000505F52414449555300434D445F494E4418
:10135000455800434D445F544F54414C0041525353
:1013600050445F4F46465345540041525350445FEA
:10137000524154494F00414C545F4D495800585414
:10138000524B5F414E474C455F4344005854524BCB
:101390005F4741494E5F5343004B46465F544852B6
:1013A0003250544348004B46465F505443483254F1
:1013B0004852004B46465F524444524D4958004BF8
:1013C00046465F50544348434F4D500053455249A1
:1013D000414C335F424155440053595349445F4D9A
:1013E000594743530053595349445F544849534D57
:1013F00041560053595349445F53575F5459504520
:101400000053595349445F53575F4D52455600446A
:101410005A00524556004D4158005452494D004D16
:10142000494E00414E474C455F4D415800414E47A3
:101430004C455F4D494E0046554E4354494F4E0072
:10144000494D4158004400490050004C6F67202529
:10145000642C2020202073746172742025642C2059
:101460002020656E642025640A000A2564206C6FC4
:1014700067730A000A4E6F206C6F67730A0A004395
:1014800055520020255300434D440020255300525F
:10149000415700202553004D4F444500202553005F
:1014A0004E54554E00202553004354554E002025E0
:1014B0005300504D00202553004750530020255322
:1014C0000041545449545544455F4D45440020253E
:1014D000530041545449545544455F4641535400C8
:1014E000202553006E6F6E65006C6F677320656E0C
:1014F00061626C65643A200067707320616C743AB5
:1015000020256C7500696E697420686F6D65002B0D
:1015100000496E76616C69642053455249414C33F1
:101520005F42415544006261642066656E636520D8
:10153000706F696E74006261642066656E63652019
:10154000706F696E740066656E63696E67206D7595
:1015500073742062652064697361626C65640066FF
:101560006C6967687420706C616E20726563656970
:101570007665640043757272656E742057617950A8
:101580006F696E74204E4F54204D4F444946494573
:10159000440043757272656E7420576179506F69AB
:1015A0006E74204D4F444946494544006163746957
:1015B0006F6E2072656365697665643A20006F75A9
:1015C00074206F6620636F6D6D616E6473210052CD
:1015D000657475726E696E6720746F20486F6D65F3
:1015E00000496E20646F5F6368616E67655F796153
:1015F0007728292E20205461726765742068656100
:1016000064696E673A202569004A756D7073206CB5
:101610006566743A202569004261642052657175DF
:10162000657374202D2063616E6E6F742063686132
:101630006E676520746F206E6F6E2D4E617620632D
:101640006D64002564207365636F6E647320746F2E
:1016500020726561636820776179706F696E740AC2
:10166000002564207365636F6E647320746F20724D
:101670006561636820776179706F696E740A0045EF
:101680005854524133004558545241320045585441
:1016900052413100504F534954494F4E0052415727
:1016A0005F4354524C0052435F4348414E004558FB
:1016B000545F53544154005241575F53454E5300B9
:1016C0005352335F005352305F00666C6967687431
:1016D000206D6F6465203D202575004661696C733F
:1016E000616665202D2053686F7274206576656E83
:1016F00074206F6E2C20004661696C7361666520F2
:101700002D2053686F7274206576656E74206F6645
:10171000660067656F2D66656E6365207472696724
:1017200067657265640067656F2D66656E63652029
:101730004F4B0067656F2D66656E6365207365743A
:101740007570206572726F720067656F2D66656EC9
:101750006365206C6F61646564003C6E61766967E7
:101760006174653E205750206572726F72202D2083
:1017700064697374616E6365203C20300076657225
:101780006966795F6E61763A20496E76616C69644C
:10179000206F72206E6F2063757272656E74204EBA
:1017A000617620636D64004D6973736564205750E2
:1017B000005265616368656420576179706F696E76
:1017C0007420232569007665726966795F6E61769B
:1017D0003A204C4F49544552206F7262697473200D
:1017E000636F6D706C657465007665726966795FAC
:1017F0006E61763A204C4F495445522074696D65AC
:1018000020636F6D706C6574650052656163686517
:101810006420686F6D65007665726966795F636FD5
:101820006E6469746F6E3A20496E76616C696420EB
:101830006F72206E6F2063757272656E7420436FD5
:101840006E646974696F6E20636D6400666C6967AD
:101850006874206D6F6465203D20257500466169C0
:101860006C73616665202D204C6F6E672065766510
:101870006E74206F6E2C200044657369726564205D
:101880007370656564202564206469737420256421
:101890002074696D652025640A004465736972656A
:1018A0006420737065656420256420646973742006
:1018B00025642074696D652025640A004465736998
:1018C00072656420737065656420256420646973A3
:1018D000742025642074696D652025640A004465C0
:1018E0007369726564207370656564202564206483
:1018F0006973742025642074696D652025640A006D
:101900000A0A000A0A002020202020776974682033
:10191000534C565F414952535045454443414C0A4C
:101920000020202020207769746820534C565F41A6
:101930004952535045454443414C0A005475726E18
:1019400020416E74696369706174696F6E20456EC1
:1019500061626C656400466F75722044205761793E
:10196000706F696E7473002020202020776974687E
:10197000204D4D5F41444445440A00202020202052
:1019800077697468204D4D5F41444445440A002006
:10199000202020207769746820534C565F414444CE
:1019A00045440A0020202020207769746820534C89
:1019B000565F41444445440A00696E2053696D7581
:1019C0006C6174696F6E206D6F64652100466C797F
:1019D000696E672052322056656869636C65000A3B
:1019E000507265737320454E5445522033207469FC
:1019F0006D657320746F20737461727420696E74E6
:101A000065726163746976652073657475700A0A1E
:101A10000045524153494E47204C4F4753004E6FAB
:101A20002064617461666C61736820636172642014
:101A3000696E736572746564007573696E672025DD
:101A400075206279746573206F66206D656D6F72A5
:101A5000792028257520726573657473290A006CD6
:101A60006F61645F616C6C20746F6F6B20256C75A7
:101A700075730A00646F6E652E004669726D77613A
:101A80007265206368616E67653A2065726173698B
:101A90006E6720454550524F4D2E2E2E0A000A0AE1
:101AA000496E69742041726475506C616E65205690
:101AB000322E32372053696D756C6174696F6E20F8
:101AC0004D6F64650A0A467265652052414D3A20A1
:101AD00025750A000A0A20526561647920746F2016
:101AE000464C592E0047524F554E442053544152B4
:101AF000540044656D6F20536572766F732100004A
:101B0000407A10F35A00A0724E18090010A5D4E8CC
:101B10000000E87648170000E40B54020000CA9A5F
:101B20003B000000E1F505000080969800000040B1
:101B3000420F000000A086010000001027000000F6
:101B400000E803000000006400000000000A00003C
:101B50000000000100000000002C76D888DC674FF0
:101B60000823DFC1DFAE59E1B1B796E5E3E453C620
:101B70003AE651997696E8E6C28426EB898C9B6218
:101B8000ED407C6FFCEFBC9C9F40F2BAA56FA5F4C2
:101B900090055A2AF75C936B6CF9676DC11BFCE0EA
:101BA000E40D47FEF520E6B500D0ED902E0300943D
:101BB0003577050080841E080000204E0A000000D2
:101BC000C80C333333330F986E12831141EF8D21DC
:101BD00014893BE65516CFFEE6DB18D1844B381B43
:101BE000F77C1D901DA4BBE424203284725E228108
:101BF00000C9F124ECA1E53D276E616E00696E66B7
:101C000000253033753A25733A20006E6F742066D4
:101C10006F756E6400253033753A252D33322E33BF
:101C200032733A2000756E6B6E6F776E2074797028
:101C300065006E6F7420666F756E640025733A20C0
:101C4000006D697373696E67206E616D65206F72D8
:101C50002076616C7565003F3F00256400256400B7
:101C6000256C640025660025660065786974006847
:101C7000656C700044454300434F4D504153535FE2
:101C80000000002100240027002A002D003000332E
:101C90000001010000040107010A010000220025E3
:101CA0000028002B002E0031003400020100000546
:101CB0000108010B01000020002300260029002C50
:101CC000002F003200000100000301060109010598
:101CD000050505070508080808020202020A0A08A5
:101CE00008040404040101010101010101030303CB
:101CF0000303030303040707070C0C0C0C0C0C0C68
:101D00000C0202020206060606060606060B0B0B6E
:101D10000B0B0B0B0B0102102020080810204010A9
:101D2000204080020102010804020101020408109F
:101D300020408080402010080402018004020180BD
:101D400040201008040201080402010102040810E6
:101D500020408001020408102040800000090A028F
:101D6000080B0C0D07060304010000000000000032
:101D70000000000000000000000000000000000063
:101D800000000000000000100F0E00000000000026
:101D90000000000000000000000000000000000043
:101DA00000494E46494E4954594E414ECDCCCC3D4A
:101DB0000AD7233C17B7D13877CC2B329595E62438
:101DC0001FB14F0A000020410000C84200401C46DD
:101DD00020BCBE4CCA1B0E5AAEC59D74B0533FAD5D
:101DE00018B4AB533AAD11241FBECFEFD1E2DEBF22
:101DF000CDBF00E00CBF14E0A0E0B2E0E6EFFAEBEC
:101E000001E00BBF02C007900D92A63CB107D9F7C5
:101E10001BBE16E1A6ECB4E001C01D92AD36B107C1
:101E2000E1F71DE1C2EEDDE104C02297FE010E9450
:101E300058DDCC3DD107C9F70E9424D60C946FDD44
:101E40000C940000283008F027E03327DA01990FBE
:101E5000311D87FD916000966105710539F432608E
:101E60002E5F3D9330E32A95E1F708959F3F30F0D0
:101E700080387105610509F03C5F3C5F3D9391300E
:101E800008F08068911DDF93CF931F930F93FF920B
:101E9000EF92192F987F9695E92F96959695E90FD1
:101EA000FF27E75AF44E99273327EE24FF24A70192
:101EB000E70105900894079428F4360FE71EF81EF2
:101EC000491F511D660F771F881F991F0694A1F7A0
:101ED0000590079428F4E70EF81E491F561FC11DF0
:101EE000770F881F991F661F0694A1F70590079426
:101EF00028F4F80E491F561FC71FD11D880F991FC0
:101F0000661F771F0694A1F70590079420F4490FE8
:101F1000561FC71FD81F990F661F771F881F06946B
:101F2000A9F784911095177041F0D695C7955795EC
:101F30004795F794E7941A95C1F7EFEFFAE16894A3
:101F40001590159135916591959105907FE2739566
:101F5000E118F10A430B560BC90BD009C0F7E10C8D
:101F6000F11E431F561FC91FD01D7EF4703311F49C
:101F70008A95E6CFE894015030F0080F0AF4002764
:101F8000021708F4202F2395022F7A3328F079E3E3
:101F90007D932A95E9F710C07D932A9589F60694DA
:101FA00097956795379517951794E118F10A430BA4
:101FB000560BC90BD00998F023957E9173957A330F
:101FC00008F070E37C932013B8F77E9170617D93E5
:101FD00030F0839571E37D9370E32A95E1F7112446
:101FE000EF90FF900F911F91CF91DF91992787FD7F
:101FF00090950895FA01AA27283051F1203181F1F6
:10200000E8946F936E7F6E5F7F4F8F4F9F4FAF4F00
:10201000B1E03ED0B4E03CD0670F781F891F9A1F13
:10202000A11D680F791F8A1F911DA11D6A0F711DC7
:10203000811D911DA11D20D009F468943F912AE0D3
:10204000269F11243019305D3193DEF6CF010895BB
:10205000462F4770405D4193B3E00FD0C9F7F6CFEC
:10206000462F4F70405D4A3318F0495D31FD4052B4
:10207000419302D0A9F7EACFB4E0A695979587954A
:1020800077956795BA95C9F7009761057105089529
:102090009B01AC010A2E06945795479537952795D5
:1020A000BA95C9F7620F731F841F951FA01D08956D
:1020B000A0E3B0E0EEE5F0E10C941FDDA8E04E01F6
:1020C0000894811C911CF401BA2F1192BA95E9F77A
:1020D00029833A834B835C836D837E838F839887C8
:1020E000CE010996FC011192AA95E9F7A986BA8654
:1020F000CB86DC86ED86FE860F87188B29813A8198
:102100004B815C812DA73EA74FA758AB79018A016F
:102110008FEF9FEFA0E0B0E0E822F9220A231B2313
:102120001A014424552429853A854B855C8529A7C5
:102130003AA74BA75CA759016A01A822B922CA2273
:10214000DB223A0188249924C601B501A801970130
:102150000E949CDC6DA37EA38FA398A7C401B3014A
:102160000E949CDC69A37AA38BA39CA3C601B50142
:10217000A20191010E949CDC7B018C01C401B3018E
:102180000E949CDC5B016C0189A19AA1ABA1BCA15E
:102190008E0D9F1DA01FB11F89A39AA3ABA3BCA343
:1021A0002DA13EA14FA158A5CA01AA27BB2729A14D
:1021B0003AA14BA15CA1280F391F4A1F5B1F29A31D
:1021C0003AA34BA35CA32E153F054007510740F4EB
:1021D00080E090E0A1E0B0E0A80EB91ECA1EDB1EB0
:1021E00089A19AA1ABA1BCA19D01442755272A0D25
:1021F0003B1D4C1D5D1D2D8F3E8F4F8F58A36C01D5
:10220000BB24AA248DA19EA1AFA1B8A5A070B070D7
:10221000A80EB91ECA1EDB1EA98EBA8ECB8EDC8E0E
:102220009A8C8B8C7C8C9E8D6F8D78A1FE01719623
:1022300088E0DF011D928A95E9F72D8B9E8B6F8BCD
:10224000788F2D853E854F8558896DA57EA58FA5F4
:1022500098A90E949CDC7B018C012D813E814F81DD
:10226000588569A57AA58BA59CA50E949CDCE60EE5
:10227000F71E081F191F6D897E898F89988D6E0D35
:102280007F1D801F911F6D8B7E8B8F8B988FEE89AA
:102290002A2D392D482D572D7E2F8F89988DE09628
:1022A000E2E10C943BDD0F931F93CF93DF93689F84
:1022B0008001699F100D789F100D1124C8010DD069
:1022C000EC01009721F060E070E0A80173D1CE012D
:1022D000DF91CF911F910F910895CF93DF93BC01B0
:1022E0008230910510F462E070E0A0916916B0911F
:1022F0006A16ED01E0E0F0E040E050E021C08881A6
:1023000099818617970769F48A819B81309719F024
:102310009383828304C090936A1680936916FE01AA
:1023200034C06817790738F44115510519F084173E
:10233000950708F4AC01FE018A819B819C01E901AB
:102340002097E9F641155105A9F1CA01861B970BA3
:10235000049708F4BA01E0E0F0E02AC08D919C9166
:10236000119784179507F9F46417750781F412968D
:102370008D919C911397309719F09383828304C0B9
:1023800090936A1680936916FD0132964CC0CA017B
:10239000861B970BFD01E80FF91F6193719302975C
:1023A0008D939C9340C0FD01828193819C01D90152
:1023B0001097A1F68091671690916816892B41F4C9
:1023C0008091D4029091D5029093681680936716FD
:1023D0004091D6025091D7024115510541F44DB7B5
:1023E0005EB78091D2029091D302481B590B209185
:1023F000671630916816CA01821B930B86179707E0
:1024000080F0AB014E5F5F4F8417950750F0420F8D
:10241000531F5093681640936716F90161937193A7
:1024200002C0E0E0F0E0CF01DF91CF910895CF93BB
:10243000DF93009709F450C0EC0122971B821A82A7
:10244000A0916916B0916A16109709F140E050E02A
:10245000AC17BD0708F1BB83AA83FE01219131911E
:10246000E20FF31FAE17BF0779F48D919C9111977E
:10247000280F391F2E5F3F4F3983288312968D9185
:102480009C9113979B838A834115510571F4D093D6
:102490006A16C093691620C012968D919C9113976D
:1024A000AD01009711F0DC01D3CFFA01D383C283D1
:1024B00021913191E20FF31FCE17DF0769F4888174
:1024C0009981280F391F2E5F3F4FFA0131832083F6
:1024D0008A819B8193838283DF91CF9108956627C0
:1024E0007727D2C21F93FC0199278827BC01E89463
:1024F00011911032E9F3193010F01E30C8F31B327D
:1025000049F01D3241F4689405C0B0D0610F711DCF
:10251000811D911D119110531A30B8F33EF490951E
:102520008095709561957F4F8F4F9F4F1F910895B4
:10253000FB01DC0102C005900D9241505040D8F7DC
:102540000895FB01DC018D9181341CF08B350CF476
:10255000805E659161341CF06B350CF4605E861B07
:10256000611189F3990B0895FB01DC018D910590B0
:1025700080190110D9F3990B0895FC0105900020F2
:10258000E9F7809590958E0F9F1F0895FC010590A7
:10259000615070400110D8F7809590958E0F9F1F65
:1025A0000895FB01DC0102C001900D9241505040A2
:1025B000D8F70895DC0101C06D9341505040E0F719
:1025C0000895FB01DC018D91019080190110D9F370
:1025D000990B0895FB01DC014150504048F00190F7
:1025E0000D920020C9F701C01D9241505040E0F704
:1025F0000895FC016150704001900110D8F780955A
:1026000090958E0F9F1F0895009731F4DA018D91F8
:102610009C91009709F40EC0DC01FB013D912191D2
:10262000222319F03217C9F3FACF332331F4DA0138
:102630001D921C928827992708951197AF93BF93F5
:10264000FB013D912191321771F4332321F4882746
:102650009927119702C01E921196FA01A193B08397
:102660009F918F910895222369F7EACF592F482F20
:10267000372F262F660F771F881F991F660F771F2A
:10268000881F991F620F731F841F951F660F771F86
:10269000881F991F0895AEE0B0E0E1E5F3E10C94E6
:1026A0002DDD8C0177FF02C060E070E86150704062
:1026B0007E836D831A83098386E08C83CE01019625
:1026C000BA01A90111D02D813E8137FD09C0EF81EA
:1026D000F8852E173F070CF4F901E00FF11F108267
:1026E0002E96E4E00C9449DDABE0B0E0EAE7F3E1DC
:1026F0000C941FDD3C012B015A01FC01178216824C
:10270000838181FD03C06FEF7FEFB9C19AE0892E0D
:102710001E010894211C311CF3012381F20123FDC9
:10272000859123FF81912F01882309F4A5C185326A
:1027300039F423FD859123FF81912F01853221F406
:1027400090E0B30116D3E8CF982FFF24EE2499240C
:10275000FFE1FF15D0F09B3269F09C3228F49032F3
:1027600059F0933291F40EC09D3249F0903369F4E0
:1027700041E024C052E0F52A84E0F82A28C098E01D
:10278000F92A25C0E0E1FE2A22C0F7FC29C0892FE2
:1027900080538A3070F4F6FE05C0989C902C11246A
:1027A000980E15C0E89CE02C1124E80EF0E2FF2AF8
:1027B0000EC09E3229F4F6FC5FC140E4F42A07C043
:1027C0009C3619F450E8F52A02C0983649F4F20113
:1027D00023FD959123FF91912F01992309F0B8CF03
:1027E000892F8554833018F08052833038F444E0C8
:1027F00050E0A40EB51E5FE359830FC0933631F04D
:10280000933779F0933509F052C01FC0F5018081EC
:10281000898342E050E0A40EB51E610101E010E0A2
:1028200011C0F501C080D180F6FC03C06FEF7FEFCF
:1028300002C0692D70E042E050E0A40EB51EC60152
:10284000D8DE8C015FE7F52213C0F501C080D1808E
:10285000F6FC03C06FEF7FEF02C0692D70E042E02D
:1028600050E0A40EB51EC60191DE8C0150E8F52A99
:10287000F3FE06C018C080E290E0B3017AD2EA9479
:102880008E2D90E008171907B0F30DC0F601F7FC84
:102890008591F7FE81916F0190E0B3016AD2E1105A
:1028A000EA94015010400115110581F7E2C09436F9
:1028B00011F0993661F5F7FE08C0F50120813181EC
:1028C0004281538184E090E00AC0F50180819181CA
:1028D0009C01442737FD4095542F82E090E0A80EDC
:1028E000B91E9FE6F92257FF09C0509540953095D3
:1028F00021953F4F4F4F5F4FE0E8FE2ACA01B901D3
:10290000A1012AE030E076DBD82ED2183FC09537FF
:1029100029F41F2D1F7E2AE030E01DC01F2D197FD6
:102920009F3661F0903720F4983509F0A5C00FC0AC
:10293000903739F0983709F09FC004C028E030E0A4
:102940000AC0106114FD146020E130E004C014FDE1
:10295000166020E132E017FF08C0F5016081718147
:102960008281938144E050E008C0F501808191812B
:10297000BC0180E090E042E050E0A40EB51EA10151
:1029800039DBD82ED2188FE7F82EF122F6FE0BC0D5
:102990005EEFF522D91438F4F4FE07C0F2FC05C04E
:1029A0008FEEF82202C01D2D01C0192DF4FE0DC0BE
:1029B000FE01ED0DF11D8081803319F499EEF922AD
:1029C00008C01F5FF2FE05C003C08F2D867809F096
:1029D0001F5F0F2DF3FC13C0F0FE0EC01E1510F08C
:1029E0009D2C0AC09D2C9E0C911A1E2D05C080E2C4
:1029F00090E0B301BED11F5F1E15C8F304C01E15C1
:102A000010F4E11A01C0EE2404FF0EC080E390E050
:102A1000B301AFD102FF1BC001FD03C088E790E006
:102A20000EC088E590E00BC0802F867881F001FF12
:102A300002C08BE201C080E2F7FC8DE290E0B301BE
:102A400098D105C080E390E0B30193D19A94D91452
:102A5000C8F3DA94F101ED0DF11D808190E0B3012E
:102A600088D1DD20B1F705C080E290E0B30181D1CB
:102A7000EA94EE20C9F750CEF30166817781CB014D
:102A80002B96E2E10C943BDDA0E0B0E0EAE4F5E156
:102A90000C9425DDEC015B016115710519F0FB015A
:102AA00091838083F9908F2D90E00E9464DD892BC3
:102AB000C9F7FDE2FF1621F4F990EE24E39405C076
:102AC0002BE2F21609F4F990EE248E010150104029
:102AD000C80161EA7DE143E050E033D1892BF9F48C
:102AE0008E010E5F1F4FC80164EA7DE145E050E0B2
:102AF00028D1892B19F48E01095F1F4FA114B1044D
:102B000019F0F50111830083E0FC04C070E090E04F
:102B100080E813C070E090E080E86FEF07C1C80163
:102B200069EA7DE143E050E00CD1892B69F4A114FE
:102B3000B10429F470E090E080EC6FE7F7C02296D2
:102B4000F501D183C083F6CF8824992440E050E07A
:102B500060E070E0EF2DE053EA30A0F5F2E0EF2AFC
:102B60008E2D90E09C0128703070E2FE06C0232B71
:102B700079F50894811C911C2BC0232B19F0089423
:102B800081089108DB01CA0112E0880F991FAA1F72
:102B9000BB1F1A95D1F7480F591F6A1F7B1F440F9F
:102BA000551F661F771F4E0F511D611D711D48393E
:102BB00029E9520729E9620729E1720748F084E010
:102BC000E82A06C0EE3F31F4E3FC39C098E0E92A78
:102BD000F990C0CFE53311F0E53189F529912D3217
:102BE00019F4E0E1EE2A05C02B3219F081E090E003
:102BF00003C0299182E090E0E22FE053EA3018F020
:102C0000C81BD90B1CC020E030E0FCE020383F0797
:102C10005CF4C901880F991F880F991F280F391F6D
:102C2000220F331F2E0F311DE991E053EA3068F374
:102C3000E4FE03C0309521953F4F820E931ECE2CAB
:102C4000DD24E1FE07C0A114B10421F02197F501B4
:102C5000D183C083CB01BA010E94CBD97B018C0107
:102C6000F3E0CF22DD2423E0C216D10421F417FBC8
:102C7000109517F9109557016801C801B70120E0B8
:102C800030E040E050E00E94FAD8882309F44AC0BE
:102C900097FE0DC020ECE22E2DE1F22E909481944F
:102CA00091089394C0E2D0E000E010E012C098EDEB
:102CB000E92E9DE1F92EF6CFF70125913591459149
:102CC0005491C601B5010E94A7DB5B016C018C1A0F
:102CD0009D0A8C169D0684F7D595C7950F5F1F4FEB
:102CE0000630110529F08CEF9FEFE80EF91EF1CFA9
:102CF000C501D6017C018D018C2D880F8D2D881F7B
:102D00008F3F51F0C601B50120E030E040E050E0D7
:102D10000E94FAD8882331F482E290E090936C16F6
:102D200080936B167E2D9F2D802F612F272F392F9B
:102D3000482F562FB901CA01CDB7DEB7ECE00C948D
:102D400041DDFB01DC014150504088F08D91813420
:102D50001CF08B350CF4805E659161341CF06B3592
:102D60000CF4605E861B611171F3990B0895881B4A
:102D7000FCCF0F931F93CF93DF938C01EB018B81DB
:102D800081FF1BC082FF0DC02E813F818C819D8100
:102D90002817390764F4E881F9810193F983E883FE
:102DA00006C0E885F985802F1995892B31F48E812D
:102DB0009F8101969F838E8302C00FEF1FEFC80192
:102DC000DF91CF911F910F9108959C01F999FECF4A
:102DD00032BD21BDF89A60B5F999FECF2F5F3F4F04
:102DE00032BD21BD21503040F89A70B5F999FECF1F
:102DF0002E5F3F4F32BD21BD22503040F89A80B542
:102E0000F999FECF2D5F3F4F32BD21BDF89A90B5A5
:102E100008959C01F999FECF1FBA32BD21BD40BD76
:102E20000FB6F894FA9AF99A0FBEF999FECF1FBA25
:102E30002F5F3F4F32BD21BD2150304050BD0FB6F6
:102E4000F894FA9AF99A0FBEF999FECF1FBA2E5F3D
:102E50003F4F32BD21BD2250304060BD0FB6F894C7
:102E6000FA9AF99A0FBEF999FECF1FBA2D5F3F4F1C
:102E700032BD21BD70BD0FB6F894FA9AF99A0FBE13
:102E80000895CF93DF93FC01EB014230510570F0C0
:102E9000638574858585968520E030E040E854E4BC
:102EA0000E94A7DB0E949FD97983688382E090E02B
:102EB000DF91CF910895CF93DF93EC01FB01423076
:102EC000510518F420E030E012C06081718180E08B
:102ED00090E00E94CBD920E030E040E85AE30E9425
:102EE000A7DB6B877C878D879E8722E030E0C90156
:102EF000DF91CF91089508950895089560E070E0FE
:102F000080E090E0089560E070E080E090E0089557
:102F100060E070E080E090E0089560E070E080E0C4
:102F200090E0089560E070E080E090E0089560E057
:102F300070E080E090E00895DC01FB0187818C93D4
:102F4000868111968C931197858112968C93129796
:102F5000848113968C931397838114968C93149782
:102F6000828115968C931597818116968C9316976E
:102F7000808117968C9308951F920F920FB60F922F
:102F80000BB60F9211242F933F934F938F939F93E0
:102F9000EF93FF934091C60020912B1430912C1495
:102FA0002F5F3F4F80912F149091301428233923A5
:102FB00080912D1490912E142817390779F0809163
:102FC0002B1490912C14E0913114F0913214E80FED
:102FD000F91F408330932C1420932B14FF91EF9111
:102FE0009F918F914F913F912F910F900BBE0F901A
:102FF0000FBE0F901F9018951F920F920FB60F9251
:103000000BB60F9211242F933F938F939F93EF93BF
:10301000FF9320914D1430914E1480914B14909158
:103020004C1428173907E9F080914D1490914E14F3
:10303000E0915114F0915214E80FF91F80818093B0
:10304000C60080914D1490914E14019620914F141A
:10305000309150148223932390934E1480934D14F7
:1030600010C020914B1430914C1480914D149091CC
:103070004E142817390729F48091C1008F7D809361
:10308000C100FF91EF919F918F913F912F910F90F0
:103090000BBE0F900FBE0F901F9018951F920F92AE
:1030A0000FB60F920BB60F9211242F933F934F93AD
:1030B0008F939F93EF93FF934091CE002091331411
:1030C000309134142F5F3F4F809137149091381412
:1030D0002823392380913514909136142817390705
:1030E00079F08091331490913414E0913914F09177
:1030F0003A14E80FF91F40833093341420933314AB
:10310000FF91EF919F918F914F913F912F910F9050
:103110000BBE0F900FBE0F901F9018951F920F922D
:103120000FB60F920BB60F9211242F933F938F93EC
:103130009F93EF93FF9320915514309156148091F3
:1031400053149091541428173907E9F080915514BD
:1031500090915614E0915914F0915A14E80FF91F08
:1031600080818093CE0080915514909156140196E1
:10317000209157143091581482239323909356141E
:103180008093551410C020915314309154148091A1
:103190005514909156142817390729F48091C900C5
:1031A0008F7D8093C900FF91EF919F918F913F9107
:1031B0002F910F900BBE0F900FBE0F901F90189580
:1031C0001F920F920FB60F920BB60F9211242F93EE
:1031D0003F934F938F939F93EF93FF9340913601CB
:1031E00020914314309144142F5F3F4F8091471436
:1031F00090914814282339238091451490914614C6
:103200002817390779F08091431490914414E09184
:103210004914F0914A14E80FF91F40833093441485
:1032200020934314FF91EF919F918F914F913F9184
:103230002F910F900BBE0F900FBE0F901F901895FF
:103240001F920F920FB60F920BB60F9211242F936D
:103250003F938F939F93EF93FF9320916514309149
:103260006614809163149091641428173907E9F06B
:103270008091651490916614E0916914F0916A143C
:10328000E80FF91F80818093360180916514909139
:103290006614019620916714309168148223932359
:1032A000909366148093651410C02091631430913C
:1032B000641480916514909166142817390729F4D5
:1032C000809131018F7D80933101FF91EF919F912A
:1032D0008F913F912F910F900BBE0F900FBE0F90CB
:1032E0001F901895BF92CF92DF92EF92FF920F93AB
:1032F0001F93C090CB08D090CC08E090CD08F09000
:10330000CE08BB24C701B60120E030E048EC52E40F
:103310000E9401D90E949AD92CE93FEF629F800157
:10332000639F100D729F100D1124C701B60120E09C
:1033300030E040E251E40E9401D90E949AD9060F80
:10334000171F012B11F0BB24B3948B2D1F910F91EC
:10335000FF90EF90DF90CF90BF900895BF92CF92F3
:10336000DF92EF92FF920F931F93C090CB08D09003
:10337000CC08E090CD08F090CE08BB24C701B60180
:1033800020E030E04AE754E40E9401D90E949AD933
:1033900028E13CEF629F8001639F100D729F100D2A
:1033A0001124C701B60120E030E048EC52E40E944D
:1033B00001D90E949AD9060F171F012B11F0BB24C7
:1033C000B3948B2D1F910F91FF90EF90DF90CF90D2
:1033D000BF900895AF92BF92CF92DF92EF92FF928B
:1033E0000F931F938091E9139091EA13A091EB132F
:1033F000B091EC13853E2CE0920720E0A20720E07C
:10340000B2071CF06091920907C08C51934FAF4FE7
:10341000BF4FC4F460918609772767FD709570935C
:10342000BB0C6093BA0C882777FD8095982F0E947B
:10343000CDD96093CE137093CF138093D013909314
:10344000D11362C06091DA137091DB138091DC13A9
:103450009091DD1320E030E048EC52E40E9401D965
:10346000209182083091830840918408509185080A
:103470000E94A7DB20E030E048EC52E40E9401D932
:103480002091CE133091CF134091D0135091D1138E
:103490000E9434D85B016C0160918609772767FD33
:1034A0007095872F972F0E94CDD97B018C01C60183
:1034B000B501A80197010E94FAD887FD15C0609157
:1034C0009209772767FD7095872F972F0E94CDD996
:1034D0007B018C01C601B501A80197010E9433DB75
:1034E000181614F086017501E092CE13F092CF13F6
:1034F0000093D0131093D113C801B7010E949AD939
:103500007093BB0C6093BA0C2091BA0C3091BB0C39
:1035100080918609992787FD9095281739074CF0E7
:1035200080919209992787FD9095281739070CF407
:10353000C9019093BB0C8093BA0C1F910F91FF901F
:10354000EF90DF90CF90BF90AF9008954F925F9231
:103550006F927F928F929F92AF92BF92CF92DF92A3
:10356000EF92FF920F931F93DF93CF93CDB7DEB708
:103570002F970FB6F894DEBF0FBECDBF9A2DA9824C
:10358000EB2DBA82FC2DCB82DC82ED82FE820F8392
:10359000188729873A874B875C876D877E878F8757
:1035A0004C815D816E817F81A884B984CA84DB846B
:1035B0004C845D846E847F8497FE03C020E030E0FD
:1035C0000BC08091F308A82FBB27A7FDB0959401ED
:1035D000A815B9050CF49D01890184E0000F111FA5
:1035E0008A95E1F7021B130B00501C4FE0FD02C04F
:1035F000E0E006C0E0E0232B09F4E1E081E0E82709
:10360000F999FECF1FBA12BD01BD90BD0FB6F89457
:10361000FA9AF99A0FBEC801AA2797FDA095BA2F6A
:103620000196A11DB11DF999FECF1FBA92BD81BDB2
:10363000E0BD0FB6F894FA9AF99A0FBE7C018D019D
:103640000894E11CF11C011D111DF999FECF1FBA50
:10365000F2BCE1BCF0BD0FB6F894FA9AF99A0FBE2D
:103660000894E11CF11C011D111DC701D2DB84E08F
:1036700090E0A0E0B0E0E80EF91E0A1F1B1FC70192
:10368000B601A501C6DB84E090E0A0E0B0E0E80E62
:10369000F91E0A1F1B1FC701B301A201BADB2F9637
:1036A0000FB6F894DEBF0FBECDBFCF91DF911F9153
:1036B0000F91FF90EF90DF90CF90BF90AF909F90D1
:1036C0008F907F906F905F904F900895AF92BF92D0
:1036D000CF92DF92EF92FF920F931F93DF93CF93DE
:1036E000CDB7DEB728970FB6F894DEBF0FBECDBFBB
:1036F0009C0180912F09992787FD90958217930748
:1037000040F4AA24BB24650180E090E0A0E0B0E092
:103710001EC024513E4F93E0220F331F9A95E1F7CC
:10372000790100E010E0C90150DBAC01CB01DA0106
:103730005C016D0184E090E0A0E0B0E0E80EF91ECD
:103740000A1F1B1FC70141DBAC01CB01DA01A982B3
:10375000BA82CB82DC828D839E83AF83B8872A2D89
:103760003A814B815C81682F7E818F819885289674
:103770000FB6F894DEBF0FBECDBFCF91DF911F9182
:103780000F91FF90EF90DF90CF90BF90AF90089592
:103790008091F202882329F48091390B813009F05D
:1037A00046C08091B7129091B812A091B912B09111
:1037B000BA122091490530914A0540914B0550912C
:1037C0004C05821B930BA40BB50B8093E2139093D3
:1037D000E313A093E413B093E5138091E213909167
:1037E000E313A091E413B091E513813526E4920729
:1037F00020E0A20720E0B2072CF0805A9C48A040AD
:10380000B0400CC0803B29EB92072FEFA2072FEFAF
:10381000B20724F480569347AF4FBF4F8093E21313
:103820009093E313A093E413B093E5130895E0910C
:10383000AD12F091AE128091B7129091B812A09192
:10384000B912B091BA12248D358D468D578DB9CFEE
:103850002091EC0B3091ED0B8091120C9091130C98
:10386000281B390B253631051CF08AE08093F712AE
:103870002C593F4F1CF486EF8093F7128091F7127A
:1038800018161CF481508093F7128091F71287FF6D
:1038900003C08F5F8093F7128091F712813019F087
:1038A0008F3F09F080E00895CF93DF93FC01EB0197
:1038B0004430510540F083859485A585B68588837D
:1038C0009983AA83BB8384E090E0DF91CF91089530
:1038D000CF93DF93EC01FB014430510540F0808130
:1038E0009181A281B3818B879C87AD87BE8784E05D
:1038F00090E0DF91CF910895FC0163857485858503
:1039000096850C94CDD9FC01DB01452B11F0838504
:103910008C9381E090E00895DC01FB01452B19F0C8
:1039200080811B968C9381E090E00895FC01638573
:10393000772767FD7095872F972F0C94CDD9FC01C1
:10394000DB014230510520F0838594858D939C9353
:1039500082E090E00895DC01FB014230510530F037
:10396000808191811C969C938E931B9782E090E0BE
:103970000895FC0163857485882777FD8095982FCD
:103980000C94CDD9FC012385348545855685B90134
:10399000CA010895CF93DF93FC01EB014430510538
:1039A00040F083859485A585B68588839983AA830D
:1039B000BB8384E090E0DF91CF910895CF93DF93B4
:1039C000EC01FB014430510540F080819181A281DE
:1039D000B3818B879C87AD87BE8784E090E0DF91C1
:1039E000CF910895EF92FF920F931F937A018B016D
:1039F0008632D9F087322CF4893081F0833181F519
:103A000007C08F36F1F0833721F1893349F513C0B0
:103A1000E12C7BE4F72E012D112D28C060E8E62E65
:103A200065E2F62E012D112D21C0E12C56E9F52E6F
:103A3000012D112D1BC0E12C41EEF42E012D112D75
:103A400015C03CEFE32E31EBF32E31E0032F112DA7
:103A50000DC0E12C22ECF22E21E0022F112D06C028
:103A600086EC94E061E175E10E94379EB701C801E0
:103A70001F910F91FF90EF90089500D00F9286EC68
:103A800094E0EDB7FEB7928381838FE694E0948350
:103A900083830E94179E0F900F900F900F900895B0
:103AA00000D00F9286EC94E0EDB7FEB7928381834D
:103AB0008FEF96E0948383830E94179E0F900F9060
:103AC0000F900F9080E0089500D00F9286EC94E064
:103AD000EDB7FEB79283818386EC98E0948383836D
:103AE0000E94179E80E090E00F900F900F900F9033
:103AF000F999FECF1FBA92BD81BD10BC0FB6F894E4
:103B0000FA9AF99A0FBE0196F0E180309F0781F78B
:103B100000D00F9286EC94E0EDB7FEB792838183DC
:103B200080EC98E0948383830E94179E0F900F90FF
:103B30000F900F9008950F931F938DB79EB70A971C
:103B40000FB6F8949EBF0FBE8DBFEDB7FEB731968E
:103B500006EC14E0ADB7BEB712961C930E93119706
:103B60008FE699E0938382838091050C9091060CF7
:103B7000958384838091120C9091130C9783868394
:103B800080911F0C9091200C918780870E94179E36
:103B9000EDB7FEB73196ADB7BEB712961C930E9334
:103BA00011978CE599E0938382838091680C9091C2
:103BB000690C958384838091750C9091760C978322
:103BC00086838091820C9091830C918780870E94DC
:103BD000179EEDB7FEB73196ADB7BEB712961C93E0
:103BE0000E93119789E499E0938382838091CB0CA3
:103BF0009091CC0C958384838091D80C9091D90CB2
:103C0000978386838091E50C9091E60C918780875D
:103C10000E94179EEDB7FEB73196ADB7BEB71296AC
:103C20001C930E93119786E399E09383828380918E
:103C30002E0D90912F0D9583848380913B0D909153
:103C40003C0D978386838091480D9091490D918713
:103C500080870E94179EEDB7FEB73196ADB7BEB70D
:103C600012961C930E93119783E299E093838283BB
:103C70008091910D9091920D9583848380919E0DFA
:103C800090919F0D978386838091AB0D9091AC0DA1
:103C9000918780870E94179EEDB7FEB73196ADB72A
:103CA000BEB712961C930E93119780E199E093830F
:103CB000828380911A0E90911B0E9583848380914C
:103CC000270E9091280E978386838091340E9091D1
:103CD000350E918780870E94179EEDB7FEB731960B
:103CE000ADB7BEB712961C930E9311978DEF98E067
:103CF000938382838091A30E9091A40E95838483F5
:103D00008091B00E9091B10E978386838091BD0E05
:103D10009091BE0E918780870E94179EEDB7FEB7E7
:103D20003196ADB7BEB712961C930E9311978AEEDB
:103D300098E09383828380912C0F90912D0F95832F
:103D400084838091390F90913A0F97838683809175
:103D5000460F9091470F918780870E94179E8DB7DD
:103D60009EB70A960FB6F8949EBF0FBE8DBF1F91E7
:103D70000F910895CF93DF93FC018DB79EB74497C1
:103D80000FB6F8949EBF0FBE8DBF2DB73EB72F5F05
:103D90003F4F86EC94E0ADB7BEB712969C938E93DE
:103DA000119784E79AE0E9019B838A838689978942
:103DB000A08DB18D8C839D83AE83BF8385A196A199
:103DC000A7A1B0A588879987AA87BB8784A995A949
:103DD000A6A9B7A98C879D87AE87BF87ED5BFF4FEC
:103DE00080819181AA2797FDA095BA2FF901808B38
:103DF000918BA28BB38B0E94179E8DB79EB7449672
:103E00000FB6F8949EBF0FBE8DBFDF91CF9108957E
:103E10008DB79EB740970FB6F8949EBF0FBE8DBF6B
:103E2000EDB7FEB7319686EC94E0ADB7BEB712960B
:103E30009C938E93119780E39BE09383828380E031
:103E400090E0A0E0B0E084839583A683B783808769
:103E50009187A287B38784879587A687B7870E94B3
:103E6000179E8DB79EB740960FB6F8949EBF0FBEB3
:103E70008DBF08958DB79EB740970FB6F8949EBF3B
:103E80000FBE8DBFEDB7FEB7319686EC94E0ADB7AF
:103E9000BEB712969C938E93119783E59BE0938314
:103EA000828380E090E0A0E0B0E084839583A683E5
:103EB000B78380879187A287B38784879587A687F2
:103EC000B7870E94179E8DB79EB740960FB6F8949D
:103ED0009EBF0FBE8DBF089526EC34E0882349F0C5
:103EE00000D00F92EDB7FEB7328321838EED9BE0B9
:103EF00008C000D00F92EDB7FEB7328321838AED60
:103F00009BE0948383830E94179E86EC94E0EDB738
:103F1000FEB79283818383ED9BE0948383830E9429
:103F2000179E0F900F900F900F90089500D00F9252
:103F300086EC94E0EDB7FEB7928381838FE79CE037
:103F4000948383830E94179E0F900F900F900F9081
:103F50000895CF93DF93C6ECD4E0CE016CE374E018
:103F60000E94379E8FE095E00E94A4B9882331F427
:103F7000CE0161E274E00E94379E83C08FE095E03D
:103F80000E9477BC2DB73EB7285030400FB6F8944A
:103F90003EBF0FBE2DBFEDB7FEB73196ADB7BEB772
:103FA0001296DC93CE9311978AEF93E093838283EA
:103FB00080912005848315828091210590912205AE
:103FC000978386830E94179EEDB7FEB73196ADB7F3
:103FD000BEB71296DC93CE9311978EED93E0938348
:103FE000828380912505909126050196958384838F
:103FF0008091230590912405978386830E94179EC4
:104000002DB73EB7285F3F4F0FB6F8943EBF0FBEA7
:104010002DBF60912505709126056F5F7F4F8FE062
:1040200095E00E948FB58FE095E00E949FB6ADB7F6
:10403000BEB71C970FB6F894BEBF0FBEADBFEDB7AD
:10404000FEB731961296DC93CE9311972BEA33E0AC
:1040500033832283648375838683978381E190E22F
:10406000A2E1B8E280879187A287B3870E94179E5A
:104070002DB73EB7245F3F4F0FB6F8943EBF0FBE3B
:104080002DBF80E0DF91CF9108956091F3096150D9
:104090008DEF94E00E94D4B19C018F5893408B59CE
:1040A000944010F08FEF0895C9018F5C94408238DE
:1040B000910510F481E00895C90181559540823839
:1040C000910510F482E00895C901835D954082381E
:1040D000910510F483E00895C90185559640813813
:1040E000910510F484E00895265D364010F480E0D8
:1040F000089585E00895FF920F931F93CF93DF9368
:10410000BCDC68EE73E080E090E00E9439D400D01F
:104110000F9206EC14E0ADB7BEB712961C930E9347
:10412000119783E694E014969C938E9313970E94C4
:10413000179E0F900F900F900F90C80168E070E0ED
:104140004AE050E00E9491D7C6E5D4E0F02E012F5E
:1041500064E170E080E090E00E9439D496DF182F8F
:10416000809117088117E1F000D000D0EDB7FEB7BD
:104170003196ADB7BEB71196FC92119712960C937B
:10418000D383C283148315820E94179E109317084D
:10419000EDB7FEB736960FB6F894FEBF0FBEEDBF73
:1041A00086EC94E00E94989E181619068CF680E022
:1041B000DF91CF911F910F91FF9008958091230976
:1041C000882361F060913B09662341F061508DEFD7
:1041D00094E00E94D4B1885E934058F4E091F512C7
:1041E000F091F612309711F480E00895128280E089
:1041F0000895E091AD12F091AE1280A58823C1F32D
:1042000081E00895AF92BF92CF92DF92EF92FF923A
:104210000F931F93CF93DF93AAE8AA2EA4E0BA2EA0
:10422000F4E8CF2EF4E0DF2E00E010E0E6ECEE2E16
:10423000E4E0FE2E00D000D0EDB7FEB73196ADB76A
:10424000BEB71296FC92EE921197B382A2821583AA
:1042500004830E94179EC0E0D0E08DB79EB70696FB
:104260000FB6F8949EBF0FBE8DBFF999FECFCE0159
:10427000800F911F92BD81BDF89A80B500D000D00B
:10428000EDB7FEB73196ADB7BEB71296FC92EE927F
:104290001197D382C282848315820E94179E219631
:1042A0008DB79EB706960FB6F8949EBF0FBE8DBF12
:1042B000C031D105D1F6C7010E9473D7005F1F4FEF
:1042C00090E10030190709F0B5CF80E0DF91CF9180
:1042D0001F910F91FF90EF90DF90CF90BF90AF9024
:1042E000089500D00F9286EC94E0EDB7FEB792836C
:1042F000818385E698E0948383830E94179E0F90C4
:104300000F900F900F9086EC94E00E94C89EFFEFF4
:104310008F3F9F07C1F38937910529F089359105B2
:1043200011F08FEF0895D0DB80E00895A6DB68EEF2
:1043300073E080E090E00E9439D400D00F9286ECC8
:1043400094E0EDB7FEB79283818380E994E0948393
:1043500083830E94179E0F900F900F900F908AEE0C
:1043600094E00E94989E892B49F08AEE94E00E9486
:10437000C89E682F8AEE94E00E94279F86EC94E006
:104380000E94989E1816190654F780E00895EF923F
:10439000FF920F931F93CF93DF93EC018091F3086B
:1043A000992787FD9095861797073CF48FE0DE01EB
:1043B0001D928A95E9F7188259C0FB01B4E0EE0F0F
:1043C000FF1FBA95E1F7E61BF70BE050FC4FF99998
:1043D000FECFF2BDE1BDF89A80B588839F014427E6
:1043E00037FD4095542F2F5F3F4F4F4F5F4FF99947
:1043F000FECF32BD21BDF89A80B5898379018A014B
:104400000894E11CF11C011D111DF999FECFF2BCAD
:10441000E1BCF89A80B58A830894E11CF11C011D67
:10442000111DC7010E94E5166B837C838D839E83DB
:1044300084E090E0A0E0B0E0E80EF91E0A1F1B1F28
:10444000C7010E94E5166F83788789879A8784E081
:1044500090E0A0E0B0E0E80EF91E0A1F1B1FC701A4
:104460000E94E5166B877C878D879E8788818F35B4
:1044700010F08137B9F4898180FF14C08B819C8151
:10448000AD81BE812091EF113091F0114091F11179
:104490005091F211820F931FA41FB51F8B839C8331
:1044A000AD83BE83CE01DF91CF911F910F91FF901D
:1044B000EF9008958F929F92AF92BF92DF92EF920A
:1044C000FF920F931F93DF93CF93CDB7DEB72F9754
:1044D0000FB6F894DEBF0FBECDBF68EE73E080E08C
:1044E00090E00E9439D42091100B3091110B86EC92
:1044F00094E037FF15C000D00F92ADB7BEB712964B
:104500009C938E9311978FEF94E014969C938E93C7
:1045100013970E94179E0F900F900F900F9020C03E
:1045200000D000D0EDB7FEB73196ADB7BEB712964A
:104530009C938E93119789EE94E093838283C901B3
:1045400064E670E00E94BBDC758364830E94179E62
:10455000EDB7FEB736960FB6F894FEBF0FBEEDBFAF
:1045600000D000D0EDB7FEB7319606EC14E0ADB741
:10457000BEB712961C930E9311978BED94E0938324
:1045800082838091F308992787FD90959583848392
:104590000E94179EEDB7FEB73196ADB7BEB7129623
:1045A0001C930E9311978BEC94E0938382838091FC
:1045B0000B09992787FD9095958384830E94179E08
:1045C000EDB7FEB73196ADB7BEB712961C930E93FA
:1045D000119787EB94E09383828380911709992741
:1045E00087FD9095958384830E94179E86E1882E8F
:1045F00085E0982EFF24EDB7FEB736960FB6F894F7
:10460000FEBF0FBEEDBF5E010894A11CB11CD02EF1
:10461000E12E45C0C501B801BADE8DB79EB74897F7
:104620000FB6F8949EBF0FBE8DBFEDB7FEB73196A3
:10463000ADB7BEB71196DC9211971296EC929382A9
:104640008282158304838981868317828A81808789
:1046500011868B81828713868C819D81AE81BF817B
:1046600084879587A687B78788859985AA85BB851E
:10467000808B918BA28BB38B8C859D85AE85BF85FE
:10468000848B958BA68BB78B0E94179EF394EDB706
:10469000FEB778960FB6F894FEBF0FBEEDBF0F2D94
:1046A00010E08091F308992787FD90958017910776
:1046B0000CF0B0CF80E02F960FB6F894DEBF0FBE9F
:1046C000CDBFCF91DF911F910F91FF90EF90DF90C1
:1046D000BF90AF909F908F900895EF92FF920F93AD
:1046E0001F93CF93DF93C9D968EE73E080E090E029
:1046F0000E9439D49DE5E92E95E0F92E02E515E0FA
:10470000C6ECD4E000D00F92EDB7FEB7D283C183E0
:10471000F482E3820E94179E0F900F900F900F90EB
:1047200089E198E00E948CCE68EB7BE080E090E02D
:104730000E9439D4CE010E94989E18161906F4F0F2
:1047400000D00F92EDB7FEB7D283C18314830383E9
:104750000E94179E0F900F900F900F9089E198E0A4
:104760000E9492CE68EB7BE080E090E00E9439D41A
:10477000CE010E94989E1816190624F680E0DF915B
:10478000CF911F910F91FF90EF900895EF92FF92BC
:104790000F931F9380E00E94F4D4AA2797FDA09561
:1047A000BA2FBC01CD010E94CDD97B018C01609153
:1047B0007C0B70917D0B80917E0B90917F0B20E0A4
:1047C00030E040E85AE30E94A7DB9B01AC01C8013E
:1047D000B7010E94A7DB20915E0B30915F0B4091E7
:1047E000600B5091610B0E94A7DB2DEC3CEC4CEC74
:1047F0005DE30E94A7DB7B018C016091D90270917F
:10480000DA028091DB029091DC0226E636E646E68B
:104810005FE30E94A7DB9B01AC01C801B7010E94C6
:1048200034D86093D9027093DA028093DB029093BC
:10483000DC0281E00E94F4D4AA2797FDA095BA2F4C
:10484000BC01CD010E94CDD97B018C0160917C0B14
:1048500070917D0B80917E0B90917F0B20E030E07A
:1048600040E85AE30E94A7DB9B01AC01C801B701F5
:104870000E94A7DB20915E0B30915F0B4091600B93
:104880005091610B0E94A7DB2DEC3CEC4CEC5DE3FE
:104890000E94A7DB7B018C016091DD027091DE023A
:1048A0008091DF029091E00226E636E646E65FE37D
:1048B0000E94A7DB9B01AC01C801B7010E9434D85C
:1048C0006093DD027093DE028093DF029093E0023A
:1048D00082E00E94F4D4AA2797FDA095BA2FBC01CC
:1048E000CD010E94CDD97B018C0160917C0B709130
:1048F0007D0B80917E0B90917F0B20E030E040E8B3
:104900005AE30E94A7DB9B01AC01C801B7010E94DA
:10491000A7DB20915E0B30915F0B4091600B5091B3
:10492000610B0E94A7DB2DEC3CEC4CEC5DE30E949C
:10493000A7DB7B018C016091E1027091E202809122
:10494000E3029091E40226E636E646E65FE30E9443
:10495000A7DB9B01AC01C801B7010E9434D860936A
:10496000E1027093E2028093E3029093E40283E019
:104970000E94F4D4AA2797FDA095BA2FBC01CD01BF
:104980000E94CDD97B018C0160917C0B70917D0BD5
:1049900080917E0B90917F0B20E030E040E85AE35D
:1049A0000E94A7DB9B01AC01C801B7010E94A7DBF5
:1049B00020915E0B30915F0B4091600B5091610B29
:1049C0000E94A7DB2DEC3CEC4CEC5DE30E94A7DBE6
:1049D0007B018C016091E5027091E6028091E70213
:1049E0009091E80226E636E646E65FE30E94A7DB02
:1049F0009B01AC01C801B7010E9434D87B018C0136
:104A0000CB01D8018093E5029093E602A093E702E0
:104A1000B093E8022091520B213049F48091E102D9
:104A20009091E202A091E302B091E40204C022302E
:104A300059F4C701D8018093E9029093EA02A09348
:104A4000EB02B093EC0290C0233019F0243009F04F
:104A50008BC08091D9029091DA02A091DB02B091D3
:104A6000DC028093E9029093EA02A093EB02B093F8
:104A7000EC02243009F078C081E00E94F4D4AA2727
:104A800097FDA095BA2FBC01CD010E94CDD97B0125
:104A90008C0160917C0B70917D0B80917E0B9091CD
:104AA0007F0B20E030E040E85AE30E94A7DB9B0147
:104AB000AC01C801B7010E94A7DB20916D0B3091BA
:104AC0006E0B40916F0B5091700B0E94A7DB2DEC89
:104AD0003CEC4CEC5DE30E94A7DB7B018C01609118
:104AE000FB117091FC118091FD119091FE1126E651
:104AF00036E646E65FE30E94A7DB9B01AC01C801F6
:104B0000B7010E9434D87B018C016093FB11709334
:104B1000FC118093FD119093FE116091031270E0DF
:104B200080E090E00E94CBD99B01AC01C801B701A5
:104B30000E94A7DB27E830EC41E959E30E94A7DB9C
:104B40009B01AC016091FF117091001280910112E4
:104B5000909102120E9434D86093FF11709300125A
:104B600080930112909302121F910F91FF90EF908A
:104B70000895CF93DF938091520B18160CF065C007
:104B800084300CF062C0C0E0D0E064E170E080E00E
:104B900090E00E9439D4FADD2196C035D105A9F7FD
:104BA0008DB79EB744970FB6F8949EBF0FBE8DBFCA
:104BB000EDB7FEB7319686EC94E0ADB7BEB712966E
:104BC0009C938E93119784E795E0938382838091E1
:104BD000D9029091DA02A091DB02B091DC028483C9
:104BE0009583A683B7838091DD029091DE02A09128
:104BF000DF02B091E00280879187A287B38780911E
:104C0000E1029091E202A091E302B091E402848774
:104C10009587A687B7878091E5029091E602A091DB
:104C2000E702B091E802808B918BA28BB38B0E943C
:104C3000179EEDB7FEB774960FB6F894FEBF0FBE81
:104C4000EDBF80E0DF91CF91089500D00F9286EC08
:104C500094E0ADB7BEB712969C938E93119787E6FA
:104C600095E014969C938E9313970E94179E0F9035
:104C70000F900F900F90E5CFCF93DF93EC0107C01B
:104C8000219786EC94E060E072E00E9488D71C16C1
:104C90001D06B4F3DF91CF910895FF920F931F93F8
:104CA000F62E00D000D0EDB7FEB7319606EC14E03A
:104CB000ADB7BEB712961C930E93119722E23BE05C
:104CC00033832283848315820E94179E8DB79EB7FB
:104CD00006960FB6F8949EBF0FBE8DBFEF2DF0E085
:104CE000EE0FFF1FE15EFC4F60817181C8010E94E1
:104CF00088D71F910F91FF900895EF92FF920F9325
:104D00001F93CF93DF9331EEE32E3BE0F32EC0E011
:104D1000D0E006EC14E000D00F92EDB7FEB712839E
:104D20000183F482E3820E94179E21960F900F90D8
:104D30000F900F90C832D10571F7C80160E072E0A2
:104D40000E9488D7DF91CF911F910F91FF90EF9034
:104D5000089500D00F9286EC94E0EDB7FEB79283F1
:104D6000818383EE98E0948383830E94179E0F9043
:104D70000F900F900F90C1DF0E949B1D82E090E08A
:104D80007BCFCF93DF9300D00F92C6ECD4E0EDB78A
:104D9000FEB7D283C18382EF99E0948383830E941C
:104DA000179E0F900F900F900F90A7DF8091520BDE
:104DB000882381F400D00F92EDB7FEB7D283C18370
:104DC00089ED99E0948383830E94179E0F900F9042
:104DD0000F900F908091520B813091F400D00F9280
:104DE00086EC94E0EDB7FEB79283818387EC99E07F
:104DF000948383830E94179E0F900F900F900F90C3
:104E00008091520B823091F400D00F9286EC94E0A6
:104E1000EDB7FEB79283818385EB99E0948383831A
:104E20000E94179E0F900F900F900F908091520B41
:104E3000833091F400D00F9286EC94E0EDB7FEB78A
:104E4000928381838FE999E0948383830E94179EE4
:104E50000F900F900F900F908091520B843091F42F
:104E600000D00F9286EC94E0EDB7FEB79283818379
:104E700082E899E0948383830E94179E0F900F909D
:104E80000F900F9082E090E0F7DEDF91CF910895D0
:104E90000F931F9300D00F9206EC14E0EDB7FEB70E
:104EA000128301838DE69AE0948383830E94179E88
:104EB0000F900F900F900F9020DF00D00F92EDB762
:104EC000FEB71283018380E69AE0948383830E9475
:104ED000179E0F900F900F900F9082EE9FE00E9410
:104EE000BA1E00D00F92EDB7FEB71283018382E5A0
:104EF0009AE0948383830E94179E0F900F900F90E7
:104F00000F9083E390E10E94BA1E00D00F92EDB79C
:104F1000FEB71283018383E49AE0948383830E9423
:104F2000179E0F900F900F900F9085ED90E10E94CB
:104F3000BA1E00D00F92EDB7FEB71283018388E34B
:104F40009AE0948383830E94179E0F900F900F9096
:104F50000F9081E99FE00E94BA1E00D00F92EDB73A
:104F6000FEB71283018383E29AE0948383830E94D5
:104F7000179E0F900F900F900F9084E890E10E9481
:104F8000BA1E00D00F92EDB7FEB71283018380E105
:104F90009AE0948383830E94179E0F900F900F9046
:104FA0000F9086E291E10E94BA1E00D00F92EDB7F9
:104FB000FEB71283018380E09AE0948383830E948A
:104FC000179E0F900F900F900F9087E791E10E942E
:104FD000BA1E82E090E050DE1F910F9108950F936A
:104FE0001F9300D00F9206EC14E0ADB7BEB7129637
:104FF0001C930E9311978AEB9AE014969C938E93D0
:1050000013970E94179E0F900F900F900F9075DED0
:10501000EDB7FEB73A970FB6F894FEBF0FBEEDBFDF
:105020003196ADB7BEB712961C930E9311978AE9CD
:105030009AE0938382838091A0089091A108A09127
:10504000A208B091A30884839583A683B783809137
:10505000AF089091B008918780870E94179EEDB7A6
:10506000FEB73A960FB6F894FEBF0FBEEDBF82E0D2
:1050700090E002DE1F910F9108950F931F9300D0CF
:105080000F9206EC14E0ADB7BEB712961C930E93C8
:1050900011978AE09BE014969C938E9313970E943D
:1050A000179E0F900F900F900F9027DEEDB7FEB771
:1050B0003E970FB6F894FEBF0FBEEDBF3196ADB769
:1050C000BEB712961C930E93119786EC9AE09383C9
:1050D000828380918609992787FD909595838483A3
:1050E00080919209992787FD909597838683809177
:1050F000C309992787FD9095918780878091AA0998
:10510000992787FD9095938782878091B609909122
:10511000B709958784870E94179EEDB7FEB73E9624
:105120000FB6F894FEBF0FBEEDBF82E090E0A4DDA5
:105130001F910F9108951F93CF93DF9300D00F928B
:1051400086EC94E0EDB7FEB79283818384E19BE027
:10515000948383830E94179E0F900F900F900F905F
:10516000CCDDCFEFD9E010E0812F688196DD2C9661
:105170001F5F1630C9F782E090E07EDDDF91CF91AE
:105180001F91089500D00F9286EC94E0EDB7FEB722
:10519000928381838BE29BE0948383830E94179E9A
:1051A0000F900F900F900F90A8DD0E94081F0E9493
:1051B0003A1F82E090E060CDDF93CF9300D0CDB76F
:1051C000DEB720911A03298323E02A8322E02B8370
:1051D00060E0AE014F5F5F4F23E00E94D5CE0F909D
:1051E0000F900F90CF91DF9108956F927F928F92E1
:1051F0009F92AF92BF92CF92DF920F931F93DF9354
:10520000CF93CDB7DEB76B970FB6F894DEBF0FBE66
:10521000CDBF3C014B018091D802863011F187301F
:1052200048F4813079F1813098F08230A9F08530EE
:1052300089F414C08C3001F18D3028F48A30B1F03B
:105240008B3041F416C08F3079F0803119F417C0DB
:1052500012E019C010E017C015E015C016E001E01B
:1052600013C016E002E010C013E00DC014E003E02C
:105270000BC014E005E008C014E008E005C010E031
:1052800000E002C017E004E060918B0B70918C0B82
:10529000882777FD8095982F0E94CDD96C8B7D8BC8
:1052A0008E8B9F8B2091FF11309100124091011243
:1052B000509102120E9433D820E030E04AE754E4D3
:1052C0000E94A7DB2C893D894E895F890E9401D904
:1052D0000E949FD95B016C016091E9027091EA0222
:1052E0008091EB029091EC0220E030E04AE754E438
:1052F0000E94A7DB0E949FD9688F798F8A8F9B8F2E
:1053000060919A1270919B1280919C1290919D12C3
:1053100020E030E04AE754E40E94A7DB0E949FD9D6
:105320007A836983888D998D9C838B83BE82AD82BD
:1053300098868F8219870A8784E08B878A818C8779
:1053400089818D878C818E878B818F878E81888BD9
:105350008D81898B88858A8B8F818B8BC30162E2DB
:10536000AE01475F5F4F2BE00E94D5CE6B960FB624
:10537000F894DEBF0FBECDBFCF91DF911F910F918B
:10538000DF90CF90BF90AF909F908F907F906F9065
:1053900008952F923F924F925F926F927F928F92D9
:1053A0009F92AF92BF92CF92DF92EF92FF920F93B4
:1053B0001F93DF93CF93CDB7DEB7CE54D0400FB657
:1053C000F894DEBF0FBECDBF2F969FAF8EAF2F9745
:1053D000DE019596ECE5F5E084E201900D928150B6
:1053E000E1F72091A9123091AA124091AB1250918D
:1053F000AC122D962CAF3DAF4EAF5FAF2D97009105
:10540000AD121091AE12D80154966D917D918D918F
:105410009C9157972AE030E040E050E00E949CDCED
:105420001B012C01F801608D718D828D938D0E947E
:10543000CDD97B018C012DA13EA14FA158A50E9481
:10544000A7DB0E949AD93B014C01C801B70129A9E9
:105450003AA94BA95CA90E94A7DB0E949AD95B01DB
:105460006C01C801B701FE01FD96208131814281A6
:1054700053810E94A7DB0E949AD92091A5123091F6
:10548000A6124091A7125091A8122F8338874987FE
:105490005A872D962CAD3DAD4EAD5FAD2D972B8728
:1054A0003C874D875E872F86388A498A5A8A7A8256
:1054B0006982BC82AB827E836D83FE0137968381D5
:1054C0008B8B82818C8B81818D8B8F818E8BFE016A
:1054D0003B9683818F8B8281888F8181898F8B8599
:1054E0008A8FFE013F9683818B8F82818C8F818191
:1054F0008D8F8F858E8F8A818F8F898188A38C81F4
:1055000089A38B818AA38E818BA38D818CA32F96F7
:105510008EAD9FAD2F9769E4AE014D5E5F4F22E1E6
:105520000E94D5CEC25BDF4F0FB6F894DEBF0FBE30
:10553000CDBFCF91DF911F910F91FF90EF90DF9042
:10554000CF90BF90AF909F908F907F906F905F9023
:105550004F903F902F9008952F923F924F925F92DD
:105560006F927F928F929F92AF92BF92CF92DF9273
:10557000EF92FF920F931F93DF93CF93CDB7DEB7D8
:10558000EE970FB6F894DEBF0FBECDBF9AAF89AFCE
:105590006091B3127091B4128091B5129091B612CD
:1055A0000E94CDD920E030E048EC52E40E9401D9BD
:1055B0003B014C016091B7127091B8128091B91201
:1055C0009091BA120E94CDD920E030E048EC52E42C
:1055D0000E9401D90E949AD96BAF7CAF8DAF9EAF6C
:1055E0006091BB127091BC128091BD129091BE125D
:1055F0000E94CDD920E030E048EC52E40E9401D96D
:105600000E949AD91B012C014090BF125090C012E9
:105610006091C3127091C4128091C5129091C6120C
:105620000E94CDD920E030E048EC52E40E9401D93C
:105630007B018C016091C7127091C8128091C912D0
:105640009091CA120E94CDD920E030E048EC52E49B
:105650000E9401D95B016C018091CB129091CC1218
:10566000A091CD12B091CE128DAB9EABAFABB8AFC7
:105670006091AF127091B0128091B1129091B212FC
:105680000E94CDD920E030E048EC52E40E9401D9DC
:105690006F83788789879A87C301D4018B879C871A
:1056A000AD87BE87ABADBCADBA83A9833C822B82EC
:1056B0005E824D82C701D8018F87988BA98BBA8BE8
:1056C000C501D6018B8B9C8BAD8BBE8B8DA99EA902
:1056D000AFA9B8AD8F8B988FA98FBA8FFE0137967F
:1056E00083818B8F82818C8F81818D8F8F818E8F33
:1056F000FE013B9683818F8F828188A3818189A35C
:105700008B858AA38A818BA389818CA38C818DA3AD
:105710008B818EA38E818FA38D8188A7FE013F96FA
:10572000838189A782818AA781818BA78F858CA796
:10573000FE01739683818DA782818EA781818FA7B9
:105740008B8988ABFE017796838189AB82818AAB96
:1057500081818BAB8F898CAB89AD9AAD6EE3AE0145
:10576000455E5F4F2AE10E94D5CEEE960FB6F894C3
:10577000DEBF0FBECDBFCF91DF911F910F91FF9084
:10578000EF90DF90CF90BF90AF909F908F907F90E1
:105790006F905F904F903F902F900895CF92DF923F
:1057A000EF92FF920F931F93DF93CF93CDB7DEB7A6
:1057B000A1970FB6F894DEBF0FBECDBF40914F0C3E
:1057C0005091500C6091B20C7091B30CE091150D9A
:1057D000F091160DA091780DB091790D0091010E08
:1057E0001091020EE0908A0EF0908B0EC090130F75
:1057F000D090140F2091EC0B3091ED0B3A8329835C
:105800005C834B837E836D83F887EF83BA87A98798
:105810001C870B87FE86ED86D88ACF862A81298B46
:1058200029812A8B2C812B8B2B812C8B2E812D8BEC
:105830002D812E8B28852F8B2F81288F2A85298FCC
:1058400029852A8F2C852B8F2B852C8F2E852D8FAC
:105850002D852E8F28892F8F2F8528A321E029A31E
:1058600063E2AE014F5E5F4F21E10E94D5CEA1966B
:105870000FB6F894DEBF0FBECDBFCF91DF911F9161
:105880000F91FF90EF90DF90CF900895CF92DF922D
:10589000EF92FF920F931F93DF93CF93CDB7DEB7B5
:1058A000A0970FB6F894DEBF0FBECDBF40915B0C42
:1058B00050915C0C6091BE0C7091BF0CE091210D79
:1058C000F091220DA091840DB091850D00910D0EE7
:1058D00010910E0EE090960EF090970EC0901F0F54
:1058E000D090200F2091F80B3091F90B3A83298347
:1058F0005C834B837E836D83F887EF83BA87A987A8
:105900001C870B87FE86ED86D88ACF862A81298B55
:1059100029812A8B2C812B8B2B812C8B2E812D8BFB
:105920002D812E8B28852F8B2F81288F2A85298FDB
:1059300029852A8F2C852B8F2B852C8F2E852D8FBB
:105940002D852E8F28892F8F2F8528A365E2AE0104
:105950004F5E5F4F20E10E94D5CEA0960FB6F8941F
:10596000DEBF0FBECDBFCF91DF911F910F91FF9092
:10597000EF90DF90CF900895DF93CF9300D00F92F8
:10598000CDB7DEB72091FF08332727FD30953A8346
:1059900029832A812B8329812C836AE2AE014D5F02
:1059A0005F4F22E00E94D5CE0F900F900F900F9086
:1059B000CF91DF9108950F931F93DF93CF93CDB7CE
:1059C000DEB72E970FB6F894DEBF0FBECDBF8C01A9
:1059D0000E94DE20882361F1E091F512F091F61229
:1059E000309731F1628175812681378140855185FB
:1059F000838194819A8389832B833C834D835E8347
:105A00006F838A818887898189877A87FE013396A7
:105A100083818B8782818C8781818D878B818E8723
:105A2000C80162EAAE01495F5F4F28E00E94D5CE0F
:105A30002E960FB6F894DEBF0FBECDBFCF91DF918B
:105A40001F910F910895DF93CF9300D000D0CDB771
:105A5000DEB7FC0187898823E9F04089518980916C
:105A6000F308992787FD90958417950798F083850B
:105A70009485228934895A8349832B833C832A81E4
:105A80002D8329812E8368E2AE014D5F5F4F24E0B4
:105A90000E94D5CE26960FB6F894DEBF0FBECDBFBE
:105AA000CF91DF910895EF92FF920F931F93DF93B1
:105AB000CF93CDB7DEB728970FB6F894DEBF0FBEF1
:105AC000CDBF7C0100916716109168160E94F4D139
:105AD0001A8309839C838B838A818D8389818E833A
